S0100000534D536E6F6465312E737265634A
S315100080000D480E4910B50023884201D10C4B07E0EC
S315100080100C4CCA18A242F9D2C45804331460F7E7BC
S31510008020094A934202D2002204C3F9E7074B984744
S31510008030074B984710BDC04680FD001080FD00100C
S31510008040ECFD0010ECFD0010B4190110ADEF00109E
S3151000805029AA001010B5064C2378002B07D1054B22
S31510008060002B02D0044800E000BF0123237010BD8E
S31510008070ECFD00100000000080FD001008B5084B54
S31510008080002B03D00748084900E000BF07480368E3
S31510008090002B00D108BD064B002BFBD09847F9E703
S315100080A00000000080FD0010F0FD001080FD0010A3
S315100080B00000000008B50C4B1A7D002A06D00122DC
S315100080C01A730A4B1B68002B00D09847084B1B7875
S315100080D0002B07D00122074B1A70074B1B68002B89
S315100080E000D0984708BDC0460010004008FE00109A
S315100080F0341000402C1000400CFE00100222012308
S315100081004270427300220370037383708373C270CC
S31510008110C273037103748260426102767047000075
S3151000812080235B42002805D105490A7A1343DBB246
S315100081300B7204E003490A781343DBB20B707047E5
S3151000814000100040281000407F23002804D1054A63
S31510008150117A0B40137203E0034A11780B40137027
S315100081607047C046001000402810004070B5041C2F
S315100081703A4B042098472378002B02D1237B002BFF
S315100081800DD0202236493020CB681343CB60032311
S31510008190227E13401A018B69834313438B6100239C
S315100081A022789A4226D062780133002A03D0931E91
S315100081B0594259418B010C20E178227989000140FE
S315100081C00D1CA1780A384900014029430B43002AA7
S315100081D001D020221343C4200126A168214A204D34
S315100081E0116040001372295C314329548021107AA2
S315100081F001431172227B002A2AD0627B002A05D005
S31510008200012A05D0022A04D1402302E0012300E00E
S3151000821000230C21E27B92000A40101CA27B0A3933
S3151000822052000A4002431343227C002A01D0202226
S31510008230134361690B4A022011620B4A08491370F5
S31510008240C42252008B5C03438B540138074B98476A
S315100082501E200749074B984770BDC046BD890010C0
S3151000826000B000400010004028100040218100108E
S31510008270B5800010458D0010024B002800D0024B2F
S315100082801960704708FE00100CFE0010002370B530
S31510008290134C2168088F80B201252E1C9E40304257
S315100082A013D00A8F324392B20A87221C0832D28F19
S315100082B01A412A420CD0A21DD28F1A412A4207D047
S315100082C09B00E3185B68984702E00133102BE3D15B
S315100082D08021C023034A09045B00D15070BDC046FB
S315100082E03005011000E100E070B50024164DAB6CAE
S315100082F01E8FB6B2730B01D0144B98470122101C77
S31510008300A040064216D0A96C0B8F03439BB20B8775
S315100083102B1C8E331B88234113420BD02B1C8C3302
S315100083201B882341134205D01234A4002C1963680C
S31510008330984702E00134102CDCD18021C023044A76
S3151000834049045B00D15070BD3005011051BC0100CD
S3151000835000E100E000230122037042708370C370B5
S3151000836070470000031C30B51720012B00D895E08C
S315100083700E2B00D192E0072B07D89D001038A8408D
S31510008380474C626C8243626416E00F2B09D80722B1
S315100083901C1C1440A400A240414DA86C9043A86434
S315100083A00AE0172B08D807221C1C1440A400A24070
S315100083B03B4DE86C9043E8641A1C1D3A022A25D8F6
S315100083C04C78384A1F20012C05D1C01A8440157DDF
S315100083D0A543281C06E00125C01A8540281C147DDB
S315100083E02043C0B21075C97800293ED01F20C31A89
S315100083F09B001E389840031C11880B4302219BB228
S315100084001380294A13780B4313702EE00A78002A3A
S315100084102DD101320F2B03D89A40244892B204E092
S315100084200F2018408240224892B282824878012852
S3151000843015D000280BD002282FD101209840184AB9
S31510008440516D01435165116D814311650DE0012197
S3151000845099400B1C124C226D134323651EE01049E4
S3151000846098400A6D131C83430B65002016E0012A01
S31510008470FBD10F2B07D89A40131C0C49088A0343CB
S315100084809BB20B82F1E70F2003409A40131C084C55
S31510008490218A0B439AB22282E7E7172030BDC046E5
S315100084A000B0004000F0004000E000400000014035
S315100084B00010014010B50F280ED80F4C01220029CC
S315100084C004D0131C8340A1880B430FE0131C834078
S315100084D0A18899430B1C0DE00F23034001209840FF
S315100084E0064C031CA288002902D013439BB201E05C
S315100084F08243131CA38010BD0000014000100140F0
S3151000850070B50D0AC9B2072822D8072683009E40E7
S315100085103A4C626CB2430E1C9E40331C6264626C11
S3151000852013436364012968D103280CD8A031FF31A5
S315100085306358C0003F2285408240281C93436350F5
S315100085406258104358E0D22149006358032243E091
S315100085500F2828D80722031C13409B009A40274C4B
S31510008560A66C9643A6640E1C9E40331CA26C134345
S31510008570A364012941D103230B2805D8D42218401E
S315100085805200A158984004E0D62252001840A15833
S31510008590C0003F2385408340281C9943A150A3580F
S315100085A01843A05029E0172827D80722031C134088
S315100085B09B009A40114CE66C9643E6640E1C9E4056
S315100085C0331CE26C1343E364012916D103221328EA
S315100085D005D8B031FF31635810409040AAE71040DB
S315100085E0C2003F20DA219040490063588343281C7B
S315100085F09040635063581843605070BD00B00040FF
S31510008600F0B50F248442A441051C6442032A3ED8C7
S31510008610101C4823284A634305F012FC020E1A2A3E
S31510008620D058868D0F202840071C0120B840D758F7
S3151000863080B20643BE8526E0D058868D0F2028408E
S31510008640071C0120B840D75880B20643BE850AE001
S31510008650D058068D0F202840071C0120B840D75847
S3151000866080B206433E85D258138E184310860EE00C
S31510008670D058068D0F202840071C0120B840D75827
S3151000868080B206433E85D258938E184390860F23A8
S315100086901D4003336343084A5B199B00D318596086
S315100086A048235C43473BAB401D1C14190634E38F2B
S315100086B01D43E587F0BDC046300501100F228242EA
S315100086C09B4102400120904048225B42534310B523
S315100086D0054C80B2E2180832D18F0143D1871A595E
S315100086E0138C1843108410BD30050110002110B5ED
S315100086F00022114BC818043142604029F8D1191CC8
S315100087000831CA87991DCA87002198180432C16496
S31510008710402AF9D11A1C8E3211801A1C8C32118003
S31510008720064A074C1A60074A27209A640649A0474A
S3151000873028200649A04710BD300501100000014051
S31510008740458D0010001001408D820010E982001046
S3151000875001280DD0002806D0022829D10C20154A50
S315100087609369834315E00C20124A9369034310E082
S315100087700820104B9A6902439A619A690438824319
S3151000878080209A610C4A00035368034353600B4AD6
S3151000879001E093610A4A0B4B1A600322054B986954
S315100087A09043986198690A4002439A61002000E05C
S315100087B01720704700B0004000F0004080841E0073
S315100087C080BA8C01C0050110014B18687047C0466D
S315100087D0C005011000B51723352800D9EAE0764BFD
S315100087E005F02EFB1B1E2126292C2F33373B3F432A
S315100087F0474B4F53575B5F63676B6F73777B7F8313
S3151000880086898C8F9295989B9FA3A7ABAFB3B7BB66
S31510008810BFC3C7CBCFD3D7DDE0E3DA68022104E0CC
S31510008820DA68042101E00821DA680A43DA60C0E058
S31510008830DA681021F9E7DA682021F6E7DA6880218C
S31510008840F3E78021DA684900EFE78021DA68090149
S31510008850EBE78021DA684901E7E78021DA688901C8
S31510008860E3E78021DA68C901DFE78021DA680902C7
S31510008870DBE78021DA684902D7E78021DA688902C6
S31510008880D3E78021DA68C902CFE78021DA680903C5
S31510008890CBE78021DA684903C7E78021DA688903C4
S315100088A0C3E78021DA68C903BFE78021DA680904C3
S315100088B0BBE78021DA684904B7E78021DA688904C2
S315100088C0B3E78021DA68C904AFE78021DA680905C1
S315100088D0ABE78021DA684905A7E78021DA688905C0
S315100088E0A3E78021DA68C9059FE71A69012153E0D9
S315100088F01A69022150E01A6904214DE01A6908210B
S315100089004AE01A69102147E01A69202144E01A69E1
S31510008910402141E01A6980213EE080211A69490010
S315100089203AE080211A69890036E080211A69C90067
S3151000893032E080211A6909012EE080211A69490165
S315100089402AE080211A69890126E080211A69C90165
S3151000895022E080211A6909021EE080211A69490263
S315100089601AE080211A69890216E080211A69C90263
S3151000897012E080211A6909030EE080211A69490361
S315100089800AE080211A69890306E080211A69C90361
S3151000899002E080211A6909040A431A6109E01A7D66
S315100089A0012104E01A7D022101E004211A7D0A4307
S315100089B01A750023181C00BD00B0004000B54328EE
S315100089C000D98CE105F046FA480055005D006500B7
S315100089D0400177008000AD00B600890092009B0030
S315100089E0A400BF008B018B018B018B018B018B01C6
S315100089F08B018B01FE00070110014401D1008B0190
S31510008A008B018B018B018B018B01190122012B012B
S31510008A1035018B016D0176018B018B0150015401DB
S31510008A2058015C018B018B018B018B018B018B0132
S31510008A308B018B0144004C00590061006E00C80088
S31510008A40DA00E300EC00F5004C01600164018201DC
S31510008A50A44B0220596806E0A24B0420596802E094
S31510008A600820A04B5968814359605A6802435A60DE
S31510008A702AE19C4B10205968F5E79A4B202059683B
S31510008A80F1E7984B40205968EDE7964B80205968DE
S31510008A90E9E7944B944A59680A4080215A605A680B
S31510008AA04900C4E08F4B914A59680A4080215A60A8
S31510008AB05A688900BBE08B4B8D4A59680A40802161
S31510008AC05A605A68C900B2E0864B8A4A59680A4009
S31510008AD080215A605A680901A9E0824B864A596872
S31510008AE00A4080215A605A684901A0E07D4B834AAA
S31510008AF059680A4080215A605A68890197E0794B73
S31510008B007F4A59680A4080215A605A68C9018EE026
S31510008B10744B7C4A59680A4080215A605A68090287
S31510008B2085E0704B784A59680A4080215A605A6825
S31510008B3049027CE06B4B754A59680A4080215A609D
S31510008B405A68890273E0674B714A59680A40802156
S31510008B505A605A68C9026AE0624B6E4A59680A40FE
S31510008B6080215A605A68090361E05E4B6A4A596867
S31510008B700A4080215A605A68490358E0594B674A9F
S31510008B8059680A4080215A605A6889034FE0554B4C
S31510008B90634A59680A4080215A605A68C90346E0F8
S31510008BA0504B604A59680A4080215A605A68090435
S31510008BB03DE04C4B5C4A59680A4080215A605A681D
S31510008BC0490434E0474B594A59680A4080215A6093
S31510008BD05A6889042BE0434B554A59680A4080214C
S31510008BE05A605A68C90422E03E4B524A59680A40F4
S31510008BF080215A605A68090519E03A4B4E4A59685D
S31510008C000A4080215A605A68490510E0354B4B4A94
S31510008C1059680A4080215A605A68890507E0314B25
S31510008C20474A59680A4080215A605A68C9050A435A
S31510008C301DE780212B4A090653685B005B085360C9
S31510008C4053680B4353603FE0264B0120198902E01D
S31510008C500220244B1989814319811A89024332E073
S31510008C60204B04201989F6E71E4B08201989F2E7D4
S31510008C701C4B10201989EEE71A4B20201989EAE7B8
S31510008C80184B40201989E6E7164B80201989E2E730
S31510008C90144B154A19890A4080211A811A894900EC
S31510008CA010E0104B114A19890A4080211A811A893D
S31510008CB0890007E00B4B0E4A19890A4080211A8158
S31510008CC01A89C9000A431A81002009E0054B094A8E
S31510008CD019890A4080211A811A890901F2E7172099
S31510008CE000BDC04600B00040FFFEFFFFFFFDFFFFC6
S31510008CF0FFFBFFFFFFF7FFFFFFEFFFFFFFDFFFFFAA
S31510008D00FFBFFFFFFF7FFFFFFFFFFEFFFFFFFDFF20
S31510008D10FFFFFBFFFFFFF7FFFFFFEFFFFFFFDFFF89
S31510008D20FFFFBFFFFFFF7FFFFFFFFFFEFFFFFFFD00
S31510008D30FFFFFFFBFFFFFFF7FFFFFFEFFFFFFFDF69
S31510008D40FFFFFFBF8023DB04C0188000016070475F
S31510008D50012238B5204B1C6820680579EDB2154202
S31510008D6015D0A36919789B18C9B2A3610170E38B5A
S31510008D70013B9BB2E383E38B002B08D121680B7A6E
S31510008D8093430B7210212268137A0B43137210212E
S31510008D900D4212D0A31CDA7F01231A420DD0E2181D
S31510008DA0D27F1A4209D00022E31CDA772268201CEF
S31510008DB0137A8B43137263689847AB060BD5A31CC3
S31510008DC0DA7F02231A4206D0621CD27F1A4202D0E0
S31510008DD0A368201C984738BDC405011038B5214B2F
S31510008DE05C6823681D7DEDB26A0614D51E21E21C4F
S31510008DF0D1771A7E23318A431A76A31CDA7F082389
S31510008E001A4206D0621CD27F1A4202D0201C236955
S31510008E10984723681B7C0122154221D0236861697B
S31510008E201B7CDBB20B7063699B186361A38B013BE0
S31510008E309BB2A383A38B9BB2002B11D1A11CC87F1D
S31510008E40042108420CD0A018C07F084208D0E11CAB
S31510008E50CB772168201C0B7E93430B76E3689847EB
S31510008E6038BDC046C405011038B5214B1C682368AF
S31510008E701D7DEDB26A0614D51E21E21CD1771A7E2D
S31510008E8023318A431A76A31CDA7F08231A4206D0A6
S31510008E90621CD27F1A4202D0201C2369984723688D
S31510008EA01B7C0122154221D0236861691B7CDBB231
S31510008EB00B7063699B186361A38B013B9BB2A38301
S31510008EC0A38B9BB2002B11D1A11CC87F0421084291
S31510008ED00CD0A018C07F084208D0E11CCB772168BF
S31510008EE0201C0B7E93430B76E368984738BDC0462B
S31510008EF0C4050110012238B5204B5C68206805793D
S31510008F00EDB2154215D0A36919789B18C9B2A361A1
S31510008F100170E38B013B9BB2E383E38B002B08D1FB
S31510008F2021680B7A93430B7210212268137A0B4334
S31510008F30137210210D4212D0A31CDA7F01231A429C
S31510008F400DD0E218D27F1A4209D00022E31CDA773C
S31510008F502268201C137A8B43137263689847AB06FA
S31510008F600BD5A31CDA7F02231A4206D0621CD27FCD
S31510008F701A4202D0A368201C984738BDC4050110B8
S31510008F80E12303225B0203600023C26001320371F6
S31510008F9043718371C371026102330132836042618E
S31510008FA08361C3610362436270470000F8B5484BA2
S31510008FB0041C151C0160994215D1464E0920B04774
S31510008FC00A20B047444E0920B0470A20B047434B09
S31510008FD010204349434E1C60B04711204249B04708
S31510008FE0424B012217E0424B994217D1394E0B20C2
S31510008FF0B0470C20B047384E0B20B0470C20B04776
S31510009000364B12203B49374E5C60B04713203A4925
S31510009010B0470422354B1A6092181A60EA79042375
S31510009020002A00D1023B2E1C013BDBB203339B000E
S315100090300836EF183078318A304B04369847BE42DE
S31510009040F8D123680122197D0A4001D01A7CF9E76C
S315100090500133DA77EB7969795A1E9341A8795A0167
S315100090602B7901380B43134303280BD804F0E8FE81
S3151000907002040608022204E0062202E00A2200E0A8
S315100090800E22134322680132D3771D4B2D68984761
S31510009090291C1C4B061C984782B2101C00236843DF
S315100090A02D09301A0133A84202D9DBB2401BF9E769
S315100090B0002021681B0728310870D2005B0F13436C
S315100090C022689BB293842368187623681872F8BDB9
S315100090D000400040BD890010D5870010C40501105E
S315100090E0698E0010458D0010518D001000E100E0D2
S315100090F000500040DD8D0010F58E00100185001027
S31510009100C987001069DE001003681A79D207FCD5EA
S3151000911000201970704703681A7DD207FCD51B7C96
S3151000912000200B70704730B5041C1720002A0CD095
S31510009130E51CEB7FD8B2052807D00523A2830122B0
S3151000914000206161EB7723681A7630BD9300C3184F
S315100091505960012393401A1C0130C37F1A43C2770A
S31510009160704700228B00C3185A6001238B40191CCC
S315100091700130C37F8B43C377704701238B4010B5F3
S31510009180841CE27F1343E377012904D102681F315F
S31510009190137A0B43137210BD01228A4010B5841C3A
S315100091A0E37F9343E377012904D102681F31137AD1
S315100091B08B43137210BD000070B5002811D1141C1A
S315100091C00E1C151C611B7118002D06DD064B013D8A
S315100091D01868064B1B689847F4E7E043C017204011
S315100091E001E00120404270BDD4050110CC050110EC
S315100091F0013870B502280ED80E1C0D1C8C18A81B31
S31510009200A5420AD0054B29781868054B01351B680D
S3151000921098470028F3DA0120404270BDD4050110AA
S31510009220D0050110054B021C1968002901D104490B
S315100092301960186882181A607047C04610FE001030
S31510009240B821011001204042704780239B01002065
S315100092504B60704701207047002070470020704710
S315100092600078002800D0E220704700207047C078B0
S31510009270002800D0E2207047C078002800D0E220F5
S315100092807047000030B5174A1749131C563B1C8807
S3151000929003889C4221D11378052B01D0082B01D1CC
S315100092A0012319E0013BDBB2062B14D80124251C3F
S315100092B09D402B1C6E252B4202D123420DD10AE074
S315100092C000230A4C13702378002B06D02378013B19
S315100092D0DBB2237001E0002313707C328A42D4D1B2
S315100092E0002030BD4E060110BA0801105C080110AE
S315100092F000207047002310B5174A0188141C563CED
S3151000930024888C4202D11478062C06D00133DBB2A5
S315100093107C32052BF2D1002200E00122817800294F
S315100093200ED1002A14D07C2253430C4A0824D31899
S315100093301A1C58329471C2781A7582781A7608E017
S315100093407C225343054AD3180722197658339A714B
S31510009350E221081C10BDC0464E060110F005011092
S315100093600023F7B5041C264A4088111C5639098873
S31510009370814202D11178032906D00133DBB27C3247
S31510009380052BF2D1002200E001222579002D27D1EC
S31510009390002A01D1E22531E07C205843194B22786E
S315100093A01E1832752279331C01903276301C052234
S315100093B0211C58339A71144F22310B323630B8476C
S315100093C0301C211C172232314630B8470D4A019BFA
S315100093D094466344181CA11D1C221A30B8470DE090
S315100093E07C225343074A0025D31858339B79012B07
S315100093F004D91321054B9847051ECBD1281CFEBD59
S315100094004E060110F005011017F00010B9B7001044
S31510009410012110B50A1C7823024C0088A0470020B1
S3151000942010BDC046D9B70010F0B5002589B005ACFF
S3151000943000900922514B201C00219847009B1A8846
S315100094407C2169434E4E8B191F89301C97420CD1D3
S315100094501F1C5E373F78022F07D11A1C043758326B
S3151000946097711A7DD30704D413E00135052DE7D182
S3151000947015E0009BDB78002B0BD0009B7118188829
S315100094801A31404B9847002801D1002074E0E220A1
S3151000949072E07C2302226B43C31858339A71002260
S315100094A0009B1988D3B201937C235343C3181D899B
S315100094B08D4208D11D1C5E352D78022D03D1032255
S315100094C058339A7103E00132052AEBD10192022337
S315100094D004222372009B0199DB782270A37001236A
S315100094E078324A43825C6370022A00D10233A37138
S315100094F0E3711023019A637123716C335A430292FC
S3151000950083181B7E402B2AD1131C151C683360351B
S31510009510C318451903931C4FB8470F2630402870BF
S31510009520B847039B0640AE7401359D42F3D1002522
S31510009530154EB0470F22029B114FEB18683310409F
S315100095400135F854082DF3D1B0477C23019A5343C3
S31510009550FF183B1C7033188010237837BB707C22A1
S31510009560009B211C1888019B084C5A43044B6032FF
S31510009570D2180023A04786E709B0F0BD29F00010E5
S31510009580F005011085C3001011F1001099C10010EB
S315100095900021F0B589B0029000887C234B43374AEE
S315100095A0CDB29B181C890092844208D11A1C5E32D7
S315100095B01278022A03D1583301329A7103E001312D
S315100095C00529EAD10D1C0021022205AB1970D970AC
S315100095D07C31694300981A72415C013A9A705A704C
S315100095E0022900D102329A71DA7110225A711A7157
S315100095F07C236B430193019A009B9B181B7E402B87
S315100096002BD1141C009B60341C19131C009A683350
S31510009610D31803931A4FB8470F2630402070B84717
S31510009620039B0640A67401349C42F3D10024144EC9
S31510009630B0470F22019B114FE318683310400134D5
S31510009640F854082CF3D1B0477C236B43FF183B1C0E
S315100096507033188010237837BB707C225543029BD9
S3151000966060351888009B05A95A19064C0023A04797
S31510009670002800D0E22009B0F0BDC046F005011068
S3151000968011F1001099C10010F7B5071C00220188CE
S31510009690D3B200937C2353431B4C1D1C1E193389D4
S315100096A08B420DD1331C5E331B78012B08D9331C2A
S315100096B0062258339A711A8B7B889A420ED104E08F
S315100096C00132052AE4D1009208E06119381D723181
S315100096D008220E4B9847019000280AD07C23009A46
S315100096E005215343084AD3181889094B9847E22095
S315100096F008E02B1C60331B193888317D0122054C7C
S31510009700A0470198FEBDC046F0050110F9EF001004
S31510009710B9B70010FDC3001010B50B4C011C23780F
S31510009720132B0DD829222078084B50431818084BB4
S3151000973098472378237800200133DBB2237002E0A8
S31510009740044B9847E22010BDF8020110C40801101E
S3151000975017F0001099B70010F0B5071C87B004AECB
S315100097601A4906221A4D03AC301CA847201C391C76
S315100097700422A847E3780193002B05D08023628842
S315100097805B009A4216D119E0019D062DF6D01E20D7
S31510009790104B9847C0B2002805D1388813210E4BBC
S315100097A09847E22010E0031C303B092BEDD870558A
S315100097B00135EAE70020019B834205D13888A1785C
S315100097C0321C064B9847002007B0F0BD48FB00102E
S315100097D017F00010399F0010B9B70010C9C2001059
S315100097E008B5031CCF20002B04D0002902D0181C6A
S315100097F0014B984708BDC04605B3001030B5051C8F
S31510009800101E27D00020062924D8134B5C5C134B5E
S315100098108900CB5885420CD1A4001C19A34218D03C
S31510009820191C0433181F00680028F7D10A6001308C
S3151000983010E0012D0ED1A4001C19A34209D0191C49
S315100098400433181F00689042F7D1002301200B60E3
S3151000985000E0002030BDC046E0FB0010E8FB001021
S31510009860F0B500244C4B4D4D8FB0211C0722061C21
S315100098704B481C60A847211C12224A48A8474A4F49
S31510009880211C4A4A381CA847CD22494B211C92005C
S3151000989048481C70A8478322474B211C9200474812
S315100098A01C70A847211C46480C22A847454B019519
S315100098B01C605C609C60DC601C61434B404D1C600E
S315100098C05C609C60DC601C61404B1C605C609C6052
S315100098D0DC601C613E4B1C603E4B1C603E4B1C60AA
S315100098E05C609C60DC601C613C4B1C603C4C201C2A
S315100098F000217C22019B5E389847221C00234021C0
S31510009900463A23701170374A7C349442EFD1364A66
S31510009910281C1370254B2F606B60344B9847051E1F
S3151000992000D0FEE7324C291C324AA047324A0221A7
S31510009930281CA047314B0921314898473149072245
S31510009940063102A8304F04ACB847201C291C262229
S31510009950019B9847002E03D102A82C4B984702AEC4
S315100099600A2323702A4B311C072205A86380B847A7
S315100099700023E37623776377A377E37723846384DF
S3151000998080239B00A384201C224B9847301C224B1B
S3151000999098470FB0F0BDC046F402011029F0001030
S315100099A0F90201109C08011014FE0010E2040000D8
S315100099B0F8020110C4080110BC080110F80B0110C0
S315100099C0B00801107408011088080110DC05011098
S315100099D0C0080110D805011060080110040E01100E
S315100099E04E060110BA0801105C080110EDB3001004
S315100099F0FD97001094FB001060FB0010E19700101B
S31510009A0088FB001048FB001017F0001039B3001047
S31510009A10983A00005DB3001085B50010012108B515
S31510009A200A1C034B9847002800D0E22008BDC04608
S31510009A3045C30010F0B5847A97B0002C01D00024ED
S31510009A4097E0051C1222291C4B4E4C48B0474C4837
S31510009A50291C07224B4B98470196002823D02B78B8
S31510009A60022B20D102A8211C5022474B9847201CBC
S31510009A707C22002342430601B6B29C18434F46345B
S31510009A80F1183C5D89B202AF01337C54102BF4D12E
S31510009A9001300528ECD1291C02AA3D4B9847041E1B
S31510009AA067D0E22465E03B4B1A78042A4CD800278D
S31510009AB07C237B43354A291C9B180093181C0722CC
S31510009AC0304B9847FEB2314A002804D10222009B3F
S31510009AD058339A711EE00137052FE9D100237C27F0
S31510009AE05F43391C5E31515CDEB200290ED1D719A5
S31510009AF0381C1222019B291C9847264A583713787E
S31510009B000133DBB213700223BB7103E00133052B63
S31510009B10E5D11E1C1A4F291C07221A4B381C9847D0
S31510009B207C23734319493A1CCB18002803D105210D
S31510009B30071C997402E00A2101279974101C002150
S31510009B400722114B984706E000271B782889132116
S31510009B50114B98473E1C7C235E430C4B9E19B37CDD
S31510009B600A2B00D06BE7002F00D168E728890B4B32
S31510009B709847201C17B0F0BD17F000109C08011074
S31510009B80F9020110F9EF001029F00010F00501108C
S31510009B90E5B700105C080110B9B700101D9A001047
S31510009BA0F7B50478071C002C10D17C266643311CAF
S31510009BB00196264E4631781C89191022244BE5B29F
S31510009BC09847002831D00134052CEED100237C248F
S31510009BD05C43211C1D4A5E31515CDDB2002911D156
S31510009BE014191C4B1222201C1B4998471B4A137828
S31510009BF00133DBB21370231C022258339A710A23E5
S31510009C00A3741EE00133052BE1D100221D1C7C2319
S31510009C105D430E4B5D19AB7C0A2B14D1002A12D072
S31510009C200D4B18890E4B98470DE0019B0222F01838
S31510009C30031C58339A710A23074983741032054B53
S31510009C4098470122E3E70020FEBDC046F00501104B
S31510009C50F9EF001017F000109C0801105C080110B5
S31510009C601D9A001070B50D1C2C2808D8272843D231
S31510009C701C2830D813281DD28400002615E037285A
S31510009C8005D836283CD22D38C0B22F4B4CE03A2896
S31510009C9054D046D33B2844D055E01B59002B01D055
S31510009CA0281C98470436142E4DD0284B9B59002B50
S31510009CB0F3D1F7E700261338C4B2A400244B9B59FE
S31510009CC0002B04D01B59002B01D0281C98470436B2
S31510009CD0142EF3D137E000261D38C4B2A4001D4B54
S31510009CE09B59002B04D01B59002B01D0281C9847D8
S31510009CF00436142EF3D126E02738C0B2164B13E0E3
S31510009D0000263638C4B2A400144B9B59002B04D03D
S31510009D101B59002B01D0281C98470436142EF3D15A
S31510009D2011E038380E4BC0B21B68002B0BD08000E8
S31510009D30C358002B07D0281C984704E0094B1B6812
S31510009D40002B00D0984770BDD8050110740801107B
S31510009D5088080110DC050110C00801106008011008
S31510009D60040E0110F402011070B5074E074D021CC7
S31510009D70291C301C064B9847041E03D13078291C29
S31510009D80044B9847201C70BDBC080110F80B01103D
S31510009D9045AC0010659C001030B591B003236A469F
S31510009DA0694653700F2209248A700B7009320733E3
S31510009DB0CA700B714C71221C0B4D881D0B49A8479C
S31510009DC06B466A46DC731120FF23094913746844F5
S31510009DD00D310822A8476846192108AA0023054C08
S31510009DE0A047002011B030BD17F0001088FB0010FE
S31510009DF048FB0010D9B50010014B18607047C046DB
S31510009E00F40201100122014B1A7070470003011071
S31510009E1038B5051C0C1C281C211C024B9847002821
S31510009E20F9D138BD1791001038B5051C0C1C281C2B
S31510009E30211C024B98470028F9D138BD0991001012
S31510009E40002038B5011C164B9847164C164B201C93
S31510009E509847E1235B02236003220223E260A3609A
S31510009E60A361E361236263620132104B10482261E1
S31510009E700132186062610F4B0F4A10491A60104A7E
S31510009E80104B1A60221C104B9847104D104C2B6823
S31510009E9000219868A0472B6800215868A04738BD54
S31510009EA0518700102C0E0110818F0010D40501105F
S31510009EB0080E0110D0050110299E00100040004028
S31510009EC0119E0010CC050110AD8F0010E8FD00109A
S31510009ED089F10010F7B50D4C0190A047A0470C4C26
S31510009EE0A0470C4D0C4A0D4BA847061CFA20019BA7
S31510009EF0800058430F1CA047021C0B1C301C391C39
S31510009F00A847074B9847074B1860F7BDC98700103D
S31510009F105DEC0010C9DF0010C7AEFE19EFD8093F7F
S31510009F208DDF001004030110024B1A68501E1860D2
S31510009F307047C0460403011070B50024154E164B29
S31510009F4034709847154D02222C70154C1549201C5B
S31510009F50154B9847201C0221144B9847201C291C8E
S31510009F600122134B98473378002B0CD0114B1B68EA
S31510009F70002B0DD1201C02210F4B9847201C0221CB
S31510009F800E4B984704E00E4B98470028EBD1EDE7AF
S31510009F90287870BD00030110D59E0010080301102B
S31510009FA0080E0110059E00104D9100107B910010B7
S31510009FB0279100100403011063910010999100106D
S31510009FC0299F001008B50248024B984708BDC046A5
S31510009FD004FC0010FDF0001000B589B001A8054B77
S31510009FE09847054B01A80393044B0693044B9847D7
S31510009FF009B000BDFD80001080BA8C0100751903F0
S3151000A0006D81001010B5011C074C0020A0470749B0
S3151000A0100120A047064C0020A0470120A04780221F
S3151000A020044BD2011A6010BD79820010C59F001032
S3151000A0304981001000E100E0024B1A6818600260C6
S3151000A0407047C0461003011030B50C4C2368002B26
S3151000A05012D01D689960256000240949DA800A68C3
S3151000A0601C609880A24201D10B6005E0116800299E
S3151000A07001D00A1CFAE7136030BDC0461003011068
S3151000A0800C03011010B50024054B1C60054B1C6019
S3151000A0900548064B00190C349847782CF8D110BD9A
S3151000A0A0100301100C0301101403011039A0001045
S3151000A0B008B5064B064A196811605A68054B1A60AE
S3151000A0C0054B1B68002B00D0984708BD540E011095
S3151000A0D00CB0004010B000402811011010B5114B03
S3151000A0E01C68114B1B689847E30714D40F4B0220CA
S3151000A0F01B6898470E4B1B6898470E4B03201B682E
S3151000A10098470028F9D10C4B02301B68984701225A
S3151000A1100A4B1A6004E00A4B0A4A1B6810689847F3
S3151000A12010BDC046ECB10040C0030110B8030110C9
S3151000A130C8030110A0030110A803011020B00040AD
S3151000A14098030110AC03011038B50F4C0F4B201CAF
S3151000A1500021322298470023201C012402255A0090
S3151000A1608354821851781B192143A9435170192B16
S3151000A170F3D14378A3434370C378A343C370437F9B
S3151000A180A343437738BDC0466C0E011029F000106A
S3151000A190064A074B11680B401360064A06491360BE
S3151000A1A00868064B03400B60536070470CB00040C4
S3151000A1B0D30FFEFF540E011010B00040C0E7FFFF92
S3151000A1C0F8B5424B1A78002A03D01878C0B2012885
S3151000A1D079D03F4B984700243E4B984780223E4B00
S3151000A1E012041C603D4B3E4DDA6780225204DA673A
S3151000A1F03C4B3D4A2B603D4B3D4913603D4A3E4E1C
S3151000A20011603E4A282011683D4A3E4F11603E4A71
S3151000A21011683E4A11603E4A3E4911603E4A3F4926
S3151000A22011603F4A3F4932603F4A11603F4A4049F8
S3151000A2301160404A40491160404A41491160414A03
S3151000A24041491160414A42491160984741492B687A
S3151000A250282098472B684049272098473F4B211CB8
S3151000A2601A683F4B3F481A603F4B404A1A60404BB2
S3151000A270404A1A60404B414A1A60414B414A1A60A3
S3151000A280414B424A1A60424B424A1A60424B434A79
S3151000A2901A60A022424B920098478022414B9200AE
S3151000A2A01A80414B984780231B043B6080235B0434
S3151000A2B03B603E4B3E4A1C603368201C1A600122EC
S3151000A2C0024B1A7000E01870F8BDC046A4030110C6
S3151000A2D049A1001091A10010C403011004E100E08F
S3151000A2E020110110D7070000600E0110BD070000F5
S3151000A2F051BC01002411011030110110BC000410D2
S3151000A3009403011000E100E0B8000410900301105E
S3151000A3105C0E01109FB90100640E0110DBB901003B
S3151000A3203C000410C01F0410680E01102C110110FF
S3151000A330C41F0410B8030110E9CB0100A8030110D3
S3151000A3408FCD0100C8030110A3CE0100A003011098
S3151000A350CFCB0100B9A7001061A70010E4000410CC
S3151000A360C00301109E0E0110CC030110E99F0100DD
S3151000A37098030110DDDB0100B00301105BDC010066
S3151000A380AC030110EC050410BC030110E3D5010069
S3151000A390D0030110200C04108C030110099F01003A
S3151000A3A029F000103411011085A000102811011099
S3151000A3B0B1A00010044B1A780523012A02D1034BD1
S3151000A3C018600023181C7047A4030110C403011061
S3151000A3D070B50D4B041C1B684088002B01D09847A4
S3151000A3E060800A4DA2882D6820886188E388A84776
S3151000A3F0E288051C064E002A03D0211C054B0831A5
S3151000A4009847281CB04770BD94030110CC03011067
S3151000A410DDA0001017F00010F8B51D1C161C0F4B10
S3151000A4200F4A041C0F1C1B6810689847A0200D4B80
S3151000A4303A022243C0001C6805212B1CA047041EAB
S3151000A4400AD0002D05D0002E03D0311C2A1C064B35
S3151000A4509847201C054B9847F8BDC0469803011035
S3151000A460AC030110CC03011017F00010DDA0001092
S3151000A4700023F0B5441E89B00293E31C1BD80021BB
S3151000A4800D226C4B04A89847192304AA1370163B87
S3151000A49053709370023313719371230A14725372AB
S3151000A4A0230C240ED47201249372101C0D21624BBE
S3151000A4B014739847029400240194604D604B614ACE
S3151000A4C0291C1B6810689847011E00D07BE02C6879
S3151000A4D02389A5880393CD2367899B009D4235D098
S3151000A4E0029B002B10D00D22524B04A8984719231B
S3151000A4F004AA1370163B5370937002331371937141
S3151000A500101C0D214C4B9847A023DB009D421DD1FA
S3151000A510A0224D4D92002B88DB19934202DD802339
S3151000A5209B002B80211C494B2E883A1CF6180C31A7
S3151000A530474B301C98473A1C464B0398311C98479A
S3151000A5402B880024FF182F80022335E0424F3C68E9
S3151000A550002C32D0CD21394D89002A6893888B4240
S3151000A56006D1029B0124002B27D00024D02323E000
S3151000A570364C3A4E23701B0A6370394B346010897F
S3151000A5801B6898472B682071000A6071DB88306859
S3151000A59043802D686B89C380083030606A89002A31
S3151000A5A003D0291C2A4B0C31984769893B68201C1B
S3151000A5B008319847002403230193204A294B106839
S3151000A5C01B68984701E007230193002C00D074E71D
S3151000A5D0029B002B2BD01B4B1E68002E01D1236A29
S3151000A5E0FFDE371C204B14371B68381C356A98471A
S3151000A5F0002D18D0CD222B6892009988AB68914215
S3151000A6000ED1184A002C05D0A360281C1368984751
S3151000A610A568EDE73362281C13689847356AE7E7A3
S3151000A6202C1C1D1CE4E7114B381C1B68984701981D
S3151000A63009B0F0BD29F00010D1A30010B403011029
S3151000A640BC030110D0030110341101109E0E01102D
S3151000A65017F0001049A00010C40301109C0301104C
S3151000A660900301108C030110B00301109803011020
S3151000A670802010B5114B00021C68114B1B689847BF
S3151000A680E30714D40F4B02201B6898470E4B1B6828
S3151000A69098470E4B03201B6898470028F9D10C4B9E
S3151000A6A002301B68984701220A4B1A6004E00A4BD5
S3151000A6B00A4A1B6810689847082010BDECB1004084
S3151000A6C05C0E0110B8030110C8030110A00301109D
S3151000A6D0A803011020B0004098030110AC0301102C
S3151000A6E0802008B5024B00021B689847002008BD61
S3151000A6F0640E01100923002802D0024B18600023B3
S3151000A700181C704728110110124A1349138F108D07
S3151000A7109BB2084380B21085DB05DB0D0BD0DBB294
S3151000A720584203400020012B03D001305B08C0B211
S3151000A730F9E7834001E0138F0B439BB21387138F06
S3151000A740DB05DB0DE8D18021044A81334900FF3354
S3151000A750D1507047001001400080FFFF00E100E07B
S3151000A760124A1349138F108D9BB2084380B210857D
S3151000A770DB05DB0D0BD0DBB2584203400020012B6A
S3151000A78003D001305B08C0B2F9E7834001E0138FB4
S3151000A7900B439BB21387138FDB05DB0DE8D18021AA
S3151000A7A0044A8133FF33D1507047C0460000014040
S3151000A7B00080FFFF00E100E010B50B4C238F5B0B10
S3151000A7C00FD00A4B1B689847238F228F5B0B5B03B6
S3151000A7D0134323878021C023054A49005B00D150CB
S3151000A7E001E0044B984710BD0010014024110110E0
S3151000A7F000E100E009A70010002210B51F20022179
S3151000A800131C014CA04710BD19A4001010B5064B1F
S3151000A8101B78002B07D001210022044B4120197010
S3151000A820034C131CA04710BDD5030110D70301100C
S3151000A83019A40010F7B501AC114F201CB84701231D
S3151000A840104E114D211C30782370A8470F4B3078CD
S3151000A85019780F4BC9B29847201CB8470223002617
S3151000A860211C63701F20013BE3702670A847201C33
S3151000A870B847211C172026706670A847F7BDC0463A
S3151000A8805583001080FD001065830010D40301105D
S3151000A890B5840010022202705532C2703B3A027122
S3151000A8A0A232C271643A02722A3AC272203202731A
S3151000A8B06B32C2730274A93A0285113A0286428635
S3151000A8C0021C0023C162112134324382437083700B
S3151000A8D043718371437283724373837311708363FD
S3151000A8E08387C3871374537493741232538093807F
S3151000A8F0D380036470470000031C13B51433009310
S3151000A9000022011C012312310193024C131CA04793
S3151000A91016BDC046E9BE001030B50B4B85B0984742
S3151000A920041E0DD1C823DB000093084B029001933F
S3151000A9300121221C231C064DA847002800D0E23412
S3151000A940201C05B030BDC046999D00108F02000036
S3151000A9505DB6001010B5074B984707490222074C01
S3151000A9601720A047064B172098471F20054902229B
S3151000A970A04710BDED8600100DA80010018600102E
S3151000A980BD860010F9A700100289034B00201A801B
S3151000A9900122024B1A70704788110110D50301105D
S3151000A9A0C078002800D0E2207047002070470000D1
S3151000A9B008B5034B98470122024B00201A7008BDB8
S3151000A9C071A60010D803011010B50024024B1C709C
S3151000A9D0024B9847201C10BDD503011019A9001071
S3151000A9E008B51F20024B9847024B9847002008BD18
S3151000A9F0BD860010E1A6001008B5024B9847024B21
S3151000AA00984708BD49A10010419E0010012100225F
S3151000AA1010B5034B41201970024C131CA04710BDF2
S3151000AA203611011019A4001073B500256B46DE1DF2
S3151000AA30DD71284B1D70284B9847284B9847284B9B
S3151000AA409847284B9847284B9847281C274B9847D8
S3151000AA502748284B9847284B9847284B284898470B
S3151000AA60284C311C201C284B9847284B201C9847F3
S3151000AA70291C274A274E281CB0470221264A281C83
S3151000AA80B047264B26489847264B98470120264B19
S3151000AA9040429847254B1A78002A02D000221A7095
S3151000AAA0F4E7234D2B78002BF0D022490B785A422D
S3151000AAB053410B70A08A01221F4B9847002804D1DE
S3151000AAC01E4BA18A18881E4B984700232B701D4BCE
S3151000AAD0DBE7C04636110110C1A1001071A60010A7
S3151000AAE0419E0010D99F001035A8001061980010E3
S3151000AAF00DAA001005A0001055A90010F5A600100B
S3151000AB00F9A900103811011095A80010F9A8001025
S3151000AB1018FC0010FD97001064FC0010F99D001041
S3151000AB20B1A9001019A90010699D0010D7030110D2
S3151000AB30D8030110D60301101DBF00108811011093
S3151000AB40BDC00010E1A6001070B50C4D2C68002C8D
S3151000AB5013D02668E2602E600025094A2381136807
S3151000AB602560A080E180AB4201D1146005E01A682F
S3151000AB70002A01D0131CFAE71C6070BD8004011076
S3151000AB807C040110084B0022191C10B51868074BDD
S3151000AB909C18D0501032201CA02AF8D100229033D5
S3151000ABA00B60034B1A6010BD80040110DC0301100A
S3151000ABB07C04011038B51B4C031C2588081C211C6D
S3151000ABC09D4207D1A588854204D101235B4223808B
S3151000ABD0A26009E04C889C420AD18C88844207D135
S3151000ABE001235B424B808A600F4B9847012017E088
S3151000ABF00E498B420ED00E498B4207D00D490020CC
S3151000AC008B420DD1101C0C4B9847EFE7111C0B4BC8
S3151000AC10002202E0111C0022094B9847434258417A
S3151000AC2038BDC046DC11011009C50010130E000016
S3151000AC30150E0000010E000079C8001039CA001068
S3151000AC4011CB00100023F0B585B002920370029B61
S3151000AC500190013B0D1C0393033302D80298AD4BB0
S3151000AC609847039BAC4F0024033312D83B68002B44
S3151000AC7012D1D02C00D19CE20298A84B9847041E02
S3151000AC80022CF3D125E00298A44B9847041E022CFF
S3151000AC901FD03B68002BF6D0D02C00D189E2E31EE2
S3151000ACA05A1E934138685B421C40002800D186E248
S3151000ACB00368C1683B609A4FC2883E688388066005
S3151000ACC03860002C12D19748834208D096488342A8
S3151000ACD01DD13A230024019A251C137006E09A42CE
S3151000ACE000D068E23823019A13702960019B1B7803
S3151000ACF03B2B03D0039B033303D964E2002CB0D063
S3151000AD00F8E7D02C00D15EE2884B98475BE2BB2A6D
S3151000AD1023D1BB2B21D1AC808B784A781B02CF78FC
S3151000AD20087913434A798249AF702B808B4206D833
S3151000AD30804A93420BD2804A934208D009E07F4959
S3151000AD408B4206D113020343AB80372302E036232E
S3151000AD5000E00023019A1370C8E77948834200D1B6
S3151000AD604CE164D87748834200D1CDE12FD876489C
S3151000AD70834200D1D6E113D87448834200D19FE1B3
S3151000AD8004D83824A34200D10FE2B6E070488342BB
S3151000AD9000D19BE1FE30FF30834200D1C8E1ACE028
S3151000ADA06C48834200D1A3E108D86B48834200D196
S3151000ADB092E16A48834200D194E19EE0684883425A
S3151000ADC000D19BE16748834200D1C5E195E0664812
S3151000ADD0834200D1BAE112D86448834200D1C1E15E
S3151000ADE004D86348834200D192E186E061488342E9
S3151000ADF000D1A1E16048834200D1A3E17DE05F4A22
S3151000AE00934200D17FE008D8083A934277D05C4A43
S3151000AE103924934200D1C8E16FE0D1221201934246
S3151000AE2000D1DFE0574A934200D1E1E065E0564891
S3151000AE30834200D118E12ED85448834200D13BE119
S3151000AE4012D85348834200D1EEE004D80338834227
S3151000AE5000D1D9E051E04F48834200D1D8E04E48A6
S3151000AE60834200D1FBE048E04C48834200D1E1E048
S3151000AE7008D84B48834200D11AE14A48834200D190
S3151000AE80DDE03AE04848834200D1DCE0474883429F
S3151000AE9000D1DEE031E04648834200D1F6E016D814
S3151000AEA04448834200D1F7E008D84348834200D192
S3151000AEB0E0E04248834200D1B0E01EE0404A9342AF
S3151000AEC000D1DDE03F4A934200D1EBE015E03E4869
S3151000AED0834200D158E108D83C48834200D147E16B
S3151000AEE03B48834200D149E107E03A48834200D10A
S3151000AEF050E13948834200D152E1002455E1081C43
S3151000AF00364B291C7DE0081C354B291C9847042418
S3151000AF104BE1C04641C500107C04011071A400101D
S3151000AF2080040110FFFF0000FEFF000043C5001063
S3151000AF301E2000001D200000030C00001F20000032
S3151000AF401C0D00000C0C0000020C0000020A000090
S3151000AF50030A0000060C0000040C0000050C00009B
S3151000AF60070C0000090C0000170C0000120C000062
S3151000AF700D0C0000130C0000150C0000080D00004D
S3151000AF80010D0000150D00001B0E00000F0E000035
S3151000AF90030E0000060E00000A0E0000150E00003B
S3151000AFA0110E0000130E0000170E0000190E0000FF
S3151000AFB0270E0000210E00001C0E00001D0E0000C2
S3151000AFC0220E0000250E0000051B0000011B0000CC
S3151000AFD0031B0000061B0000081B00006DD30010A9
S3151000AFE051D30010081C794B291C98470124DCE02A
S3151000AFF0081C774B291C98470F24D6E0081C291CDF
S3151000B000744B9847041CD0E0101C734B2A1C14E098
S3151000B010101C724B2A1C98471124C6E0101C704B4A
S3151000B0202A1C98471224C0E0081C6E4B291C98470E
S3151000B0300624BAE0101C2A1C6B4B9847E2E7101C3A
S3151000B0406A4B2A1CF9E7101C694B2A1C98470D24D9
S3151000B050ABE0101C674B2A1C98470E24A5E0101C69
S3151000B060654B2A1C984775E0101C644B2A1C9847A0
S3151000B0700B249AE0101C624B2A1C9847102494E06B
S3151000B080081C604B291C984728248EE0081C5E4B30
S3151000B090291C9847292488E0081C5C4B291C9847D2
S3151000B0A0272482E0081C5A4B291C98472A247CE046
S3151000B0B0101C584B2A1CC0E7101C574B2A1CBCE707
S3151000B0C0081C564B291C98472B246EE0081C544B21
S3151000B0D0291C98472C2468E0101C524B2A1C9847B0
S3151000B0E0132462E0101C504B2A1C984714245CE071
S3151000B0F0101C4E4B2A1C9847152456E0101C4C4B1E
S3151000B1002A1C9847162450E0101C4A4B2A1C94E718
S3151000B110101C484B2A1C9847A988041C464B2888A3
S3151000B120984742E0101C454B2A1C984723243CE0C4
S3151000B130101C434B2A1C80E7120A081C2A80291C63
S3151000B140404B5EE7101C404B2A1C76E7081C3F4B11
S3151000B150291C98473B2428E0101C3D4B2A1C984775
S3151000B160182422E0101C3B4B2A1C984720241CE074
S3151000B170101C394B2A1C9847332416E0101C374BE9
S3151000B1802A1C9847302410E0101C354B2A1C98476F
S3151000B19034240AE0101C334B2A1C9847352404E04B
S3151000B1A0101C314B2A1C98473224019B1C7000241A
S3151000B1B09CE5D0249AE5BB2A00D09EE6F5E7002C44
S3151000B1C000D093E599E6201C05B0F0BDEDD5001032
S3151000B1D0DDD6001001D70010E5C6001065CF0010AF
S3151000B1E0E1CF00109DC9001039CA001011CB001014
S3151000B1F099CD001039CE0010F1CE001019CF0010E5
S3151000B2002FCF0010F9CF001027D000103DD000101E
S3151000B21067D0001095CE0010BFCE00103DC10010B3
S3151000B22069C1001021D900105DD90010A5D90010F0
S3151000B230E9D900101DDA0010E1D80010E9DA001083
S3151000B24071DA001021C000108DC0001051C000101E
S3151000B250F9DA001039DB001001DE00100BDE0010E9
S3151000B26011DE001017DE001023DE0010F7B50E49B0
S3151000B27000240B680F1C1E1C0C4A15680192002B2B
S3151000B2800ED09A881968824207D1002C01D021600D
S3151000B29000E00E1C1D601D1C231C1C1C0B1CEEE765
S3151000B2A0019B3E601D60F7BD7C04011080040110F7
S3151000B2B0F7B5124A0090136811481F1C00218446E6
S3151000B2C004680192002B14D0D888009A1D68060ACB
S3151000B2D096420BD1FD2606400C2E07D1002901D02F
S3151000B2E00D6000E02F1C1C601C1C0B1C191C2B1C59
S3151000B2F0E8E7019B1F6063461C60F7BD7C040110E4
S3151000B3008004011030B5CF23002810D04A1E1F2A02
S3151000B3100DD8084A131CAA33198000231C1CC55CBF
S3151000B320AC3401331555DCB28C42F7D30023181C0C
S3151000B33030BDC0467A12011010B5041CCF20002C67
S3151000B34006D0044BCE38211C9847034B1B7923702B
S3151000B35010BDC04601D200107A120110F0B5067960
S3151000B36089B0CF25032E38D8037811350F2B34D852
S3151000B3708023878C113D9B009F422ED8C57F837FEB
S3151000B380AD015B011D43C37E1D43437F1B011D435E
S3151000B390037F9B001D43124BEDB21E710379023BD6
S3151000B3A0012B01D802230371041C231C0B33618863
S3151000B3B007932379007800930195258C621D0295D9
S3151000B3C0658C079B03950497064DA8472671051CA7
S3151000B3D0211C03482622044B9847281C09B0F0BDAF
S3151000B3E07A120110F9D0001017F00010F0B587B0DE
S3151000B3F003AF4D49041C0B224C4B381C98470522B1
S3151000B4004B4B1A8000234B4A13604B4A13704B4A1E
S3151000B41013704B4B98474B4B98474B4B98474B4B9E
S3151000B4209847002C09D02068002806D061680029AA
S3151000B43001D1E22675E0464B9847464B98470128BE
S3151000B440F7D84548454B98470028F2D1444B9847C2
S3151000B450444B98476B460122DC1C201C01A9524222
S3151000B460414B9847002802D12378392BF2D13F4B14
S3151000B4709847061E55D1031C01213D4A49429A1888
S3151000B48012335181902BF7D13A4C813B23703A4BB2
S3151000B4903A4A6380002323710133581E1901014370
S3151000B4A0023311700132212BF7D1E033FF33A3841D
S3151000B4B0231C002573331D70231C72331D70231C2F
S3151000B4C076331D70231CCC331D80221CA023D03252
S3151000B4D05B001380221CCE321380231CD2331D80B6
S3151000B4E0FA22231C5200D4331A80231CD6331D7023
S3151000B4F0201C234BE57625776577A577E577258498
S3151000B50065849847231C072274331A70231C04324F
S3151000B510AA331A802B1C7A5DAC330135E2540B2DFD
S3151000B520F8D1301C07B0F0BD8CFC001017F00010DD
S3151000B530E8110110240501108C04011081FD001082
S3151000B54049DB001035B8001071BE001031C1001073
S3151000B550A5BE0010C1A1001031C40010B5A3001083
S3151000B560C9C4001085AB001045AC001089D000107E
S3151000B570EA1101107A120110983A00008512011092
S3151000B5805DB3001038B5451C031CCF20002D18D014
S3151000B5901A78032A15D8012A02D15A78002A10D00F
S3151000B5A01C1C291C0622074B074898472378074876
S3151000B5B00371074B98472378002B02D1281C054BA3
S3151000B5C0984738BD17F000107F1201107A1201103B
S3151000B5D05DB3001045C50010F8B584460F1C161C47
S3151000B5E01C1C002802D1E220002A2BD0CF201F2FAE
S3151000B5F028D81F2C26D86346002B0ED01248134D80
S3151000B600002F04D1391C1F22114B984703E06146C5
S3151000B6103A1C104B984772352F70301E12D00B4DB6
S3151000B6200D48002C07D1211C1F22094B7335984752
S3151000B6302C70201C06E0311C221C064B984700205B
S3151000B64073352C70F8BDC046AE1201107A12011077
S3151000B65029F0001017F00010CD120110F0B591B0BE
S3151000B6601F1C16AB1D8817AB1B880D910E9318ABBC
S3151000B6701B78041C0F93424B161C73331B78CF2078
S3151000B6800C93012C03D10E9B002B76D124E0042CB5
S3151000B69073D88023DB019D426FD8002C02D11F2D59
S3151000B6A06BD903E09F2D01D8012C66D1002F09D04C
S3151000B6B00D9BCF20013B012B5FD9012C02D1002D10
S3151000B6C000D120352F4B9847011C002E43D03378DC
S3151000B6D0601E002B09D13BE08023DB019D424CD834
S3151000B6E0002E4AD0002FE3D12BE0012303283AD9AC
S3151000B6F00D20721C02E00E20321EFAD1204C74343A
S3151000B70026780724002E00D0341C00920D9A03943C
S3151000B71004921B4A019502950597723212780E9C77
S3151000B7200692194A07920C9A0892184A09926422AC
S3151000B730624392B20A920F9A154C0B92154AA04781
S3151000B7401BE0002DBED10F4B98472025011CBEE7EC
S3151000B7500328CDD806E0601E032803D9331C0D201C
S3151000B760321CCBE7002302F061FBC60604020F2051
S3151000B770C2E700220C920C20BEE711B0F0BDC04605
S3151000B7807A120110D5D50010AE120110CD1201108B
S3151000B790B5D40010983A000010B5054B9847041E12
S3151000B7A003D1D120034B00019847201C10BDC04681
S3151000B7B0E1D200106DB2001038B5041C044B081C01
S3151000B7C0211C9847051C034B201C9847281C38BD84
S3151000B7D059C90010B1B2001010B5014CA04710BDE8
S3151000B7E049CE001010B5CF2300280AD0002908D062
S3151000B7F0002A06D00C78022C03D1034B013198474E
S3151000B8000023181C10BDC04675D60010CF23022881
S3151000B81001D8024B1B5C181C7047C046A6FC0010D2
S3151000B820831EDBB203200E2B01D8014AD05C704771
S3151000B83097FC00100022014B1A80704784040110F7
S3151000B84070B5051C00240C4B19680C4B1E688C42F5
S3151000B85010DC0C206318DA0FD318021C5B105A4345
S3151000B860B0180288AA4201D2591EF0E7AA4202D99C
S3151000B8705C1CECE7002070BD9804011090040110C8
S3151000B88030B50324051C01232540A54209D0231CED
S3151000B8902419204205D1023B184202D14B1E994170
S3151000B8A08BB230210140302907D0410601D48106E0
S3151000B8B001D5074809E0C10601D5064805E0002A6A
S3151000B8C001D00422134380208001184330BDC046A6
S3151000B8D00C2000000420000030B50023840703D597
S3151000B8E00133194200D10233040708D5CC0601D51D
S3151000B8F0042400E00C2423438024A401234384065B
S3151000B90006D50624214201D10A3400E0302423430F
S3151000B910C40606D50624214201D13A3400E0C024DB
S3151000B920234380246400204200D02343C40702D559
S3151000B9308024A40023430424204206D0CD0600D43C
S3151000B9400C242343802424012343440601D5084CA8
S3151000B9502343000607D50420C90600D40C20034350
S3151000B9608420800103439003034398B230BDC04640
S3151000B9700410000007B56A460B7813704B785370A5
S3151000B9804B8893701B0AD3700B791371CB880721E0
S3151000B99053711B0A9371014B98470EBDD9DC0010E9
S3151000B9A0F7B5294C1D1C23680190D326002B48D0CF
S3151000B9B01E1C0C3E2660002905D0244FBC4660464E
S3151000B9C03F68BF180760214807688446BE4232D9CF
S3151000B9D0684680880C3B18802368002909D0002A05
S3151000B9E007D0604600689A80801A9860184B98476E
S3151000B9F002E000219A809960002322689370033335
S3151000BA002B40032B01D06B0704D5012122689378B4
S3151000BA100B43937030232B40302B01D06B0604D58B
S3151000BA200221226893780B4393700A4A0026136802
S3151000BA300133136005E023601126002901D0BA1ADC
S3151000BA400260301CFEBDC046900401109404011023
S3151000BA5017F0001098040110F8B5051CCF20002A25
S3151000BA601CD0141C03221E1C0A400B1C033A514204
S3151000BA7051415A07D20F0A43D203094F281C002AF4
S3151000BA8003D0211C321CB84708E0111CB847002807
S3151000BA9004D1281C311C221C024B9847F8BDC04605
S3151000BAA0A1B90010D9DC001037B5094B051C081CCC
S3151000BAB00C1C9847002809D08268002A06D0838873
S3151000BAC0291C0092201C0022024CA0473EBDC046F5
S3151000BAD041B8001071D70010F0B50024051C8BB0CA
S3151000BAE0049310AB029204CB06911B88211C05937C
S3151000BAF012AB1B7810220393C54B1E68C54B3480BE
S3151000BB001B88B71D7380381CC34B9847C34B2878C6
S3151000BB109847C34B021C691C381C984704222B7883
S3151000BB2074711B011343039A029C920113433371E0
S3151000BB301623049A12345343029A1233D718BC426E
S3151000BB400FD0B84B218800930E2306AA9B18019399
S3151000BB50B54D301C01220223A8471634051EEED01F
S3151000BB6083E1109F002314373C1C0293029B059A15
S3151000BB70934200DBBFE0AD4B06AA00930E239B1841
S3151000BB800193A94D301C042101220223A847051E4A
S3151000BB9000D06AE1231C123B257B1B78291C1A1C3A
S3151000BBA003932088A24B984703232B40033B59420B
S3151000BBB059410123AD081D400D436389ED031D4313
S3151000BBC00790964B03989847221C113A0092033A15
S3151000BBD0031C0192291C301C934D079AA847051E79
S3151000BBE000D042E1C02223885200134204D1A38A16
S3151000BBF00393002B16D13AE00122D9091140DB0537
S3151000BC0001D5022319438B4B06AA00930E239B18CA
S3151000BC100193854D0902301C01220223A847051EF7
S3151000BC20E5D022E180232288257F5B001A40281C5C
S3151000BC300121002A00D00A1C7F4B984703222A4074
S3151000BC40033A514251417D4B0A1C0093231C6D0748
S3151000BC50ED0F2A43D2031043203382B20193724D63
S3151000BC60301C03990223A847051E00D0FDE00121D0
S3151000BC7023880B4211D0A07F6F4B00229847704B40
S3151000BC80021C0093231C24330193674D301C6D490D
S3151000BC900223A847051E00D0E7E0302322881A4267
S3151000BCA012D00121607F0A1C634B9847664B021C19
S3151000BCB00093231C223301935B4D301C61490223F0
S3151000BCC0A847051E00D0D0E0A369002B0ED05F4B0D
S3151000BCD006AA00930E239B180193534D301C07217F
S3151000BCE001220223A847051E00D0BEE0029B3C3469
S3151000BCF0013302933AE7301C554B9847051E00D086
S3151000BD00B3E03388069A13803688049B059AF61892
S3151000BD10B3B202933C235343109A1433D3180493AB
S3151000BD20049B9F4200D1A0E0029B9C1C3B1CA4B22A
S3151000BD30143B1C8003933B89002B08D1C0233A88FF
S3151000BD405B001A4226D0029E0336B4B222E00321CB
S3151000BD503B7B194003394A424A415907C90F1143DF
S3151000BD60C9037A89002907D07968002900D1394991
S3151000BD70201C394EB0470AE0201C374EB047002829
S3151000BD8072D1039B398918887A68344B98470028F2
S3151000BD90D4D069E0BB8A002B0AD00134A4B23C840B
S3151000BDA0397FFB8A201C3A692D4EB04700285BD19B
S3151000BDB03B88DB070DD500220134A4B209A9BC8447
S3151000BDC0BB7F201C0A704A70234E0232B0470028EF
S3151000BDD04AD130233A881A420DD000220134A4B237
S3151000BDE009A97C847B7F201C0A704A701A4E023285
S3151000BDF0B047002838D1B969002906D00134A4B259
S3151000BE00201C184B984700282ED13C37029487E700
S3151000BE10A0040110E811011029F000100DB800104F
S3151000BE2017F00010B3FC001069DC0010B5FC001010
S3151000BE30D9B80010B1FC001081B80010ADFC00108C
S3151000BE40AFFC001002800000A9FC0010ABFC001033
S3151000BE505DDB00108C040110A1B90010D9DC0010B4
S3151000BE6059BA001075B90010051C281C0BB0F0BD8E
S3151000BE700023064A1370064A1360064A1360064AE0
S3151000BE801360064A1360064A136070478C0401104B
S3151000BE909C040110980401108804011094040110E8
S3151000BEA0900401100A4B0B4A18604B0813600A4A9B
S3151000BEB0C3181360094A4118136003230022033183
S3151000BEC09943074B04391960064B1A607047C046F0
S3151000BED0A00401109C0401108804011094040110A0
S3151000BEE090040110980401107FB508AC40CC051CD5
S3151000BEF02488CF20002D0CD000290AD0002E08D07F
S3151000BF00002C06D0CE38019402900096281C024CC4
S3151000BF10A04704B070BDC046D9BA001070B50B4B1F
S3151000BF20061C0C1C151C9847002808D08068002891
S3151000BF3005D0211C2A1C064B9847002004E0301C13
S3151000BF40291C221C034B984770BDC04641B80010EF
S3151000BF5017F00010D9DC001070B50C4B061C0C1C29
S3151000BF60151C984700280BD08368002B08D08388AF
S3151000BF702B8082888168064B201C9847002004E09D
S3151000BF80301C291C221C034B984770BD41B8001069
S3151000BF9017F0001065DD0010F0B585B0041C019196
S3151000BFA0002928D14388271C0093181C164B984744
S3151000BFB00837002809D08068002806D0A388E288B0
S3151000BFC0C018391C114B984715E002AB9E1D002373
S3151000BFD00F4D33802968321C0E4B009898472B68FA
S3151000BFE0A088E2881818391C084B98476088328850
S3151000BFF02968094B984760882188019A074B98470A
S3151000C000002005B0F0BDC04641B8001017F0001072
S3151000C01084FD001059BF00101DBF0010DDD70010A1
S3151000C02038B50C1C074B98476588074B281C984752
S3151000C03083782620DB0704D42088291C034B9847D5
S3151000C0403B2038BD21D7001041B80010A9BA001006
S3151000C05038B50D1C0A4B141C98472D88094B281C03
S3151000C0609847220A031C084C91B2002803D08288F4
S3151000C0700023281C01E0281C0122A0473B2038BDC4
S3151000C08065D7001041B8001021D8001010B5141C47
S3151000C090074B9847074B60889847022381782220E0
S3151000C0A0194003D1201C044B98471F2010BDC046D1
S3151000C0B02DD7001041B8001099BF0010F0B5174DDC
S3151000C0C0174C2A68A544D223042A22D8061C154BDD
S3151000C0D0081C0C1C9847002808D08368002B05D034
S3151000C0E08288211C00921220321C0CE00E276F440D
S3151000C0F0391C04AA0C4B201C98471220211C321CF8
S3151000C1003B88009304AB094CA0472B6801332B6086
S3151000C1100023181C85239B009D44F0BD24050110A7
S3151000C120ECFDFFFF41B8001065DD001069D8001066
S3151000C1300A22014B1A70704781FD001010B5027863
S3151000C1400A70837844781B0223434B800379C078A6
S3151000C1501B0203438B80002A03D1024A1378013352
S3151000C160137010BD81FD001008B5031C42780078CD
S3151000C170120202430A80DA789878120202434A8041
S3151000C1805A791879120202438A80881D991D014B2B
S3151000C190984708BD17F00010F0B50C1C1F218BB086
S3151000C1A0079302ABC9180F230B70404B051C161CC6
S3151000C1B09847071C0120072F75D8002C13D112237E
S3151000C1C05F433B4BFB5C834201D0CF206BE0049571
S3151000C1D00094019402940394201C211C221C231CFD
S3151000C1E0344DA8475EE02279062AEED96379102BE2
S3151000C1F0EBD89A42E9D8237A042BE6D8A379072BF1
S3151000C200E3D8E379072BE0D8A378002B06D0002ECD
S3151000C210DBD02948311C1C22284B9847079B002B42
S3151000C22005D02748191C9A301022244B984763785A
S3151000C230A2789B001343122257431D4ADBB2BA5C05
S3151000C240002A16D1A079420702D5079A002ABCD037
S3151000C250C20701D5002EB8D066792178E27800960B
S3151000C2600190E0790290207A164C0390281CA04782
S3151000C27018E0012AA9D1E079420702D5079A002AC7
S3151000C280A3D0C20701D5002E9FD066792178E27817
S3151000C2900096A67902900196207A04950390054C93
S3151000C2A00120A04700200BB0F0BDC04681C600108B
S3151000C2B0EA110110F1CB0010F812011017F000105E
S3151000C2C07A120110D1C90010F0B585B0051C0C1CEE
S3151000C2D0161C002168461022184B98470121002E83
S3151000C2E001D1311C6E46002C16D10127231C701D5E
S3151000C2F0013E02780138303A7A439B180A22574396
S3151000C300B042F6D16A46684613701A0A42701A0C81
S3151000C3101B0E8270C37009E0CF20012C0CD10023B4
S3151000C3206846F25CC2540133102BF9D104206A46D8
S3151000C3302B1C034CA047002005B0F0BD29F00010BF
S3151000C3406DCC001070B50C4B0E1C0021051C141C76
S3151000C3509847012307280DD811335843074BC25C61
S3151000C360E023012A06D1B1000C43054BE1B2281C8B
S3151000C37098470023181C70BD81C60010EA110110E1
S3151000C380BDCC0010F7B5CF2300292BD0052A29D80C
S3151000C39001273D1C33249540254223D08C7E073C33
S3151000C3A0092C1FD8104B0C1C0021151C061C984775
S3151000C3B03B1C072816D8122358430C4BC75CE023A6
S3151000C3C0002F0FD1211C1C22094B0A489847231C09
S3151000C3D0A17E228A123300910195211C301C064C35
S3151000C3E0A0473B1C181CFEBD81C60010EA110110A7
S3151000C3F017F00010F8120110FDCC001073B5CF2401
S3151000C400002B11D0002A0AD005290DD80125332674
S3151000C4108D40354208D09D7E073D092D04D89C7E5F
S3151000C4200094024CA0470024201C76BDB9CD001004
S3151000C430F7B5C58807888688002D0CD1194B381C8E
S3151000C440311C2A1C9847031E2AD1381C311C1A1C71
S3151000C450154CA04724E09622144C920023885B19B1
S3151000C460934201DD00232380011C114A23880831E1
S3151000C4709B180193181C2A1C0E4B9847381C311C0C
S3151000C480019A084B984700280AD1094B2288311C7B
S3151000C490D218381C2B1C044EB0472388ED18258063
S3151000C4A0F7BDC046B5AB001049AB001054130110D0
S3151000C4B05817011017F0001008B5024B98470020C6
S3151000C4C008BDC046D1A30010802210B50021084C2B
S3151000C4D092000848A0479622002192000648A047DD
S3151000C4E00022064B1A80064A064B1A6010BDC0463B
S3151000C4F029F0001058150110581701105413011087
S3151000C5005813011084FD00100122014B1A60704768
S3151000C510A404011010B5041C074B1A68012A03D095
S3151000C520064B00209847F7E71968012902D1002227
S3151000C5301A6000E0227010BDA404011071A400104E
S3151000C54070477047F7B56B46DE1D002333700F2317
S3151000C550134C032723700023E370124B011C1A8817
S3151000C5601B8822711B0A062263710F480F4B6770D6
S3151000C570A77098470E4D0F4B0E212B800623A371E3
S3151000C5800023201CE3710C4BAF809847301C0B4BDB
S3151000C59098473378E220002B01D1AB681878FEBD9E
S3151000C5A058150110E81101106015011017F0001050
S3151000C5B0DC11011029030000B9C4001015C50010C4
S3151000C5C038B50B23274C2370033363702933A370BC
S3151000C5D0254BE1701A881B8822711B0A6371002390
S3151000C5E02072637201282BD098421BD002282FD1BB
S3151000C5F01E4B12211A1CCE321288A272120AE27235
S3151000C6001A1CD03212882273120A62731A1CD23282
S3151000C6101288D433A273120AE2731B8823741B0A7E
S3151000C620637416E0114B1249AA331D8811482B0A60
S3151000C630A572E3722A1C104B0C359847A9B208E074
S3151000C6400A4B0C21CC331B88A3721B0AE37200E041
S3151000C6500A210B1C083BA3711B12E371201C074B0C
S3151000C660984738BD58150110E81101107A120110BB
S3151000C670261301106415011017F00010B9C400102C
S3151000C6800C4B70B5041C08209C4211D000231222BA
S3151000C6905A43094DD8B256197689A64204D10029B3
S3151000C6A006D0535D0B7003E00133082BEFD1181C35
S3151000C6B070BDC046FFFF0000EA11011000231222D0
S3151000C6C05A430649D8B252185189054A914203D0A5
S3151000C6D00133082BF3D1181C7047C046EA1101101C
S3151000C6E0FFFF0000F7B50B78051C581E4E780F2873
S3151000C6F05AD8141C01F0A4FB0A4458584444584B09
S3151000C7002D1225085858393E3B204EE03B20002E6E
S3151000C7104BD02D0A15809670353846E06B46DF1DD6
S3151000C72001232D0A3B70281C391C204B98470728DB
S3151000C73003D83B783B20002B37D065802671092023
S3151000C74033E03B20002E30D02D0A158096702D3800
S3151000C7502BE03B20002E28D000232D0A1580967042
S3151000C7609380D380138134381FE03B20002E1CD0D9
S3151000C770167203E03B20002E17D01671123814E003
S3151000C7803B20002E11D09370D6702A380DE03B2036
S3151000C790002E0AD02D0A16705580101D0021052274
S3151000C7A0034B9847122000E00020FEBD81C6001002
S3151000C7B029F00010F0B585B01D1C0AAB1B7801924C
S3151000C7C002930BAB1B78071C03930CAB1A8802233E
S3151000C7D00E1C234C391C23700C336370A370214B31
S3151000C7E0E2701A881B8822711B0A1F4F10221F48DD
S3151000C7F06371B847330A267663760199330C102293
S3151000C800360E1B48A376E676B847231C2C331D70CC
S3151000C810231C2A0A2D331A70231C2A0C2E331A7045
S3151000C820231C2D0E2F336A461D70231C127A3033AB
S3151000C8301A70231C002531336A461D70231C127B87
S3151000C84032331A70231C33331D702C23201CA37112
S3151000C8503421084BE5719847281C05B0F0BDC04639
S3151000C86058150110E811011017F00010601501108D
S3151000C87074150110B9C40010F0B545780378304C22
S3151000C8802D021D43A585C37882788BB01B021A43EF
S3151000C8906B4605929B8A2021E385437902791B0218
S3151000C8A01A436B4606921B8B061C2386C379827924
S3151000C8B01B021A436B4607926A469B8B5218638675
S3151000C8C0437A011C0893231C1278773378341A7034
S3151000C8D00A3106221B4B201C9847337C09931A4BAE
S3151000C8E098471A4E071E072F1BD812234343F018DA
S3151000C8F0458169462425491909780622F1542021D3
S3151000C9006B465B181B78211C43706B469B8A023062
S3151000C91043816B461B8B83816B469B8BC381094B73
S3151000C9209847122100234F4300930193F6197189FA
S3151000C930074A0291101C191C064CA0470BB0F0BDFB
S3151000C9407A12011017F00010BDC60010EA1101107E
S3151000C9500E050110B5C70010042210B50C4B0024AB
S3151000C9601A700A325A709A700A4AD9701188128847
S3151000C9701971120A5A7101221A72921858729A7102
S3151000C980DC71181C0A21044B9847201C10BDC046A8
S3151000C99058150110E8110110B9C40010021C08B591
S3151000C9A0437800781B021843088093788B70002117
S3151000C9B0054B9847072806D812235843034B1818D7
S3151000C9C001235B42438108BD81C60010EA110110A4
S3151000C9D0F7B500931223041C08A8077809A806784F
S3151000C9E00AA805780BA800780190104803700E234A
S3151000C9F0C4700F4C437083702388248803716B4670
S3151000CA001B78240AC3726B461B794471C3730823BF
S3151000CA10837100230A244172C3711021054B0773D9
S3151000CA2046738573047282729847F7BD58150110C4
S3151000CA30E8110110B9C40010F8B50E78031CB01E29
S3151000CA4005285DD8151C0C1C01F0FAF90D035A2F98
S3151000CA5040470920002A54D01B0A53808B78294856
S3151000CA60137100211CE00920002A4AD0254C1B0A0C
S3151000CA7053808B780027101C211C1370224E1771BF
S3151000CA802E3117223230B047281C211C10221E319D
S3151000CA902230B047A11CA81D1C22B047201C391CEF
S3151000CAA046221A4B984709202BE0164D0231281CB6
S3151000CAB01022154E2E30B047281C211C3F30123143
S3151000CAC00622B047237E3E352B7019E00D48023101
S3151000CAD010220D4B1E30984712E00A4D02311022DB
S3151000CAE0094EA81CB047281C211CE37CA27C1B0203
S3151000CAF013431430143108226B82B047237F2B77EF
S3151000CB000020F8BDC804011017F0001029F000101D
S3151000CB1070B50C78031C4978072C5CD8201C01F0E2
S3151000CB208FF9045A5A5A0B5A1F1F0A20002A53D03B
S3151000CB301B0A138091704FE0002A0BD01B0A13803A
S3151000CB40002902D10123937004E000239370022977
S3151000CB5002D1D3700C203FE00129FBD1D170F9E747
S3151000CB6014221E481B0AC3701D4B0270063A4270EF
S3151000CB7082701A881B881B4E1B0A4371012302718F
S3151000CB8004724372051C311C0A30072C16D17E31F3
S3151000CB901022154CA047331C311C281C8E331B88C1
S3151000CBA09031AB7608221B0A1C30EB76A047311C5D
S3151000CBB098310A786B1DDA77252104E09A31102214
S3151000CBC0094B98471A210B1C0024083BAB71281CF3
S3151000CBD0064BEC719847002070BDC04658150110E1
S3151000CBE0E81101107A12011017F00010B9C40010E4
S3151000CBF0F0B585B0071C0AA806780BA805780CA80E
S3151000CC000078142402900DA80078019303900EA8C2
S3151000CC100088844612480470063C4470847064464A
S3151000CC20C470104C47722388248803716B461B7995
S3151000CC30240A03736B461B7A4471C3736B461B7BC2
S3151000CC400124037409238371002304728172C27252
S3151000CC5046738573C3711121034B984705B0F0BD18
S3151000CC6058150110E8110110B9C4001038B5142573
S3151000CC700D4CE3700D4B2570063D6570A5701D8833
S3151000CC801B8820721B0A63716172094B111C0948BB
S3151000CC901022257198471223A3710023201CE371DB
S3151000CCA01A21054B984738BD58150110E811011087
S3151000CCB017F0001062150110B9C400101A2208B539
S3151000CCC00B4B1A700C3A5A709A700A4AD870108820
S3151000CCD012881871120A5A710C221A720A3A9A712B
S3151000CCE000225972DA71181C0A21034B984708BDA5
S3151000CCF058150110E8110110B9C40010F0B500253F
S3151000CD0089B006930EAB1B78171C07930FAB1B78D5
S3151000CD10194A061C059100930290291C2B1C01959B
S3151000CD20101C164CA0471623154C05992370083B6A
S3151000CD306370A370134BE6701A881B8822711B0A46
S3151000CD4063710B23104E1022104823726572B04780
S3151000CD503B0A069908220E48E376A776B0476A463C
S3151000CD60127F631DDA771D23201CA3712521094B21
S3151000CD70E571984709B0F0BDA8040110B5C70010B9
S3151000CD8058150110E811011017F000106215011066
S3151000CD9074150110B9C4001008B5000A10804B783C
S3151000CDA008781B0203435380101D02310822014BE1
S3151000CDB0984708BD17F00010F0B5002587B004930A
S3151000CDC00CAB1B78171C154A061C05930091029094
S3151000CDD0291C2B1C0195101C114CA0471823114C13
S3151000CDE0049923700A3B6370A3700F4B0F481A887F
S3151000CDF01B8822711B0A637110220D4BE670277275
S3151000CE0098476B461B7D201C637612231A21A3714B
S3151000CE10084BE571984707B0F0BDC046B80401103D
S3151000CE20B5C7001058150110E81101106115011051
S3151000CE3017F00010B9C400100B78000AD370002345
S3151000CE40108093707047000038B51024051C0E48EA
S3151000CE500470023C447084700C4CC570258824887C
S3151000CE60C3721B0A240A037305234471002401723A
S3151000CE7042728371120A0D21054B05718272C471BB
S3151000CE809847201C38BDC04658150110E8110110EE
S3151000CE90B9C400100023000A108093704B780878EC
S3151000CEA01B0203439380CB7888781B020343D380FD
S3151000CEB04B7909791B020B43072013817047000A2F
S3151000CEC010804B7808781B0203435380CB78887800
S3151000CED01B02034393804B7908791B020343D380CB
S3151000CEE0CB7989791B020B43082013817047000008
S3151000CEF008B50B1C010A118018789070002804D10F
S3151000CF00034BAA331B88002B01D0024B984708BD50
S3151000CF107A120110C1C50010000A10800978012389
S3151000CF20081C890818400B40D07013717047000A0E
S3151000CF3010804B7818028B781B0403430878034340
S3151000CF40C8780006034353604B7918028B791B048B
S3151000CF5003430879C979034309060B4300209360FC
S3151000CF607047000010B5000A1080087890708B7812
S3151000CF704C781B0223439380012827D0002817D012
S3151000CF8002282AD10B79C8781B02034313818B79A7
S3151000CF9048791B020343D3800B7AC8791B020343DB
S3151000CFA093818B7A497A1B020B435381062313E034
S3151000CFB0141C201C0A79CB7812021A43E280074B04
S3151000CFC00830053198470223A37006E00B79C9781B
S3151000CFD01B020B43D3800523937010BD17F000106E
S3151000CFE008B50023000A13705080024B101D05224D
S3151000CFF0984708BD17F00010437802781B021343B8
S3151000D0000B80C37882781B0213434B8043790279D5
S3151000D0101B0213438B80C37982791B021343CB8087
S3151000D02000230B727047437802781B0213430B8060
S3151000D030C37882781B0213434B807047437802787B
S3151000D0401B0213430B80C37882781B0213434B8059
S3151000D050437902791B0213438B80C37982791B02B1
S3151000D0601343CB807047437802781B0213430B801F
S3151000D070C37882781B0213434B80437902791B02D3
S3151000D08013438B807047000073B56B4615491648DD
S3151000D0900C880988DD1D090A002302224171D02659
S3151000D0A001210471114C2B700270C3700B32017286
S3151000D0B08171C37108310E4B360142708270A280A5
S3151000D0C026809847281C0B4B98472B78E220002B7C
S3151000D0D006D1A368E2201A785B78012A00D1181CC1
S3151000D0E076BDC046E811011058150110DC1101106B
S3151000D0F0B9C4001015C50010F0B589B003930EAB76
S3151000D1001B78374C04930FAB1B780D27059310AB88
S3151000D1101B88A172009311AB1B88090A019312ABED
S3151000D1201B886072029306ABDE1D00233370042346
S3151000D13023700023E3702B4BE1721D881B88111C92
S3151000D1401B0A6371032325710622274D2748237274
S3151000D1506770A770A847039910222548A8476A4602
S3151000D160127CE31CDA776A46127D231DDA776A464B
S3151000D1701278631DDA77009BA21D1B0AD3776A46C5
S3151000D1801279E31DDA77221C019B08321B0AD3772A
S3151000D1906A46231C127A28331A70221C029B2932E3
S3151000D1A01B0A1370D023134D1B012B802223A3714E
S3151000D1B000232A21E371201C0F4BAF809847301CA7
S3151000D1C00E4B98473378E220002B06D1AB68E2204D
S3151000D1D01A785B78032A00D1181C09B0F0BDC04636
S3151000D1E058150110E811011017F000106415011000
S3151000D1F06A150110DC110110B9C4001015C5001014
S3151000D20084466346F0B585B00091CF20012B54D8E3
S3151000D210002952D000222A4902AB0C8809889F1D8A
S3151000D2209A71284B090A0D250626597161461E70FA
S3151000D2305D709D70DA701C7101293ED1D021224C8F
S3151000D240090161802149DA71218061461E72997146
S3151000D250181C09211E4BA5809847381C1D4B984752
S3151000D2603B78E2200193002B27D121881A4AA76820
S3151000D270013B914201D023801AE06380009B391C48
S3151000D280581C321C154B9847BB79009A1370D02343
S3151000D2901B01238002ABA580DD1D6B461B79281C64
S3151000D2A02B700C4B98472B78D020002B05D1A768F4
S3151000D2B03B787878062B00D0E22005B0F0BDC0464A
S3151000D2C0E811011058150110DC110110080D0000AD
S3151000D2D0B9C4001015C50010FFFF000017F00010AC
S3151000D2E037B5164916480C8809886B46090A4171E4
S3151000D2F0022103220172D021DD1D00230471114C7D
S3151000D300027009010A322B7042708270C37021803C
S3151000D310A280C3710C3A09210B4B82719847281CC5
S3151000D3200A4B98472878002801D0E22004E0A36829
S3151000D3305B78442B00D0181C3EBDC046E811011086
S3151000D34058150110DC110110B9C4001015C50010D4
S3151000D35038B5051C0C1C481C0622291C024B984784
S3151000D360AB790020237038BD17F00010F7B503789D
S3151000D37045780C3B181E0B2800D98DE00C1C00F0CC
S3151000D3805FFD521919198B060659598B8B0D0023FF
S3151000D390452D00D02B1C237002207EE03B20002D53
S3151000D3A000D17AE00D70481C102200213B4B9847A3
S3151000D3B00F2072E0002D34D1394B9847431EDBB253
S3151000D3C0281C062B69D86B46364ED91DB08D364BA8
S3151000D3D0984712235843354909180B1C4A890833B4
S3151000D3E022814F78A57227708A89601CA281DB88FA
S3151000D3F00231E381CB89062223822D4B9847002FD9
S3151000D4000AD0A3793F22191C01359143C02903D0B4
S3151000D4105B06DB0F0235ED1A01235B422570B385DF
S3151000D42038E00D7004E00023452D00D02B1C23702E
S3151000D430032032E01B4E0021B08D1B4B9847072866
S3151000D44018D801235B42B38513335843174909187B
S3151000D4500B1C4A89083322814A78A57222708A8960
S3151000D460601CA281DB880231E381CB8906222382EC
S3151000D4700F4B98470022237893420AD0A3793F3264
S3151000D480191C91433E3AC02903D05B06DB0F0232CA
S3151000D490D21A2270052000E00020FEBD29F00010EF
S3151000D4A0BDC600107A12011081C60010EA110110D3
S3151000D4B017F00010F0B589B003930EAB029102CBB2
S3151000D4C008AA1B883C4E009310AB1B880D249C4663
S3151000D4D011AB1B78049312AB1B78059313AB1B7817
S3151000D4E0069314AB1B78019319239B18DD7F18AB99
S3151000D4F01F8819AB1B7832880793304B36881A7100
