:020000041000EA
:108000001348144910B588420DD0134B99420AD237
:10801000CA43D2180023920801329200C458CC50AF
:1080200004339342FAD10D480D4B98420BD2C14311
:108030000024C9180023890801318900C2180433BB
:1080400014608B42FAD1074B9847074B984710BDF5
:10805000D4470110D447011084480110844801100E
:108060000C660110652F011031A3001010B5064CED
:108070002378002B07D1054B002B02D0044800E0E9
:1080800000BF0123237010BD8448011000000000D0
:10809000D4470110084B10B5002B03D007490848FE
:1080A00000E000BF07480368002B00D110BD064B5D
:1080B000002BFBD09847F9E700000000884801102A
:1080C000D4470110D44701100000000070B582B001
:1080D0000D0069468C1D0021218015490880501C27
:1080E000C0B24880486805700020002A07D0451CAF
:1080F0004E68185C70552800EDB29542F7D3002306
:108100000C4D0D482B700D4B98470D4A06E0238807
:1081100001339BB223802388934205D82B78002B10
:10812000F5D0002002B070BD01204042FAE7C04601
:108130004C510110DE4F0110F051011015AF00102D
:10814000E7030000242370B5174C82B0E35C002BDA
:1081500012D06B46DD1D002817D12870236801223C
:10816000597C6368114E18782B00B047002818D14D
:108170002B78637402B070BDA37A002B11D0002855
:1081800006D16B46DD1DD871E8E702232B70E5E7C9
:10819000637C0020002BEDD16B46DD1D01232B708D
:1081A000DCE701204042E5E7D4470110CD80001014
:1081B000F0B5564644465F464D46F0B483B09B4604
:1081C0006B469C1D00239246012223802A4B2B4E96
:1081D0005A80524672805A6880B21880308011707E
:1081E0000022274D19002748274B2A709847274A15
:1081F00006E0238801339BB223802388934231D841
:108200002B78002BF5D00023214D31002B701D4819
:10821000204B9847204B1D4F9946204B98460AE02B
:108220002388484601339BB22380218889B2C04706
:108230002388BB4219D82B78002BF1D0524600235B
:10824000002A07D059467268D25CCA540133DAB2A8
:108250005245F7D3002003B03CBC90469946A24655
:10826000AB46F0BD01204042F5E706480C4B98476D
:1082700001204042EFE7C0464C5101101C51011053
:10828000DE4F0110F051011059AF0010E70300005C
:108290009A500110C5AE0010604001103D31011030
:1082A00099AE001070B5544C82B0A37A002B00D167
:1082B0008FE06B46DD1D00232B7023680122597C63
:1082C00063684E4E18782B00B047002800D080E03D
:1082D000236801225979636818782B00B047002879
:1082E00077D1236801221979636818782B00B04789
:1082F00000286ED12423E35C002B34D00C232B7098
:10830000236801221979636818782B00B047002888
:108310005FD13B4B32309847C0232B70A37ADB07E9
:1083200061D4236801221979636818782B00B0475B
:1083300000284ED1637C002B58D12B70236801227A
:10834000597C636818782B00B047002841D1236816
:10835000287059796368012218782B00B047431EB2
:108360009841404237E004232B7023680122197999
:10837000636818782B00B04700282AD1A37C002B13
:108380002BD040232B702368012219796368187859
:108390002B00B04700281CD1194B32309847637C22
:1083A000002B26D001232B7023680122597C63689F
:1083B00018782B00B04700280BD123002268103317
:1083C0005179626810780122B047431E98414042BB
:1083D00001E00120404202B070BDA37ADB07D0D596
:1083E00060232B70CFE7E0232B709AE702232B70DA
:1083F000A4E72B70D8E7C046D4470110CD80001009
:108400009DA500100E4B1B7A012B14D0002B0FD012
:10841000022B06D0032B08D1FA23DB0003800020B7
:108420007047FA239B000380F9E700230380F6E7F7
:10843000FA230380F3E7FA235B000380EFE7C046EB
:10844000D447011070B5204C82B0A37A002B2AD0FB
:10845000FA235B00984230D00DD9FA239B00984252
:1084600025D0FA23DB0098421DD16B46DD1D182371
:108470002B70153B05E0FA2815D16B46DD1D002356
:108480002B70227A00209A420FD02368012299791A
:1084900063680E4E18782B00B047002803D12B7864
:1084A000DB08237201E00120404202B070BD6B4640
:1084B000DD1D10232B700E3BE3E76B46DD1D08230B
:1084C0002B70073BDDE7C046D4470110CD8000107C
:1084D000104A0100537A012B18D0002B13D0022B25
:1084E0000BD0032B0CD110230370D37C0020002B66
:1084F00002D00B785B000B70704708230370F4E721
:1085000001204042F8E702230370EEE704230370E2
:10851000EBE7C046D447011070B51D4C82B0A37A7A
:10852000002B24D004282CD009D9082823D01028C7
:108530001DD16B46DD1D18232B70153B05E002286D
:1085400015D16B46DD1D00232B70627A00209A4204
:108550000FD023680122D97963680E4E18782B005A
:10856000B047002803D12B78DB08637201E00120BB
:10857000404202B070BD6B46DD1D10232B700E3BD8
:10858000E3E76B46DD1D08232B70073BDDE7C046A4
:10859000D4470110CD80001070B51B4C82B0A37A77
:1085A000002B26D06B46DD1DBB2815D8612816D9B7
:1085B00002232B70E27A00209A420BD0236801221A
:1085C00099786368114E18782B00B047002810D1B5
:1085D0002B78E37202B070BD01232B70EAE72928E3
:1085E00004D8132808D904232B70E3E703232B7046
:1085F000E0E701204042EDE7092802D905232B706E
:10860000D8E706232B70D5E7D4470110CD800010A2
:108610002422054B9A5C002A03D1DB8903800020C9
:10862000704701204042FBE7D447011030B50100FC
:1086300083B0002820D0124CE08981421CD86429E4
:108640001AD8104B98476B460138D87124232268FA
:108650000D4DD15C6368012218786B460733A8473B
:10866000051E09D16B46D979E0890131074B98473E
:108670002085280003B030BD01256D42F9E7C046D2
:10868000D44701106D120110CD800010811301102C
:10869000242370B5144D0024EB5C002B13D1AC7A6D
:1086A000002C1DD00133984304402E7C2C74041BF5
:1086B000631E9C416442002807D12B7D002B00D013
:1086C00001200A4B9847200070BD084B01209847B5
:1086D000074B98470028F6D001242E746442F2E735
:1086E00001246442EFE7C046D447011045810010E1
:1086F000A5820010F0B557464E4645462423E0B407
:108700002C4C82B0E35C07008A469146002B46D091
:10871000A37A002B3DD0236801AE197B6368264DF8
:10872000187802223300A846A84700282ED13578B1
:1087300073782D021D43BD4226D3606843885B08D1
:108740009D420BD923680078D97C01223300C047B1
:1087500000281BD13378DB0627D460682368FAB27F
:10876000597B00785346C047041E0FD1134B390084
:10877000280098474B4601381870200002B01CBCF6
:1087800090469946A246F0BD4B46187001246442BB
:10879000F3E701240A480B4B98476442EDE70124B4
:1087A0000948084B98476442E7E70224074B98477B
:1087B0006442E2E7D4470110B18100106D1201104C
:1087C000744001103D31011068400110A582001075
:1087D000F0B5364C83B0A37C060083425FD06B4675
:1087E000DD1D2368012219796368314F18782B0049
:1087F000002E2ED0B847002855D120222B782D4F9F
:1088000093432B7023681F3A1979636818782B00FB
:10881000B847002847D1284B0330984702232B70D4
:108820002033E35C002B37D12323E35C002B03D000
:1088300030232A7813432B7023680122D97D636883
:1088400018782B00B84700282DD10020A67403B05B
:10885000F0BDB847002826D1A37ADB0717D4202221
:108860002B7893432B702368012219796368114F89
:1088700018782B00B847002815D10F4B03309847C4
:108880002223E35C002B0CD080232B70CCE7202329
:108890002A7813432B70E6E782232B70C4E700206D
:1088A000D5E72B70C0E701204042D0E7D447011044
:1088B000B1810010CD8000109DA50010232370B55C
:1088C000174C82B0E35C0500834224D06B4607332B
:1088D00000281DD11870A27C002A03D0022219782A
:1088E0000A431A702222A25C002A04D080211A783E
:1088F00049420A431A7022680A4ED17D6268107894
:108900000122B047002808D12323E55402B070BDEE
:1089100030221A70DFE70020F8E701204042F5E737
:10892000D4470110CD80001070B5040082B0282813
:1089300047D8002814D12D4B0020984707222C4DF2
:1089400001AB5A702A681C70517D6A68294C1078F6
:108950000222A047041E34D12875200002B070BD49
:108960000120224B9847012C2ED0022C30D0052C10
:1089700023D90A2C30D8052301AC23701C4D0122C9
:108980002B681C4E597A6B6818782300B047002872
:1089900017D1202323702B680122597D6B6818782A
:1089A0002300B047041E0CD10823AB72073B287389
:1089B0002B750020104B9847CFE7042301AC2370A0
:1089C000DCE701246442C8E7022301AC2370D5E749
:1089D000032301AC2370D1E7142C03D8062301AC88
:1089E0002370CBE7072301AC2370C7E7BD880010D5
:1089F000D4470110CD8000109186001030B52C4C6A
:108A000083B0A37A0500002B4ED02423E35C002B17
:108A10004AD1237D002B05D0431E272B40D90020AF
:108A2000244B9847F920032D22D86B46D871236830
:108A3000214D59786368012218786B460733A8479F
:108A4000051E31D16B46FA20D97980001B4B0131CC
:108A50009847238DE081181C642B16D8184B80B2E0
:108A60009847E089174B40089847280003B030BD6D
:108A7000FA23291C9B009D4209D8FA2089B2800064
:108A80000E4B98470138C0B2CFE76420E6E7FA20E2
:108A9000191C89B28000094B98470138C0B2C4E75D
:108AA000044B98470025E0E701256D42DDE7C0460D
:108AB000D447011029890010CD80001081130110C6
:108AC0002D86001099850010F0B54E465746454654
:108AD0007023E0B4034082B00600002B00D195E083
:108AE0006B469D1D01232B705F4C604F2368012254
:108AF000597D6368B84618782B00B847002800D025
:108B0000ADE040222B78287093432373324200D18A
:108B100093E0B30603D402232A7813432B70F306A1
:108B200003D401232A7813432B70330700D48AE03F
:108B300023680122997D636818782B00C0470028BC
:108B400000D08CE0082332009A4341D0484B98472C
:108B50006B4607339A462368012219796368454FAB
:108B600018785346B847002800D075E0F3073CD585
:108B700011232B7053461A78202313435246137047
:108B80002422A25C002A3CD0802252421343524647
:108B9000137026232268D15C6368012218782B00A9
:108BA000C047002858D123680122197963681878D2
:108BB0005346C047051E4FD120752F4B3220A67259
:108BC0009847280002B01CBC90469946A246F0BDCA
:108BD0006B4607339A462368012219796368254F4B
:108BE00018785346B847002836D110232B705346C7
:108BF00020221B789343524613702422A25C002A41
:108C0000C2D17F22134052461370C2E700281FD101
:108C10006B469D1D4023144C2B7099462368134FBF
:108C2000597D6368012218782B00B846B8470028A0
:108C300015D14A462B789343237304232B70B30634
:108C400000D56CE767E738232A7813432B706FE76A
:108C50006A46951D2B7047E701256D42B1E7002359
:108C60000125A3726D42ACE7D4470110CD800010FE
:108C7000BD880010B18100109DA50010F0B54D46D3
:108C80005F46564644468023F0B49D4C85B002AD05
:108C90002B7023680600597D636801221878994F6C
:108CA0002B00B8478146002873D1974B6420984623
:108CB00098474B462B7023680122597D63681878CA
:108CC0002B00B847002864D148232B702368E07438
:108CD000197A6368012218782B00B847051E58D10D
:108CE000FF23A37223726372E372A374FE3B2373A8
:108CF0002133E05401220133E054607520752000D7
:108D00005242E28122742285804B16300D320021BE
:108D100098472423E5540133E554FA207C4BE5843D
:108D20009847002835D104307A4B9847002830D135
:108D30002A30794B984700282BD13230774B98470F
:108D4000002826D1764B9847002822D1002E01D04A
:108D5000744B9847744B01209B469847734B0C25E6
:108D6000994601AE3300012200212800C84700289F
:108D700002D13378482B16D00135EDB2102DF1D148
:108D80000A206B4B9847041E03D16A4B002098477A
:108D900001E001246442200005B03CBC90469946A5
:108DA000A246AB46F0BD2A239A46E5541A3B3370DF
:108DB000012233000A212800B8470028E0D1012011
:108DC000C0471F23337053460122E05C0A21330061
:108DD000B8470028D4D10130C04753460322E05C95
:108DE00010213300C8470028CAD1337801228033CC
:108DF000A38573780A218033E385B3788033238693
:108E0000102333705346E05C3300B8470028B7D1D5
:108E10000130C0470020D847402333702368012227
:108E2000997E636818783300B8470028A8D1534664
:108E30008022E35C52421343337023688132997F6E
:108E4000636818783300B847002899D1022333703B
:108E500023680122D97F636818783300B847002857
:108E600000D08DE7882322683370683BD15C63684B
:108E7000012218783300B847002800D080E72A2361
:108E8000E35C226833702123D15C63680122187887
:108E90003300B847002800D072E70A2322683370F5
:108EA0001833D15C6368012218783300B847002872
:108EB00000D065E78123226833705E3BD15C636834
:108EC000012218783300B847002800D058E7112352
:108ED000226833701533D15C63680122187833003F
:108EE000B847002800D04BE70323226833702433AF
:108EF000D15C6368012218783300B84740E7C04668
:108F0000D4470110CD8000109DA50010F52F011051
:108F1000458400101985001099850010FD89001006
:108F200091860010659A0010D1870010B181001061
:108F30002D860010C98A0010F0B50D0083B0161EF2
:108F400021D0124CA37A002B1DD0020A01AB1A705B
:108F5000C0B26268587040185189884213DC216899
:108F60001078C97E02220A4FB84700280BD1236827
:108F7000EAB2197E636818783300B847431E9841F7
:108F8000404203B0F0BD01204042FAE7D44701104F
:108F9000CD800010F0B524261C4C83B0A35D0500E5
:108FA000834205D0002806D02523E35C002B13D193
:108FB000002003B0F0BD164B002098476B46227C82
:108FC00007331A70626823211078124F0122B847C4
:108FD000114BA5559847EBE70D4D0020A8470F4BC7
:108FE00000209847E08C0E4B98476B4600220733D1
:108FF0001A70626823211078064F0122B8470123B6
:109000000120A355A847044B9847D1E7D447011046
:1090100045810010CD800010A5820010D18700107E
:10902000FD89001000B585B00922064901A8064B4C
:109030009847972001AA0921044BC000984705B022
:1090400000BDC046BC400110E32F0110398F001055
:10905000F0B5474680B4050082B0430767D0C82307
:10906000DB00994263D84C4B080098474B4B4C4966
:1090700098476B46DC1C071C4A4B20009847237816
:10908000042B00D179E031D9082B67D0102B4ED1B9
:109090008A21454BC905381C98469847434CA04740
:1090A000434986B2381CC047A04780B201AC330A9E
:1090B0002370030A6670A370E070EB0727D4AB0738
:1090C0003BD400206B0734D5EE2022000221400063
:1090D000384CA04700282AD16B462D309A1D02211A
:1090E000FF30A047431E9841404222E0022B1ED190
:1090F0008D212D4BC905381C984698472B4CA0470D
:109100002D4986B2381CC047A04780B2CEE7EA207E
:10911000220002214000274EB047002807D16B46AD
:1091200025309A1D0221FF30B0470028C7D001200A
:10913000404202B004BC9046F0BDEC202200022167
:1091400040001C4EB0470028F1D16B4629309A1DD3
:109150000221FF30B0470028B3D0E8E78B21124B43
:10916000C905381C98469847104CA047134986B249
:10917000381CC047A04780B298E78C210A4BC9052C
:10918000381C98469847094CA0470D4986B2381CB0
:10919000C047A04780B289E7192001100D170110C0
:1091A00000004843D1840010A11A0110A11601103B
:1091B0000000C044398F00100000404600004045C8
:1091C0000000C045012300B5034083B0002B15D13A
:1091D0006A4607321370830703D50C2311780B43BB
:1091E0001370430703D5032311780B431370A42096
:1091F0000121054B4000984703B000BD6B46DA1DC6
:1092000030231370E7E7C046398F001000B585B0F2
:1092100000280DD1084909222831084B01A8984798
:10922000972001AA0921C000054B984705B000BD51
:10923000044B9847FAE7C046BC400110E32F0110E9
:10924000398F00102590001000B583B0002810D091
:10925000C02301AA13700233537002339370023398
:10926000D3700421054B06489847064B984703B036
:1092700000BD054B01AA0193F3E7C046398F0010EA
:10928000980A0000A58200108B8B8B8B00B583B0F1
:10929000002810D0202301AA13700833537008331C
:1092A00093700833D3700421054B06489847064B4A
:1092B000984703B000BD054B01AA0193F3E7C046F0
:1092C000398F00109E0A0000A5820010A3A3A3A35B
:1092D000F0B545464E4657460223E0B484B001AC93
:1092E0002370C833637019330500A3702200DA3B82
:1092F000042168207C4EE370B0474022A3232A401B
:109300002370904600D1E1E01D3363700833A370F1
:10931000063BE370C0277F002F4000D1D1E0C4237B
:10932000237108336371063BA371A32322000A2132
:109330006E48E37123726372B04703232B40994652
:1093400000D1BBE020232370220001216848B047F0
:10935000AB0600D4AEE0674B9847002F0ED0EB056C
:1093600000D5B7E0B0232370303B63703433A37073
:10937000243BE370220004215F48B047EB0700D490
:1093800090E08B20F8232200012100012370B047D8
:10939000FA215A4B07209847594B0720984700233A
:1093A0009A4650206B46524601211A70FF306A4699
:1093B000B0476B465246EF201A7014236A460221CA
:1093C00040005370B0476B465246ED201A7064233C
:1093D0006A46022140005370B0476B4652461A70ED
:1093E0006A468E23AE2053706B3393700421693B21
:1093F0004000D370B0476B465246AD201A70082328
:109400006A46022140005370B0476B465246AC207A
:109410001A7002236A46022140005370B047AB071E
:109420003DD5D9232370220001213648B0476B0770
:1094300031D50120344B9847EB0628D50120334B1A
:1094400098470823324C2B436381324B984743465D
:10945000002B19D14346A373002F02D0A37B063300
:10946000A37314232B4202D0A37B1033A3734B4668
:10947000002B02D0A37B0433A373002004B01CBCD8
:1094800090469946A246F0BD0623A373E4E71F4B1E
:1094900000209847D5E71C4B00209847CCE7D823FD
:1094A0002370C0E78B20D823220001210001237004
:1094B000B047B4E7184B002098474EE7D8232370F5
:1094C00042E7A32323716371A3712EE76370A37036
:1094D000E3701FE7B2232370273B63702B33A37025
:1094E0001B3BE37046E7C046398F0010A70A000017
:1094F000B60A000025900010A20A0000519000104A
:10950000C59100103D070000499200108D92001097
:10951000A0480110A58200100D920010F0B54E4633
:1095200057460023C0B489B09146109A554D138018
:1095300006000F00A87B119A6946534B9847041EFA
:1095400041D114236889034243D10023420619D52F
:1095500019006A466944D25C4C78120222433A8070
:109560008A78CC78120222437A800A7949791202E9
:109570000A43BA80109A0633118808220A431099C8
:10958000DBB20A80C0225200104219D019006A468C
:109590006944D25C4F7812023A4332808A78CF789D
:1095A00012023A4372800A79497912020A43B28060
:1095B000109A0633118870220A431099DBB20A8090
:1095C00082073FD10024200009B00CBC91469A4686
:1095D000F0BD009B1BBA9C464B4662461A60019B3D
:1095E00019BA4B465960029B09141BBA9A464B465E
:1095F00052469A604A46039B49431BBAD36062466F
:109600001214944652461B149A466346121491460D
:109610005B434A469C46534652435B436144891828
:10962000C918F1231B069C46802361449B04994280
:1096300022D88022109B52001B881343109A13805B
:10964000102383E76B441C00DE785B78DA070AD5C9
:109650002A68002A07D007200100F308314018408B
:109660000131904763781B07ACD56B68002BA9D0FC
:10967000B00998470024A6E7044B9847109B1C802C
:10968000013CA0E7A0480110F5860010A58200105B
:1096900030B50C4B85B09847041E02D0200005B0B1
:1096A00030BD1E230193C823DB00029000930022EB
:1096B000002301210020044DA8470028EED0E23409
:1096C000ECE7C046F5D4001075EA001010B5084B61
:1096D0001B78002B0BD01F20064B98470122064B0E
:1096E00002211A701F2000230022044CA04710BD45
:1096F000B048011009AD0010DC4F0110F5DA001080
:1097000010B5084B1B78002B0BD01720064B984741
:109710000222064B02211A70172000230022044C5B
:10972000A04710BDB048011009AD0010DC4F01107A
:10973000F5DA0010F0B583B001AC20000A4FB8474D
:109740000223002521006370084E013B1F20E370B7
:109750002570B0472000B84721001720257065709C
:10976000B04703B0F0BDC04661A9001071A9001058
:1097700010B502220549064C1720A047054B1720BB
:109780009847022204491F20A04710BD01970010EE
:10979000F9AB0010D5AC0010CD96001010B50B49F8
:1097A0000B78FF2B0FD00133DBB2094C0B70A08A72
:1097B0000122084B9847002804D1074BA18A18883A
:1097C000064B984710BD0023EFE7C046F04F01104D
:1097D000F84F011035F3001098500110D5F4001027
:1097E00010B51C4B98471C4B984700280CD0002202
:1097F0001A4B1A701A4B1B78002B16D1194A13708A
:109800001720194B984710BD0122144B1A70144BA6
:109810001B78002B0DD10322124B14481A70144BE5
:1098200098470120134B9847EAE702220D4B1A7024
:10983000E6E70C4B104C05321A7020000C4B984791
:109840000E4B98470E4B241ADC60DA685209DA6036
:10985000D6E7C046FD9A0010E19D0010F4500110BB
:10986000C8500110F74F0110D5AC0010CC0C00000F
:109870000DA2001035A2001000005046FDA50010FA
:10988000E04F011010B50224C16201210023002223
:1098900004705534C4703B3C0471A234C471643C00
:1098A00004722A3CC472203404736B34C47304748D
:1098B000A93C048501864186013C333143708370A5
:1098C000437183714372837243738373428244543E
:1098D000103182638287C28743540131435401317E
:1098E00043544823C2520233C2520233C25202646A
:1098F00010BDC046012310B582B0019303000100E2
:1099000014330093123100230022024CA04702B00E
:1099100010BDC04601F300100122014B1A707047C0
:10992000DE4F01100122014B1A7070479A5001104E
:1099300070B5102086B0194EB047194D040068600C
:109940001020B0471749002348600022200000E0A3
:109950006868C2544868C2540133102BF8D101AC76
:10996000114B200098470323237005336380636005
:109970000133E3600D4D073B0D4EA36023612200D0
:109980000C492800B0470028F9D128212A68535CE7
:10999000DB07FCD40123137506B070BDB12F011095
:1099A0004C5101101C510110A1AD0010F0510110DB
:1099B000B9AD00100030004000230C4A70B50C4CCB
:1099C00013700C4A0C4D1370200000220B49A8475D
:1099D00001220B492000A8470123627C13436374D2
:1099E0000223627C1343637470BDC046DE4F0110D6
:1099F000F05101109A500110B1AE001019990010E9
:109A00002599001010B51D20054B98470322054BE2
:109A100002211A701D2000230022034CA04710BD14
:109A200009AD0010DC4F0110F5DA0010F0B583B07D
:109A300001AC2000094FB847002301262100237004
:109A4000074D02331D206370E670A8472000B84719
:109A5000210005202670A84703B0F0BD61A90010C1
:109A600071A9001010B5022202491D20024B98472F
:109A700010BDC046059A0010F9AB001010B5782053
:109A800082B0164B9847002825D17820144B984770
:109A9000002820D10430134B984700281BD101A87F
:109AA000114B9847002816D16B46981D0F4B9847CD
:109AB000002810D16B46D81C0D4B984700280AD1BE
:109AC000C0300C4B9847041E05D11D200A4B984707
:109AD000200002B010BD01246442F9E7C98A0010D9
:109AE00091860010FD890010118600100584001079
:109AF000D1840010D1920010D5AC0010002330B5F5
:109B00000F4C83B063700F4B684600931D23019385
:109B10000D4B984700280AD028210C4A535CDB07DC
:109B2000DB0FDBB2002BF9D1137503B030BD01257B
:109B3000074B257098470028F7D06570F5E7C046B9
:109B4000C8500110059A00107D8C0010F0510110D2
:109B50007D9A001030B5242301242E4A8DB0D454B0
:109B60001B3B6B4401930A236B44009308AA03AB8D
:109B700006A904A8284DA847002809D0431C46D0B0
:109B8000831C37D01D20254B984700200DB030BDD9
:109B90006B46234918229B5E224C0B701B124B70A4
:109BA0006B461A229B5E8B701B12CB706B461C227D
:109BB0009B5E0B711B124B716B4610229B5E8B716F
:109BC0001B12CB716B4612229B5E0B721B124B72E7
:109BD0006B4614229B5E0C228B721B12CB72A08AE6
:109BE000114B98470028CDD1104BA18A1888104BF3
:109BF0009847C7E7C2300F4B9847002804D101208F
:109C00000D4B98470028BDD001204042BEE70B4BCA
:109C10005C70B7E7D44701101D950010D5AC00105B
:109C2000E45101104850011035F300109850011014
:109C3000D5F40010D1920010958F0010C85001107B
:109C400030B50224C1620C210023002212250470C9
:109C50005534C4703B3C0471A234C471643C04723A
:109C60002A3CC47220340473018641863F3C28316B
:109C70004370837043718371437283724373837340
:109C800005854282C4730474445410318263828710
:109C9000C287435401314354013143544823C252D3
:109CA0000233C2520233C252026430BD012310B5E6
:109CB00082B001930300010014330093123100239A
:109CC0000022024CA04702B010BDC04601F30010B4
:109CD000F0B557464E464546A223E0B43A4D3B4CBC
:109CE0002B7000236B70AB70394B82B09946394BA7
:109CF000394F984603232A009A4600934946230089
:109D00004046B8476378A278344E1B021343B380B1
:109D1000A4232B7053462A00009349462300404653
:109D2000B8476378A2781B021343F380A6232B70F5
:109D300053462A000093494623004046B8476378BB
:109D4000A2781B0213433381A8232B7053462A00A9
:109D50000093494623004046B8476378A2781B0227
:109D600013437381AA232B7053462A00009349465C
:109D700023004046B8476378A2781B021343B3819F
:109D8000AC232B7053462A000093494623004046DB
:109D9000B8476378A2781B021343F381AE232B707C
:109DA00053462A000093494623004046B847002006
:109DB0006378A2781B021343338202B01CBC904626
:109DC0009946A246F0BDC046E4500110D45001109F
:109DD00030510110545101108DA10010F4500110A8
:109DE0000023242110B50A4A82B013700133535462
:109DF000084A06391170084C084900930848094B75
:109E0000A0470320084B9847084B984702B010BD65
:109E1000F4500110E45001108DA1001030510110D8
:109E200054510110D45001109DA50010D19C001078
:109E3000F0B544465F4656464D462423F0B42F4ABB
:109E40009846D35C83B02E4C002B2ED02D4B002691
:109E50009B462D4B2D4F9A46042326706670A670A4
:109E6000E6702200009359463B00294D5046A84712
:109E70007B7859461A04BB7850461B021343FA7884
:109E800013431E4A536152232370513B0093220017
:109E90003B00A8474346194AD654002003B03CBCB7
:109EA00090469946A246AB46F0BD23706370A370FE
:109EB000E370144B154E9A46134B22009946042327
:109EC00051460093124F33004846B84773785146C5
:109ED0001A04B37848461B021343F2781343074A27
:109EE000936142232370413B9B4600932200330041
:109EF000B84743465A460149CA54CEE7F4500110C8
:109F0000E45001103051011054510110D45001108F
:109F10008DA10010F0B557464E464546E0B4324E8E
:109F20000021B789B3693F02DF1BFB1798462F4B0F
:109F3000F0899A463A004346D047FA23DB00994617
:109F40004902C00D084381444B4630893A003362D0
:109F500000214346D0470C060B120021020A22437F
:109F6000B488E0038018594172690023D047CB02BE
:109F7000440D3A0070891C434D1543460021D047DB
:109F80004F06CB110021C2093A43F7883804121852
:109F90004B41A41A9D416B04E40B1C434B461449EE
:109FA000F4610B704B461B124B704B461B148B70AD
:109FB0004B46181623120C714B7123142416CC71C6
:109FC0000C4C8B71C870A08A08220B4B9847002854
:109FD00004D10A4BA18A1888094B98471CBC9046AB
:109FE0009946A246F0BDC046F45001104916011032
:109FF000805101108851011035F300109850011064
:10A00000D5F4001010B5064B9847002804D124233E
:10A01000044AD35C002B00D110BD034B9847FBE7EB
:10A02000319E0010F4500110159F001010B502244D
:10A03000C16208210023002204705534C4703B3CE7
:10A040000471A234C471643C04722A3CC47220348A
:10A0500004739E34C4730474DC3C04850186418619
:10A06000013C2C314370837043718371437283725E
:10A070004373837342824454103182638287C28760
:10A08000435401314354013143544823C2520233F3
:10A09000C2520233C252026410BDC046012310B541
:10A0A00082B00193030001001433009312310023A6
:10A0B0000022024CA04702B010BDC04601F30010C0
:10A0C0000122014B1A707047F14F011030B58DB06D
:10A0D00001AC2000134B9847102321002370124835
:10A0E00002AC124B98472000114B9847682313226B
:10A0F000237100230F4DA370E2601133143AA36063
:10A1000022610D3B22621332A361E36162616362EB
:10A11000220009492800094B98472800084B984716
:10A120000DB030BD09B100103051011041B1001027
:10A1300015B10010545101100070004071B20010B0
:10A1400081B100100022F8B50A4B0B4F0B4C1A706E
:10A1500039000B4E20000232B0470A4D022239006E
:10A160002800B04720000221074CA0472800022108
:10A17000A047F8BDF14F0110C1A0001054510110CB
:10A180007DB800109C50011091B80010F8B55F46E2
:10A1900056464D464446F0B499460AAB1B88904655
:10A1A0009A460F4B012205000F009B46984700235B
:10A1B0000C4C4A4623704146534628000A4EB0478D
:10A1C0002378002BFCD000233900280000222370C4
:10A1D000D84700203CBC90469946A246AB46F8BD05
:10A1E00035B40010F14F0110A1B80010042210B5D1
:10A1F000044B03211A70422000230022024CA04786
:10A2000010BDC046DC4F0110F5DA001010B582B069
:10A210000400064B684698476A4600236846537018
:10A22000034B0194984702B010BDC046EDA5001045
:10A2300021A6001010B5002807D1084B98478021AF
:10A240008023074A0905D15010BD064B06489847A0
:10A250008022034B12051A60F6E7C04615A60010CF
:10A2600000E100E009A60010EDA1001010B588B0D3
:10A2700001A8074B9847074B01A803930693064B89
:10A280009847064C0020A0470120A04708B010BD09
:10A2900031A700109065000079A7001055A70010A5
:10A2A0000289034B00201A800122024B1A7070476A
:10A2B00098500110B0480110C078002800D0E2206A
:10A2C0007047C046002070470122014B5A7070470A
:10A2D000DC4F0110002210B5024B1A70024B984758
:10A2E000002010BDB04801109196001010B5084B29
:10A2F0009847084B9847084B9847084B1B78012B09
:10A3000000D010BD064B9847064B9847F9E7C0466A
:10A3100015D800108DD500106DA200100C4801104A
:10A32000CDA0001031990010002070470020704728
:10A33000F8B500234D46564644465F46564AF0B4AB
:10A340001370564C564A2370137063705370554BFC
:10A3500091469847544B9847544EB047544B9847B2
:10A360000020544B9847544B9847544B9847544BB4
:10A370009847544B9847544D2B78012B09D1534B98
:10A380009847534B9847534B9847534B9847534BD9
:10A390009847534B5348984700235349534F0B70EA
:10A3A0003800534B9847534B380098472B78012B74
:10A3B00058D0514D514A00210020A847504A02214F
:10A3C0000020A8474F48504B9847504B9847504B58
:10A3D000504D9B46504B514F9846514B9A46012049
:10A3E0004042A8476378002BF9D0B0472378DBB20E
:10A3F000022B2ED00FD9032B11D0042B06D1012113
:10A400000520C047D04700210520C0470423237002
:10A4100000236370E3E7012BF8D1D847F6E74B46FA
:10A420001B78002B1BD14B465B78002B14D13D4B86
:10A4300098473D4B181AB860BB68FA689B1A3B4AAC
:10A440009342E3D93A4B1B78002BDFD0BB68FB600B
:10A45000D5E7384B9847D9E7374B9847E7E7374B6D
:10A460009847E0E7364B002219000C311A7001338F
:10A470008B42FBD1334D00212800334B98472800F5
:10A48000324B9847324D00212800324B9847280024
:10A49000314B98478DE7C0462C510110DC4F01101D
:10A4A000C85001105DD800103DAD0010C9DD00108E
:10A4B0008DD5001049D100106DA200105DA50010CF
:10A4C00035970010719700100C4801102D9A00105C
:10A4D000CDA0001045A1001031990010B9990010CD
:10A4E0004DDE0010EDA200109B500110F84F01103E
:10A4F00085980010F598001039D30010084101101C
:10A5000054410110C9A2001045D5001039DE0010D9
:10A510009D970010C5D40010CDAA0010E04F011087
:10A5200005A00010FDA5001000005046FF7C0000B3
:10A53000F4500110E1970010FD9A0010559B001097
:10A54000D851011048500110419C0010AD9C0010E2
:10A55000885101102DA000109DA0001070B5094B6E
:10A560009847FA21084C89000500A047074B084985
:10A5700018602800A0470522064B1860064B1A6099
:10A5800070BDC04685B900106D120110144801104D
:10A5900040420F001048011010E000E0802130B56B
:10A5A0000025084B084A1C684902013808D3002CD2
:10A5B000FBD05460956013680B42FCD00138F6D292
:10A5C00030BDC0461448011010E000E0102310B563
:10A5D000044A11680B431360034B1B68002B00D027
:10A5E000984710BD00D00040B4480110012303700B
:10A5F0004370FA23DB0143607047C046014BD868C3
:10A600007047C04600D00040014B18607047C046FC
:10A61000B44801100022014B1A607047B448011081
:10A62000002270B52D4B82B01A730278022A46D0F0
:10A63000012A4ED02A490A68530048D02C2400250C
:10A64000FF340D6001950195019BA34206D8C046D9
:10A65000019B01330193019BA342F8D946788023E3
:10A66000002E1AD19B0000E00A681342FCD10A6850
:10A670005300E6D11A4B42685A60002E0FD10122D6
:10A680001A604378012B0FD00022164B16491A602E
:10A690002B20164B984702B070BDDB01E5E7022284
:10A6A0001A604378012BEFD1E0220D49D2010B68EB
:10A6B00013409342FBD10022094B1A60E4E7197B57
:10A6C00001320A4306491A730A685300B6D1467824
:10A6D000D0E7197B0A431A73ACE7C04600E000409C
:10A6E00000D00040B4480110CDA500109DC300105B
:10A6F00010B50C4B1A7D002A06D001221A730A4BA2
:10A700001B68002B00D098473422064B9A5C002A25
:10A7100007D001212C229954044B1B68002B00D038
:10A72000984710BD00100040B8480110BC48011007
:10A73000022201234270427300220370037383706C
:10A740008373C270C27303710374826042610276C4
:10A750007047C046002806D028227F2005498B5C20
:10A7600003408B5470477F21024A137A0B401372C7
:10A77000F8E7C0460010004070B504003A4B0420D2
:10A7800098472378002B02D1237B002B57D020231E
:10A7900003203649CA681343CB60227E8B6902408E
:10A7A0002D301201834313438B612378002B20D07B
:10A7B00062780120002A50D10223A178E278490072
:10A7C000194092000A331A400B00134322790343C5
:10A7D000002A3FD1C420A168254A244D11600121DF
:10A7E000137240002E5C314329548021107A0143BA
:10A7F0001172227B002A22D0627B002A24D10123FD
:10A800000220A27BE17B520010400C2289000A400A
:10A8100002431343227C002A01D0202213436169A2
:10A82000134AC42011622821535402230F4C4000C4
:10A83000255C2B4323548023505C034353540D4920
:10A840001E200D4B984770BD012A0BD0022AD7D18C
:10A850004023D5E720221343BCE7023A5342534139
:10A860009801A9E70023CBE785BF001000B00040A6
:10A8700000100040F1A600109DC30010002301202D
:10A8800070B5134E3568298F89B202009A400124B1
:10A89000114209D10133102BF7D18021C0230D4A79
:10A8A00009045B00D15070BD298F0A4392B22A87F8
:10A8B0004622B25A1A411442EFD04422B25A1A41E7
:10A8C0001442EAD09B00F3185B689847E5E7C0465E
:10A8D0002052011000E100E0F0B557464E464546D3
:10A8E000E0B41C4E0024B36C01251F8FBFB27B0B5C
:10A8F0005B039846184B9A468E23994615E02B0029
:10A90000A3401F420ED0B26C118F0B439BB2138732
:10A910004B46F35A23411D4204D08C23F35A234162
:10A920001D4207D10134102C09D04346002BE6D03C
:10A93000D047E4E71234A4003419636898478021B3
:10A94000C023064A49045B00D1501CBC904699467E
:10A95000A246F0BD2052011051BC010000E100E010
:10A9600000230122037042708370C3707047C04699
:10A97000030030B51720012B32D90E2B30D0072B16
:10A980002FD90F2B61D8072214001C40A400A2402D
:10A99000494DA86C9043A8641A001D3A022A2BD88E
:10A9A0001F24464D4A78287DE41A012A00D16CE024
:10A9B0000122A2400243D2B22A75CA78002A42D0AC
:10A9C0001F20C01A0123800083403C4900200A88D0
:10A9D00013439BB20B800223394A11780B43137047
:10A9E00030BD9D001038A840334C626C82436264D5
:10A9F0001A001D3A022AD3D90A78002A31D10F2B26
:10AA00003DD90F200122184082402E4892B2828206
:10AA10004A78012A3FD0002A0ED0022A39D10121DA
:10AA20009940254A0B00506D010019435165116D85
:10AA3000002099431165D3E7012199400B001E487E
:10AA4000026D134303650020CAE7172BA4D8072221
:10AA500014001C40A400A240174DE86C9043E86429
:10AA60009AE7012AEFD10F2B1DD90F2003409A40FE
:10AA7000144C0020218A0A4392B22282B0E70132AC
:10AA80009A40114892B28282C2E7A2409043287550
:10AA900093E71720A4E708489A40016D0B00934301
:10AAA000036500209CE79A400748018A0A4392B256
:10AAB0000282002094E7C04600B0004000F0004051
:10AAC00000E0004000100140000001400F2809D8BC
:10AAD000002912D00F498A880123834013439BB277
:10AAE0008B8009E000290FD10F2210400E3A8240DE
:10AAF00009498B8893438B80704701228240054926
:10AB00008B8893438B80F7E70F23034918408A888B
:10AB1000E2E7C0460000014000100140FF2370B58D
:10AB20000D0A194007280ED807248600B440314B7F
:10AB30005A6CA2430C00B4405A645A6C22435A64C3
:10AB4000012936D070BD0F2816D8072422000240F4
:10AB500092009440274B9E6CA6439E640E00964044
:10AB600032009C6C22439A640129EBD1A8310B2856
:10AB70003ED9D621490020E01728E3D80724220037
:10AB80000240920094401B4BDE6CA643DE640E0034
:10AB900096403200DC6C2243DA640129D2D11328BA
:10ABA00025D90324DA22204052009958C0003C34B1
:10ABB00015E003280ED9D221490003221040C0001D
:10ABC0003C32824085405C5894435C505A5815434F
:10ABD0005D50B7E7D0223F2452009958C00084400E
:10ABE0008540A143995099580D439D50AAE7B03133
:10ABF000FF31E2E700B00040F0B50F244746844241
:10AC00009B4180B48C465B42012A52D0002A41D03D
:10AC1000022A17D0032A29D00122204082402C4D3D
:10AC200014B2DF00FB185A00101862468000DB00E7
:10AC30002818EB18443342601A8822431A8004BC57
:10AC40009046F0BD204001248440DF00204DFA18DA
:10AC5000D600AA5924B2128DA959224392B20A856C
:10AC6000AE59328E224392B23286DBE72040012475
:10AC70008440DF00164DFA18D600AA5924B2128D6E
:10AC8000A959224392B20A85AE59B28E224392B29A
:10AC9000B286C7E7204001248440DF000C4DFA183B
:10ACA000D600AA5924B2928DA959224392B28A851C
:10ACB000EAE720408240DF00054DFE18F600A95962
:10ACC00014B2898D0A00A959224392B28A85C7E736
:10ACD000205201100F2282429B4110400E3A8240C6
:10ACE0005B4210B5D900074CCB18DB00E1184631A8
:10ACF000088812B21043088019590B8C1A4392B27B
:10AD00000A8410BD205201100F2282429B41104044
:10AD10000E3A82405B4210B5D900074CCB18DB00DD
:10AD2000E1184631088812B29043088019598B8C7B
:10AD30001A4392B28A8410BD2052011070B5124D90
:10AD4000002429002B002A004031546004320020E6
:10AD50009142FAD14622A852023AA852D86404334A
:10AD600000229942FAD18E23EA52023BEA52074B63
:10AD7000074C2B60074B0849AB642720A0470749C5
:10AD80002820A04770BDC04620520110000001409D
:10AD90009DC30010001001407DA80010D9A800102C
:10ADA000032303700D334380083B43600133C360CA
:10ADB000073B836003617047F8B51500040001602C
:10ADC0002822002D0DD08B5CDB07DB0FDBB2002BC4
:10ADD000F9D10B752368284A934227D0274A93421A
:10ADE00001D01720F8BD1920254B984700230022D9
:10ADF0002374A36163746382A382224B62771C6015
:10AE000026681D4B9E4226D01C4B9E4212D029899B
:10AE100028791D4CA047287B298AA0472B78002041
:10AE200033746B88338301233377DBE7144B0320C0
:10AE30009847DBE7154F164E39001A20B047390006
:10AE40001B20B0478022134BD2001A6080221201CF
:10AE50001A602668DBE70D4F0D4E39001820B04709
:10AE600039001920B04780220A4B52001A6092180C
:10AE70001A602668CBE7C04600300040003400402E
:10AE800085BF0010B05201101DAB00109DAF001027
:10AE90009DC3001000E100E028210268535CDB073D
:10AEA000DB0FDBB2002BF9D1202153547047C04691
:10AEB000931C9B00195001239340017C0B43DBB290
:10AEC0000374704710B5838A05249BB2002B01D010
:10AED000200010BD43714B68026883614B888382F8
:10AEE0000123037744772334135DDB07FCD401246B
:10AEF0003423D454143BD4540B888021007F5B004E
:10AF0000034349000B439BB213803023D4540024E5
:10AF1000DEE7C04630B5838A02009BB20520002BD5
:10AF200000D030BD53714D68146895614D8895828D
:10AF30001377507720330438E0540B88127F5B007E
:10AF400013438022520013439BB223802C23F03AF8
:10AF5000E2540020E5E7C04670B5838A02009BB248
:10AF60000520002B00D070BD012555714E68146876
:10AF700096614E889682137720335077E5540B887C
:10AF8000127F5B0013438022520013439BB2238045
:10AF90002C23F03AE2540020E5E7C04670B5564B4A
:10AFA00082B01C68637C257C26681D40638A002B68
:10AFB0001AD1A38A002B17D0A38A9BB26382638A1B
:10AFC000002B03D0A38A9BB2002B4AD0237F012BF6
:10AFD00060D02368494A934200D17FE0484A9342B7
:10AFE00000D165E002B070BD638A002B19D0A38A3E
:10AFF000002B16D1637F052B13D1237FDBB2002BEF
:10B000000FD12C22B3540022638263796277002B24
:10B0100001D12033F254EB07D1D5A3682000984723
:10B02000CDE7638A002BCAD0A38A002BC7D0237F29
:10B03000002B44D1638AA28A9B1A6A469BB2D380B2
:10B04000A38A013B9BB2A382D388A269944663443E
:10B050001B783380A38A002BB1D110222C33F254F9
:10B06000ADE7627F052AB1D1227F012AAED12F320E
:10B07000B3540022638263796277002B01D12033BD
:10B08000F254AB07A2D5237F012B9FD1E3682000A8
:10B0900098479BE72368194A934226D0184A93425F
:10B0A000A0D18021C023174AC9005B00D15099E785
:10B0B0008021C023134A09015B00D15092E7638AC3
:10B0C000A18AA28A5B1A013A92B2A282A2699BB2B9
:10B0D000944632796344D2B21A7070E78021C0235B
:10B0E000084A89005B00D1507CE78021C023054AD3
:10B0F00049005B00D15075E7B052011000300040AC
:10B100000034004000E100E00C2303700023437092
:10B110008370704701230370002343708370C370F2
:10B1200081330371773B83600133C3600133036173
:10B13000013343610B3B8361C36103624362704728
:10B1400030B50B7883B003704B7801AD43708B78CA
:10B15000040083702800074B9847012329002B70B7
:10B160002078054B984720780121044B984703B07D
:10B1700030BDC04661A9001071A90010CDAA001011
:10B1800003680A4A93420BD0094A934202D0012233
:10B190001A7670474021074A116040311160F6E786
:10B1A0001021044A116010311160F0E70060004086
:10B1B0000070004000E100E010B5194A03689342B6
:10B1C00012D0184A934209D000221A760368144A12
:10B1D00093421AD0134A93420DD010BD80224024CE
:10B1E00011498C508A50EFE7802210240E498C5070
:10B1F00010348C50E8E70D4C4220A0472720A04790
:10B200003920A0470220A047E7E7084C4120A0478B
:10B210002620A0473820A0470120A047DDE7C046F0
:10B22000006000400070004000E100E081BC0010C0
:10B2300010B50B4B046898470A4B9C4209D00A4B47
:10B240009C4200D010BD094C0220A0473920A047E5
:10B25000F8E7064C0120A0473820A047F2E7C04697
:10B26000B9B10010006000400070004085BF0010C0
:10B27000F0B545464E465746E0B4050029600B7EC2
:10B2800082B088461600DB0701D500230B765C4BA5
:10B29000280098472B685B4A934200D1A5E05A4AA0
:10B2A000934200D17CE0594B01A89847584B340099
:10B2B0009A46584B37009946083418372068431C83
:10B2C0000CD03378012B01D0002B01D16A461371C9
:10B2D00001A9C0B2D047218A2078C8470434BC42B3
:10B2E000ECD14246F37813743378012B51D000230C
:10B2F0000022AB84AB602B84EB602B616B61EB6154
:10B30000AB612633EA540133EA540133EA54253B56
:10B31000EB712A7132782B686A713278012A35D044
:10B3200072782421042A26D004205A5C82435A547D
:10B33000B278012A25D0002A2DD0022A11D0032A62
:10B3400008D124220221985C014399540121985C80
:10B3500001439954002002B01CBC90469946A24675
:10B36000F0BD24220221985C014301209954995C8C
:10B3700081439954EEE7585C02435A54B278012A4B
:10B38000D9D124220220995C8143DEE732799A8266
:10B39000C6E71377ABE724220220995C8143E4E7F8
:10B3A0001D4C4220A0472720A0473920A04702205B
:10B3B000A0472B68134A934209D1184B184914200F
:10B3C000184C1D60A04718491520A0476BE70E4A8E
:10B3D000934200D067E7114B14491620114C5D6071
:10B3E000A04713491720A0475DE70B4C4120A04719
:10B3F0002620A0473820A0470120A047D9E7C04613
:10B4000031B20010006000400070004061A90010DF
:10B4100071A900101DAB001091B90010B4520110B9
:10B4200055B400109DC3001069B5001069B6001036
:10B430007DB7001010B50878002A04D10121044B13
:10B440009847002010BD0021014B9847F9E7C046FE
:10B45000CDAA00103021F8B5414B1C6823681A7B37
:10B46000585C02400120104222D020221D7B2A423B
:10B470001FD0E07901281AD0032028261E27212575
:10B48000A755E071585CA84358542723E05C1F3B44
:10B4900003420BD02620205C034207D0A75520682A
:10B4A000435C9343435463692000984723681B79A6
:10B4B000F8BDE579012D25D01B79A269DBB21370A7
:10B4C000A3690133A361238C013B9BB22384238CAA
:10B4D0009BB2002BECD1E279D2B2002A23D12733E0
:10B4E000E55C253B2B42E3D02625655D2B42DFD072
:10B4F0002633E2542268535C83435354E3682000AC
:10B500009847D5E71879608C013880B26084608CE8
:10B5100080B20028CCD15D5C95435D542823E05473
:10B52000253BE371C4E7E279022AC1D12532A55C4B
:10B53000233A2A42BCD02625655D2A42B8D0256828
:10B540006A5C82436A54074A1178002901D110705D
:10B55000AEE7282163541370200023699847A7E7BA
:10B56000B4520110C04801102C2170B53B4B186833
:10B570000268137A545C2340DC0702D54479012C1D
:10B5800032D010221A4206D0C379DBB2012B03D08D
:10B59000C379022B13D070BD2721415C0B42FAD036
:10B5A0002621415C0B42F6D000212733C1540468A8
:10B5B0002C31635C9343635483689847EBE72533EE
:10B5C000C15C233B0B42E6D02621415C0B42E2D01A
:10B5D0002C210468635C93436354214B1A78002A3E
:10B5E00034D101221A70D6E7C579002D0CD11D4D3A
:10B5F0002D781570428C013A92B24284428C002A16
:10B600001FD04279012ABCD1C279002AB9D0C269BF
:10B6100011780132C2610268C9B21170828C013A9C
:10B6200092B28284828C002AABD1012504682C322C
:10B63000A15CA943A15410210468A55C2943A1542D
:10B640009FE705686A5CA2436A54DAE7002204397E
:10B6500042541A70036998479DE7C046B4520110DE
:10B66000C0480110C24801103021F8B5414B5C6858
:10B6700023681A7B585C02400120104222D020220D
:10B680001D7B2A421FD0E07901281AD003202826EA
:10B690001E272125A755E071585CA843585427233D
:10B6A000E05C1F3B03420BD02620205C034207D006
:10B6B000A7552068435C934343546369200098472F
:10B6C00023681B79F8BDE579012D25D01B79A26986
:10B6D000DBB21370A3690133A361238C013B9BB2DE
:10B6E0002384238C9BB2002BECD1E279D2B2002AC6
:10B6F00023D12733E55C253B2B42E3D02625655D2E
:10B700002B42DFD02633E2542268535C83435354E8
:10B71000E36820009847D5E71879608C013880B23B
:10B720006084608C80B20028CCD15D5C95435D5410
:10B730002823E054253BE371C4E7E279022AC1D112
:10B740002532A55C233A2A42BCD02625655D2A42D3
:10B75000B8D025686A5C82436A54074A5178002948
:10B7600001D15070AEE72821635453702000236943
:10B770009847A7E7B4520110C04801102C2170B5BA
:10B780003B4B58680268137A545C2340DC0702D5AF
:10B790004479012C32D010221A4206D0C379DBB290
:10B7A000012B03D0C379022B13D070BD2721415C3C
:10B7B0000B42FAD02621415C0B42F6D00021273300
:10B7C000C15404682C31635C934363548368984785
:10B7D000EBE72533C15C233B0B42E6D02621415CDD
:10B7E0000B42E2D02C210468635C93436354214BE9
:10B7F0005A78002A34D101225A70D6E7C579002D33
:10B800000CD11D4D2D781570428C013A92B24284B4
:10B81000428C002A1FD04279012ABCD1C279002A69
:10B82000B9D0C26911780132C2610268C9B211701F
:10B83000828C013A92B28284828C002AABD101259B
:10B8400004682C32A15CA943A15410210468A55CB2
:10B850002943A1549FE705686A5CA2436A54DAE76A
:10B860000022043942545A70036998479DE7C04644
:10B87000B4520110C0480110C2480110931C9B0033
:10B880001950012326219340425C134343547047CF
:10B89000012327228B40815C0B4383547047C046B1
:10B8A00070B505001720002B00D170BD2826AC5DB7
:10B8B000E0B20528F9D0AB842B840523AA61E961A5
:10B8C000AB55033BEB710B4A2B68934209D00A4AF4
:10B8D00093420AD001222C215A5404315A54002098
:10B8E000E3E70021054A1170F4E70021034A517093
:10B8F000F0E7C0460060004000700040C048011002
:10B90000012821D0002816D0022812D10C20184A74
:10B91000936983439361174A174B1A600320144BB2
:10B9200001409A6982439A619A69002011439961A2
:10B9300000E0172070470C230D4A90690343936180
:10B940000C4A0D4B1A60E9E70822094B986902433B
:10B9500004209A619A69824380209A61074A000311
:10B96000536803435360064A034B1A60D6E7C04648
:10B9700000B0004080BA8C01BC52011000F00040C1
:10B9800080841E00014B18687047C046BC520110ED
:10B9900000B5352800D96DE1B74B80001B58B74A78
:10B9A0009F4602230020117D0B43137500BD012328
:10B9B000117D00200B431375F8E7802113690904FA
:10B9C0000B4313610020F1E780211369C9030B4386
:10B9D00013610020EAE78021136989030B43136197
:10B9E0000020E3E78021136949030B431361002022
:10B9F000DCE78021136909030B4313610020D5E7BD
:10BA000080211369C9020B4313610020CEE7802116
:10BA1000136989020B4313610020C7E78021136972
:10BA200049020B4313610020C0E78021136909021A
:10BA30000B4313610020B9E780211369C9010B434F
:10BA400013610020B2E78021136989010B43136160
:10BA50000020ABE78021136949010B4313610020EB
:10BA6000A4E78021136909010B43136100209DE7BE
:10BA700080211369C9000B431361002096E78021E0
:10BA8000136989000B43136100208FE7802113693C
:10BA900049000B431361002088E7802311690020CF
:10BAA0000B43136182E74023116900200B431361AC
:10BAB0007CE72023116900200B43136176E71023F4
:10BAC000116900200B43136170E7082311690020FE
:10BAD0000B4313616AE70423116900200B431361D0
:10BAE00064E70223116900200B4313615EE7012321
:10BAF000116900200B43136158E78021D368C90501
:10BB00000B43D360002051E78021D36889050B43A4
:10BB1000D36000204AE78021D36849050B43D360F6
:10BB2000002043E78021D36809050B43D360002040
:10BB30003CE78021D368C9040B43D360002035E77C
:10BB40008021D36889040B43D36000202EE7802135
:10BB5000D36849040B43D360002027E78021D368D2
:10BB600009040B43D360002020E78021D368C90378
:10BB70000B43D360002019E78021D36889030B436E
:10BB8000D360002012E78021D36849030B43D360C0
:10BB900000200BE78021D36809030B43D36000200A
:10BBA00004E78021D368C9020B43D3600020FDE67F
:10BBB0008021D36889020B43D3600020F6E6802100
:10BBC000D36849020B43D3600020EFE68021D3689D
:10BBD00009020B43D3600020E8E68021D368C90145
:10BBE0000B43D3600020E1E68021D36889010B4339
:10BBF000D3600020DAE68021D36849010B43D3608B
:10BC00000020D3E68021D36809010B43D3600020D4
:10BC1000CCE68021D36849000B43D3600020C5E601
:10BC20008023D16800200B43D360BFE62023D16876
:10BC300000200B43D360B9E61023D16800200B43EA
:10BC4000D360B3E60823D16800200B43D360ADE690
:10BC50000423D16800200B43D360A7E60223D168F8
:10BC600000200B43D360A1E60423117D00200B4389
:10BC700013759BE6172099E67C41011000B0004047
:10BC800000B5352800D948E1A54B80001B58A54ACE
:10BC90009F4602210020137D8B43137500BD0121B7
:10BCA000137D00208B431375F8E711699E4B00202C
:10BCB0000B401361F2E711699C4B00200B401361AC
:10BCC000ECE711699A4B00200B401361E6E711691C
:10BCD000984B00200B401361E0E71169964B002060
:10BCE0000B401361DAE71169944B00200B4013619C
:10BCF000D4E71169924B00200B401361CEE7116924
:10BD0000904B00200B401361C8E711698E4B002057
:10BD10000B401361C2E711698C4B00200B4013618B
:10BD2000BCE711698A4B00200B401361B6E711692B
:10BD3000884B00200B401361B0E71169864B00204F
:10BD40000B401361AAE71169844B00200B4013617B
:10BD5000A4E71169824B00200B4013619EE7116933
:10BD6000804B00200B40136198E78021136900206D
:10BD70008B43136192E74021136900208B431361C9
:10BD80008CE72021136900208B43136186E7102183
:10BD9000136900208B43136180E708211369002099
:10BDA0008B4313617AE70421136900208B431361ED
:10BDB00074E70221136900208B4313616EE70121B0
:10BDC000136900208B43136168E7D168664B00203C
:10BDD0000B40D36062E7D168644B00200B40D36016
:10BDE0005CE7D168624B00200B40D36056E7D16816
:10BDF000604B00200B40D36050E7D1685E4B0020C1
:10BE00000B40D3604AE7D1685C4B00200B40D36005
:10BE100044E7D1685A4B00200B40D3603EE7D1681D
:10BE2000414B00200B40D36038E7D1683F4B0020E6
:10BE30000B40D36032E7D1683D4B00200B40D3600C
:10BE40002CE7D1683B4B00200B40D36026E7D1683C
:10BE5000394B00200B40D36020E7D168374B0020DE
:10BE60000B40D3601AE7D168354B00200B40D360FC
:10BE700014E7D168334B00200B40D3600EE7D16844
:10BE8000314B00200B40D36008E7D1682F4B0020D6
:10BE90000B40D36002E7D1682D4B00200B40D360EC
:10BEA000FCE6D1682B4B00200B40D360F6E6D1684E
:10BEB000294B00200B40D360F0E6D168294B0020CD
:10BEC0000B40D360EAE68021D36800208B43D36027
:10BED000E4E62021D36800208B43D360DEE6102106
:10BEE000D36800208B43D360D8E60821D3680020B4
:10BEF0008B43D360D2E60421D36800208B43D36008
:10BF0000CCE60221D36800208B43D360C6E604212F
:10BF1000137D00208B431375C0E61720BEE6C04694
:10BF20005442011000B00040FFFF7FFFFFFFBFFF42
:10BF3000FFFFDFFFFFFFEFFFFFFFF7FFFFFFFBFF4D
:10BF4000FFFFFDFFFFFFFEFFFF7FFFFFFFBFFFFFC4
:10BF5000FFDFFFFFFFEFFFFFFFF7FFFFFFFBFFFF2D
:10BF6000FFFDFFFFFFFEFFFFFFFFFFBFFFFFFFDF44
:10BF7000FFFFFFEFFFFFFFF7FFFFFFFBFFFFFFFDEF
:10BF8000FFFFFFFE00B5432800D900E2D54B80003B
:10BF90001B589F46D44BD54A198900200A4080215E
:10BFA0001A811A8909010A431A8100BDCE4BD04A71
:10BFB000198900200A4080211A811A8949000A4300
:10BFC0001A81F2E78021C84B00201A898A431A811E
:10BFD000802219890A431A81E7E70421C24B002015
:10BFE0001A898A431A81042219890A431A81DCE7D3
:10BFF000BD4BC04A596800200A4080215A605A68E7
:10C0000049040A435A60D0E7B74BBB4A596800203D
:10C010000A4080215A605A6809040A435A60C4E7FA
:10C02000B14BB64A596800200A4080215A605A68CC
:10C03000C9030A435A60B8E7AB4BB14A59680020BC
:10C040000A4080215A605A6889030A435A60ACE763
:10C05000A54BAC4A596800200A4080215A605A68B2
:10C0600009030A435A60A0E79F4BA74A596800207A
:10C070000A4080215A605A6889000A435A6094E74E
:10C080008022994B596891435960596800200A43AE
:10C090005A608AE7944B20225968F4E7924B0822B1
:10C0A0005968F0E7904B02225968ECE740218E4B2B
:10C0B00000201A898A431A81402219890A431A8169
:10C0C00073E72021884B00201A898A431A81202295
:10C0D00019890A431A8168E71021834B00201A89C5
:10C0E0008A431A81102219890A431A815DE70821BF
:10C0F0007D4B00201A898A431A81082219890A4334
:10C100001A8152E7784B814A198900200A40802120
:10C110001A811A89C9000A431A8146E7724B7A4A82
:10C12000198900200A4080211A811A8989000A434E
:10C130001A813AE780216C4A0906536800205B00A7
:10C140005B08536053680B4353602EE7664B704A9D
:10C15000596800200A4080215A605A68C9050A437C
:10C160005A6022E7604B6B4A596800200A408021E0
:10C170005A605A6889050A435A6016E75A4B664A5C
:10C18000596800200A4080215A605A6849050A43CC
:10C190005A600AE7544B614A596800200A408021DE
:10C1A0005A605A6849030A435A60FEE602214E4B20
:10C1B00000201A898A431A81022219890A431A81A6
:10C1C000F3E6494B564A596800200A4080215A60DC
:10C1D0005A6809050A435A60E7E6434B514A5968D1
:10C1E00000200A4080215A605A68C9040A435A60F4
:10C1F000DBE63D4B4C4A596800200A4080215A60DA
:10C200005A6889040A435A60CFE6374B474A59684F
:10C2100000200A4080215A605A68C9020A435A60C5
:10C22000C3E6314B424A596800200A4080215A60D7
:10C230005A6809020A435A60B7E62B4B3D4A5968CF
:10C2400000200A4080215A605A68C9010A435A6096
:10C25000ABE6254B384A596800200A4080215A60D5
:10C260005A6889010A435A609FE61F4B334A59684E
:10C2700000200A4080215A605A6849010A435A60E6
:10C2800093E6194B2E4A596800200A4080215A60D3
:10C290005A6889020A435A6087E6134B294A59684B
:10C2A00000200A4080215A605A6849020A435A60B5
:10C2B0007BE60D4B0D4A596800200A4080215A60E8
:10C2C0005A6809010A435A606FE6074B0F4A5968DA
:10C2D00000200A4080215A605A68C9000A435A6007
:10C2E00063E6C0462C43011000B00040FFF7FFFF9B
:10C2F000FFFEFFFFFFFFFFFEFFFF7FFFFFFFBFFF10
:10C30000FFFFDFFFFFFFF7FFFFFDFFFFFFFBFFFF6B
:10C31000FFFFFFBFFFFFFFDFFFFFFFEFFFFFEFFFAD
:10C32000FFFFFFF7FFFFFFFBFFFFFFFDFFFFFBFF2F
:10C33000FF7FFFFFFFBFFFFFFFDFFFFFFFEFFFFFFD
:10C34000FFFFFDFFFFFFFEFF0121124B00201A89B6
:10C350008A431A81012219890A431A8125E60D4B65
:10C360000D4A596800200A4080215A605A684900E5
:10C370000A435A6019E6074B4022596883E6054B89
:10C38000102259687FE6034B042259687BE6172088
:10C390000BE6C04600B00040FFFEFFFF8023DB0439
:10C3A0009C466044800001607047C04670B5214BD8
:10C3B0001C6823681D7DEDB26A060DD51E21222260
:10C3C000A1541A7E23318A431A762123E25C193B59
:10C3D00013421DD123681A7C01222A4217D01B7CEC
:10C3E0006169DBB20B70636901336361A38B013B4D
:10C3F0009BB2A383A38B9BB2002B08D12121605C4D
:10C400001D39014203D02020205C014208D170BDBB
:10C410002022A25C1342DDD0200023699847D9E78F
:10C420001E316354216820000B7E93430B76E36832
:10C430009847ECE7C0520110012170B5224B1C68EF
:10C4400023681D79EDB229420CD0A269107801321F
:10C45000C0B2A2611870E38B013B9BB2E383E38B14
:10C46000002B22D010232B4204D02122A15C203AA1
:10C470000A420BD120232B4207D02122A15C1F3A74
:10C480000A4202D0E35C1A4219D170BD2021615CDE
:10C490000A42EFD000212132A154216820000A7AFB
:10C4A0009A430A7263689847E4E72268137A8B43D9
:10C4B000137210232268117A0B431372D2E7A36818
:10C4C00020009847E1E7C046C052011070B5214BEB
:10C4D0005C6823681D7DEDB26A060DD51E212222FF
:10C4E000A1541A7E23318A431A762123E25C193B38
:10C4F00013421DD123681A7C01222A4217D01B7CCB
:10C500006169DBB20B70636901336361A38B013B2B
:10C510009BB2A383A38B9BB2002B08D12121605C2B
:10C520001D39014203D02020205C014208D170BD9A
:10C530002022A25C1342DDD0200023699847D9E76E
:10C540001E316354216820000B7E93430B76E36811
:10C550009847ECE7C0520110012170B5224B5C688E
:10C5600023681D79EDB229420CD0A26910780132FE
:10C57000C0B2A2611870E38B013B9BB2E383E38BF3
:10C58000002B22D010232B4204D02122A15C203A80
:10C590000A420BD120232B4207D02122A15C1F3A53
:10C5A0000A4202D0E35C1A4219D170BD2021615CBD
:10C5B0000A42EFD000212132A154216820000A7ADA
:10C5C0009A430A7263689847E4E72268137A8B43B8
:10C5D000137210232268117A0B431372D2E7A368F7
:10C5E00020009847E1E7C046C0520110E123032232
:10C5F0005B0203600023C2600132037143718371E7
:10C60000C371026102330132836042618361C3619D
:10C61000036243627047C046F0B54746534B80B44F
:10C62000050017000160994200D16CE0504B99421F
:10C6300000D181E0FA790223002A00D00233013BC5
:10C64000DEB24C4B3C0098460336B6000834BE19A7
:10C65000218A01CCC0B2C047A642F9D12B681A7D0D
:10C66000D20704D501211A7C1A7D1142FBD1002189
:10C6700020229954FB797A79591E8B4159013B79D3
:10C680001343BA790B43022A3AD034D9032A2FD064
:10C69000042A01D10E221343202229688B54364BE1
:10C6A0003E6898473100354B0400984782B2000439
:10C6B000000C70433109201A0023814207D2013354
:10C6C000DBB2401A8142FAD301331B075B0F002112
:10C6D00028202C68D200215413432A689BB29384EB
:10C6E0002B68002019762B68197204BC9046F0BDA7
:10C6F0000A221343D0E7012ACED102221343CBE70B
:10C7000006221343C8E71E4C0920A0470A20A04771
:10C710001C4C0920A0470A20A0471B4B1B49102096
:10C720001B4C1D60A0471B491120A04701221A4B3A
:10C730001A6001321A607DE7114C0B20A0470C20D3
:10C74000A047104C0B20A0470C20A0470E4B1349CC
:10C7500012200F4C5D60A04711491320A04704220E
:10C760000D4B1A6004321A6064E7C0460040004076
:10C77000005000401DAB001085B900106D12011073
:10C7800085BF001091B90010C0520110ADC3001058
:10C790009DC3001039C4001000E100E0CDC40010BA
:10C7A00059C500100268012013791842FCD00020FE
:10C7B0001170704702680120137D1842FCD0137C71
:10C7C00000200B707047C04610B51723002A01D116
:10C7D000180010BD2224035DDBB2052BF8D0052321
:10C7E000828301224161035503681A760023EFE733
:10C7F0009300C3185960012320219340425C1343E6
:10C800004354704700228B00C3185A6001328A409B
:10C810002021435C934343547047C04601232122A7
:10C820008B4010B5845C23438354012904D1202319
:10C830000268117A0B43137210BDC046012210B575
:10C8400021248A40035D93430355012904D10268E2
:10C850001F31137A8B43137210BDC046F0B54746A3
:10C860000C0080B49046002811D1002A0DDD094E3D
:10C87000094D8F18210030682B6801349847BC425D
:10C88000F8D1404604BC9046F0BD0020FAE70120F4
:10C890004042F7E7D0520110C8520110F0B54746A8
:10C8A000013880B40E001500022810D8002A15D0D7
:10C8B0000B4B002498460B4F02E00134A5420BD0ED
:10C8C0004346315D18683B6898470028F5DA012037
:10C8D000404204BC9046F0BD2800FAE70020F8E78B
:10C8E000D0520110CC520110044A1368002B03D01F
:10C8F0001818106018007047014BF9E7C448011080
:10C9000010760110012040427047C04680239B01F1
:10C9100000204B607047C0460120704700207047E0
:10C920000078002800D0E2207047C046C078002878
:10C9300000D0E2207047C0469B221C4B9200F0B50D
:10C940009C18913A4746FF3A9446DA3A0125002668
:10C95000904680B4164F1A00563A118802889142C8
:10C9600006D07C33A342F6D1002004BC9046F0BD33
:10C970001A78052A0ED0082A0CD0072A08D82900D0
:10C9800091400A006146114206D141461142E8D168
:10C990001E70E6E71D70E4E71E703A78002AE0D0CA
:10C9A0003A78013AD2B23A70DBE7C0464A530110F6
:10C9B000585501100020704770B5194E0023320001
:10C9C000058811891C00A94212D001337C32052B45
:10C9D000F7D18178002920D005246201131B9B0028
:10C9E000F31807221976E2215E331A70080070BD31
:10C9F00011005E3109780629E7D181780029ECD150
:10CA00005A01D31A9B00F3181A0008245E321470DE
:10CA1000C2781A7582781A76E8E7E221E6E7C0461E
:10CA2000EC520110F8B50378002B0DD10024224DF3
:10CA3000224F461C102229003000B84700280ED093
:10CA400001347C35052CF5D100231D4A11780029CD
:10CA50001BD001337C32052BF8D10020F8BD6001DA
:10CA6000001B840017480222001903005E331A706D
:10CA70000A23154C837410322100144B98472089E7
:10CA800000220021124B9847E7E75D01EB1A0D4D9C
:10CA90009B000D4CED1812220C4B210028009847EA
:10CAA0000C4A13780133DBB213702B0002225E3381
:10CAB0001A700A23AB74E2E732530110C52F01103C
:10CAC0004A530110EC52011098550110E32F011048
:10CAD0005DF700105855011010B57823012201218F
:10CAE000024C0088A047002010BDC046F1EB0010AA
:10CAF000F0B5564644465F464D468246F0B487B090
:10CB000003AE09220021594B30009847534619883B
:10CB1000574B984618001A00002314898C423FD0C6
:10CB200001337C32052BF8D1002302891F008A4291
:10CB300054D001337C30052BF7D105275346DB78E1
:10CB40004146B3700423012233707B010093DB1B49
:10CB50009B00CB5C7270022B00D183E0B271F2714A
:10CB6000102373713371009BDD1B4346AD005B19CD
:10CB70001B7E402B49D0009B3100DA1B53469200AC
:10CB800060321888424400233A4CA04700283AD02B
:10CB9000E22007B03CBC90469946A246AB46F0BDA9
:10CBA00014005E342478022CBAD142465C01E11AAA
:10CBB00089005218150006275E352F70127DD507A3
:10CBC00003D55546ED78002D15D10222E31A9B00BE
:10CBD00043445E331A7053461988A5E702005E325B
:10CBE0001278022AA5D15B01DB1B9B0043445E3314
:10CBF00001321A70A2E75346414418881A311E4B7D
:10CC000098470028C4D10020C3E71C4B2C0099464C
:10CC10000F239B4601956834603545444444C8471A
:10CC20005B4618402870C8475B461840A874013519
:10CC3000A542F4D10F239B46019D70354544C8475A
:10CC40005B46184020700134A542F8D1C847009BCC
:10CC5000DB1B9B0043441A007032108010227A3391
:10CC60001A7088E70133B371F37179E7F52F01107A
:10CC7000EC520110B1F500109DF700107131011058
:10CC8000F0B556465F464D464446404BF0B49A4692
:10CC90001A00002387B00090008811891C0081428F
:10CCA00037D001337C32052BF7D1052400235146C0
:10CCB000032203AF3B72BB707B70FB70630198462D
:10CCC0001B1B9B00CB5C3A70022B5CD00123BB7119
:10CCD000FB7110237B713B7143461E1B5346B6000C
:10CCE0009B191B7E402B21D043461A1B9200009BB0
:10CCF00060321888524400233900254CA047002890
:10CD000000D0E22007B03CBC90469946A246AB4614
:10CD1000F0BD11005E3109780229C2D103225B0106
:10CD20001B1B9B0053445E331A70BFE7194B350041
:10CD300099460F239B460196683560365644554404
:10CD4000C8475B4618403070C8475B461840B0740F
:10CD50000136AE42F4D10F239B46019E70365644F5
:10CD6000C8475B46184028700135B542F8D1C8471E
:10CD700043461B1B9B0053441A0070321080102244
:10CD80007A331A70B0E7BA71FA71A2E7EC52011067
:10CD9000B1F5001071310110F0B547461D4D80B45A
:10CDA0002A000700002104881089A0420ED001311A
:10CDB0007C320529F8D19D239B00EC5A05212000E7
:10CDC000154B9847E22004BC9046F0BD13005E333B
:10CDD0001B78012BEBD906224E01761AB600AB194F
:10CDE00098465E331A705A8A7B889A42E6D1A9190E
:10CDF0007231381D0822094B98470028DED13300D4
:10CE000042466033117D5B1938880122044CA047EB
:10CE10000020D8E7EC520110D1EB0010C52F011013
:10CE200015F8001010B50D4C2378132B03D90C4BBB
:10CE30009847E22010BD23780100DBB29A00D21897
:10CE4000D200D318074A9B1818002922064B98478E
:10CE5000237800200133DBB22370EBE7AC4D0110E7
:10CE6000B1EB0010C0550110E32F0110F0B547469B
:10CE7000234E0022330080B4050040881C89844280
:10CE800014D001327C33052AF8D12B79002B08D03D
:10CE90001C4BF35C012B31D913211B4B9847002805
:10CEA0002CD0E224200004BC9046F0BD19005E3175
:10CEB00009780329E5D12C79002CEDD15701BF1A4F
:10CEC0002978BF00F31919752A7929001A760522E5
:10CED0005E331A70F0190D4B22310B323630984602
:10CEE00098472900F01932311722F6194630C04709
:10CEF0003000A91D1C221A30C047D3E70024D1E717
:10CF0000EC520110CA020000D1EB0010E32F011017
:10CF1000F0B5060085B0062219491A4D01AC02A8E9
:10CF2000A847042231002000A847E378002B11D144
:10CF30000027154D03E00300303B092B11D91E20BB
:10CF4000A847C0B20028F6D1308813210F4B98476C
:10CF5000E22013E0802362885B009A4208D0002020
:10CF60000CE06B4608229B18D8550137062FE6D1F6
:10CF7000A178308802AA064B9847002005B0F0BD82
:10CF80002C450110E32F01107DD60010D1EB0010CD
:10CF9000E1F60010F0B55F46444656464D46F0B403
:10CFA000877A95B00400002F08D00027380015B00C
:10CFB0003CBC90469946A246AB46F0BD0100122209
:10CFC000504B51489847514B072218009B46504BF5
:10CFD0002100994698478246002821D02378022BC9
:10CFE0001ED14C4B502200216846984700234A4EE0
:10CFF0001D0032001035ADB26F461078591CF85440
:10D000008BB20132AB42F7D17C36502BF0D16A465D
:10D0100021000520414B9847071EC7D0E227C5E7EE
:10D020003F4B1B78042B3BD83E4B00261D00B846D7
:10D03000072221002800C847002838D001367C3557
:10D04000052EF5D147460025374B1A78002A3FD0E8
:10D0500001357C33052DF8D15346002B0DD16B01E2
:10D060005D1B304BAD009C4605236544AB74072225
:10D0700000215846274B984798E76B015D1B294BC9
:10D08000AD009C460A236544AB7407220021584634
:10D09000204B9847208900220021244B984785E7A0
:10D0A0001F4B20891B781321214B98477EE71D4A8F
:10D0B0007301944602229B1B9B0063445E331A70EB
:10D0C000210005325846C847350047468246C3E727
:10D0D000144B6E019C46761BB6006644123221004A
:10D0E0003000084B98470E4B0D4A1B785E360133D3
:10D0F000DBB2137002230722337021005846C84761
:10D100008246A9E7E32F011098550110B04D011098
:10D11000C52F0110F52F011032530110FDEB001047
:10D1200058550110EC5201104A5301105DF70010E0
:10D13000D1EB00100020704700207047C078002815
:10D1400000D0E2207047C046F0B55F4656464D46D7
:10D150004446F0B40027594B8DB0594E07220021A8
:10D16000804658481F60B047122200215648B047F9
:10D17000564B574A002118009A46B047CD22554BCE
:10D180009200002154481F70B0478322534B9200F5
:10D19000002153481F70B047524B0C221800002149
:10D1A0009946B047504B514D1F605F609F60DF60F4
:10D1B0001F614F4B4F4C1F604F4B2F601F604F4BF9
:10D1C0006F601F605F609F60DF601F614C4BAF60EE
:10D1D0001F609B239B009B46EF602F612760676069
:10D1E000A760E7602761474FBB447C2238000021DD
:10D1F000B0473A0000235E32137040223A767C3703
:10D200005F45F2D1404A484613704A46304B53605E
:10D210004B4652461A603D4B9847002841D12B009F
:10D2200014332A68002A3DD004359D42F9D12300E9
:10D2300014332268002A3DD00434A342F9D1344B80
:10D240000921344898473449072208316846334D4C
:10D2500002ACA847262200212000B0474346002BFD
:10D2600023D00A2323702E4B0722414603A8638054
:10D27000A8470023E37623776377A377E3772384B4
:10D28000638480239B00A3842000264B984740465C
:10D29000254B98470DB03CBC90469946A246AB46FC
:10D2A000F0BDFEE7214B2B60C1E76846204B984755
:10D2B000E846D6E71F4B2360C1E7C046A84D0110E2
:10D2C000F52F0110B04D011098550110C8480110FC
:10D2D000E2040000AC4D0110C0550110B85501101A
:10D2E000F4580110AC55011084550110705501100F
:10D2F000BC550110D8520110D45201105C550110D8
:10D30000005B0110EC5201105855011005E80010A7
:10D310001DE70010644501102C450110E32F01109A
:10D32000983A000075E700109DE900107C45011057
:10D3300051E700103C45011030B50023002A01D010
:10D34000062901D9180030BD1E4C1F4D645C8900B0
:10D350004959002815D1002CF4D00B68002B28D097
:10D36000013CE4B20134A4000B1D091905E01C00C6
:10D370000433181F006800281CD09942F7D10023FD
:10D38000E0E70128DED1002CDCD00B68934214D0FA
:10D39000013CE4B20134A4000B1D091905E01C0096
:10D3A0000433181F0068824208D08B42F7D1002353
:10D3B000C8E70C0022600123C4E70C0000232360AF
:10D3C0000133BFE7C8450110D0450110F8B50D0085
:10D3D0003B280FD8324B86009B599F46314B38383B
:10D3E0001B68C0B2002B05D08000C358002B01D0B1
:10D3F00028009847F8BD2C4B1B68002BFAD09847A3
:10D40000F8E70024294F3B59002B04D09B59002BEF
:10D4100001D0280098470434142CF4D1EAE7002600
:10D420001338C4B2224FA400BB59002B04D01B599F
:10D43000002B01D0280098470436142EF4D1D9E7E8
:10D4400000261D38C4B21B4FA400BB59002B04D0CA
:10D450001B59002B01D0280098470436142EF4D114
:10D46000C8E7154B27381B68C0B2002BBCD1C1E7F9
:10D47000124B2D381B68C0B2002BB5D1BAE700267D
:10D480003638C4B20E4FA400BB59002B04D01B5930
:10D49000002B01D0280098470436142EF4D1A9E7B8
:10D4A0003C440110005B0110A84D011070550110A3
:10D4B00084550110D8520110BC550110D4520110EE
:10D4C0005C55011070B5074D074E02002900300071
:10D4D000064B9847041E03D130782900044B984727
:10D4E000200070BDF4580110B85501105DE0001027
:10D4F000CDD3001030B591B06A460A2309251370C8
:10D500006B4655700B4C09220B49981CA0476B4683
:10D510006A46DD720D20FF23084913736844082210
:10D52000A047002308AA15216846054CA047002003
:10D5300011B030BDE32F011064450110704501109A
:10D54000F1E90010014B18607047C046A84D01106A
:10D550000122014B1A707047B74D011070B50600DB
:10D560000D00034C29003000A0470028FAD170BDFF
:10D57000B5C7001070B506000D00034C290030003F
:10D58000A0470028FAD170BDA5C7001070B50021D2
:10D59000164B00209847164C164B20009847E12365
:10D5A0005B02236003220223E260A360A361E361C4
:10D5B000236263620132104B10482261013218600D
:10D5C00062610F4B0F4A10491A60104A104B1A60E3
:10D5D0002200104B9847104D104C2B680021986882
:10D5E000A0472B6800215868A04770BD01B9001002
:10D5F000285B0110EDC50010D0520110045B011032
:10D60000CC52011075D50010004000405DD50010CF
:10D61000C852011019C60010804801100D320110C7
:10D62000F0B547460E4C80B48046A047A0470D4F4A
:10D63000B8470D4E0D4A0E4BB0470400FA20434642
:10D64000800058430D00B84702000B00200029005D
:10D65000B047084B9847084B186004BC9046F0BD93
:10D6600085B90010B92E0110B1220110C7AEFE1904
:10D67000EFD8093FD1160110B84D011070B5002543
:10D68000184C194B25709847184E02223570184DCA
:10D6900018492800184B984702212800174B984733
:10D6A0003100174B012228009847164800210368D3
:10D6B00003E0013B0121002B08D02278002AF8D09A
:10D6C00000290DD1002B02D0307870BD03602800F6
:10D6D00002210D4B9847022128000C4B9847F3E795
:10D6E0000360EFE7B74D011021D60010BC4D0110CB
:10D6F000045B011051D50010F1C700101DC80010C7
:10D70000C9C70010B84D011005C800103DC8001071
:10D7100030B50C4B1C68002C10D02568E2801D60D1
:10D7200000232360084BA1601A68A080002A01D161
:10D7300005E01A001368002BFBD1146030BD1C609B
:10D74000FCE7C046C44D0110C04D0110002210B5C9
:10D75000074C084B20001A602300783019001A602B
:10D760000C330A008342F9D1034B6C341C6010BDAA
:10D77000C84D0110C04D0110C44D011010B5064B2D
:10D78000064A196811605A68054B1A60054B1B68F8
:10D79000002B00D0984710BD505B01100CB000402A
:10D7A00010B00040245E011010B5114B1C68114BE5
:10D7B0001B689847E30714D40F4B02201B68984757
:10D7C0000E4B1B6898470E4C03202368984700288F
:10D7D000FAD10C4B02301B68984701220A4B1A60A1
:10D7E00010BD0A4B18680A4B1B689847F8E7C046FB
:10D7F000ECB100406C4E0110644E01107C4E0110E3
:10D80000504E0110584E011020B000405C4E0110E7
:10D810004C4E011070B50F4C0021322220000E4BEF
:10D8200098470126002102254A00A154A2185378E6
:10D8300001313343DBB2AB43012053701929F3D1DB
:10D84000637883436370E3788343E370637F834348
:10D85000637770BD685B0110F52F0110F0B5574676
:10D860004E464546E0B44B4C2378002B04D0237839
:10D87000DBB2012B00D18AE0474B9847474A484B1F
:10D880001168484D0B401360474A484913600868C7
:10D89000474B484E03400B60536000239846424676
:10D8A000454B46491A60802280231204EA50924672
:10D8B00080225204EA50424B91463360414A424B27
:10D8C000424F1360424A28201160424A1168424A7E
:10D8D0001160424A1168424A1160424A424911604D
:10D8E000424A43491160434A43493A60434A1160FE
:10D8F0004349444A1160444A44491160444A4549F5
:10D900001160454A45491160454A464911609847AA
:10D910004549336828209847336844492720984769
:10D92000434B00211A68434B43481A60434B444A17
:10D930001A60444B444A1A60444B454A1A60454BAE
:10D94000454A1A60454B464A1A60464B464A1A6099
:10D95000464B474A1A60A022464B920098478022C5
:10D96000454B92001A80454B984753462B604B46D7
:10D9700042462B60424B00201A603B68414A1A60C5
:10D98000012323701CBC90469946A246F0BD23702B
:10D990000120F7E7544E011015D800100CB00040DC
:10D9A000D30FFEFF00E100E0505B011010B000401B
:10D9B000C0E7FFFF1C5E0110784E011051BC010052
:10D9C000D70700005C5B0110BD0700002C5E011052
:10D9D000205E0110BC000410484E0110B800041075
:10D9E000444E0110585B01109FB90100605B0110AB
:10D9F000DBB901003C000410C01F0410645B01107F
:10DA0000C41F0410285E0110644E0110E9CB010010
:10DA1000584E01108FCD01007C4E0110A3CE0100A5
:10DA2000504E0110CFCB010021DF0010C1DE0010ED
:10DA3000E40004106C4E01109C5B0110804E01103C
:10DA4000E99F01004C4E0110DDDB0100604E01102A
:10DA50005BDC01005C4E0110EC050410684E011007
:10DA6000E3D50100844E0110200C0410404E01103B
:10DA7000099F0100F52F0110305E01104DD70010F5
:10DA8000245E01107DD70010054B1A780523012A6A
:10DA900001D018007047034B18600023F9E7C04617
:10DAA000544E0110784E011070B50E4B04001B68E7
:10DAB0004088002B14D09847010060800A4DA2884E
:10DAC0002D68E3882088A847E2880500002A03D053
:10DAD0002100064B083198472800054B984770BD38
