S0130000534D5367617465776179312E73726563FB
S3151000800010B5184B184A9A4203D0184B154A9A4283
S3151000801004D3174B174A9A4210D31EE0164B134A35
S315100080200332D21A92080132920000230D480E49EB
S31510008030CC58C45004339342FAD1EAE70F4B0C499B
S315100080400331C91A8908013189000023094C00201F
S315100080501A19106004338B42FAD1094B9847094B11
S31510008060984710BD5021011050210110BC2101105C
S31510008070B8380110BC21011054210110C021011083
S315100080802DFC0010F9BB001010B5064C2378002B00
S3151000809007D1054B002B02D0044800E000BF012396
S315100080A0237010BDBC2101100000000050210110EA
S315100080B0084B10B5002B03D00749084800E000BF55
S315100080C007480368002B00D110BD064B002BFBD0D0
S315100080D09847F9E700000000C02101105021011057
S315100080E05021011000000000002807D1002902D1FC
S315100080F0064B1A6009E0054B9A6106E0002902D189
S31510008100024B1A6201E0014B9A637047001000405F
S31510008110002805D1064A117A80230B43137205E015
S3151000812003492822885C802303438B547047C0463A
S3151000813000100040002805D1064A117A7F230B4013
S31510008140137205E003492822885C7F2303408B5471
S315100081507047C04600100040002802D1024B19603B
S3151000816001E0024B19607047D8210110DC21011083
S3151000817000230370012242708370C3707047C0469B
S3151000818030B51723012800D8A2E00E2800D19FE0B1
S31510008190072809D84F4D6A6C103B03409B000724F3
S315100081A09C40A2436A6416E00F2809D8494DAA6C70
S315100081B0072303409B0007249C40A243AA640AE0BD
S315100081C0172808D8434DEA6C072303409B00072461
S315100081D09C40A243EA6403001D3B022B29D84B782E
S315100081E0012B08D13C4D2B7D1F24241A0122A240BD
S315100081F093432B7508E0384C257D1F22121A012354
S3151000820093402B43DBB22375CA780023002A5FD034
S3151000821031490C881F22101A8000013383402343F2
S315100082209BB20B802D4A117802230B431370002347
S315100082304EE00A78002A31D10F2805D80123834051
S315100082409BB2274A938206E00F22024001239340F5
S315100082509BB2244A93824B78012B0CD0002B02D070
S31510008260022B10D033E01B490A6D012383401343C0
S315100082700B6500232CE017490B6D012282409343B6
S315100082800B65002324E0134B596D012282401143E4
S315100082905965196D91431965002319E00023012AC8
S315100082A016D10F2808D80E4A118A013383400B4382
S315100082B09BB2138200230BE00A4A118A0F2318403F
S315100082C00E3B83400B439BB21382002300E017231F
S315100082D0180030BD00B0004000F0004000E0004043
S315100082E0000001400010014010B50F2810D80029D9
S315100082F007D0124A9188012383400B439BB2938087
S315100083001AE00E498B880122824093438B8013E03A
S31510008310002909D00A498C880F2210400123834076
S3151000832023439BB28B8007E005498B880F221040B0
S315100083300E3A824093438B8010BDC0460000014028
S315100083400010014070B50D0AFF231940072833D8D5
S315100083504E4A546CF83B03409B0007269E40B4439C
S315100083605464546C0E009E40330023435364012919
S3151000837000D08AE003280FD81100D02252008C5862
S3151000838003231840C0003C3383409C438C508B58C9
S3151000839085401D438D5078E03C49D22252008C58BE
S315100083A003231840C0003C3383409C438C508B58A9
S315100083B085401D438D5068E00F2832D8334A946C9F
S315100083C0072303409B0007269E40B4439464946C95
S315100083D00E009E40330023439364012955D10B2888
S315100083E00FD81100D42252008C5803231840C00015
S315100083F03C3383409C438C508B5885401D438D5095
S3151000840043E02249D62252008C5803231840C0005C
S315100084103C3383409C438C508B5885401D438D5074
S3151000842033E0172831D8194AD46C072303409B0030
S3151000843007269E40B443D464D46C0E009E4033008D
S315100084402343D364012920D113280FD81100D82231
S3151000845052008C5803231840C0003C3383409C4381
S315100084608C508B5885401D438D500EE0074ADA23F9
S315100084705B00D15803242040C0003C348440A14303
S31510008480D150D15885400D43D55070BD00B0004035
S315100084900C2303700023437083707047012303700D
S315100084A0002343708370C37081330371773B8360FD
S315100084B00133C36001330361013343610B3B8361B5
S315100084C0C36103624362704730B583B004000B7812
S315100084D003704B7843708B78837001AD2800074B7F
S315100084E0984701232B7020782900054B9847207850
S315100084F00121044B984703B030BDC046718100106E
S3151000850081810010E9820010036801221A767047F3
S3151000851010B500230268137603680D4A934209D1F9
S3151000852041200C4CA0472620A0473820A047012008
S31510008530A0470BE0084A934208D14220054CA047B9
S315100085402720A0473920A0470220A04710BDC046CB
S3151000855000600040958B00100070004010B5046854
S31510008560094B9847094B9C4205D10120084CA0475E
S315100085703820A04707E0074B9C4204D10220044C48
S31510008580A0473920A04710BD11850010006000409B
S31510008590018F001000700040F0B557464646C0B433
S315100085A083B006008846150031600B7EDB0701D5C7
S315100085B000230B763000484B98473368474A93425E
S315100085C009D14120464CA0472620A0473820A04775
S315100085D00120A0470BE0434A934208D14220404C69
S315100085E0A0472720A0473920A0470220A04701A86E
S315100085F03D4B98472C00083418239A46AA44270066
S315100086002068431C11D02B78012B02D16A461371B6
S3151000861003E0002B01D16A461371C0B201A9334B96
S315100086209847398A3878324B984704345445E6D1FE
S31510008630EB78424613742B78012B00D113773368ED
S315100086402A7872712A78012A01D12A799A826A784F
S31510008650042A04D12421585C02435A5404E02421EC
S315100086605A5C042082435A54AA78012A1AD0002A46
S3151000867004D0022A0CD0032A1ED026E02422995CAC
S31510008680022081439954995C0138814399541CE026
S315100086902422985C022101439954995C012081435C
S315100086A0995412E02422995C022081439954985CD3
S315100086B001210143995408E02422985C02210143C8
S315100086C09954985C012101439954002003B00CBCC5
S315100086D090469A46F0BDC0465D8500100060004089
S315100086E039880010007000407181001081810010DF
S315100086F045830010F0B583B0046800266D46EE7110
S315100087000735002C34D0002904D12900807928702F
S3151000871001270BE0002A05D01720002B29D00026B0
S31510008720002703E0012600276A4607322825605DE8
S31510008730C007FCD4207B207A002B14D00025784269
S31510008740474170424641207AC007FCD50878207010
S31510008750207BC007FCD5207910700135ADB2C91940
S315100087609219AB42EFD1237ADB06FCD5002000E04C
S315100087701F2003B0F0BDC04610B513000022014CF7
S31510008780A04710BDF586001010B50878002A03D052
S315100087900021044B984702E00121024B9847002024
S315100087A010BDC046E982001001280DD0002802D065
S315100087B002281CD02EE0184A90690C2303439361BB
S315100087C0164A174B1A601AE0134B9869082202438F
S315100087D09A619A69042082439A61124A53688020EA
S315100087E0000303435360104A0D4B1A6007E00A4A10
S315100087F093690C2083439361084A094B1A60064B10
S315100088009A69032082439A619A69014011439961DA
S31510008810002000E01720704700B0004080BA8C019D
S315100088207424011000F0004080841E00014B18686B
S315100088307047C0467424011000B5352800D9A2E14E
S315100088408000D24B1B589F46D14AD16802230B4356
S31510008850D360002098E1CE4AD16804230B43D3603D
S31510008860002091E1CA4AD16808230B43D360002047
S315100088708AE1C74AD16810230B43D360002083E1F5
S31510008880C34AD16820230B43D36000207CE1C04A41
S31510008890D16880230B43D360002075E1BC4AD368AE
S315100088A0802149000B43D36000206DE1B84AD3689C
S315100088B0802109010B43D360002065E1B44AD368D7
S315100088C0802149010B43D36000205DE1B04AD36893
S315100088D0802189010B43D360002055E1AC4AD3684F
S315100088E08021C9010B43D36000204DE1A84AD3680B
S315100088F0802109020B43D360002045E1A44AD368C6
S31510008900802149020B43D36000203DE1A04AD36881
S31510008910802189020B43D360002035E19C4AD3683D
S315100089208021C9020B43D36000202DE1984AD368F9
S31510008930802109030B43D360002025E1944AD368B4
S31510008940802149030B43D36000201DE1904AD36870
S31510008950802189030B43D360002015E18C4AD3682C
S315100089608021C9030B43D36000200DE1884AD368E8
S31510008970802109040B43D360002005E1844AD368A3
S31510008980802149040B43D3600020FDE0804AD36860
S31510008990802189040B43D3600020F5E07C4AD3681C
S315100089A08021C9040B43D3600020EDE0784AD368D8
S315100089B0802109050B43D3600020E5E0744AD36893
S315100089C0802149050B43D3600020DDE0704AD3684F
S315100089D0802189050B43D3600020D5E06C4AD3680B
S315100089E08021C9050B43D3600020CDE0684A116988
S315100089F001230B4313610020C6E0654A1169022367
S31510008A000B4313610020BFE0614A116904230B4335
S31510008A1013610020B8E05E4A116908230B43136105
S31510008A200020B1E05A4A116910230B43136100204C
S31510008A30AAE0574A116920230B4313610020A3E0D3
S31510008A40534A116940230B43136100209CE0504A9E
S31510008A50116980230B431361002095E04C4A13697A
S31510008A60802149000B43136100208DE0484A1369A9
S31510008A70802189000B431361002085E0444A136965
S31510008A808021C9000B43136100207DE0404A136921
S31510008A90802109010B431361002075E03C4A1369DC
S31510008AA0802149010B43136100206DE0384A136998
S31510008AB0802189010B431361002065E0344A136954
S31510008AC08021C9010B43136100205DE0304A136910
S31510008AD0802109020B431361002055E02C4A1369CB
S31510008AE0802149020B43136100204DE0284A136987
S31510008AF0802189020B431361002045E0244A136943
S31510008B008021C9020B43136100203DE0204A1369FE
S31510008B10802109030B431361002035E01C4A1369B9
S31510008B20802149030B43136100202DE0184A136975
S31510008B30802189030B431361002025E0144A136931
S31510008B408021C9030B43136100201DE0104A1369ED
S31510008B50802109040B431361002015E00C4A117D96
S31510008B6001230B43137500200EE0094A117D0223E1
S31510008B700B431375002007E0054A117D04230B43B0
S31510008B801375002000E0172000BDC046BC0E011072
S31510008B9000B0004000B5352800D97DE18000BF4BFC
S31510008BA01B589F46BE4AD36802218B43D3600020D0
S31510008BB073E1BB4AD36804218B43D36000206CE178
S31510008BC0B74AD36808218B43D360002065E1B44AC5
S31510008BD0D36810218B43D36000205EE1B04AD3687E
S31510008BE020218B43D360002057E1AD4AD368802102
S31510008BF08B43D360002050E1A94AD168A94B0B40A2
S31510008C00D360002049E1A64AD168A74B0B40D36038
S31510008C10002042E1A24AD168A44B0B40D360002049
S31510008C203BE19F4AD168A24B0B40D360002034E150
S31510008C309B4AD1689F4B0B40D36000202DE1984A88
S31510008C40D1689D4B0B40D360002026E1944AD16831
S31510008C509A4B0B40D36000201FE1914AD168984B84
S31510008C600B40D360002018E18D4AD168954B0B401C
S31510008C70D360002011E18A4AD168934B0B40D36030
S31510008C8000200AE1864AD168904B0B40D360002041
S31510008C9003E1834AD1688E4B0B40D3600020FCE081
S31510008CA07F4AD1688B4B0B40D3600020F5E07C4A9D
S31510008CB0D168894B0B40D3600020EEE0784AD1682A
S31510008CC0864B0B40D3600020E7E0754AD168844B91
S31510008CD00B40D3600020E0E0714AD168814B0B4015
S31510008CE0D3600020D9E06E4AD1687F4B0B40D36029
S31510008CF00020D2E06A4AD1687C4B0B40D36000203A
S31510008D00CBE0674AD1687A4B0B40D3600020C4E0B1
S31510008D10634AD168774B0B40D3600020BDE0604AB0
S31510008D20136901218B4313610020B6E05C4A136975
S31510008D3002218B4313610020AFE0594A13690421C5
S31510008D408B4313610020A8E0554A136908218B4311
S31510008D5013610020A1E0524A136910218B4313615D
S31510008D6000209AE04E4A136920218B43136100209C
S31510008D7093E04B4A136940218B43136100208CE02A
S31510008D80474A136980218B431361002085E0444ACA
S31510008D901169444B0B40136100207EE0404A116973
S31510008DA0554B0B401361002077E03D4A1169534B38
S31510008DB00B401361002070E0394A11693A4B0B40A1
S31510008DC01361002069E0364A1169384B0B40136174
S31510008DD0002062E0324A1169354B0B4013610020C6
S31510008DE05BE02F4A1169334B0B401361002054E0AE
S31510008DF02B4A1169304B0B40136100204DE0284A75
S31510008E0011692E4B0B401361002046E0244A11696C
S31510008E102B4B0B40136100203FE0214A1169294B6F
S31510008E200B401361002038E01D4A1169264B0B4098
S31510008E301361002031E01A4A1169244B0B4013616B
S31510008E4000202AE0164A1169214B0B4013610020BD
S31510008E5023E0134A11691F4B0B40136100201CE0DD
S31510008E600F4A11691C4B0B401361002015E00C4A88
S31510008E70137D01218B43137500200EE0084A137DE4
S31510008E8002218B431375002007E0054A137D042148
S31510008E908B431375002000E0172000BD940F0110BE
S31510008EA000B00040FFFEFFFFFFF7FFFFFFEFFFFFE1
S31510008EB0FFDFFFFFFFBFFFFFFF7FFFFFFFFFFEFF8D
S31510008EC0FFFFFDFFFFFFFBFFFFFFF7FFFFFFEFFFBA
S31510008ED0FFFFDFFFFFFFBFFFFFFF7FFFFFFFFFFE6D
S31510008EE0FFFFFFFDFFFFFFFBFFFFFFF7FFFFFFEF9A
S31510008EF0FFFFFFDFFFFFFFBFFFFDFFFFFFFBFFFFD2
S31510008F0000B5432800D923E28000E04B1B589F464A
S31510008F10DF4B596802229143596059680A435A60D7
S31510008F20002016E2DA4B59680422914359605968B9
S31510008F300A435A6000200CE2D54B59680822914327
S31510008F40596059680A435A60002002E2D04B5968AA
S31510008F5010229143596059680A435A600020F8E17B
S31510008F60CB4B596820229143596059680A435A607D
S31510008F700020EEE1C64B596840229143596059686A
S31510008F800A435A600020E4E1C14B5968802291439C
S31510008F90596059680A435A600020DAE1BC4B596897
S31510008FA0BC4A0A405A605A68802149000A435A60EE
S31510008FB00020CEE1B64B5968B74A0A405A605A6843
S31510008FC0802189000A435A600020C2E1B04B5968DB
S31510008FD0B24A0A405A605A688021C9000A435A6048
S31510008FE00020B6E1AA4B5968AD4A0A405A605A6841
S31510008FF0802109010A435A600020AAE1A44B59684E
S31510009000A84A0A405A605A68802149010A435A60A0
S3151000901000209EE19E4B5968A34A0A405A605A683E
S31510009020802189010A435A60002092E1984B5968C1
S315100090309E4A0A405A605A688021C9010A435A60FA
S31510009040002086E1924B5968994A0A405A605A683C
S31510009050802109020A435A6000207AE18C4B596834
S31510009060944A0A405A605A68802149020A435A6053
S3151000907000206EE1864B59688F4A0A405A605A683A
S31510009080802189020A435A60002062E1804B5968A8
S315100090908A4A0A405A605A688021C9020A435A60AD
S315100090A0002056E17A4B5968854A0A405A605A6838
S315100090B0802109030A435A6000204AE1744B59681B
S315100090C0804A0A405A605A68802149030A435A6006
S315100090D000203EE16E4B59687B4A0A405A605A6836
S315100090E0802189030A435A60002032E1684B59688F
S315100090F0764A0A405A605A688021C9030A435A6060
S31510009100002026E1624B5968714A0A405A605A6833
S31510009110802109040A435A6000201AE15C4B596801
S315100091206C4A0A405A605A68802149040A435A60B8
S3151000913000200EE1564B5968674A0A405A605A6831
S31510009140802189040A435A60002002E1504B596875
S31510009150624A0A405A605A688021C9040A435A6012
S315100091600020F6E04A4B59685D4A0A405A605A6830
S31510009170802109050A435A600020EAE0444B5968E9
S31510009180584A0A405A605A68802149050A435A606B
S315100091900020DEE03E4B5968534A0A405A605A682E
S315100091A0802189050A435A600020D2E0384B59685D
S315100091B04E4A0A405A605A688021C9050A435A60C5
S315100091C00020C6E0324A53685B005B085360536860
S315100091D0802109060B4353600020BAE02C4B1A89F4
S315100091E001218A431A81198901220A431A81002012
S315100091F0AFE0274B1A8902218A431A811989022264
S315100092000A431A810020A4E0214B1A8904218A43BB
S315100092101A81198904220A431A81002099E01C4BED
S315100092201A8908218A431A81198908220A431A8140
S3151000923000208EE0164B1A8910218A431A8119894B
S3151000924010220A431A81002083E0114B1A8920212B
S315100092508A431A81198920220A431A81002078E04C
S315100092600B4B1A8940218A431A81198940220A43D5
S315100092701A8100206DE0064B1A8980218A431A81D3
S31510009280198980220A431A81002062E06C100110AD
S3151000929000B00040FFFEFFFFFFFDFFFFFFFBFFFFDB
S315100092A0FFF7FFFFFFEFFFFFFFDFFFFFFFBFFFFF30
S315100092B0FF7FFFFFFFFFFEFFFFFFFDFFFFFFFBFF2F
S315100092C0FFFFF7FFFFFFEFFFFFFFDFFFFFFFBFFF10
S315100092D0FFFF7FFFFFFFFFFEFFFFFFFDFFFFFFFB0F
S315100092E0FFFFFFF7FFFFFFEFFFFFFFDFFFFFFFBFF0
S315100092F0184B1989184A0A401A8119898022520076
S315100093000A431A81002024E0124B1989134A0A4095
S315100093101A811989802292000A431A81002018E0C6
S315100093200C4B19890E4A0A401A8119898022D200DB
S315100093300A431A8100200CE0064B1989094A0A4093
S315100093401A811989802212010A431A81002000E02D
S31510009350172000BD00B00040FFFEFFFFFFFDFFFF1E
S31510009360FFFBFFFFFFF7FFFF8023DB049C466044F3
S31510009370800001607047C04670B5204B1C6823689A
S315100093801D7DEDB26A0613D51E212222A1541A7E26
S3151000939023318A431A762123E35C1B0706D5202343
S315100093A0E35C1B0702D520002369984723681B7CC2
S315100093B0EB0722D523681B7CDBB2626913706369E5
S315100093C001336361A38B013B9BB2A383A38B9BB237
S315100093D0002B12D12133E35C5B070ED52023E35C0F
S315100093E05B070AD500222223E2542268137E01214C
S315100093F08B431376E3682000984770BD78240110DC
S3151000940070B5214B1C6823681D79EDB2EA0717D594
S31510009410A2691178C9B20132A2611970E38B013BBE
S315100094209BB2E383E38B9BB2002B09D12268137A9C
S3151000943001218B4313722268117A10230B43137286
S31510009440EB0612D52123E35CDB070ED52023E35C64
S31510009450DB070AD500222223E2542268137A102150
S315100094608B431372200063689847AB060AD52123F5
S31510009470E35C9B0706D52023E35C9B0702D5A36814
S315100094802000984770BDC0467824011070B5204B57
S315100094905C6823681D7DEDB26A0613D51E21222253
S315100094A0A1541A7E23318A431A762123E35C1B07C3
S315100094B006D52023E35C1B0702D5200023699847B5
S315100094C023681B7CEB0722D523681B7CDBB2626901
S315100094D01370636901336361A38B013B9BB2A38352
S315100094E0A38B9BB2002B12D12133E35C5B070ED505
S315100094F02023E35C5B070AD500222223E25422686C
S31510009500137E01218B431376E3682000984770BDC4
S315100095107824011070B5214B5C6823681D79EDB273
S31510009520EA0717D5A2691178C9B20132A26119707A
S31510009530E38B013B9BB2E383E38B9BB2002B09D1F8
S315100095402268137A01218B4313722268117A102331
S315100095500B431372EB0612D52123E35CDB070ED502
S315100095602023E35CDB070AD500222223E25422687B
S31510009570137A10218B431372200063689847AB0649
S315100095800AD52123E35C9B0706D52023E35C9B07C2
S3151000959002D5A3682000984770BDC04678240110F4
S315100095A0E1235B0203600023037143718371C3716E
S315100095B0023383600322C2600132026101324261CA
S315100095C08361C361036243627047C046F8B54F4674
S315100095D04646C0B4050017000160554B994218D194
S315100095E00920544CA0470A20A0470920524CA047F6
S315100095F00A20A047514B1D6051491020514CA047DD
S3151000960051491120A047514B01221A6001321A60AC
S315100096101AE04F4B994217D10B20464CA0470C200D
S31510009620A0470B20444CA0470C20A047434B5D603D
S3151000963048491220434CA04747491320A047434BA3
S3151000964004221A6004321A60FB7904229046002B19
S3151000965052D1023398464FE0318A01CEC0B2C84784
S315100096600134E4B24445F7D32B681A7DD20704D5EA
S3151000967001211A7C1A7D0A42FBD10021202299541D
S31510009680FB79591E8B4159013B797A7913430B4368
S31510009690BA79022A0DD0D1B2022902D8012A05D0F0
S315100096A00FE0032A08D0042A09D00AE00222134345
S315100096B007E00622134304E00A22134301E00E22B8
S315100096C01343202229688B543E68244B9847040084
S315100096D03100234B984782B20004000C7043201AC5
S315100096E03109884206D900230133DBB2401A884279
S315100096F0FAD807E0002305E03E0008360024194B8F
S315100097009946A9E7002128202C68215401331B070C
S315100097105B0FD20013439BB22A6893842B68197689
S315100097202B68197200200CBC90469946F8BDC046AD
S3151000973000400040018F0010398800107824011075
S3151000974079930010699300100194001000E100E075
S31510009750005000408D940010159500102D880010B3
S31510009760B9E90010458300100268012013790342FD
S31510009770FCD011700020704702680120137D03424F
S31510009780FCD0137C0B7000207047C0461723002AAC
S315100097900DD00B33C35CDBB2052B08D0828341613D
S315100097A005222223C2540368043A1A7600231800AD
S315100097B07047C0469300C318596020210123934077
S315100097C0425C1343435470478B00C31800225A60FF
S315100097D001328A402021435C934343547047C0466C
S315100097E010B5212201238B40845C23438354012925
S315100097F004D10268117A20230B43137210BDC046A0
S3151000980010B501228A402124035D93430355012993
S3151000981004D10268137A1F318B43137210BDC046F0
S31510009820F0B5474680B40C00904600280DD1002AAA
S315100098300EDD8F18084E094D306821002B689847A9
S315100098400134A742F8D1404603E00120404200E02F
S31510009850002004BC9046F0BD88240110802401101D
S31510009860F0B5474680B40E0015000138022811D80D
S31510009870002A12D000240C4B98460C4F4346186809
S31510009880315D3B689847002809DB0134A542F5D1C4
S31510009890200006E00120404203E0002001E0012004
S315100098A0404204BC9046F0BD882401108424011067
S315100098B00300064A1268002A02D10549034A1160BC
S315100098C0024A1068C31813607047C046E0210110A1
S315100098D0B8400110012040427047C04680239B01CA
S315100098E04B6000207047C04601207047002070472B
S315100098F010B5134C8B005B18DB0059184118013159
S31510009900072220000F4B984720000F4B9847041E44
S315100099100DD10E480E4B98470E480F4B9847012213
S315100099200E4B1A700E4B1B681420984706E007481A
S31510009930074B98470B48084B9847E224200010BD68
S31510009940A824011097FC001061A800107C110110CA
S31510009950D9FD0010A4130110B9FC0010E821011064
S31510009960EC210110C0130110014B18607047C0465E
S31510009970EC210110014B18607047C046E42101101C
S315100099800020704700207047C078002800D0E220E1
S315100099907047C0460020704710B50078002806D0E2
S315100099A00348044B98470448044B9847E22010BDDF
S315100099B07C110110D9FD001008170110B9FC001018
S315100099C010B50400C078002808D00548054B984704
S315100099D0A27821880448054B9847E22010BDC0465E
S315100099E07C110110D9FD00101C170110B9FC0010D4
S315100099F0F8B50400194B9B2292009D1801270026EA
S31510009A0018001A00563A11882288914219D11A78EC
S31510009A10052A01D0082A01D1077012E0072A0FD8AB
S31510009A2092000F498A5897461E700E4A1278002ADD
S31510009A3007D00C4A1278013AD2B20A490A7000E0ED
S31510009A4006707C33AB42DBD10748084B9847228817
S31510009A50A1780748074B98470020F8BD2A25011022
S31510009A6098150110382701107C110110D9FD00102E
S31510009A7054170110B9FC0010F8B506000188284BE0
S31510009A8000241A898A4204D11A005E321278062AF4
S31510009A902ED00134E4B27C33052CF2D139E02049C2
S31510009AA063011A1B92008A18157614005E34072378
S31510009AB023701C481C4B98471C481D4B9847E225A1
S31510009AC02BE01848184B98471A48194B98471449D1
S31510009AD063011A1B92008A1810005E30082707705F
S31510009AE0F0781075B2781C1BA4000C19227614E0BD
S31510009AF0B578002DE5D0D2E70A4E30000A4DA847BA
S31510009B000C480B4CA0473000A8470B48A047E2254D
S31510009B1003E0B578002DC2D1EEE72800F8BDC046A7
S31510009B20CC2401107C110110D9FD001084170110EE
S31510009B30B9FC001098170110BC17011010B50100E0
S31510009B40154B1B78DBB2132B12D8134C2378DBB2D0
S31510009B509800C018C000C318104818182922104BB6
S31510009B609847237823780133DBB22370002311E062
S31510009B700C480D4B98470D480D4B98470D4B984781
S31510009B80E223002806D00748074B98470A48084B97
S31510009B909847E223180010BDF8210110A0270110E4
S31510009BA097FC00107C110110D9FD0010E41701106C
S31510009BB0B9FC0010DDC900101C180110F8B50378A7
S31510009BC0002B32D1264D0024461C264F1022290088
S31510009BD03000B847002830D00134E4B27C35052C6B
S31510009BE0F4D122E01C001178002919D100E00024DC
S31510009BF01D4F65012E1BB600BE1912221B493000DF
S31510009C001B4B98471B4A13780133DBB213705E3631
S31510009C10022333702C1BA4003C190833A3741CE0D8
S31510009C2001337C32052BDDD117E05E230E4AD35C5F
S31510009C30002BDCD0104A0123D4E70B4863011A1B12
S31510009C409200821811005E3102250D700A2191745E
S31510009C50100012220549064B98470020F8BDC04651
S31510009C601225011079FC0010CC2401107827011060
S31510009C7097FC001038270110A6250110F0B55F4695
S31510009C804E464546E0B49AB00500867A002E00D0BE
S31510009C90B6E06D486D4FB8472B796A79A97968781F
S31510009CA00290A8780190E87800906948694CA0471E
S31510009CB06548B84729896848A0471222290067488D
S31510009CC0674B98470495072229006648664B9847C4
S31510009CD0002800D19DE02B78022B00D099E050226D
S31510009CE0002106A8614B9847614F00230BE0591CD1
S31510009CF0147806A8C45401328BB2B342F7D17C371C
S31510009D00331E502B04D01E001036B6B23A00EEE7C2
S31510009D1006AA29000520574B9847061E00D18CE04D
S31510009D2049484A4B984754484A4B9847E22684E09C
S31510009D30E7B20594072204994846D847002809D166
S31510009D40059A53019B1A9A004C4B9B185E330222BC
S31510009D501A702BE001347C239C46E144052CE7D194
S31510009D6062E01C00117800291AD101E000240027B6
S31510009D7063019946181B8000404B984640441222B6
S31510009D802900374B98473E4A13780133DBB21370DC
S31510009D904B461B1B9B0043445E3302221A7005E0A0
S31510009DA0791CCFB201337C32052FDAD10722290074
S31510009DB02C482D4B9847002807D17B01DB1B9B00B5
S31510009DC02E4AD31805229A7406E07B01DB1B9B00F2
S31510009DD02A4AD3180A229A74072200212148234BB3
S31510009DE098472AE01848194B9847254B1978C9B255
S31510009DF02448184B984728891321234B98471CE071
S31510009E001148124B9847A97A2048124B98470026BA
S31510009E1013E01B4B1B78DBB2042BE3D8174B994688
S31510009E200024114B9B4683E75E23144AD35C002B18
S31510009E309CD0174A0123012793E730001AB01CBCA7
S31510009E4090469946A346F0BD7C110110D9FD00102D
S31510009E5034180110B9FC0010781801107827011079
S31510009E6097FC0010FC21011079FC0010A9FC0010D1
S31510009E701225011001CB001090180110CC240110EE
S31510009E8038270110B4180110D5CA0010F0180110A7
S31510009E90A6250110F8B54F464646C0B405004188C0
S31510009EA03A4B00241A898A4204D11A005E3212787B
S31510009EB0032A62D00134E4B27C33052CF2D12BE0B4
S31510009EC063011C1BA400314B1C195E342378012B33
S31510009ED013D92F482F4B98472F48304B98476888EF
S31510009EE013212F4B9847061E4BD02948294B9847CC
S31510009EF02C482A4B9847E22643E0002641E0244EA0
S31510009F003000244DA8472848244CA0473000A847C5
S31510009F102648A047E22634E02B79002BD0D1EEE775
S31510009F201B481C4B984720481C4B98472A78174BC0
S31510009F30994667013B1B9B004B441A752A791A7682
S31510009F405E3305221A70381B8000484436302900CB
S31510009F5022310B32164B98469847381B80004844DE
S31510009F604630290032311722C047381B800048443A
S31510009F701A30A91D1C22C04703E02E79002ECFD01F
S31510009F809EE730000CBC90469946F8BDCC240110D3
S31510009F907C110110D9FD001018190110B9FC001020
S31510009FA0D5CA001038190110541901108019011062
S31510009FB097FC001010B50088782301220121024C6D
S31510009FC0A047002010BDC046F5CA0010F0B5574690
S31510009FD04E464546E0B484B004000922002101A88B
S31510009FE06A4B984725886A490A0000231089A842B7
S31510009FF016D110005E300078022811D164485A013B
S3151000A000D61AB60086195E3606223270F932134019
S3151000A0105A01D21A92008218127DD00705D41BE07D
S3151000A02001337C32052BE1D11EE0E078002813D0F5
S3151000A0305901C91A8B005649C9181A312088554B2F
S3151000A0409847002800D19BE05348544B98475448F2
S3151000A050544B9847E22093E05A01D31A9B004C4A7E
S3151000A060D3185E3302221A702588002200231600A8
S3151000A0700889A8420DD108005E300078022808D160
S3151000A0805201921B9600424A92195E3203211170B8
S3151000A09005E00133DBB201327C31052BE7D101AA91
S3151000A0A0E178917001215170033111701F005A012E
S3151000A0B0D21A92003649525C022A04D101AA03210F
S3151000A0C09171D17103E001AA01219171D17101AA97
S3151000A0D01021517111717A01D21B92002C498A18E4
S3151000A0E0127E402A34D15A01D31A9B009A461E007A
S3151000A0F060367618554668356D182B4B99460F23E2
S3151000A1009846C847434618403070C84743461840DB
S3151000A110B0740136AE42F4D1564670361C4AB618A3
S3151000A120214B99460F239846C84743461840287036
S3151000A1300135B542F8D11C4B98477B01DB1B9B00C0
S3151000A140134AD3181A00703210807A3310221A70FC
S3151000A1507A01D71BBF0060370D4ABA182088002332
S3151000A16001A9124CA04700280AD001AB00229A7010
S3151000A1705A700948094B98470D480A4B9847E220F0
S3151000A18004B01CBC90469946A246F0BDA9FC00102E
S3151000A190CC2401100DD000107C110110D9FD001037
S3151000A1A0B0190110B9FC0010EDFD001061CE0010C1
S3151000A1B0C8190110F0B55F4656464D464446F0B4F0
S3151000A1C085B083460488484A002100231089A0429E
S3151000A1D00DD110005E300078022808D14A01521ABB
S3151000A1E09500414A52195E320321117005E0013380
S3151000A1F0DBB201317C32052BE8D101AA00211172A4
S3151000A2009170517003201070D1701F005A01D21A2C
S3151000A21092003549525C022A04D101AA0321917198
S3151000A220D17103E001AA01219171D17101AA102106
S3151000A230517111717A01D21B92002B498A18127E24
S3151000A240402A31D15A01D31A9B009A461D00603517
S3151000A2506D18544668346418244B99460F26C8471F
S3151000A26030402870C8473040A8740135A542F6D151
S3151000A270554670351C4AAD181C4B99460F23984607
S3151000A280C8474346184020700134AC42F8D1174BEA
S3151000A29098477B01DB1B9B00134AD3181A007032B8
S3151000A2A010807A3310221A707A01D71BBF006037DC
S3151000A2B00D4ABA185B461888002301A90C4CA04712
S3151000A2C000280AD001AB00229A705A7009480A4B2E
S3151000A2D098470A480A4B9847E22005B03CBC90467E
S3151000A2E09946A246AB46F0BDCC240110EDFD0010F8
S3151000A2F061CE00107C110110D9FD0010F419011067
S3151000A300B9FC0010F0B585B0050006223D4902A83B
S3151000A3103D4EB04701AC042229002000B047E37837
S3151000A320002B62D139483A4B98473A483A4B9847EE
S3151000A33000263A4CFF271E20A047C3B2002B1AD185
S3151000A340324F3800324EB0473548334CA0473800AC
S3151000A350B0473448A04728881321334B9847030049
S3151000A360E220002B4CD02948294B98472F482A4BDE
S3151000A3709847E22044E01A00303A092ADBD802AAAC
S3151000A380B35438402A4B98470136062E26D0D2E7CA
S3151000A3901E481F4B984727481F4B98470024244EAA
S3151000A3A002ABE05CB0470134062CF9D101AB9978C9
S3151000A3B0288802AA204B9847002821D01348144B0E
S3151000A3C098471E48144B9847002019E00F48104B29
S3151000A3D098471B48104B9847002011E00B480C4B30
S3151000A3E0984718480C4B9847D8E701AB5A888023F2
S3151000A3F05B009A42CCD001AB9B78012BE6D00020B3
S3151000A40005B0F0BDC416011097FC00107C110110A8
S3151000A410D9FD00101C1A0110B9FC0010E5AC001093
S3151000A420441A0110501A0110D5CA0010381901101B
S3151000A430EDFC0010641A011091CF00109C1A011047
S3151000A440B41A0110D01A0110F8B5060005882F4B62
S3151000A4500022002410001989A94216D119005E3174
S3151000A4600978012911D929495201101A80000818B2
S3151000A4705E30062303706201131B9B00CB187033EA
S3151000A4801A8873889A4213D106E00134E4B2013275
S3151000A4907C33052CDED10BE06101091B89001B4BB7
S3151000A4A059187231301D0822194B9847002815D0BB
S3151000A4B0184F3800184EB0471848194DA84738009D
S3151000A4C0B0471848A84763011C1BA4000F4B1C1962
S3151000A4D020890521144B9847E22016E06201131BD0
S3151000A4E09B00603309495B18141BA4000C19217DCD
S3151000A4F0308801220D4CA047002806D00548064B8F
S3151000A50098470B48064B98470020F8BDCC240110FD
S3151000A51079FC00107C110110D9FD0010E41A01100D
S3151000A520B9FC00101C1B0110D5CA001085D00010F4
S3151000A530741B011030B5002A47D0062947D8890068
S3151000A540284B5B589F46284B05240AE0274B0124CD
S3151000A55007E0274B052404E0264B012401E0264B97
S3151000A5600524002816D1196800290BD106E01D0014
S3151000A5700433181F0068002806D100E01D002A6069
S3151000A58001212CE0043300210131C9B2A142EED3DE
S3151000A590002124E00021012821D119688A420CD11A
S3151000A5A006E01D000433181F0068824207D100E040
S3151000A5B01D0000232B60012111E00433002101311D
S3151000A5C0C9B2A142EDD3002109E0002107E0002124
S3151000A5D005E00A4B0524C4E7094B0124C1E708002E
S3151000A5E030BDC046B8150110B8240110B4240110AE
S3151000A5F03C270110E02C0110502701106427011090
S3151000A6009C270110F0B5474680B490B00500002491
S3151000A6106A4B1C600722002169486A4EB047122215
S3151000A62000216948B047694B1C70CD229200002169
S3151000A6306748B047674B1C7083229200002166481A
S3151000A640B0470C2200216548B047654B1C605C6022
S3151000A6509C60DC601C61634B1C605C609C60DC6011
S3151000A6601C61614B1C605C609C60DC601C615F4B14
S3151000A6701C605F4B1C605F4B1C605C609C60DC6008
S3151000A6801C615D4B1C605D4C9B239B009846A0444F
S3151000A6904C4F40267C2200212000B84723005E3311
S3151000A6A000221A7026767C34A045F3D1544B1A70CA
S3151000A6B05448554B98475548554B98474748554B1E
S3151000A6C0984700280BD04F4E30004F4DA8475248A0
S3151000A6D04F4CA0473000A8475048A047FEE7504AC5
S3151000A6E0002100204F4CA0474F4A02210020A047CE
S3151000A6F009214E484E4B9847002805D04148424BF9
S3151000A70098474C48424B984707224B49083104A8B2
S3151000A7104A4B98472622002106A82A4B9847002D17
S3151000A7200CD104A8464B984704AD002806D03548EE
S3151000A730354B98474348364B984704AD3148324B12
S3151000A74098472B796A79A9792878039068780290C6
S3151000A750A8780190E87800903B482D4CA04706ACAD
S3151000A76005232370394B63800722290007A8334B32
S3151000A77098470023E37623776377A377E3772384D9
S3151000A780638480239B00A3842000314B98470028C4
S3151000A79005D01C481C4B98472E481D4B984728003F
S3151000A7A02D4B9847002805D01648174B98472B482D
S3151000A7B0174B984710B004BC9046F0BDF421011019
S3151000A7C0FC210110A9FC001078270110F8210110B6
S3151000A7D0A027011098270110D42A01108C270110E8
S3151000A7E05027011064270110B82401109C2701106E
S3151000A7F0B42401103C270110E02C0110CC240110C8
S3151000A800382701107C110110D9FD0010941B01107E
S3151000A810B9FC001061C70010A81B0110C81B01105D
S3151000A8201C1D011035A50010E0160110041C0110A6
S3151000A83079C60010101C0110C416011097FC0010E8
S3151000A840ADC60010281C0110401C0110983A0000DB
S3151000A850D1C60010781C0110F9C800109C1C0110FC
S3151000A86010B586B00400072201000C480C4B98471F
S3151000A87003AB08221A8002325A80063A9A800022C6
S3151000A8801A815A81FA22D200DA800093602360225C
S3151000A89001212000034CA04706B010BDFC21011079
S3151000A8A097FC0010FDC9001010B584B00A480B4B78
S3151000A8B098470B480B4B984700230B4A13700122FD
S3151000A8C00292019300930133002260216020074C0D
S3151000A8D0A04704B010BDC0467C110110D9FD001070
S3151000A8E0BC1C0110B9FC0010F82101104DC9001054
S3151000A8F0F0B55F4656464D464446F0B487B081469D
S3151000A900019193462723C65CE220002E62D00022D6
S3151000A91004AB1A70002501235B4298460B000133E5
S3151000A9200093304B9A464B465A19117A04AB19705C
S3151000A930527A5A702A000A324A4405925B78DBB280
S3151000A9405B4536D104AB1C78013CE4B2002C30D008
S3151000A950019B1F7843460393002F0AD105980222C4
S3151000A9600099D0470390059B02330593023CE4B24D
S3151000A9701AE0012F0BD1059804220099194B98471C
S3151000A9800390059B04330593043CE4B20CE0022FBC
S3151000A9900AD1059810220099124B98470390059BEF
S3151000A9A010330593043CE4B2039B002B11D0002C0A
S3151000A9B0D0D104AA13780133ED18EDB21378013310
S3151000A9C0DBB213701378F61AF6B2002EABD1E22072
S3151000A9D000E0002007B03CBC90469946A246AB4624
S3151000A9E0F0BDC04679FC001030B50D4A00231D009D
S3151000A9F014005E342478012C0BD91489844208D1B2
S3151000AA005B015D1BAD00064B5D19AB7C0B70002026
S3151000AA1004E001337C32052BE9D1E22030BDC0467B
S3151000AA20CC24011000B583B06B46D91D00230B70E2
S3151000AA30074B98470023002806D16B4607331B782F
S3151000AA40053B58424341DBB2180003B000BDC04677
S3151000AA50E9A90010F8B50D003B2872D883003C4ACE
S3151000AA60D3589F46840000263A4FBB59002B04D07A
S3151000AA701B59002B01D0280098470436142EF4D108
S3151000AA8065E01338C4B2A4000026334FBB59002B1F
S3151000AA9004D01B59002B01D0280098470436142ED9
S3151000AAA0F4D154E01D38C4B2A40000262B4FBB5974
S3151000AAB0002B04D01B59002B01D0280098470436D0
S3151000AAC0142EF4D143E02738C0B2254B1B68002B57
S3151000AAD03DD08000C358002B39D00800984736E087
S3151000AAE02D38C0B21F4B1B68002B30D08000C358C6
S3151000AAF0002B2CD00800984729E03638C4B2A400A1
S3151000AB000026194FBB59002B04D01B59002B01D01E
S3151000AB10280098470436142EF4D118E03838C0B2FD
S3151000AB20124B1B68002B12D08000C358002B0ED07E
S3151000AB30080098470BE00E4B1B68002B07D0984770
S3151000AB4005E00C4D28000C4CA0472800A047F8BD86
S3151000AB50D41501105027011064270110B8240110D4
S3151000AB609C270110B42401103C270110E02C011081
S3151000AB70F42101107C110110D9FD001010B502004E
S3151000AB8006490748074B9847041E04D1044B18780A
S3151000AB900249054B9847200010BDC046D42A011023
S3151000ABA098270110B9BF001055AA00100122014BB9
S3151000ABB01A7070470322011070B506000D00034C81
S3151000ABC029003000A0470028FAD170BD79970010EF
S3151000ABD070B506000D00034C29003000A047002870
S3151000ABE0FAD170BD6997001070B500210020164B80
S3151000ABF09847164C2000164B9847E1235B022360BA
S3151000AC000223A3600322E2600132226101326261F3
S3151000AC10A361E361236263620E480F4B18600F4A0B
S3151000AC200F4B1A600F4A104B1A6022000F49104B37
S3151000AC309847104D2B68986800210F4CA0472B6839
S3151000AC4058680021A04770BDA9870010082D011073
S3151000AC50A1950010E42C011088240110D1AB00102E
S3151000AC6084240110B9AB001080240110004000406C
S3151000AC70CD950010B821011065FE0010F0B583B017
S3151000AC8005000D4CA047A0470C4FB8470C4E0D4A77
S3151000AC900D4BB04700900191FA2080006843B847E9
S3151000ACA002000B0000980199B047084B9847084BD3
S3151000ACB0186003B0F0BDC0462D880010E9F80010EA
S3151000ACC0E1EC0010C7AEFE19EFD8093FA5EC001055
S3151000ACD004220110024B1A68501E18607047C046B5
S3151000ACE00422011070B50024164B1C70164B9847A1
S3151000ACF0164D2C70164C022216492000164B9847FA
S3151000AD0002212000154B9847012229002000144BE0
S3151000AD1098470C4C134D2378002B02D1A8470028D6
S3151000AD20F9D1114B1B68002B08D1094C02212000C8
S3151000AD300E4B9847022120000D4B9847034B18786D
S3151000AD4070BDC046032201107DAC00100822011010
S3151000AD50E42C0110ADAB0010B5970010E197001070
S3151000AD608D970010D5AC001004220110C997001061
S3151000AD700198001010B50248024B984710BDC04606
S3151000AD80681D0110D9FD001010B501000020074CF8
S3151000AD90A04707490120A0470020064CA0470120E4
S3151000ADA0A0478022D201044B1A6010BD59810010B1
S3151000ADB075AD00103581001000E100E010B50028D7
S3151000ADC000D10130054B43431A0000210020044BEB
S3151000ADD098470020034B984710BDC04680BA8C0197
S3151000ADE0E98000101181001010B50020014B984722
S3151000ADF010BDC04635810010024B1A6802601860FB
S3151000AE007047C0461022011030B50B4B1C68002C41
S3151000AE1011D025681D6000232360A160E280A08008
S3151000AE20064B1A68002A02D11C6004E01A00136847
S3151000AE30002BFBD1146030BD102201100C22011022
S3151000AE4070B50023064A1360064A1360064C2600A6
S3151000AE507836064D2000A8470C34B442FAD170BD9E
S3151000AE60102201100C22011014220110F9AD00104D
S3151000AE7010B5114B1C68114B1B689847E30714D487
S3151000AE800F4B1B68022098470E4B1B6898470E4CB9
S3151000AE900320236898470028FAD10C4B1B68023010
S3151000AEA0984701220A4B1A6004E00A4B18680A4BAD
S3151000AEB01B68984710BDC046ECB10040B82201107F
S3151000AEC0B0220110C82201109C220110A4220110E8
S3151000AED020B00040A82201109822011010B5064B90
S3151000AEE0064A196811605A68054B1A60054B1B68AB
S3151000AEF0002B00D0984710BD302D01100CB000402B
S3151000AF0010B000400430011070B5322200210F48F5
S3151000AF100F4B984700210D48012502244A00115471
S3151000AF20821853782B43DBB2A3435370013119298E
S3151000AF30F4D1064B5A7818398A435A70DA788A430C
S3151000AF40DA705A7F8A435A7770BDC046482D011071
S3151000AF50A9FC0010064A1168064B0B401360064AFE
S3151000AF60136006490868064B03400B605360704730
S3151000AF700CB00040D30FFEFF302D011010B0004072
S3151000AF80C0E7FFFFF8B54F464646C0B4444B1B78A2
S3151000AF90002B03D0424B1B78012B79D0414B98479D
S3151000AFA0414B98470027414B1F60414C802380221C
S3151000AFB012049146E250802252049046E2503D4DD2
S3151000AFC03D4B2B603D4B3E4A13603E493E4A116055
S3151000AFD03E4A11683E4A11603E4A11683E4A116067
S3151000AFE03E493F4A11603F493F4A11603F4E404A31
S3151000AFF032604049404A11604049414A1160414916
S3151000B000414A11604149424A11604249424A11601F
S3151000B0104249434A116028209847424928202B6804
S3151000B02098472B68404927209847404B1A68404B51
S3151000B0301A60404A404B1A60404A414B1A60414AD6
S3151000B040414B1A60414A424B1A60424A424B1A60BF
S3151000B050424A434B1A60434A434B1A60A02292005D
S3151000B06000214248424B984780229200414B1A8059
S3151000B070414B98474B462360434623603F4B1F6026
S3151000B08033683F4A1A600122054B1A70002003E00C
S3151000B0900122034B1A7001200CBC90469946F8BD4C
S3151000B0A0A022011009AF001055AF0010C4220110E4
S3151000B0B000E100E0FC2F0110D7070000BD070000DB
S3151000B0C03C2D011051BC010000300110BC000410D1
S3151000B0D094220110B8000410902201109FB90100AB
S3151000B0E0382D0110DBB90100402D01100C30011074
S3151000B0F03C000410C01F0410442D0110C41F04107E
S3151000B10008300110E9CB0100B02201108FCD0100EB
S3151000B110A4220110A3CE0100C8220110CFCB01003A
S3151000B1209C220110A1B5001035B50010E4000410E2
S3151000B130B8220110E99F0100CC220110DDDB0100CD
S3151000B140982201105BDC0100AC220110EC05041002
S3151000B150A8220110E3D50100B4220110200C04101E
S3151000B160D0220110099F01008C2201107C2D0110A4
S3151000B170A9FC00101030011041AE0010043001106F
S3151000B180DDAE0010044B1A780523012A02D1034BB9
S3151000B1901860002318007047A0220110C422011065
S3151000B1A070B504000E4B1B68002B02D040889847E0
S3151000B1B06080E388A288618820880A4D2D68A84798
S3151000B1C00500E288002A02D1074B984706E02100C5
S3151000B1D00831064B98472800034B984770BDC04668
S3151000B1E094220110CC22011071AE001097FC0010B1
S3151000B1F0F0B55F4656464D464446F0B487B0441EF9
S3151000B20000239946E31C1CD80D22002102A8824B6C
S3151000B2109847192302AA1370163B53709370023382
S3151000B220137193711472230A5372230C9372240EA2
S3151000B230D472012313730D211000784B9847012304
S3151000B240994600240025764F764E7749386833683C
S3151000B2509847002800D088E0734B1C68A3889A464C
S3151000B260CD239B009A4500D1C7E023899B4663896D
S3151000B27098464B46002B11D00D22002102A8664B92
S3151000B2809847192302AA1370163B53709370023312
S3151000B290137193710D211000604B9847A023DB00AA
S3151000B2A09A4521D1614B1B884344A02292009342B8
S3151000B2B002DD803A5D4B1A805C4B9A461D885C4BCA
S3151000B2C0ED1821000C31424628005A4B9847424649
S3151000B2D029005846584B984753461B8843445246B4
S3151000B2E01380002402253AE0544B1B68002B32D001
S3151000B2F04D4B1A689388CD2189008B4204D14B4659
S3151000B3000124002B2BD028E04D4C494D25602B7085
S3151000B3101B0A6B7010894B4B1B6898472871000AE3
S3151000B32068712068404B1A68D28842801D686B8904
S3151000B330C380083020606A89002A03D029000C31A6
S3151000B3403C4B9847698908313C4B1B6838489847ED
S3151000B3500024032503E0002401E00024D025324B0D
S3151000B3601868394B1B68984700E00725002C00D059
S3151000B3706BE74B46002B46D0294B1E68002E04D196
S3151000B38000231C6A002C31D13DE0346A14239C46FC
S3151000B390B4446346604600932C4B1B689847002CB8
S3151000B3A01FD00027CD239B009846274B9A46200096
S3151000B3B003689B88434510D1002F06D08368BB6075
S3151000B3C053461B689847B86809E0836833621E4B7A
S3151000B3D01B6801939847306A01E0070080680028CF
S3151000B3E0E6D11B4B1B68009898470CE0142300937A
S3151000B3F0164B1B6814209847D3E7104B1B68002484
S3151000B400002BACD07BE7280007B03CBC9046994691
S3151000B410A246AB46F0BDC046A9FC0010A1B1001073
S3151000B420D0220110B4220110C022011010300110D8
S3151000B4307C2D011097FC001009AE0010C4220110DB
S3151000B440BC220110902201108C220110AC22011096
S3151000B4509822011010B5124B1C68124B1B688020E5
S3151000B46000029847E30714D40F4B1B680220984735
S3151000B4700E4B1B6898470E4C0320236898470028EC
S3151000B480FAD10C4B1B680230984701220A4B1A60FE
S3151000B49004E00A4B18680A4B1B689847082010BD31
S3151000B4A0ECB10040382D0110B0220110C822011055
S3151000B4B09C220110A422011020B00040A8220110E5
S3151000B4C09822011030B5184A138F9BB2108D802127
S3151000B4D00902014311851000144D01240022DB05D9
S3151000B4E0DB0D11D0DBB259420B40012B06D01100F7
S3151000B4F05B080131C9B2012BFAD100E0110023001B
S3151000B5008B409BB2038703E0038F2B439BB20387C9
S3151000B510038FDB05DB0DE2D1802149008133FF3338
S3151000B520034AD15030BDC046001001400080FFFFD5
S3151000B53000E100E030B5174A138F9BB2108D8021C1
S3151000B5400902014311851000134D01240022DB0569
S3151000B550DB0D11D0DBB259420B40012B06D0110086
S3151000B5605B080131C9B2012BFAD100E011002300AA
S3151000B5708B409BB2038703E0038F2B439BB2038759
S3151000B580038FDB05DB0DE2D180218133FF33034AC4
S3151000B590D15030BD000001400080FFFF00E100E007
S3151000B5A010B50C4B1B8F5B0B10D00B4B1B689847C1
S3151000B5B0084A138F118F5B0B5B030B431387802194
S3151000B5C04900C0235B00054AD15001E0044B98475F
S3151000B5D010BDC046001001400030011000E100E02F
S3151000B5E0C5B400100322024B1A7000207047C046E3
S3151000B5F05C30011030B501230021002402E0013136
S3151000B6000133DBB2CAB2062A02D1447B2402F6E722
S3151000B610072A02D1827B1443F1E70F2BEFD91E4B79
S3151000B6209C4210D11D4B1B781D499C00E2189200BC
S3151000B6308A1801251571458815818288E3189B00A3
S3151000B640CB185A8126E0174B9C4210D1134B1B780E
S3151000B65013499C00E21892008A18012555714588F5
S3151000B66095818288E3189B00CB18DA8112E00E4B85
S3151000B6709C420FD1094B1B7809499C00E218920095
S3151000B6808A1801259571458815828288E3189B00D2
S3151000B690CB185A82002030BDBBBB000015300110FC
S3151000B6A060300110EEEE000011110000002070470E
S3151000B6B00622014B1A7070475C30011010B5044811
S3151000B6C0044B98470448054B9847002010BDC046C8
S3151000B6D07C110110D9FD0010DC1D0110B9FC001001
S3151000B6E010B50448044B98470448054B984700206A
S3151000B6F010BDC0467C110110D9FD0010FC1D0110B3
S3151000B700B9FC001010B50448044B98470448054B83
S3151000B7109847002010BDC0467C110110D9FD0010BD
S3151000B7202C1E0110B9FC001010B50448044B9847A4
S3151000B7300448054B9847002010BDC0467C110110E7
S3151000B740D9FD0010541E0110B9FC001010B50448A4
S3151000B750044B98470448054B9847002010BDC04637
S3151000B7607C110110D9FD00106C1E0110B9FC0010DF
S3151000B77010B50400104B18780121104B9847A37888
S3151000B780082B08D00C2B0BD0012B0DD10C4A13888B
S3151000B7900133138008E00B4A13880133138003E04A
S3151000B7A0094A138801331380034B18780021034B81
S3151000B7B09847002010BDC04650210110E9820010A4
S3151000B7C01E2301101A230110D6220110F0B5474688
S3151000B7D080B488B00500614B18780121604B9847FA
S3151000B7E0604C2388013323805F4E30005F4FB8478B
S3151000B7F021885F485F4CA0473000B847AB78AA88CD
S3151000B80029885D48A047AB78002B0DD00024594FEE
S3151000B8102E19B1795948B847B27903AB1A55013484
S3151000B820E4B2AB78A342F3D8AB88112B3BD103A873
S3151000B83003781A0643781B041343C4782343847889
S3151000B84024021C4303791A0643791B041343C67951
S3151000B8503343867936021E43037A1A06437A1B044B
S3151000B8601343C77A3B43877A3F021F43037B1A066B
S3151000B870437B1B041343C27B1343827B12021A437E
S3151000B88090463948394B9847434600933B0032005F
S3151000B89021003B48374CA0473A4B1E006436002027
S3151000B8A00122944620E00D2BF6D103AB1A7811062F
S3151000B8B05A7812040A43DC7822439C7824021443F3
S3151000B8C01E7931065E7936040E43D97932000A4361
S3151000B8D09E79360216432448244B9847320021009D
S3151000B8E02948244B9847D7E759882A88914227D167
S3151000B8F01A7826490A70AF881900083102000C8898
S3151000B900BC4218D24C88BC4215D920494A70AC7832
S3151000B9108C70002C14D0A91D1D4A013CE4B21419D8
S3151000B920671C0C78147001310132BA42F9D1194AE8
S3151000B9306146117004E00132D2B20431032ADED11D
S3151000B9401433B342D0D1054B18780021044B9847D5
S3151000B950002008B004BC9046F0BDC046502101102E
S3151000B960E98200101C2301107C110110D9FD001072
S3151000B970801E0110B9FC0010981E011070180110DD
S3151000B980281F0110603001104C1F01101C300110CF
S3151000B9901F3001101430011010B504000089054B3A
S3151000B9A09847E223002803D00222034B1A70A37A89
S3151000B9B0180010BD25AA0010D4220110F0B55F465C
S3151000B9C056464D464446F0B495B0564B1C78E4B2F4
S3151000B9D00022554B1A70143200210CA8534B98476D
S3151000B9E0002C00D18CE0524A00230027117801293F
S3151000B9F003D8791C0CA8C355CFB20133DBB2293258
S3151000BA009C42F3D1002F5FD007AB00221A70183278
S3151000BA109A70153A5A7011AA464B03CB03C21B787B
S3151000BA2013707B1EDBB20133994600250023059364
S3151000BA300493414B9B463E4B9A46B846EEB23F485E
S3151000BA40D8470CABEB5C9C00E418E400E4185444B3
S3151000BA50A379E279A1780391E17802912179019194
S3151000BA606179009129003648364FB84723000833CC
S3151000BA70270027370022187811A9895C884203D13C
S3151000BA80072A05D80132D2B20133BB42F3D102E004
S3151000BA90059601230493032207A920002A4B9847F1
S3151000BAA0002808D1204A1378591C1170274AD654F9
S3151000BAB02748244B98470135A945BFD147461A4B0D
S3151000BAC01B78002B21D102E00023059304931B4819
S3151000BAD0194B98471F481B4B98471F4B9847049B79
S3151000BAE0002B06D00CAB059A995C11481B4B984756
S3151000BAF011E0002F02D00222194B1A70E2200AE040
S3151000BB000222174B1A70E22005E0134B9847049B4C
S3151000BB10002BF0D0E6E715B03CBC90469946A246FD
S3151000BB20AB46F0BDF8210110F0210110A9FC001060
S3151000BB30A0270110041C0110D9FD00107C11011062
S3151000BB40E0130110B9FC0010F1A80010CC30011060
S3151000BB502014011074140110DDC90010F1980010A2
S3151000BB605C30011010B5084A0121084B9847002394
S3151000BB70002806D00648074B98470748074B9847B2
S3151000BB80E223180010BDC046FFFF000049CB00108D
S3151000BB907C110110D9FD00106C1F0110B9FC0010AA
S3151000BBA010B5114B1B78FF2B03D100220E4B1A70C8
S3151000BBB005E0591C1122042914DC0B4A11700A4B9A
S3151000BBC01B780A499C00E218920053544288E318E5
S3151000BBD09B00CB185A804088054B98470322054B8B
S3151000BBE01A700200100010BD1530011060300110DF
S3151000BBF065BB0010D4220110F0B54F4680B48CB04E
S3151000BC0000227F4B1A707F4B98477F4B98477F4B8C
S3151000BC10984702AC20007E4B9847012323707D4B3A
S3151000BC20187821007C4B9847002805D07B487C4B20
S3151000BC3098477C487C4B98477C4B1978C9B2754B12
S3151000BC4018787B4B98477B487B4B984701AC200074
S3151000BC507A4B98471023237021007948794B9847DF
S3151000BC6002AC2000784B98470026A67096232371C5
S3151000BC70853BA3600D3BA3611322E260E361143A96
S3151000BC8022612262133262616362704D2200704932
S3151000BC902800704B9847704B1E7028006F4B9847C2
S3151000BCA05E485F4B98476E485F4B984700206D4B38
S3151000BCB098476D4A002100206C4CA0476C4A012120
S3151000BCC00020A0476B4B9847CF2806D15348544BBA
S3151000BCD098476948544B984707E0E22805D14F48E2
S3151000BCE04F4B98476548504B98476548654B984762
S3151000BCF06548664B9847FF22654B1A70654B1D00C9
S3151000BD006435FF21012464420022002019705C80F2
S3151000BD101A7119815A8158719981DA81987119822B
S3151000BD205A821433AB42F1D15B4D354C5B4F012037
S3151000BD304042A8472378033BDAB2042A32D893004C
S3151000BD40FB589F4602222E4B1A702BE002222C4BD8
S3151000BD501A7027E0524B994604234A461370514BEA
S3151000BD6098470321504B98474B465970FF234A4634
S3151000BD7093700122324935484C4EB047402249460D
S3151000BD8032484B4B984700222D493048B047022283
S3151000BD901B4B1A7006E00222194B1A7002E002229F
S3151000BDA0174B1A702C4B1B78002BC0D03C4B414ABA
S3151000BDB011781970517859709078987000280CD0B5
S3151000BDC03D4B374A03320138C0B218180130197882
S3151000BDD01170013301329842F9D1012218491B48DA
S3151000BDE0324EB04740222E491848314B9847002210
S3151000BDF013491648B0470022174B1A7097E7C046EA
S3151000BE005C30011085AF001055B40010E9AB00107E
S3151000BE107181001050210110818100107C110110D8
S3151000BE20D9FD0010941F0110B9FC00101823011041
S3151000BE30E9820010B1B6001089AD0010918400108F
S3151000BE4018300110C98400109D840010C4300110F0
S3151000BE5000700040998500101430011009850010FB
S3151000BE60B41F011005A60010901D011035A5001075
S3151000BE7010200110A9A80010D41F0110F01F0110E6
S3151000BE80BDAD001069990010E9AD0010759900104C
S3151000BE9015300110603001107DAB00107C1D0110B3
S3151000BEA0D8220110EDFD001099EC001089870010C2
S3151000BEB0798700101C3001101F30011070B50C4D21
S3151000BEC02C68002C13D02668E2602E600025094AE3
S3151000BED0238113682560A080E180AB4201D11460F4
S3151000BEE005E01A68002A01D0131CFAE71C6070BD21
S3151000BEF0C4230110C0230110084B0022191C10B5D1
S3151000BF001868074B9C18D0501032201CA02AF8D164
S3151000BF10002290330B60034B1A6010BDC42301102E
S3151000BF2020230110C023011038B51B4C031C258893
S3151000BF30081C211C9D4207D1A588854204D10123E6
S3151000BF405B422380A26009E04C889C420AD18C880F
S3151000BF50844207D101235B424B808A600F4B98477E
S3151000BF60012017E00E498B420ED00E498B4207D0A6
S3151000BF700D4900208B420DD1101C0C4B9847EFE752
S3151000BF80111C0B4B002202E0111C0022094B984792
S3151000BF904342584138BDC046E030011091D10010DF
S3151000BFA0130E0000150E0000010E000001D5001042
S3151000BFB0C1D6001099D700100023F0B585B00292B3
S3151000BFC00370029B0190013B0D1C0393033302D8AF
S3151000BFD00298AD4B9847039BAC4F0024033312D8FD
S3151000BFE03B68002B12D1D02C00D19CE20298A84BB2
S3151000BFF09847041E022CF3D125E00298A44B9847CB
S3151000C000041E022C1FD03B68002BF6D0D02C00D17A
S3151000C01089E2E31E5A1E934138685B421C40002891
S3151000C02000D186E20368C1683B609A4FC2883E68B9
S3151000C030838806603860002C12D19748834208D056
S3151000C040964883421DD13A230024019A251C137069
S3151000C05006E09A4200D068E23823019A13702960EC
S3151000C060019B1B783B2B03D0039B033303D964E25C
S3151000C070002CB0D0F8E7D02C00D15EE2884B984760
S3151000C0805BE2BB2A23D1BB2B21D1AC808B784A78BB
S3151000C0901B02CF78087913434A798249AF702B80F7
S3151000C0A08B4206D8804A93420BD2804A934208D0DC
S3151000C0B009E07F498B4206D113020343AB80372335
S3151000C0C002E0362300E00023019A1370C8E779488E
S3151000C0D0834200D14CE164D87748834200D1CDE148
S3151000C0E02FD87648834200D1D6E113D874488342BC
S3151000C0F000D19FE104D83824A34200D10FE2B6E064
S3151000C1007048834200D19BE1FE30FF30834200D15C
S3151000C110C8E1ACE06C48834200D1A3E108D86B4873
S3151000C120834200D192E16A48834200D194E19EE0B5
S3151000C1306848834200D19BE16748834200D1C5E13C
S3151000C14095E06648834200D1BAE112D8644883422A
S3151000C15000D1C1E104D86348834200D192E186E060
S3151000C1606148834200D1A1E16048834200D1A3E136
S3151000C1707DE05F4A934200D17FE008D8083A9342A7
S3151000C18077D05C4A3924934200D1C8E16FE0D122BE
S3151000C1901201934200D1DFE0574A934200D1E1E009
S3151000C1A065E05648834200D118E12ED854488342A0
S3151000C1B000D13BE112D85348834200D1EEE004D8B7
S3151000C1C00338834200D1D9E051E04F48834200D171
S3151000C1D0D8E04E48834200D1FBE048E04C48834209
S3151000C1E000D1E1E008D84B48834200D11AE14A4811
S3151000C1F0834200D1DDE03AE04848834200D1DCE0DA
S3151000C2004748834200D1DEE031E04648834200D100
S3151000C210F6E016D84448834200D1F7E008D84348E0
S3151000C220834200D1E0E04248834200D1B0E01EE0F4
S3151000C230404A934200D1DDE03F4A934200D1EBE001
S3151000C24015E03E48834200D158E108D83C48834265
S3151000C25000D147E13B48834200D149E107E03A4823
S3151000C260834200D150E13948834200D152E1002483
S3151000C27055E1081C364B291C7DE0081C354B291C42
S3151000C280984704244BE1C046C9D10010C0230110C1
S3151000C290F1B10010C4230110FFFF0000FEFF0000E3
S3151000C2A0CBD100101E2000001D200000030C000042
S3151000C2B01F2000001C0D00000C0C0000020C0000DA
S3151000C2C0020A0000030A0000060C0000040C00001D
S3151000C2D0050C0000070C0000090C0000170C0000EC
S3151000C2E0120C00000D0C0000130C0000150C0000C1
S3151000C2F0080D0000010D0000150D00001B0E0000BA
S3151000C3000F0E0000030E0000060E00000A0E0000BD
S3151000C310150E0000110E0000130E0000170E00007F
S3151000C320190E0000270E0000210E00001C0E000042
S3151000C3301D0E0000220E0000250E0000051B000039
S3151000C340011B0000031B0000061B0000081B000059
S3151000C350B5DF001099DF0010081C794B291C98478F
S3151000C3600124DCE0081C774B291C98470F24D6E0E3
S3151000C370081C291C744B9847041CD0E0101C734BE6
S3151000C3802A1C14E0101C724B2A1C98471124C6E074
S3151000C390101C704B2A1C98471224C0E0081C6E4BC8
S3151000C3A0291C98470624BAE0101C2A1C6B4B984788
S3151000C3B0E2E7101C6A4B2A1CF9E7101C694B2A1C71
S3151000C3C098470D24ABE0101C674B2A1C98470E2487
S3151000C3D0A5E0101C654B2A1C984775E0101C644B91
S3151000C3E02A1C98470B249AE0101C624B2A1C98476B
S3151000C3F0102494E0081C604B291C984728248EE0D2
S3151000C400081C5E4B291C9847292488E0081C5C4BA5
S3151000C410291C9847272482E0081C5A4B291C984748
S3151000C4202A247CE0101C584B2A1CC0E7101C574BC2
S3151000C4302A1CBCE7081C564B291C98472B246EE077
S3151000C440081C544B291C98472C2468E0101C524B8E
S3151000C4502A1C9847132462E0101C504B2A1C98473C
S3151000C46014245CE0101C4E4B2A1C9847152456E0E9
S3151000C470101C4C4B2A1C9847162450E0101C4A4B93
S3151000C4802A1C94E7101C484B2A1C9847A988041CA0
S3151000C490464B2888984742E0101C454B2A1C984763
S3151000C4A023243CE0101C434B2A1C80E7120A081C6C
S3151000C4B02A80291C404B5EE7101C404B2A1C76E74D
S3151000C4C0081C3F4B291C98473B2428E0101C3D4B69
S3151000C4D02A1C9847182422E0101C3B4B2A1C98470C
S3151000C4E020241CE0101C394B2A1C9847332416E0D4
S3151000C4F0101C374B2A1C9847302410E0101C354B63
S3151000C5002A1C984734240AE0101C334B2A1C9847DF
S3151000C510352404E0101C314B2A1C98473224019B09
S3151000C5201C7000249CE5D0249AE5BB2A00D09EE618
S3151000C530F5E7002C00D093E599E6201C05B0F0BD78
S3151000C540ADE10010B9E30010DDE300106DD300106B
S3151000C550ADDB001029DC001025D60010C1D6001066
S3151000C56099D70010E1D9001081DA001039DB0010DC
S3151000C57061DB001077DB001041DC00106FDC00106F
S3151000C58085DC0010AFDC0010DDDA001007DB0010D0
S3151000C59005CE001031CE001015E6001051E6001041
S3151000C5A099E60010DDE6001011E70010D5E5001041
S3151000C5B0DDE7001065E700105DCD0010C9CD001055
S3151000C5C08DCD0010EDE700102DE8001079E9001070
S3151000C5D083E9001089E900108FE900109BE900102B
S3151000C5E0F7B50E4900240B680F1C1E1C0C4A156863
S3151000C5F00192002B0ED09A881968824207D1002C1E
S3151000C60001D0216000E00E1C1D601D1C231C1C1C8B
S3151000C6100B1CEEE7019B3E601D60F7BDC0230110A9
S3151000C620C4230110F7B5124A0090136811481F1C55
S3151000C6300021844604680192002B14D0D888009AF1
S3151000C6401D68060A96420BD1FD2606400C2E07D110
S3151000C650002901D00D6000E02F1C1C601C1C0B1C57
S3151000C660191C2B1CE8E7019B1F6063461C60F7BD75
S3151000C670C0230110C423011030B5CF23002810D0D9
S3151000C6804A1E1F2A0DD8084A131CAA3319800023E4
S3151000C6901C1CC55CAC3401331555DCB28C42F7D387
S3151000C6A00023181C30BDC0467E31011010B5041C85
S3151000C6B0CF20002C06D0044BCE38211C9847034BB4
S3151000C6C01B79237010BDC04649DE00107E31011063
S3151000C6D0F0B5067989B0CF25032E38D803781135F1
S3151000C6E00F2B34D88023878C113D9B009F422ED868
S3151000C6F0C57F837FAD015B011D43C37E1D43437F11
S3151000C7001B011D43037F9B001D43124BEDB21E718F
S3151000C7100379023B012B01D802230371041C231C4D
S3151000C7200B33618807932379007800930195258C44
S3151000C730621D0295658C079B03950497064DA847C5
S3151000C7402671051C211C03482622044B9847281CD9
S3151000C75009B0F0BD7E31011041DD001097FC0010CC
S3151000C760F0B587B003AF4D49041C0B224C4B381C57
S3151000C770984705224B4B1A8000234B4A13604B4AAD
S3151000C78013704B4A13704B4B98474B4B98474B4B78
S3151000C79098474B4B9847002C09D02068002806D0A4
S3151000C7A06168002901D1E22675E0464B9847464B51
S3151000C7B098470128F7D84548454B98470028F2D1A5
S3151000C7C0444B9847444B98476B460122DC1C201C6F
S3151000C7D001A95242414B9847002802D12378392BA0
S3151000C7E0F2D13F4B9847061E55D1031C01213D4AF5
S3151000C7F049429A1812335181902BF7D13A4C813B0A
S3151000C80023703A4B3A4A6380002323710133581E32
S3151000C81019010143023311700132212BF7D1E03394
S3151000C820FF33A384231C002573331D70231C72331E
S3151000C8301D70231C76331D70231CCC331D80221CC7
S3151000C840A023D0325B001380221CCE321380231C0F
S3151000C850D2331D80FA22231C5200D4331A80231C93
S3151000C860D6331D70201C234BE57625776577A57783
S3151000C870E577258465849847231C072274331A703C
S3151000C880231C0432AA331A802B1C7A5DAC33013573
S3151000C890E2540B2DF8D1301C07B0F0BD3820011032
S3151000C8A097FC0010EC30011068240110D023011001
S3151000C8B0512101103DE800103DCB0010E1CB0010D6
S3151000C8C0F9CD001015CC001085AF0010B9D00010AE
S3151000C8D085B1001051D10010F9BE0010B9BF00107B
S3151000C8E0D1DC0010EE3001107E310110983A0000B4
S3151000C8F089310110D1C6001038B5451C031CCF2054
S3151000C900002D18D01A78032A15D8012A02D15A7880
S3151000C910002A10D01C1C291C0622074B07489847D2
S3151000C920237807480371074B98472378002B02D1C9
S3151000C930281C054B984738BD97FC00108331011011
S3151000C9407E310110D1C60010CDD10010F0B58DB0DA
S3151000C950061C12A8077813A80078079014A8007868
S3151000C9600890CF20022F2ED8B1422CD8012B2AD8CE
S3151000C9700C1F164DA4B2AC4225D8341FA4B2AC423B
S3151000C98021D8079C002C01D0022F1CD11C1C104B47
S3151000C9900D1C099298470F4B011C5A88079B604241
S3151000C9A060410393089B029704936423099F04AC88
S3151000C9B05F434B3BBFB211301B190096019505978B
S3151000C9C0054CA04700200DB0F0BDC046FC3F00004E
S3151000C9D0FDE000107E31011015E1001010B5054B79
S3151000C9E09847041E03D1D120034B00019847201C01
S3151000C9F010BDC04629DF0010E1C50010F0B591B09A
S3151000CA000D932D4B0A900B910C92169C98474B2523
S3151000CA1007284DD86388294A063B9BB28435934232
S3151000CA2046D82388063B9BB2934241D8E388244AD2
S3151000CA300A3B9BB293423BD8F423A288FF339A4217
S3151000CA4036D80EAF1F4B0120391C98471E4E051CB9
S3151000CA5033793B7000282AD11C4B984775363378AA
S3151000CA60011C013B012B01D902233370164B1A1CF2
S3151000CA70753210785A880C9B123000930D9BC0B2F9
S3151000CA8001932388029363880393A3880493E3880E
S3151000CA90059323890693638904AC07930B9B08932C
S3151000CAA00A9B099329231B19094CA04700E0E2258C
S3151000CAB0281C11B0F0BDC04645D300107A0C0000FA
S3151000CAC0760C000049DE00107E310110FDE00010EA
S3151000CAD035E2001038B5041C044B081C211C98477D
S3151000CAE0051C034B201C9847281C38BDE1D50010A7
S3151000CAF025C6001010B5014CA04710BD91DA0010E4
S3151000CB0010B5CF2300280AD0002908D0002A06D055
S3151000CB100C78022C03D1034B013198470023181CC3
S3151000CB2010BDC04651E30010831EDBB203200E2B4E
S3151000CB3001D8014AD05C7047432001100022014BF6
S3151000CB401A807047C823011037B5CF2400290AD0A0
S3151000CB508A4208D30024131C01900A1C0094022058
S3151000CB60211C024DA847201C3EBDC04645E50010BD
S3151000CB7070B5051C00240C4B19680C4B1E688C42B2
S3151000CB8010DC0C206318DA0FD318021C5B105A4302
S3151000CB90B0180288AA4201D2591EF0E7AA4202D959
S3151000CBA05C1CECE7002070BDDC230110D4230110BF
S3151000CBB037B5094B051C081C0C1C9847002809D0D2
S3151000CBC08268002A06D08388291C0092201C002225
S3151000CBD0024CA0473EBDC04671CB00104DE400107C
S3151000CBE00023064A1370064A1360064A1360064A63
S3151000CBF01360064A1360064A13607047D02301106B
S3151000CC00E0230110DC230110CC230110D8230110DE
S3151000CC10D42301100A4B0B4A18604B0813600A4ABA
S3151000CC20C3181360094A4118136003230022033105
S3151000CC309943074B04391960064B1A607047C04672
S3151000CC40E4230110E0230110CC230110D823011096
S3151000CC50D4230110DC23011070B50B4B061C0C1CE1
S3151000CC60151C9847002808D08068002805D0211C7C
S3151000CC702A1C064B9847002004E0301C291C221C55
S3151000CC80034B984770BDC04671CB001097FC00103F
S3151000CC9051E8001070B50C4B061C0C1C151C98475F
S3151000CCA000280BD08368002B08D083882B808288BD
S3151000CCB08168064B201C9847002004E0301C291C74
S3151000CCC0221C034B984770BD71CB001097FC0010C7
S3151000CCD0DDE80010F0B585B0041C0191002928D1BB
S3151000CCE04388271C0093181C164B984708370028B2
S3151000CCF009D08068002806D0A388E288C018391C9D
S3151000CD00114B984715E002AB9E1D00230F4D338043
S3151000CD102968321C0E4B009898472B68A088E28829
S3151000CD201818391C084B9847608832882968094BAF
S3151000CD30984760882188019A074B9847002005B0CC
S3151000CD40F0BDC04671CB001097FC001054210110A5
S3151000CD5095CC001059CC0010B9E4001038B50C1C55
S3151000CD60074B98476588074B281C984783782620D9
S3151000CD70DB0704D42088291C034B98473B2038BD79
S3151000CD80FDE3001071CB0010B1CB001038B50D1CAF
S3151000CD900A4B141C98472D88094B281C9847220AC1
S3151000CDA0031C084C91B2002803D082880023281C4B
S3151000CDB001E0281C0122A0473B2038BD41E40010A9
S3151000CDC071CB0010FDE4001010B5141C074B9847EA
S3151000CDD0074B60889847022381782220194003D197
S3151000CDE0201C044B98471F2010BDC04609E40010B4
S3151000CDF071CB0010D5CC00100A22014B1A70704767
S3151000CE005121011010B502780A70837844781B02FC
S3151000CE1023434B800379C0781B0203438B80002A7F
S3151000CE2003D1024A13780133137010BD512101103A
S3151000CE3008B5031C42780078120202430A80DA7899
S3151000CE409878120202434A805A79187912020243DC
S3151000CE508A80881D991D014B984708BD97FC0010C4
S3151000CE60F0B50C1C1F218BB0079302ABC9180F230A
S3151000CE700B70404B051C161C9847071C0120072FEA
S3151000CE8075D8002C13D112235F433B4BFB5C8342B6
S3151000CE9001D0CF206BE00495009401940294039482
S3151000CEA0201C211C221C231C344DA8475EE022792D
S3151000CEB0062AEED96379102BEBD89A42E9D8237A51
S3151000CEC0042BE6D8A379072BE3D8E379072BE0D810
S3151000CED0A378002B06D0002EDBD02948311C1C224B
S3151000CEE0284B9847079B002B05D02748191C9A30CA
S3151000CEF01022244B98476378A2789B001343122282
S3151000CF0057431D4ADBB2BA5C002A16D1A0794207F4
S3151000CF1002D5079A002ABCD0C20701D5002EB8D078
S3151000CF2066792178E27800960190E0790290207A6D
S3151000CF30164C0390281CA04718E0012AA9D1E079C5
S3151000CF40420702D5079A002AA3D0C20701D5002EA0
S3151000CF509FD066792178E2780096A679029001969C
S3151000CF60207A04950390054C0120A04700200BB0B1
S3151000CF70F0BDC04609D30010EE30011079D800106C
S3151000CF80FC31011097FC00107E31011059D60010AB
S3151000CF90F0B585B0051C0C1C161C00216846102225
S3151000CFA0184B98470121002E01D1311C6E46002CDA
S3151000CFB016D10127231C701D013E02780138303A24
S3151000CFC07A439B180A225743B042F6D16A466846FE
S3151000CFD013701A0A42701A0C1B0E8270C37009E085
S3151000CFE0CF20012C0CD100236846F25CC2540133C9
S3151000CFF0102BF9D104206A462B1C034CA0470020A5
S3151000D00005B0F0BDA9FC0010F5D80010F7B5CF2378
S3151000D01000292BD0052A29D801273D1C33249540F9
S3151000D020254223D08C7E073C092C1FD8104B0C1C94
S3151000D0300021151C061C98473B1C072816D81223DE
S3151000D04058430C4BC75CE023002F0FD1211C1C2228
S3151000D050094B0A489847231CA17E228A1233009155
S3151000D0600195211C301C064CA0473B1C181CFEBD0C
S3151000D07009D30010EE30011097FC0010FC3101109E
S3151000D08045D9001073B5CF24002B11D0002A0AD031
S3151000D09005290DD8012533268D40354208D09D7EB1
S3151000D0A0073D092D04D89C7E0094024CA04700240D
S3151000D0B0201C76BD01DA0010F7B5C588078886886A
S3151000D0C0002D0CD1194B381C311C2A1C9847031EF5
S3151000D0D02AD1381C311C1A1C154CA04724E0962264
S3151000D0E0144C920023885B19934201DD00232380A0
S3151000D0F0011C114A238808319B180193181C2A1CFD
S3151000D1000E4B9847381C311C019A084B984700283B
S3151000D1100AD1094B2288311CD218381C2B1C044EFC
S3151000D120B0472388ED182580F7BDC04629BF0010EB
S3151000D130BDBE0010583201105C36011097FC00106D
S3151000D14008B5024B9847002008BDC046A1B1001093
S3151000D150802210B50021084C92000848A04796225C
S3151000D160002192000648A0470022064B1A80064A64
S3151000D170064B1A6010BDC046A9FC00105C340110A5
S3151000D1805C360110583201105C3201105421011026
S3151000D1900122014B1A607047E823011010B5041CD8
S3151000D1A0074B1A68012A03D0064B00209847F7E769
S3151000D1B01968012902D100221A6000E0227010BD00
S3151000D1C0E8230110F1B1001070477047F7B56B46B0
S3151000D1D0DE1D002333700F23134C03272370002307
S3151000D1E0E370124B011C1A881B8822711B0A062237
S3151000D1F063710F480F4B6770A77098470E4D0F4B12
S3151000D2000E212B800623A3710023201CE3710C4BE7
S3151000D210AF809847301C0B4B98473378E220002B91
S3151000D22001D1AB681878FEBD5C340110EC300110EA
S3151000D2306434011097FC0010E0300110290300003F
S3151000D24041D100109DD1001038B50B23274C237007
S3151000D250033363702933A370254BE1701A881B883A
S3151000D26022711B0A637100232072637201282BD06E
S3151000D27098421BD002282FD11E4B12211A1CCE32D7
S3151000D2801288A272120AE2721A1CD0321288227303
S3151000D290120A62731A1CD2321288D433A273120A7B
S3151000D2A0E2731B8823741B0A637416E0114B124930
S3151000D2B0AA331D8811482B0AA572E3722A1C104B3B
S3151000D2C00C359847A9B208E00A4B0C21CC331B88C1
S3151000D2D0A3721B0AE37200E00A210B1C083BA37120
S3151000D2E01B12E371201C074B984738BD5C340110A4
S3151000D2F0EC3001107E3101102A3201106834011011
S3151000D30097FC001041D100100C4B70B5041C08207E
S3151000D3109C4211D0002312225A43094DD8B25619F5
S3151000D3207689A64204D1002906D0535D0B7003E01E
S3151000D3300133082BEFD1181C70BDC046FFFF00004B
S3151000D340EE300110002312225A430649D8B2521861
S3151000D3505189054A914203D00133082BF3D1181C89
S3151000D3607047C046EE300110FFFF0000F7B50B788E
S3151000D370051C581E4E780F285AD8141C01F012FBA3
S3151000D3800A4458584444584B2D1225085858393ECB
S3151000D3903B204EE03B20002E4BD02D0A1580967078
S3151000D3A0353846E06B46DF1D01232D0A3B70281CDD
S3151000D3B0391C204B9847072803D83B783B20002B75
S3151000D3C037D065802671092033E03B20002E30D0FF
S3151000D3D02D0A158096702D382BE03B20002E28D074
S3151000D3E000232D0A158096709380D38013813438CC
S3151000D3F01FE03B20002E1CD0167203E03B20002EAF
S3151000D40017D01671123814E03B20002E11D09370ED
S3151000D410D6702A380DE03B20002E0AD02D0A167041
S3151000D4205580101D00210522034B9847122000E05D
S3151000D4300020FEBD09D30010A9FC0010F0B585B080
S3151000D4401D1C0AAB1B78019202930BAB1B78071CB1
S3151000D45003930CAB1A8802230E1C234C391C237021
S3151000D4600C336370A370214BE2701A881B882271EB
S3151000D4701B0A1F4F10221F486371B847330A2676BE
S3151000D48063760199330C1022360E1B48A376E67686
S3151000D490B847231C2C331D70231C2A0A2D331A70EF
S3151000D4A0231C2A0C2E331A70231C2D0E2F336A467A
S3151000D4B01D70231C127A30331A70231C0025313349
S3151000D4C06A461D70231C127B32331A70231C3333A9
S3151000D4D01D702C23201CA3713421084BE57198472D
S3151000D4E0281C05B0F0BDC0465C340110EC300110AC
S3151000D4F097FC0010643401107834011041D10010EB
