S0130000534D5367617465776179312E73726563FB
S3151000800010B5184B184A9A4203D0184B154A9A4283
S3151000801004D3174B174A9A4210D31EE0164B134A35
S315100080200332D21A92080132920000230D480E49EB
S31510008030CC58C45004339342FAD1EAE70F4B0C499B
S315100080400331C91A8908013189000023094C00201F
S315100080501A19106004338B42FAD1094B9847094B11
S31510008060984710BDB82E0110B82E0110242F0110FC
S31510008070B0460110242F0110BC2E0110282F01101C
S31510008080F501011071C4001010B5064C2378002BB1
S3151000809007D1054B002B02D0044800E000BF012396
S315100080A0237010BD242F011000000000B82E0110FF
S315100080B0084B10B5002B03D00749084800E000BF55
S315100080C007480368002B00D110BD064B002BFBD0D0
S315100080D09847F9E700000000282F0110B82E01106C
S315100080E0B82E011000000000002807D1002902D187
S315100080F0064B1A6009E0054B9A6106E0002902D189
S31510008100024B1A6201E0014B9A637047001000405F
S31510008110002805D1064A117A80230B43137205E015
S3151000812003492822885C802303438B547047C0463A
S3151000813000100040002805D1064A117A7F230B4013
S31510008140137205E003492822885C7F2303408B5471
S315100081507047C04600100040002802D1024B19603B
S3151000816001E0024B19607047402F0110442F011097
S3151000817070B5174B1D68298F89B2CB0707D4012319
S315100081800124180022009A40114216D001E0012263
S3151000819000202B8F1A4392B22A8746230C4AD35AB1
S315100081A00341DB070CD54423D35A0341DB0707D51C
S315100081B0800010184368984702E00133102BE0D175
S315100081C080210904C0235B00024AD15070BDC0460D
S315100081D0DC31011000E100E0F8B5194B9B6C1E8FE5
S315100081E0B6B237000025760B7603154C002E01D05B
S315100081F0144B98472A000123AB401F4215D0A16C9F
S31510008200088F03439BB20B878E23E35A2B41DB0760
S315100082100BD58C230A49CB5A2B41DB0705D51232D5
S3151000822092008A185368984702E00135102DDDD167
S3151000823080214904C0235B00034AD150F8BDC046D3
S31510008240DC31011051BC010000E100E00023037095
S31510008250012242708370C3707047C04630B5172331
S31510008260012800D8A2E00E2800D19FE0072809D8DF
S315100082704F4D6A6C103B03409B0007249C40A24361
S315100082806A6416E00F2809D8494DAA6C07230340E3
S315100082909B0007249C40A243AA640AE0172808D82A
S315100082A0434DEA6C072303409B0007249C40A243DE
S315100082B0EA6403001D3B022B29D84B78012B08D109
S315100082C03C4D2B7D1F24241A0122A24093432B756B
S315100082D008E0384C257D1F22121A012393402B43A8
S315100082E0DBB22375CA780023002A5FD031490C8887
S315100082F01F22101A80000133834023439BB20B8048
S315100083002D4A117802230B43137000234EE00A788E
S31510008310002A31D10F2805D8012383409BB2274A62
S31510008320938206E00F220240012393409BB2244A17
S3151000833093824B78012B0CD0002B02D0022B10D03D
S3151000834033E01B490A6D0123834013430B65002359
S315100083502CE017490B6D0122824093430B650023D5
S3151000836024E0134B596D0122824011435965196D52
S3151000837091431965002319E00023012A16D10F280D
S3151000838008D80E4A118A013383400B439BB21382DD
S3151000839000230BE00A4A118A0F2318400E3B834034
S315100083A00B439BB21382002300E01723180030BD45
S315100083B000B0004000F0004000E000400000014026
S315100083C00010014010B50F2810D8002907D0124A06
S315100083D09188012383400B439BB293801AE00E4988
S315100083E08B880122824093438B8013E0002909D0A9
S315100083F00A498C880F2210400123834023439BB2E5
S315100084008B8007E005498B880F2210400E3A824078
S3151000841093438B8010BDC046000001400010014000
S3151000842070B50D0AFF231940072833D84E4A546CED
S31510008430F83B03409B0007269E40B4435464546C9B
S315100084400E009E40330023435364012900D08AE076
S3151000845003280FD81100D02252008C58032318403D
S31510008460C0003C3383409C438C508B5885401D4341
S315100084708D5078E03C49D22252008C580323184084
S31510008480C0003C3383409C438C508B5885401D4321
S315100084908D5068E00F2832D8334A946C0723034076
S315100084A09B0007269E40B4439464946C0E009E4035
S315100084B0330023439364012955D10B280FD811009B
S315100084C0D42252008C5803231840C0003C338340FA
S315100084D09C438C508B5885401D438D5043E0224958
S315100084E0D62252008C5803231840C0003C338340D8
S315100084F09C438C508B5885401D438D5033E0172874
S3151000850031D8194AD46C072303409B0007269E4096
S31510008510B443D464D46C0E009E4033002343D3641A
S31510008520012920D113280FD81100D82252008C58B7
S3151000853003231840C0003C3383409C438C508B5817
S3151000854085401D438D500EE0074ADA235B00D15853
S3151000855003242040C0003C348440A143D150D1585C
S3151000856085400D43D55070BD00B00040F0B50F23C7
S3151000857083429B415B42012A1ED0002A04D0022A64
S3151000858032D0032A48D05EE0394EDC00E218D20021
S3151000859092599446958D0F2707400122BA4012B280
S315100085A01543ADB26746BD85E418E400A459A58EFF
S315100085B02A4392B2A28646E02D4EDC00E218D20083
S315100085C092599446958D0F2707400122BA4012B250
S315100085D01543ADB26746BD85E418E400A459258E4F
S315100085E02A4392B222862EE0214EDC00E218D200F7
S315100085F092599446158D0F2707400122BA4012B2A0
S315100086001543ADB267463D85E418E400A459258E9E
S315100086102A4392B2228616E0154EDC00E218D200EA
S3151000862092599446158D0F2707400122BA4012B26F
S315100086301543ADB267463D85E418E400A459A58EEE
S315100086402A4392B2A2860F221040094CDD00EA1886
S31510008650520012189200A2185160EA18D200A218FD
S3151000866044320121814013880B431380F0BDC0466C
S31510008670DC31011030B50F2383429B415B420F2240
S3151000868010400E3A824012B2084CDD00E918C900BB
S3151000869061184631088810430880EB18DB001B5917
S315100086A0198C0A4392B21A8430BDC046DC310110CF
S315100086B010B5134B190040311A00002050600432D7
S315100086C08A42FBD10E4A002046241053023C105316
S315100086D00022DA6404338B42FBD1094B00228E212F
S315100086E05A5202395A52074A1A60074A9A64074977
S315100086F02720074CA04707492820A04710BDC04691
S31510008700DC310110000001400010014071810010A1
S31510008710F1950010D98100100C23037000234370CB
S315100087208370704701230370002343708370C370F6
S3151000873081330371773B83600133C3600133036177
S31510008740013343610B3B8361C3610362436270472C
S3151000875030B583B004000B7803704B7843708B7878
S31510008760837001AD2800074B984701232B702078A2
S315100087702900054B984720780121044B984703B0F0
S3151000878030BDC0464D8200105D820010C5830010BA
S31510008790036801221A76704710B500230268137613
S315100087A003680D4A934209D141200C4CA04726205C
S315100087B0A0473820A0470120A0470BE0084A934263
S315100087C008D14220054CA0472720A0473920A047B2
S315100087D00220A04710BDC046006000401D8E00104C
S315100087E00070004010B50468094B9847094B9C422D
S315100087F005D10120084CA0473820A04707E0074BB9
S315100088009C4204D10220044CA0473920A04710BD39
S315100088109987001000600040899100100070004098
S31510008820F0B557464646C0B483B0060088461500D4
S3151000883031600B7EDB0701D500230B763000484BE9
S3151000884098473368474A934209D14120464CA0477E
S315100088502620A0473820A0470120A0470BE0434A16
S31510008860934208D14220404CA0472720A0473920E8
S31510008870A0470220A04701A83D4B98472C0008347A
S3151000888018239A46AA4427002068431C11D02B7837
S31510008890012B02D16A46137103E0002B01D16A46FF
S315100088A01371C0B201A9334B9847398A3878324BC5
S315100088B0984704345445E6D1EB78424613742B7826
S315100088C0012B00D1137733682A7872712A78012A1E
S315100088D001D12A799A826A78042A04D12421585C13
S315100088E002435A5404E024215A5C042082435A5409
S315100088F0AA78012A1AD0002A04D0022A0CD0032AF8
S315100089001ED026E02422995C022081439954995C5A
S315100089100138814399541CE02422985C02210143BA
S315100089209954995C01208143995412E02422995C50
S31510008930022081439954985C01210143995408E01F
S315100089402422985C022101439954985C0121014329
S315100089509954002003B00CBC90469A46F0BDC04610
S31510008960E587001000600040C18A001000700040CA
S315100089704D8200105D82001021840010F0B583B086
S31510008980046800266D46EE710735002C34D0002998
S3151000899004D129008079287001270BE0002A05D020
S315100089A01720002B29D00026002703E001260027D8
S315100089B06A4607322825605DC007FCD4207B207AE2
S315100089C0002B14D000257842474170424641207A48
S315100089D0C007FCD508782070207BC007FCD520790D
S315100089E010700135ADB2C9199219AB42EFD1237A85
S315100089F0DB06FCD5002000E01F2003B0F0BDC0460A
S31510008A0010B513000022014CA04710BD7D8900103F
S31510008A1010B50878002A03D00021044B984702E0CD
S31510008A200121024B9847002010BDC046C583001097
S31510008A3001280DD0002802D002281CD02EE0184A9A
S31510008A4090690C2303439361164A174B1A601AE078
S31510008A50134B9869082202439A619A69042082434B
S31510008A609A61124A53688020000303435360104AE8
S31510008A700D4B1A6007E00A4A93690C2083439361F1
S31510008A80084A094B1A60064B9A69032082439A6179
S31510008A909A69014011439961002000E01720704740
S31510008AA000B0004080BA8C016C32011000F000401A
S31510008AB080841E00014B18687047C0466C32011046
S31510008AC000B5352800D9A2E18000D24B1B589F462D
S31510008AD0D14AD16802230B43D360002098E1CE4AD5
S31510008AE0D16804230B43D360002091E1CA4AD168B0
S31510008AF008230B43D36000208AE1C74AD1681023AC
S31510008B000B43D360002083E1C34AD16820230B4373
S31510008B10D36000207CE1C04AD16880230B43D36028
S31510008B20002075E1BC4AD368802149000B43D3600D
S31510008B3000206DE1B84AD368802109010B43D36048
S31510008B40002065E1B44AD368802149010B43D36004
S31510008B5000205DE1B04AD368802189010B43D360C0
S31510008B60002055E1AC4AD3688021C9010B43D3607C
S31510008B7000204DE1A84AD368802109020B43D36037
S31510008B80002045E1A44AD368802149020B43D360F3
S31510008B9000203DE1A04AD368802189020B43D360AF
S31510008BA0002035E19C4AD3688021C9020B43D3606B
S31510008BB000202DE1984AD368802109030B43D36026
S31510008BC0002025E1944AD368802149030B43D360E2
S31510008BD000201DE1904AD368802189030B43D3609E
S31510008BE0002015E18C4AD3688021C9030B43D3605A
S31510008BF000200DE1884AD368802109040B43D36015
S31510008C00002005E1844AD368802149040B43D360D0
S31510008C100020FDE0804AD368802189040B43D3608D
S31510008C200020F5E07C4AD3688021C9040B43D36049
S31510008C300020EDE0784AD368802109050B43D36004
S31510008C400020E5E0744AD368802149050B43D360C0
S31510008C500020DDE0704AD368802189050B43D3607C
S31510008C600020D5E06C4AD3688021C9050B43D36038
S31510008C700020CDE0684A116901230B4313610020DF
S31510008C80C6E0654A116902230B4313610020BFE059
S31510008C90614A116904230B4313610020B8E05E4A50
S31510008CA0116908230B4313610020B1E05A4A116978
S31510008CB010230B4313610020AAE0574A11692023A1
S31510008CC00B4313610020A3E0534A116940230B4361
S31510008CD0136100209CE0504A116980230B431361F5
S31510008CE0002095E04C4A1369802149000B4313611B
S31510008CF000208DE0484A1369802189000B431361D7
S31510008D00002085E0444A13698021C9000B43136192
S31510008D1000207DE0404A1369802109010B4313614D
S31510008D20002075E03C4A1369802149010B43136109
S31510008D3000206DE0384A1369802189010B431361C5
S31510008D40002065E0344A13698021C9010B43136181
S31510008D5000205DE0304A1369802109020B4313613C
S31510008D60002055E02C4A1369802149020B431361F8
S31510008D7000204DE0284A1369802189020B431361B4
S31510008D80002045E0244A13698021C9020B43136170
S31510008D9000203DE0204A1369802109030B4313612B
S31510008DA0002035E01C4A1369802149030B431361E7
S31510008DB000202DE0184A1369802189030B431361A3
S31510008DC0002025E0144A13698021C9030B4313615F
S31510008DD000201DE0104A1369802109040B4313611A
S31510008DE0002015E00C4A117D01230B43137500205A
S31510008DF00EE0094A117D02230B431375002007E08C
S31510008E00054A117D04230B431375002000E017203B
S31510008E1000BDC0468414011000B0004000B53528CE
S31510008E2000D97DE18000BF4B1B589F46BE4AD368D0
S31510008E3002218B43D360002073E1BB4AD36804211F
S31510008E408B43D36000206CE1B74AD36808218B436B
S31510008E50D360002065E1B44AD36810218B43D360F8
S31510008E6000205EE1B04AD36820218B43D3600020F6
S31510008E7057E1AD4AD36880218B43D360002050E17F
S31510008E80A94AD168A94B0B40D360002049E1A64AF4
S31510008E90D168A74B0B40D360002042E1A24AD168AB
S31510008EA0A44B0B40D36000203BE19F4AD168A24BF4
S31510008EB00B40D360002034E19B4AD1689F4B0B4096
S31510008EC0D36000202DE1984AD1689D4B0B40D360AA
S31510008ED0002026E1944AD1689A4B0B40D3600020BB
S31510008EE01FE1914AD168984B0B40D360002018E1DE
S31510008EF08D4AD168954B0B40D360002011E18A4A08
S31510008F00D168934B0B40D36000200AE1864AD168A2
S31510008F10904B0B40D360002003E1834AD1688E4BFF
S31510008F200B40D3600020FCE07F4AD1688B4B0B408E
S31510008F30D3600020F5E07C4AD168894B0B40D360A2
S31510008F400020EEE0784AD168864B0B40D3600020B3
S31510008F50E7E0754AD168844B0B40D3600020E0E00F
S31510008F60714AD168814B0B40D3600020D9E06E4A1C
S31510008F70D1687F4B0B40D3600020D2E06A4AD1689B
S31510008F807C4B0B40D3600020CBE0674AD1687A4B0C
S31510008F900B40D3600020C4E0634AD168774B0B4086
S31510008FA0D3600020BDE0604A136901218B43136131
S31510008FB00020B6E05C4A136902218B43136100203E
S31510008FC0AFE0594A136904218B4313610020A8E0CE
S31510008FD0554A136908218B4313610020A1E0524AB8
S31510008FE0136910218B43136100209AE04E4A1369CE
S31510008FF020218B431361002093E04B4A13694021D3
S315100090008B43136100208CE0474A136980218B4300
S315100090101361002085E0444A1169444B0B401361EB
S3151000902000207EE0404A1169554B0B401361002029
S3151000903077E03D4A1169534B0B401361002070E0F5
S31510009040394A11693A4B0B401361002069E0364AE0
S315100090501169384B0B401361002062E0324A1169E6
S31510009060354B0B40136100205BE02F4A1169334BDF
S315100090700B401361002054E02B4A1169304B0B4012
S31510009080136100204DE0284A11692E4B0B401361E5
S31510009090002046E0244A11692B4B0B401361002037
S315100090A03FE0214A1169294B0B401361002038E03B
S315100090B01D4A1169264B0B401361002031E01A4AF4
S315100090C01169244B0B40136100202AE0164A1169DE
S315100090D0214B0B401361002023E0134A11691F4BEB
S315100090E00B40136100201CE00F4A11691C4B0B400A
S315100090F01361002015E00C4A137D01218B43137573
S3151000910000200EE0084A137D02218B4313750020C0
S3151000911007E0054A137D04218B431375002000E0F8
S31510009120172000BD5C15011000B00040FFFEFFFFC8
S31510009130FFF7FFFFFFEFFFFFFFDFFFFFFFBFFFFFA1
S31510009140FF7FFFFFFFFFFEFFFFFFFDFFFFFFFBFFA0
S31510009150FFFFF7FFFFFFEFFFFFFFDFFFFFFFBFFF81
S31510009160FFFF7FFFFFFFFFFEFFFFFFFDFFFFFFFB80
S31510009170FFFFFFF7FFFFFFEFFFFFFFDFFFFFFFBF61
S31510009180FFFDFFFFFFFBFFFF00B5432800D923E2D9
S315100091908000E04B1B589F46DF4B596802229143D3
S315100091A0596059680A435A60002016E2DA4B59682A
S315100091B004229143596059680A435A6000200CE210
S315100091C0D54B596808229143596059680A435A6029
S315100091D0002002E2D04B5968102291435960596819
S315100091E00A435A600020F8E1CB4B5968202291437C
S315100091F0596059680A435A600020EEE1C64B596817
S3151000920040229143596059680A435A600020E4E1AC
S31510009210C14B596880229143596059680A435A6074
S315100092200020DAE1BC4B5968BC4A0A405A605A68B9
S31510009230802149000A435A600020CEE1B64B596896
S31510009240B74A0A405A605A68802189000A435A6010
S315100092500020C2E1B04B5968B24A0A405A605A68B7
S315100092608021C9000A435A600020B6E1AA4B59680A
S31510009270AD4A0A405A605A68802109010A435A6069
S315100092800020AAE1A44B5968A84A0A405A605A68B5
S31510009290802149010A435A6000209EE19E4B59687D
S315100092A0A34A0A405A605A68802189010A435A60C3
S315100092B0002092E1984B59689E4A0A405A605A68B3
S315100092C08021C9010A435A60002086E1924B5968F1
S315100092D0994A0A405A605A68802109020A435A601C
S315100092E000207AE18C4B5968944A0A405A605A68B1
S315100092F0802149020A435A6000206EE1864B596864
S315100093008F4A0A405A605A68802189020A435A6075
S31510009310002062E1804B59688A4A0A405A605A68AE
S315100093208021C9020A435A60002056E17A4B5968D7
S31510009330854A0A405A605A68802109030A435A60CE
S3151000934000204AE1744B5968804A0A405A605A68AC
S31510009350802149030A435A6000203EE16E4B59684A
S315100093607B4A0A405A605A68802189030A435A6028
S31510009370002032E1684B5968764A0A405A605A68AA
S315100093808021C9030A435A60002026E1624B5968BE
S31510009390714A0A405A605A68802109040A435A6081
S315100093A000201AE15C4B59686C4A0A405A605A68A8
S315100093B0802149040A435A6000200EE1564B596831
S315100093C0674A0A405A605A68802189040A435A60DB
S315100093D0002002E1504B5968624A0A405A605A68A6
S315100093E08021C9040A435A600020F6E04A4B5968A6
S315100093F05D4A0A405A605A68802109050A435A6034
S315100094000020EAE0444B5968584A0A405A605A68A4
S31510009410802149050A435A600020DEE03E4B596818
S31510009420534A0A405A605A68802189050A435A608D
S315100094300020D2E0384B59684E4A0A405A605A68A2
S315100094408021C9050A435A600020C6E0324A536893
S315100094505B005B0853605368802109060B43536019
S315100094600020BAE02C4B1A8901218A431A811989E6
S3151000947001220A431A810020AFE0274B1A890221E4
S315100094808A431A81198902220A431A810020A4E00C
S31510009490214B1A8904218A431A81198904220A4305
S315100094A01A81002099E01C4B1A8908218A431A81D7
S315100094B0198908220A431A8100208EE0164B1A8950
S315100094C010218A431A81198910220A431A81002011
S315100094D083E0114B1A8920218A431A811989202287
S315100094E00A431A81002078E00B4B1A8940218A43DF
S315100094F01A81198940220A431A8100206DE0064B11
S315100095001A8980218A431A81198980220A431A816D
S31510009510002062E03416011000B00040FFFEFFFF8D
S31510009520FFFDFFFFFFFBFFFFFFF7FFFFFFEFFFFF53
S31510009530FFDFFFFFFFBFFFFFFF7FFFFFFFFFFEFF06
S31510009540FFFFFDFFFFFFFBFFFFFFF7FFFFFFEFFF33
S31510009550FFFFDFFFFFFFBFFFFFFF7FFFFFFFFFFEE6
S31510009560FFFFFFFDFFFFFFFBFFFFFFF7FFFFFFEF13
S31510009570FFFFFFDFFFFFFFBF184B1989184A0A408C
S315100095801A811989802252000A431A81002024E088
S31510009590124B1989134A0A401A811989802292009E
S315100095A00A431A81002018E00C4B19890E4A0A400A
S315100095B01A8119898022D2000A431A8100200CE0F0
S315100095C0064B1989094A0A401A8119898022120103
S315100095D00A431A81002000E0172000BD00B00040A9
S315100095E0FFFEFFFFFFFDFFFFFFFBFFFFFFF7FFFF84
S315100095F08023DB049C466044800001607047C046AF
S3151000960070B5204B1C6823681D7DEDB26A0613D514
S315100096101E212222A1541A7E23318A431A7621232F
S31510009620E35C1B0706D52023E35C1B0702D520004D
S315100096302369984723681B7CEB0722D523681B7C7C
S31510009640DBB262691370636901336361A38B013BFB
S315100096509BB2A383A38B9BB2002B12D12133E35C65
S315100096605B070ED52023E35C5B070AD50022222375
S31510009670E2542268137E01218B431376E36820009F
S31510009680984770BD7032011070B5214B1C68236865
S315100096901D79EDB2EA0717D5A2691178C9B2013260
S315100096A0A2611970E38B013B9BB2E383E38B9BB200
S315100096B0002B09D12268137A01218B431372226879
S315100096C0117A10230B431372EB0612D52123E35C98
S315100096D0DB070ED52023E35CDB070AD50022222305
S315100096E0E2542268137A10218B43137220006368A8
S315100096F09847AB060AD52123E35C9B0706D52023A2
S31510009700E35C9B0702D5A3682000984770BDC0464E
S315100097107032011070B5204B5C6823681D7DEDB268
S315100097206A0613D51E212222A1541A7E23318A439A
S315100097301A762123E35C1B0706D52023E35C1B075F
S3151000974002D520002369984723681B7CEB0722D596
S3151000975023681B7CDBB26269137063690133636132
S31510009760A38B013B9BB2A383A38B9BB2002B12D17D
S315100097702133E35C5B070ED52023E35C5B070AD538
S3151000978000222223E2542268137E01218B43137692
S31510009790E3682000984770BD7032011070B5214BF8
S315100097A05C6823681D79EDB2EA0717D5A2691178AE
S315100097B0C9B20132A2611970E38B013B9BB2E383FC
S315100097C0E38B9BB2002B09D12268137A01218B43BC
S315100097D013722268117A10230B431372EB0612D5FB
S315100097E02123E35CDB070ED52023E35CDB070AD5D8
S315100097F000222223E2542268137A10218B4313721B
S31510009800200063689847AB060AD52123E35C9B07C3
S3151000981006D52023E35C9B0702D5A3682000984752
S3151000982070BDC04670320110E1235B020360002355
S31510009830037143718371C371023383600322C26063
S3151000984001320261013242618361C3610362436284
S315100098507047C046F8B54F464646C0B405001700D7
S315100098600160554B994218D10920544CA0470A2043
S31510009870A0470920524CA0470A20A047514B1D6013
S3151000988051491020514CA04751491120A047514B26
S3151000989001221A6001321A601AE04F4B994217D111
S315100098A00B20464CA0470C20A0470B20444CA04749
S315100098B00C20A047434B5D6048491220434CA047FB
S315100098C047491320A047434B04221A6004321A60FA
S315100098D0FB7904229046002B52D1023398464FE072
S315100098E0318A01CEC0B2C8470134E4B24445F7D339
S315100098F02B681A7DD20704D501211A7C1A7D0A42DB
S31510009900FBD1002120229954FB79591E8B41590114
S315100099103B797A7913430B43BA79022A0DD0D1B227
S31510009920022902D8012A05D00FE0032A08D0042AFA
S3151000993009D00AE00222134307E00622134304E08B
S315100099400A22134301E00E221343202229688B5466
S315100099503E68244B984704003100234B984782B247
S315100099600004000C7043201A3109884206D90023DE
S315100099700133DBB2401A8842FAD807E0002305E02B
S315100099803E0008360024194B9946A9E700212820E5
S315100099902C68215401331B075B0FD20013439BB273
S315100099A02A6893842B6819762B68197200200CBCD0
S315100099B090469946F8BDC046004000408991001077
S315100099C0C18A00107032011001960010F195001036
S315100099D08996001000E100E0005000401597001035
S315100099E09D970010B58A001055F1001021840010C3
S315100099F00268012013790342FCD0117000207047D1
S31510009A0002680120137D0342FCD0137C0B700020EA
S31510009A107047C0461723002A0DD00B33C35CDBB248
S31510009A20052B08D08283416105222223C254036884
S31510009A30043A1A76002318007047C0469300C318DC
S31510009A405960202101239340425C134343547047CD
S31510009A508B00C31800225A6001328A402021435CD1
S31510009A60934343547047C04610B5212201238B40BF
S31510009A70845C23438354012904D10268117A20237C
S31510009A800B43137210BDC04610B501228A40212423
S31510009A90035D93430355012904D10268137A1F31DC
S31510009AA08B43137210BDC046F0B5474680B40C0008
S31510009AB0904600280DD1002A0EDD8F18084E094D4C
S31510009AC0306821002B6898470134A742F8D14046E8
S31510009AD003E00120404200E0002004BC9046F0BDA7
S31510009AE08032011078320110F0B5474680B40E006E
S31510009AF015000138022811D8002A12D000240C4B68
S31510009B0098460C4F43461868315D3B6898470028C5
S31510009B1009DB0134A542F5D1200006E001204042C0
S31510009B2003E0002001E00120404204BC9046F0BD55
S31510009B30803201107C3201100300064A1268002A96
S31510009B4002D10549034A1160024A1068C31813600E
S31510009B507047C046482F0110B04E011001204042F8
S31510009B607047C04680239B014B6000207047C0465B
S31510009B70012070470020704710B5134C8B005B18FE
S31510009B80DB00591841180131072220000F4B984766
S31510009B9020000F4B9847041E0DD10E480E4B9847C8
S31510009BA00E480F4B984701220E4B1A700E4B1B682E
S31510009BB01420984706E00748074B98470B48084B70
S31510009BC09847E224200010BDA03201105F02011058
S31510009BD099AD001044170110A1030110481A011085
S31510009BE081020110502F0110542F0110641A011018
S31510009BF0014B18607047C046542F0110014B186076
S31510009C007047C0464C2F011010B50448044B9847B6
S31510009C100448054B9847002010BDC0464417011054
S31510009C20A1030110CC1D01108102011010B500789E
S31510009C30002806D00348044B98470448044B98471D
S31510009C40E22010BD44170110A1030110E81D0110F8
S31510009C508102011010B504000448054B984762882C
S31510009C6021880448044B9847002010BD4417011062
S31510009C70A1030110FC1D01108102011070B5040032
S31510009C80C578002D08D10A480A4B9847A278218832
S31510009C9009480A4B984708E00548064B9847A278AA
S31510009CA021880748054B9847E225280070BDC04615
S31510009CB044170110A1030110341E01108102011076
S31510009CC0641E011070B50400C578002D08D10A482D
S31510009CD00A4B9847A278218809480A4B984708E00A
S31510009CE00548064B9847A27821880748054B9847A0
S31510009CF0E225280070BDC04644170110A1030110CB
S31510009D009C1E011081020110D81E0110F8B5060024
S31510009D101D4C9B239B00E71825002300563B1A88F1
S31510009D2033889A4222D12378052B01D0082B02D1F1
S31510009D3001232B701AE0072B0FD89B00134AD35818
S31510009D409F4600232370124B1B78002B0ED0104A0F
S31510009D501378013BDBB2137008E00E480E4B9847A0
S31510009D6029780E480E4B984700232B707C34BC4242
S31510009D70D2D10848084B98473288B1780948084B21
S31510009D8098470020F8BDC046223301105C1C011014
S31510009D903035011044170110A1030110141F0110D2
S31510009DA0810201102C1F011010B50448044B98476E
S31510009DB00448054B9847002010BDC04644170110B3
S31510009DC0A10301105C1F011081020110F8B50600F5
S31510009DD00188284B00241A898A4204D11A005E325F
S31510009DE01278062A2ED00134E4B27C33052CF2D137
S31510009DF039E0204963011A1B92008A18157614005F
S31510009E005E34072323701C481C4B98471C481D4B77
S31510009E109847E2252BE01848184B98471A48194BD3
S31510009E209847144963011A1B92008A1810005E3075
S31510009E3008270770F0781075B2781C1BA4000C194F
S31510009E40227614E0B578002DE5D0D2E70A4E300020
S31510009E500A4DA8470C480B4CA0473000A8470B48A2
S31510009E60A047E22503E0B578002DC2D1EEE7280021
S31510009E70F8BDC046C432011044170110A1030110E9
S31510009E80781F0110810201108C1F0110B01F0110E4
S31510009E9030B585B004001F4B1B78DBB2132B24D8CA
S31510009EA01C4D2B78DBB29800C018C000C3181A4896
S31510009EB0181829222100194B98471948194B984709
S31510009EC02978C9B2A379E279A0780390E078029054
S31510009ED020790190607900901348144CA0472B7894
S31510009EE00133DBB22B70002311E00D480D4B984760
S31510009EF00F480E4B98470F4B9847E223002806D081
S31510009F000748084B98470C48084B9847E223180017
S31510009F1005B030BD602F0110983501105F02011099
S31510009F2044170110A1030110D81F0110810201105E
S31510009F301420011011D200104C200110F0B5474624
S31510009F4080B40378002B4DD1334D0024461C334F7B
S31510009F50102229003000B84700282CD00134E4B272
S31510009F607C35052CF4D13DE01D00117800291BD15C
S31510009F7001E0002500242A4B98466E01771BBF008E
S31510009F804744122227493800274B9847274A137807
S31510009F900133DBB213705E3702233B70751BAD00C5
S31510009FA045440833AB742CE00134E4B201337C32FF
S31510009FB0052CD9D125E01E481E4B98471E481F4B2D
S31510009FC09847174863011A1B9200821811005E31D8
S31510009FD002250D700A219174100012221149124B9C
S31510009FE098470EE01248134B98471548134B98475D
S31510009FF05E230B4AD35C002BBBD0124A01230124EB
S3151000A000B2E70B480B4B984721000F480B4B98476C
S3151000A010002004BC9046F0BD0A3301104102011025
S3151000A020C4320110703501105F0201103035011075
S3151000A03044170110A10301107420011081020110B0
S3151000A0408C2001109E33011064200110F0B55F467C
S3151000A0504E464546E0B49AB00500867A002E00D0EA
S3151000A060BCE07048704FB8472B796A79A97968783F
S3151000A0700290A8780190E87800906C486C4CA04744
S3151000A0806848B84729896B48A047122229006A48B0
S3151000A0906A4B98470495072229006948694B9847E7
S3151000A0A0002800D1A3E02B78022B00D09FE050228D
S3151000A0B0002106A8644B9847644F00230BE0591CF7
S3151000A0C0147806A8C45401328BB2B342F7D17C3748
S3151000A0D0331E502B04D01E001036B6B23A00EEE7EF
S3151000A0E006AA290005205A4B9847061E06D14D4848
S3151000A0F04D4B984757484E4B98478CE049484A4B2A
S3151000A100984755484A4B9847E22684E0E7B20594AB
S3151000A110072204994846D847002809D1059A5301C1
S3151000A1209B1A9A004D4B9B185E3302221A702BE035
S3151000A13001347C239C46E144052CE7D162E01C00E7
S3151000A140117800291AD101E00024002763019946ED
S3151000A150181B8000414B9846404412222900374B69
S3151000A16098473F4A13780133DBB213704B461B1BDB
S3151000A1709B0043445E3302221A7005E0791CCFB26D
S3151000A18001337C32052FDAD1072229002C482D4BBA
S3151000A1909847002807D17B01DB1B9B002F4AD31859
S3151000A1A005229A7406E07B01DB1B9B002B4AD31811
S3151000A1B00A229A74072200212148234B98472AE045
S3151000A1C01848194B9847264B1978C9B22548184B89
S3151000A1D0984728891321244B98471CE01148124BA5
S3151000A1E09847A97A2148124B9847002613E01C4B32
S3151000A1F01B78DBB2042BE3D8184B99460024114B7D
S3151000A2009B4683E75E23154AD35C002B9CD0184AE5
S3151000A2100123012793E730001AB01CBC90469946DB
S3151000A220A346F0BD44170110A1030110A820011088
S3151000A23081020110EC200110703501105F0201102F
S3151000A240642F011041020110710201100A3301102E
S3151000A25035D300100421011028210110C432011039
S3151000A260303501104C21011009D30010882101103E
S3151000A2709E330110F0B55F4656464D464446F0B43F
S3151000A28083B005004188594B00241A898A4205D1AA
S3151000A2901A005E321278032A00D19AE00134E4B231
S3151000A2A07C33052CF1D157E021783000B8470134C2
S3151000A2B04C45F9D14E484F4B98474F484F4B98470E
S3151000A2C02E0022362C0032344C4F31784C48B84789
S3151000A2D00136A642F9D14648464B98474948474B5E
S3151000A2E0984742352F00464E444D21783000A847F6
S3151000A2F00134BC42F9D171E063011C1BA4003B4B35
S3151000A3001C195E342378012B15D93948394B9847D7
S3151000A3103D483A4B9847688813213C4B9847019023
S3151000A32000285BD03248334B98473948334B98470F
S3151000A330E223019352E0002301934FE02C4E3000AC
S3151000A3402C4DA84733482D4CA0473000A84732481B
S3151000A350A047E223019341E02B79002BCCD1EDE706
S3151000A3602348244B9B4698472A48244B9A4698479D
S3151000A3702A781E4B984667013B1B9B0043441A756F
S3151000A3802A791A765E3305221A70381B80004044EB
S3151000A39036300B3229002231204B99469847381B0C
S3151000A3A0800040444630172229003231C847381BF6
S3151000A3B0800040441A30AC1D1C222100C8470C48AE
S3151000A3C0D8471748D04716239946A9440C4E0B4F29
S3151000A3D06AE72B790193002BC2D08DE7019803B061
S3151000A3E03CBC90469946A246AB46F0BDC43201101D
S3151000A3F044170110A1030110BC21011081020110A4
S3151000A400B0210110C4210110CC21011009D3001074
S3151000A410EC21011008220110342201105F020110F4
S3151000A4206422011010B50088782301220121024C04
S3151000A430A047002010BDC04629D30010F0B55746DE
S3151000A4404E464546E0B484B004000922002101A816
S3151000A4506A4B984725886A490A0000231089A84242
S3151000A46016D110005E300078022811D164485A01C6
S3151000A470D61AB60086195E3606223270F9321340A5
S3151000A4805A01D21A92008218127DD00705D41BE009
S3151000A49001337C32052BE1D11EE0E078002813D081
S3151000A4A05901C91A8B005649C9181A312088554BBB
S3151000A4B09847002800D19BE05348544B984754487E
S3151000A4C0544B9847E22093E05A01D31A9B004C4A0A
S3151000A4D0D3185E3302221A70258800220023160034
S3151000A4E00889A8420DD108005E300078022808D1EC
S3151000A4F05201921B9600424A92195E320321117044
S3151000A50005E00133DBB201327C31052BE7D101AA1C
S3151000A510E178917001215170033111701F005A01B9
S3151000A520D21A92003649525C022A04D101AA03219A
S3151000A5309171D17103E001AA01219171D17101AA22
S3151000A5401021517111717A01D21B92002C498A186F
S3151000A550127E402A34D15A01D31A9B009A461E0005
S3151000A56060367618554668356D182B4B99460F236D
S3151000A5709846C847434618403070C8474346184067
S3151000A580B0740136AE42F4D1564670361C4AB6182F
S3151000A590214B99460F239846C847434618402870C2
S3151000A5A00135B542F8D11C4B98477B01DB1B9B004C
S3151000A5B0134AD3181A00703210807A3310221A7088
S3151000A5C07A01D71BBF0060370D4ABA1820880023BE
S3151000A5D001A9124CA04700280AD001AB00229A709C
S3151000A5E05A700948094B98470D480A4B9847E2207C
S3151000A5F004B01CBC90469946A246F0BD71020110EB
S3151000A600C432011041D8001044170110A1030110E3
S3151000A6106C22011081020110B503011095D60010AD
S3151000A62084220110F0B55F4656464D464446F0B4B6
S3151000A63085B080460488544A002100231089A04220
S3151000A6400DD110005E300078022808D14A01521A46
S3151000A65095004D4A52195E320321117005E00133FF
S3151000A660DBB201317C32052BE8D101AA002111722F
S3151000A6709170517003201070D1701E005A01D21AB9
S3151000A68092004149525C022A04D101AA0321917118
S3151000A690D17103E001AA01219171D17101AA102192
S3151000A6A0517111717201921B920037498A18127EEC
S3151000A6B0402A42D15F01FB1A9B009B461C00603466
S3151000A6C064185D4668356D182700304B9A460F237F
S3151000A6D09946D0474B4618403870D0474B461840DD
S3151000A6E0B8740137AF42F4D15B467033264FDF1989
S3151000A6F0264B9A460F239946D0474B46184028704A
S3151000A7000135BD42F8D12248224B98472248234BA7
S3151000A7109847224D21782248A8470134BC42F9D1E6
S3151000A7201A4B984773019B1B9B00174AD3181A00A4
S3151000A730703210807A3310221A701548154B9847CC
S3151000A7401848164B984773019B1B9B0060330E4AA3
S3151000A7509A1843461888002301A9134CA0470028CD
S3151000A7600AD001AB00229A705A700948094B9847D3
S3151000A7700E480A4B9847E22005B03CBC90469946D5
S3151000A780A246AB46F0BDC046C4320110B503011057
S3151000A79044170110A1030110B0220110810201100B
S3151000A7A0C0220110C822011095D60010E422011013
S3151000A7B0F0B585B0050006223D4902A83D4EB047CA
S3151000A7C001AC042229002000B047E378002B62D1A7
S3151000A7D039483A4B98473A483A4B984700263A4CEC
S3151000A7E0FF271E20A047C3B2002B1AD1324F3800C4
S3151000A7F0324EB0473548334CA0473800B04734483E
S3151000A800A04728881321334B98470300E220002BDA
S3151000A8104CD02948294B98472F482A4B9847E22075
S3151000A82044E01A00303A092ADBD802AAB354384059
S3151000A8302A4B98470136062E26D0D2E71E481F4BC4
S3151000A840984727481F4B98470024244E02ABE05CDC
S3151000A850B0470134062CF9D101AB9978288802AAA1
S3151000A860204B9847002821D01348144B98471E4870
S3151000A870144B9847002019E00F48104B98471B4877
S3151000A880104B9847002011E00B480C4B984718487E
S3151000A8900C4B9847D8E701AB5A8880235B009A4245
S3151000A8A0CCD001AB9B78012BE6D0002005B0F0BDD3
S3151000A8B0881D01105F02011044170110A103011039
S3151000A8C00C2301108102011059B20010342301101B
S3151000A8D04023011009D30010EC210110B50201101C
S3151000A8E054230110C5D700108C230110A423011086
S3151000A8F0C0230110F0B55F4656464D46E0B406003B
S3151000A9000088494B002200241989814237D1190049
S3151000A9105E310978012932D9434F53019D1AAD0092
S3151000A9207D195E3506232B704048414B9A46984751
S3151000A93031884048404B994698473C48D047630178
S3151000A9401B1B9B00FF1870239B46BB445B46198854
S3151000A9503A48C8473548D047798D3948C8473348AB
S3151000A960D04771883748C8473048D0472100364805
S3151000A970C8475B461A8873889A422AD106E0013482
S3151000A980E4B201327C33052CBED122E06101091BF1
S3151000A9908900254B59187231301D08222B4B9847C8
S3151000A9A0002816D12148224B98472948224B984710
S3151000A9B06201131B9B0060331B495B18121B92002C
S3151000A9C08A18117D30880122224CA047041E1ED001
S3151000A9D015E0164F3800164EB0471F48164DA847BB
S3151000A9E03800B0471D48A84763011C1BA4000E4B36
S3151000A9F01C19208905211A4B9847E2240DE00B48B3
S3151000AA000B4B984717480C4B9847002405E007480E
S3151000AA10074B98471448084B984720001CBC914692
S3151000AA209A46A346F0BDC046C43201104417011021
S3151000AA30A1030110D423011081020110002401107A
S3151000AA401424011028240110382401104102011089
S3151000AA5048240110B9D800105C2401109424011068
S3151000AA6009D30010EC2401100C25011030B5002A72
S3151000AA7047D0062947D88900284B5B589F46284B54
S3151000AA8005240AE0274B012407E0274B052404E0A0
S3151000AA90264B012401E0264B0524002816D11968FF
S3151000AAA000290BD106E01D000433181F006800288A
S3151000AAB006D100E01D002A6001212CE0043300219C
S3151000AAC00131C9B2A142EED3002124E000210128B0
S3151000AAD021D119688A420CD106E01D000433181FD3
S3151000AAE00068824207D100E01D0000232B6001217F
S3151000AAF011E0043300210131C9B2A142EDD3002186
S3151000AB0009E0002107E0002105E00A4B0524C4E70F
S3151000AB10094B0124C1E7080030BDC0467C1C01105A
S3151000AB20B0320110AC32011034350110D83A011090
S3151000AB30483501105C35011094350110F0B54746C3
S3151000AB4080B490B0050000246A4B1C6007220021D7
S3151000AB5069486A4EB047122200216948B047694BCE
S3151000AB601C70CD22920000216748B047674B1C70BD
S3151000AB708322920000216648B0470C2200216548C6
S3151000AB80B047654B1C605C609C60DC601C61634B6D
S3151000AB901C605C609C60DC601C61614B1C605C60CE
S3151000ABA09C60DC601C615F4B1C605F4B1C605F4BE4
S3151000ABB01C605C609C60DC601C615D4B1C605D4CC5
S3151000ABC09B239B009846A0444C4F40267C22002194
S3151000ABD02000B84723005E3300221A7026767C3494
S3151000ABE0A045F3D1544B1A705448554B98475548C5
S3151000ABF0554B98474748554B984700280BD04F4E12
S3151000AC0030004F4DA84752484F4CA0473000A84738
S3151000AC105048A047FEE7504A002100204F4CA0475D
S3151000AC204F4A02210020A04709214E484E4B984713
S3151000AC30002805D04148424B98474C48424B98470C
S3151000AC4007224B49083104A84A4B9847262200216F
S3151000AC5006A82A4B9847002D0CD104A8464B9847B6
S3151000AC6004AD002806D03548354B98474348364B37
S3151000AC70984704AD3148324B98472B796A79A979B0
S3151000AC802878039068780290A8780190E878009068
S3151000AC903B482D4CA04706AC05232370394B6380E7
S3151000ACA00722290007A8334B98470023E37623771A
S3151000ACB06377A377E3772384638480239B00A3843D
S3151000ACC02000314B9847002805D01C481C4B98474C
S3151000ACD02E481D4B984728002D4B9847002805D025
S3151000ACE01648174B98472B48174B984710B004BC7B
S3151000ACF09046F0BD5C2F0110642F011071020110F7
S3151000AD0070350110602F0110983501109035011023
S3151000AD10CC38011084350110483501105C3501100E
S3151000AD20B032011094350110AC32011034350110D7
S3151000AD30D83A0110C43201103035011044170110F1
S3151000AD40A1030110282501108102011025D0001041
S3151000AD503C2501105C250110402701106DAA00103A
S3151000AD60A41D0110982501103DCF0010A425011037
S3151000AD70881D01105F02011071CF0010BC25011053
S3151000AD80D4250110983A000095CF00100C2601101A
S3151000AD90BDD100103026011010B586B00400072270
S3151000ADA001000C480C4B984703AB08221A8002325C
S3151000ADB05A80063A9A8000221A815A81FA22D200C3
S3151000ADC0DA8000936023602201212000034CA04703
S3151000ADD006B010BD642F01105F02011031D20010B1
S3151000ADE0F0B55F4656464D464446F0B487B08146A8
S3151000ADF0019193462723C65CE220002E62D00022E2
S3151000AE0004AB1A70002501235B4298460B000133F0
S3151000AE100093304B9A464B465A19117A04AB197067
S3151000AE20527A5A702A000A324A4405925B78DBB28B
S3151000AE305B4536D104AB1C78013CE4B2002C30D013
S3151000AE40019B1F7843460393002F0AD105980222CF
S3151000AE500099D0470390059B02330593023CE4B258
S3151000AE601AE0012F0BD1059804220099194B984727
S3151000AE700390059B04330593043CE4B20CE0022FC7
S3151000AE800AD1059810220099124B98470390059BFA
S3151000AE9010330593043CE4B2039B002B11D0002C15
S3151000AEA0D0D104AA13780133ED18EDB2137801331B
S3151000AEB0DBB213701378F61AF6B2002EABD1E2207D
S3151000AEC000E0002007B03CBC90469946A246AB462F
S3151000AED0F0BDC0464102011030B50D4A00231D00D9
S3151000AEE014005E342478012C0BD91489844208D1BD
S3151000AEF05B015D1BAD00064B5D19AB7C0B70002032
S3151000AF0004E001337C32052BE9D1E22030BDC04686
S3151000AF10C432011000B583B06B46D91D00230B70E7
S3151000AF20074B98470023002806D16B4607331B783A
S3151000AF30053B58424341DBB2180003B000BDC04682
S3151000AF40D9AE0010F8B504000D004848484B984794
S3151000AF5021004848484B98473B2C79D8A300474ACC
S3151000AF60D3589F46A4000026454FBB59002B04D04A
S3151000AF701B59002B01D0280098470436142EF4D103
S3151000AF8072E0133CE4B2A40000263E4FBB59002BDE
S3151000AF9004D01B59002B01D0280098470436142ED4
S3151000AFA0F4D161E01D3CE4B23048314B98472100A2
S3151000AFB03548314B9847A4000026344FBB59002B17
S3151000AFC004D01B59002B01D0280098470436142EA4
S3151000AFD0F4D149E0273CE4B22D4B1B68002B43D03B
S3151000AFE0A400E358002B3FD0280098473CE02D3CA6
S3151000AFF0E4B2284B1B68002B36D0A400E358002B74
S3151000B00032D0280098472FE0363CE4B2A400002640
S3151000B010214FBB59002B04D01B59002B01D02800FF
S3151000B02098470436142EF4D11EE0383CE4B21B4B7C
S3151000B0301B68002B18D0A400E358002B14D028004E
S3151000B040984711E0164B1B68002B0DD098470BE064
S3151000B050064E3000064DA84721001248064B984769
S3151000B0603000A8473000A847F8BDC0464417011065
S3151000B070A1030110B026011081020110981C0110C5
S3151000B080483501105C350110C0260110B032011090
S3151000B09094350110AC32011034350110D83A011034
S3151000B0A05C2F0110D826011010B50200064907487A
S3151000B0B0074B9847041E04D1044B18780249054BD8
S3151000B0C09847200010BDC046CC38011090350110AD
S3151000B0D07DC8001045AF001030B583B0050001AC37
S3151000B0E020000A4B98470023237063702100172015
S3151000B0F0074B9847074B9847022229001720064B03
S3151000B10098471720054B984703B030BD4D82001065
S3151000B1105D820010B18600106D85001075860010D6
S3151000B1200122014B1A7070476B2F011070B5060083
S3151000B1300D00034C29003000A0470028FAD170BD3D
S3151000B140019A001070B506000D00034C290030005E
S3151000B150A0470028FAD170BDF199001070B50021F2
S3151000B1600020164B9847164C2000164B9847E123A3
S3151000B1705B0223600223A3600322E2600132226194
S3151000B18001326261A361E361236263620E480F4B71
S3151000B19018600F4A0F4B1A600F4A104B1A602200A4
S3151000B1A00F49104B9847104D2B68986800210F4C8B
S3151000B1B0A0472B6858680021A04770BD318A00103F
S3151000B1C0003B011029980010DC3A01108032011062
S3151000B1D045B100107C3201102DB1001078320110EB
S3151000B1E00040004055980010202F01102D0401102A
S3151000B1F0F0B583B005000D4CA047A0470C4FB847DB
S3151000B2000C4E0D4A0D4BB04700900191FA2080006C
S3151000B2106843B84702000B0000980199B047084BE5
S3151000B2209847084B186003B0F0BDC046B58A0010A9
S3151000B230B1FE0010A9F20010C7AEFE19EFD8093FF3
S3151000B2406DF200106C2F0110024B1A68501E186018
S3151000B2507047C0466C2F011070B50024164B1C7039
S3151000B260164B9847164D2C70164C02221649200084
S3151000B270164B984702212000154B984701222900AA
S3151000B2802000144B98470C4C134D2378002B02D1F9
S3151000B290A8470028F9D1114B1B68002B08D1094C7F
S3151000B2A0022120000E4B9847022120000D4B984793
S3151000B2B0034B187870BDC0466B2F0110F1B100100A
S3151000B2C0702F0110DC3A011021B100103D9A0010C8
S3151000B2D0699A0010159A001049B200106C2F0110CF
S3151000B2E0519A0010899A001010B50248024B9847DF
S3151000B2F010BDC0468C270110A103011010B5010026
S3151000B3000020074CA04707490120A0470020064C03
S3151000B310A0470120A0478022D201044B1A6010BD1D
S3151000B32059810010E9B200103581001000E100E0EB
S3151000B33010B5002800D10130054B43431A000021F7
S3151000B3400020044B98470020034B984710BDC04679
S3151000B35080BA8C01E98000101181001010B5002010
S3151000B360014B984710BDC04635810010024B1A6834
S3151000B370026018607047C046782F011030B50B4B2D
S3151000B3801C68002C11D025681D6000232360A16065
S3151000B390E280A080064B1A68002A02D11C6004E0E5
S3151000B3A01A001368002BFBD1146030BD782F0110E2
S3151000B3B0742F011070B50023064A1360064A1360F5
S3151000B3C0064C26007836064D2000A8470C34B442A9
S3151000B3D0FAD170BD782F0110742F01107C2F011037
S3151000B3E06DB3001010B5114B1C68114B1B689847B4
S3151000B3F0E30714D40F4B1B68022098470E4B1B68AB
S3151000B40098470E4C0320236898470028FAD10C4B16
S3151000B4101B680230984701220A4B1A6004E00A4B57
S3151000B42018680A4B1B68984710BDC046ECB100401F
S3151000B4302030011018300110303001100430011086
S3151000B4400C30011020B000401030011000300110F7
S3151000B45010B5064B064A196811605A68054B1A60F2
S3151000B460054B1B68002B00D0984710BD283B0110D8
S3151000B4700CB0004010B00040FC3D011070B53222F7
S3151000B48000210F480F4B984700210D480125022433
S3151000B4904A001154821853782B43DBB2A3435370DE
S3151000B4A001311929F4D1064B5A7818398A435A7042
S3151000B4B0DA788A43DA705A7F8A435A7770BDC04663
S3151000B4C0403B011071020110064A1168064B0B40F1
S3151000B4D01360064A136006490868064B03400B6062
S3151000B4E0536070470CB00040D30FFEFF283B01108D
S3151000B4F010B00040C0E7FFFFF8B54F464646C0B44F
S3151000B500444B1B78002B03D0424B1B78012B79D070
S3151000B510414B9847414B98470027414B1F60414C80
S3151000B5208023802212049146E250802252049046D3
S3151000B530E2503D4D3D4B2B603D4B3E4A13603E491C
S3151000B5403E4A11603E4A11683E4A11603E4A1168F1
S3151000B5503E4A11603E493F4A11603F493F4A1160D9
S3151000B5603F4E404A32604049404A11604049414A84
S3151000B57011604149414A11604149424A11604249AC
S3151000B580424A11604249434A11602820984742496D
S3151000B59028202B6898472B68404927209847404B0E
S3151000B5A01A68404B1A60404A404B1A60404A414B59
S3151000B5B01A60414A414B1A60414A424B1A60424A4C
S3151000B5C0424B1A60424A434B1A60434A434B1A6035
S3151000B5D0A022920000214248424B984780229200B6
S3151000B5E0414B1A80414B98474B4623604346236094
S3151000B5F03F4B1F6033683F4A1A600122054B1A7091
S3151000B600002003E00122034B1A7001200CBC904667
S3151000B6109946F8BD083001107DB40010C9B4001069
S3151000B6202C30011000E100E0F43D0110D7070000B6
S3151000B630BD070000343B011051BC0100F83D01105C
S3151000B640BC000410FC2F0110B8000410F82F0110D4
S3151000B6509FB90100303B0110DBB90100383B0110E6
S3151000B660043E01103C000410C01F04103C3B0110A6
S3151000B670C41F0410003E0110E9CB01001830011060
S3151000B6808FCD01000C300110A3CE01003030011017
S3151000B690CFCB0100043001106DBB001001BB0010B0
S3151000B6A0E400041020300110E99F0100343001102D
S3151000B6B0DDDB0100003001105BDC010014300110ED
S3151000B6C0EC05041010300110E3D501001C300110F8
S3151000B6D0200C041038300110099F0100F42F0110BE
S3151000B6E0743B011071020110083E0110B5B3001031
S3151000B6F0FC3D011051B40010044B1A780523012AA1
S3151000B70002D1034B1860002318007047083001104F
S3151000B7102C30011070B504000E4B1B68002B02D0A4
S3151000B720408898476080E388A288618820880A4DFF
S3151000B7302D68A8470500E288002A02D1074B9847D2
S3151000B74006E021000831064B98472800034B98471E
S3151000B75070BDC046FC2F011034300110E5B3001047
S3151000B7605F020110F8B504000F0016001D000E4B05
S3151000B77018680E4B1B6898473A0222430C4B1C68FC
S3151000B7802B000521A020C000A047041E0AD0002DC2
S3151000B79005D0002E03D02A003100064B9847200012
S3151000B7A0054B9847F8BDC046103001100030011007
S3151000B7B0343001105F020110E5B30010F0B55F469A
S3151000B7C056464D464446F0B487B0441E002399466B
S3151000B7D0E31C1CD80D22002102A8824B984719237E
S3151000B7E002AA1370163B5370937002331371937140
S3151000B7F01472230A5372230C9372240ED4720123EB
S3151000B80013730D211000784B984701239946002495
S3151000B8100025764F764E7749386833689847002862
S3151000B82000D088E0734B1C68A3889A46CD239B00F2
S3151000B8309A4500D1C7E023899B46638998464B46B3
S3151000B840002B11D00D22002102A8664B9847192310
S3151000B85002AA1370163B53709370023313719371CF
S3151000B8600D211000604B9847A023DB009A4521D18B
S3151000B870614B1B884344A0229200934202DD803A1A
S3151000B8805D4B1A805C4B9A461D885C4BED18210067
S3151000B8900C31424628005A4B9847424629005846D2
S3151000B8A0584B984753461B884344524613800024EE
S3151000B8B002253AE0544B1B68002B32D04D4B1A68C8
S3151000B8C09388CD2189008B4204D14B460124002B4D
S3151000B8D02BD028E04D4C494D25602B701B0A6B7000
S3151000B8E010894B4B1B6898472871000A68712068AD
S3151000B8F0404B1A68D28842801D686B89C380083015
S3151000B90020606A89002A03D029000C313C4B9847E5
S3151000B910698908313C4B1B68384898470024032531
S3151000B92003E0002401E00024D025324B1868394B7F
S3151000B9301B68984700E00725002C00D06BE74B46A4
S3151000B940002B46D0294B1E68002E04D100231C6AFA
S3151000B950002C31D13DE0346A14239C46B44463462E
S3151000B960604600932C4B1B689847002C1FD000276D
S3151000B970CD239B009846274B9A46200003689B8848
S3151000B980434510D1002F06D08368BB6053461B6811
S3151000B9909847B86809E0836833621E4B1B680193A9
S3151000B9A09847306A01E0070080680028E6D11B4BF3
S3151000B9B01B68009898470CE014230093164B1B68DD
S3151000B9C014209847D3E7104B1B680024002BACD0EB
S3151000B9D07BE7280007B03CBC90469946A246AB468A
S3151000B9E0F0BDC0467102011015B7001038300110B5
S3151000B9F01C30011028300110083E0110743B011054
S3151000BA005F0201107DB300102C300110243001109C
S3151000BA10F82F0110F42F011014300110003001100E
S3151000BA2010B5124B1C68124B1B68802000029847F9
S3151000BA30E30714D40F4B1B68022098470E4B1B6864
S3151000BA4098470E4C0320236898470028FAD10C4BD0
S3151000BA501B680230984701220A4B1A6004E00A4B11
S3151000BA6018680A4B1B689847082010BDECB10040B7
S3151000BA70303B011018300110303001100430011025
S3151000BA800C30011020B000401030011000300110B1
S3151000BA9030B5184A138F9BB2108D802109020143CD
S3151000BAA011851000144D01240022DB05DB0D11D089
S3151000BAB0DBB259420B40012B06D011005B08013155
S3151000BAC0C9B2012BFAD100E0110023008B409BB2C2
S3151000BAD0038703E0038F2B439BB20387038FDB059A
S3151000BAE0DB0DE2D1802149008133FF33034AD15067
S3151000BAF030BDC046001001400080FFFF00E100E0AD
S3151000BB0030B5174A138F9BB2108D8021090201435D
S3151000BB1011851000134D01240022DB05DB0D11D019
S3151000BB20DBB259420B40012B06D011005B080131E4
S3151000BB30C9B2012BFAD100E0110023008B409BB251
S3151000BB40038703E0038F2B439BB20387038FDB0529
S3151000BB50DB0DE2D180218133FF33034AD15030BD52
S3151000BB60000001400080FFFF00E100E010B50C4B23
S3151000BB701B8F5B0B10D00B4B1B689847084A138F13
S3151000BB80118F5B0B5B030B43138780214900C02386
S3151000BB905B00054AD15001E0044B984710BDC046E2
S3151000BBA000100140F83D011000E100E091BA0010CC
S3151000BBB00322024B1A7000207047C046543E0110F3
S3151000BBC00622014B1A707047543E011010B50448F6
S3151000BBD0044B98470448054B9847002010BDC046B3
S3151000BBE044170110A10301100C2801108102011045
S3151000BBF010B50448044B98470448054B9847002055
S3151000BC0010BDC04644170110A10301102C280110C5
S3151000BC108102011010B50448044B98470448054B9F
S3151000BC209847002010BDC04644170110A10301100B
S3151000BC305C28011081020110F8B55F4656464D4644
S3151000BC404446F0B42248234B98472348234B984741
S3151000BC50234B9A46002399461E4B98461C48C047CC
S3151000BC60494620481D4CA0471948C047D34653465D
S3151000BC7019781D48A0471648C047534659881B488F
S3151000BC80A047554608350024124F1148B8475B4661
S3151000BC901B191A7921001648104EB0470C48B847A0
S3151000BCA06A8829881348B04701340435032CECD12F
S3151000BCB001239C46E14413339C46E2444B46052B34
S3151000BCC0CCD100203CBC90469946A246AB46F8BD66
S3151000BCD044170110A10301108428011081020110DC
S3151000BCE0583E01109C280110AC280110B8280110EC
S3151000BCF0D0280110E428011010B50448044B9847C9
S3151000BD000448054B9847002010BDC0464417011043
S3151000BD10A1030110FC2801108102011010B504487E
S3151000BD20044B98470448054B9847002010BDC04661
S3151000BD3044170110A10301101029011081020110EE
S3151000BD40F0B55F464646C0B483B08046514E3000CB
S3151000BD50514DA8475148524CA0473000A84751486A
S3151000BD60A0473000A847434699794F48A04730006E
S3151000BD70A8474E48A0474346DD1D0124002700234F
S3151000BD809B46474E03E0013701350134E4B2019575
S3151000BD9029784748B047FBB2062B03D12B781B02F4
S3151000BDA09B46F0E7072B05D1019B1B785A461A4391
S3151000BDB09346E8E70F2CE6D9364D2800364EB047A5
S3151000BDC059463C48364CA0472800B0474346598848
S3151000BDD03948A0472800B047434699883748A047B6
S3151000BDE0374B9B4518D12B482B4B984735482C4B36
S3151000BDF09847354B1B7835499800C21892008A1817
S3151000BE000124147144466488148142469288C318EA
S3151000BE109B00CB185A8136E02D4B9B4518D11D48F7
S3151000BE201D4B98472B481E4B9847274B1B78274985
S3151000BE309800C21892008A180124547144466488E6
S3151000BE40948142469288C3189B00CB18DA811AE077
S3151000BE50214B9B4517D10F480F4B98471F48104B46
S3151000BE609847194B1B7819499800C21892008A18DE
S3151000BE700124947144466488148242469288C318F9
S3151000BE809B00CB185A82002003B00CBC90469B46F0
S3151000BE90F0BDC04644170110A10301102829011056
S3151000BEA08102011040290110782901108C290110F6
S3151000BEB0542B0110A0290110B4290110C829011012
S3151000BEC0BBBB0000DC2901100D3E0110583E0110CD
S3151000BED0EEEE0000F029011011110000042A0110E5
S3151000BEE0F8B50500234B18780121234B9847AB78FA
S3151000BEF0082B0FD00C2B22D0012B34D11F48204BEE
S3151000BF009847204B19884A1C1A80AA791E481F4B3D
S3151000BF10984728E019481A4B98471D4B19884A1C10
S3151000BF201A801C48194B9847AC1D0E351A4F174EE0
S3151000BF3021783800B0470134AC42F9D113E00F48EC
S3151000BF400F4B9847154B19884A1C1A8014480F4BEB
S3151000BF509847AC1D1235104E0C4F21783000B8475B
S3151000BF600134AC42F9D1034B18780021024B9847A3
S3151000BF700020F8BDB82E0110C5830010441701101B
S3151000BF80A103011086300110142A0110810201103C
S3151000BF9082300110242A0110542B01103E3001105A
S3151000BFA0342A0110F8B54F464646C0B405003E4B3C
S3151000BFB0187801213D4B98473D4C23880133238047
S3151000BFC03C4E30003C4FB84721883C483C4CA0477B
S3151000BFD03000B847AB78AA8829883A48A047AB788A
S3151000BFE0002B0BD00024384E354F2B199979300081
S3151000BFF0B8470134E4B2AB78A342F6D8334C2600E6
S3151000C000643662882B889A4240D12378304A13705E
S3151000C010A8882200083200231188814231D2518823
S3151000C02081422ED92A4A5370AB7893702148224BFD
S3151000C03098469847264B9B78254A52782449097882
S3151000C04024481F4FB8471B48C0472348B847204BC2
S3151000C0509B78002B1AD000271D4B9946184B9846F3
S3151000C060EB1999794B46DB19D9701C48C047012248
S3151000C0701B4B1A707B1CDFB24B469B78BB42EFD82A
S3151000C08004E00133DBB20432032BC5D11434B442BD
S3151000C090B7D1054B18780021044B984700200CBCEB
S3151000C0A090469946F8BDC046B82E0110C5830010BB
S3151000C0B08430011044170110A1030110442A011005
S3151000C0C0810201104C2A0110542B0110583E011008
S3151000C0D0143E0110DC2A0110042B0110702D0110E2
S3151000C0E00C3E011010B504000089084B9847E22356
S3151000C0F0002809D00648074B98470748074B98472A
S3151000C1000222074B1A70A37A180010BD15AF001043
S3151000C11044170110A10301100C2B0110810201100C
S3151000C1203C300110F0B55F4656464D464446F0B4D5
S3151000C13097B0734B1C78E4B20022724B1A7014320B
S3151000C14000210EA8704B9847002C00D1C0E06F4A12
S3151000C1500023002108001178012903D8411C0EADD7
S3151000C1602B54C8B20133DBB229329C42F3D107906B
S3151000C170002800D183E009AB00221A7018329A7099
S3151000C180153A5A7013AA624B03CB03C21B7813706D
S3151000C190079B013BDBB201330493002399460693B8
S3151000C1A005934C46E3B29B465A485B4B98470EABF9
S3151000C1B0E35C9A00D218D200D318544A9046984499
S3151000C1C043469B794246D279414689780391414646
S3151000C1D0C978029141460979019141464979009100
S3151000C1E049464E484E4CA0474A484B4B98474D48F7
S3151000C1F0A04744460834272343449A460026464F10
S3151000C2004448B84713AB9D5D21782A004648444BF5
S3151000C21098472378AB4213D131004448404B984796
S3151000C220072E02D80136F6B20AE03A483A4B98473A
S3151000C2303F483B4B98475B4606930123059302E024
S3151000C24001345445DCD1032209A94046394B98479D
S3151000C250002809D12B4A1378591C1170364A5946B1
S3151000C260D15436482E4B98474B4601339946049A7B
S3151000C2709A4296D1234B1B78002B34D102E000232F
S3151000C280069305932348244B98472D48244B9847EB
S3151000C2902C4B9847059B002B0CD01E481E4B9847DD
S3151000C2A029481F4B98470EAB069A995C1748274B9F
S3151000C2B098471EE0079B002B08D01648164B984748
S3151000C2C02348174B98470222224B1A70E22010E09F
S3151000C2D01048114B98472048114B984702221D4B86
S3151000C2E01A70E22005E0174B9847059B002BE4D007
S3151000C2F0D3E717B03CBC90469946A246AB46F0BD74
S3151000C300602F0110582F011071020110983501107D
S3151000C3109825011044170110A1030110841A011069
S3151000C32081020110202B0110402B01105C2B0110F3
S3151000C330742B0110E1AD0010C43E0110C41A011097
S3151000C340181B011011D200108C2B0110799B0010B4
S3151000C350A42B0110543E0110C02B011010B505225C
S3151000C360044B1A700023002202211720024CA0470A
S3151000C37010BDC046543E011065B7001010B50B4AEB
S3151000C38001210B4B9847002807D00A480A4B9847BB
S3151000C3900A480B4B9847E22006E00648064B98479A
S3151000C3A00848074B9847002010BDC046FFFF000005
S3151000C3B07DD3001044170110A1030110D02B0110DA
S3151000C3C081020110F82B011070B504001D481E4B98
S3151000C3D098471E481E4B98471E4B1B78FF2B09D1BA
S3151000C3E000221C4B1A701748174B98471A48184BBF
S3151000C3F0984714E05A1C042A07DD1248124B984736
S3151000C4001648134B984711201BE0124D01332B7021
S3151000C4100C480D4B9847297811480D4B98470D4BF2
S3151000C4201B7810499800C218920053546288C3189A
S3151000C4309B00CB185A8060880B4B984703220B4BF6
S3151000C4401A7070BD44170110A1030110202C0110A1
S3151000C450810201100D3E0110342C0110542C0110D4
S3151000C4607C2C0110583E01107DC300103C30011089
S3151000C470F0B54F464646C0B48DB000228D4B1A70AB
S3151000C4808D4B98478D4B98478D4B98478D488E4BC3
S3151000C490984702AC20008D4B9847012323708C4B94
S3151000C4A0187821008B4B9847002805D08A488B4B6B
S3151000C4B098478B488B4B98478B4B1978C9B2844B4E
S3151000C4C018788A4B98478A488A4B984701AC2000BF
S3151000C4D0894B98471023237021008848884B98472A
S3151000C4E002AC2000874B98470027A770962323712C
S3151000C4F0853BA3600D3BA3611322E260E361012536
S3151000C5006D4225612562013A626163627E4E2200A8
S3151000C5107E4930007E4B98477E4B1F7030007E4B15
S3151000C52098476D486D4B98477C486E4B984700204E
S3151000C5307B4B98477B4A002100207B4CA0477B4AC7
S3151000C54001210020A0477A487A4B98477A487B4BBE
S3151000C55098477B4B1D707B4B1D006435FF210124D2
S3151000C56064420022002019705C801A7119815A8168
S3151000C57058719981DA81987119825A8214339D42C1
S3151000C580F1D1714F4B4B9946704B98460120404262
S3151000C590B8474B461B78DBB2072B4FD89B00424659
S3151000C5A0D3589F464C484D4B984769484D4B984732
S3151000C5B044E04948494B984766484A4B98470222F7
S3151000C5C03C4B1A703AE04448444B98476248454BF6
S3151000C5D098470222374B1A7030E03F483F4B984736
S3151000C5E05E48404B98475E4C0423237002266670C3
S3151000C5F0033BA3700122414943485A4DA8474022A4
S3151000C60021004148584B984700223C493E48A847CC
S3151000C610284B1E7012E03048304B98475348314B28
S3151000C62098470222234B1A7008E02B482B4B984749
S3151000C6304F482C4B984702221E4B1A70354B1B78CD
S3151000C640002BA3D0464B4B4C22781A7062785A7046
S3151000C650A2789A702048214B9847A378627821785F
S3151000C6604548204DA847A378002B0ED00024414EF4
S3151000C6703B4D3319D9782B19D9704048194B984727
S3151000C6800134E4B2B378A342F3D81C4E1E4C0122F7
S3151000C69031002000334DA847402231492000324B4B
S3151000C6A09847002231002000A8470022194B1A7023
S3151000C6B06CE7C046543E0110F9B4001021BA0010C0
S3151000C6C05DB100105DC30010D9B000104D8200108E
S3151000C6D0B82E01105D82001044170110A10301103D
S3151000C6E0A02C01108102011080300110C5830010AA
S3151000C6F0C1BB0010FDB2001019870010103E0110CA
S3151000C7005187001025870010BC3E011000700040B4
S3151000C710218800100C3E011091870010C02C0110CA
S3151000C7203DAB0010C02701106DAA0010782D011026
S3151000C73031B30010F19B00105DB30010FD9B00108B
S3151000C7400D3E0110583E0110A9B00010A02701108F
S3151000C750E02C0110F02C0110042D0110182D0110E1
S3151000C76040300110118A0010018A00102C2D011082
S3151000C770402D0110143E0110542D0110542B0110A0
S3151000C78070B50C4D2C68002C13D02668E2602E6014
S3151000C7900025094A238113682560A080E180AB42F9
S3151000C7A001D1146005E01A68002A01D0131CFAE7BB
S3151000C7B01C6070BD2C31011028310110084B00226D
S3151000C7C0191C10B51868074B9C18D0501032201C35
S3151000C7D0A02AF8D1002290330B60034B1A6010BDCB
S3151000C7E02C310110883001102831011038B51B4C3E
S3151000C7F0031C2588081C211C9D4207D1A58885424B
S3151000C80004D101235B422380A26009E04C889C423C
S3151000C8100AD18C88844207D101235B424B808A60FF
S3151000C8200F4B9847012017E00E498B420ED00E4948
S3151000C8308B4207D00D4900208B420DD1101C0C4B9A
S3151000C8409847EFE7111C0B4B002202E0111C002247
S3151000C850094B98474342584138BDC046D83E01104F
S3151000C860C5D90010130E0000150E0000010E0000B1
S3151000C87035DD0010F5DE0010CDDF00100023F0B519
S3151000C88085B002920370029B0190013B0D1C03932D
S3151000C890033302D80298AD4B9847039BAC4F002444
S3151000C8A0033312D83B68002B12D1D02C00D19CE256
S3151000C8B00298A84B9847041E022CF3D125E0029843
S3151000C8C0A44B9847041E022C1FD03B68002BF6D0B1
S3151000C8D0D02C00D189E2E31E5A1E934138685B4280
S3151000C8E01C40002800D186E20368C1683B609A4F5D
S3151000C8F0C2883E68838806603860002C12D197483B
S3151000C900834208D0964883421DD13A230024019AC7
S3151000C910251C137006E09A4200D068E23823019A6B
S3151000C92013702960019B1B783B2B03D0039B0333A9
S3151000C93003D964E2002CB0D0F8E7D02C00D15EE227
S3151000C940884B98475BE2BB2A23D1BB2B21D1AC8005
S3151000C9508B784A781B02CF78087913434A79824933
S3151000C960AF702B808B4206D8804A93420BD2804AF6
S3151000C970934208D009E07F498B4206D11302034344
S3151000C980AB80372302E0362300E00023019A1370B0
S3151000C990C8E77948834200D14CE164D8774883428E
S3151000C9A000D1CDE12FD87648834200D1D6E113D8F5
S3151000C9B07448834200D19FE104D83824A34200D1A1
S3151000C9C00FE2B6E07048834200D19BE1FE30FF30A3
S3151000C9D0834200D1C8E1ACE06C48834200D1A3E1A8
S3151000C9E008D86B48834200D192E16A48834200D14D
S3151000C9F094E19EE06848834200D19BE167488342F8
S3151000CA0000D1C5E195E06648834200D1BAE112D85B
S3151000CA106448834200D1C1E104D86348834200D1FF
S3151000CA2092E186E06148834200D1A1E160488342E9
S3151000CA3000D1A3E17DE05F4A934200D17FE008D8A0
S3151000CA40083A934277D05C4A3924934200D1C8E120
S3151000CA506FE0D1221201934200D1DFE0574A934290
S3151000CA6000D1E1E065E05648834200D118E12ED8A6
S3151000CA705448834200D13BE112D85348834200D137
S3151000CA80EEE004D80338834200D1D9E051E04F4894
S3151000CA90834200D1D8E04E48834200D1FBE048E003
S3151000CAA04C48834200D1E1E008D84B48834200D17C
S3151000CAB01AE14A48834200D1DDE03AE04848834211
S3151000CAC000D1DCE04748834200D1DEE031E0464841
S3151000CAD0834200D1F6E016D84448834200D1F7E0ED
S3151000CAE008D84348834200D1E0E04248834200D14F
S3151000CAF0B0E01EE0404A934200D1DDE03F4A934247
S3151000CB0000D1EBE015E03E48834200D158E108D849
S3151000CB103C48834200D147E13B48834200D149E17A
S3151000CB2007E03A48834200D150E13948834200D1A8
S3151000CB3052E1002455E1081C364B291C7DE0081CE7
S3151000CB40354B291C984704244BE1C046FDD90010EB
S3151000CB5028310110BDB700102C310110FFFF000065
S3151000CB60FEFF0000FFD900101E2000001D2000004F
S3151000CB70030C00001F2000001C0D00000C0C000010
S3151000CB80020C0000020A0000030A0000060C000056
S3151000CB90040C0000050C0000070C0000090C000036
S3151000CBA0170C0000120C00000D0C0000130C0000F6
S3151000CBB0150C0000080D0000010D0000150D0000F9
S3151000CBC01B0E00000F0E0000030E0000060E0000E4
S3151000CBD00A0E0000150E0000110E0000130E0000C4
S3151000CBE0170E0000190E0000270E0000210E00007F
S3151000CBF01C0E00001D0E0000220E0000250E000067
S3151000CC00051B0000011B0000031B0000061B000093
S3151000CC10081B0000E9E70010CDE70010081C794B4F
S3151000CC20291C98470124DCE0081C774B291C9847DF
S3151000CC300F24D6E0081C291C744B9847041CD0E01E
S3151000CC40101C734B2A1C14E0101C724B2A1C98479C
S3151000CC501124C6E0101C704B2A1C98471224C0E001
S3151000CC60081C6E4B291C98470624BAE0101C2A1C77
S3151000CC706B4B9847E2E7101C6A4B2A1CF9E7101C0D
S3151000CC80694B2A1C98470D24ABE0101C674B2A1CD5
S3151000CC9098470E24A5E0101C654B2A1C984775E092
S3151000CCA0101C644B2A1C98470B249AE0101C624BEC
S3151000CCB02A1C9847102494E0081C604B291C98479E
S3151000CCC028248EE0081C5E4B291C9847292488E0EE
S3151000CCD0081C5C4B291C9847272482E0081C5A4BD9
S3151000CCE0291C98472A247CE0101C584B2A1CC0E7A4
S3151000CCF0101C574B2A1CBCE7081C564B291C98477E
S3151000CD002B246EE0081C544B291C98472C2468E0F1
S3151000CD10101C524B2A1C9847132462E0101C504BCF
S3151000CD202A1C984714245CE0101C4E4B2A1C98476A
S3151000CD30152456E0101C4C4B2A1C9847162450E01C
S3151000CD40101C4A4B2A1C94E7101C484B2A1C984767
S3151000CD50A988041C464B2888984742E0101C454B6E
S3151000CD602A1C984723243CE0101C434B2A1C80E7BE
S3151000CD70120A081C2A80291C404B5EE7101C404BE7
S3151000CD802A1C76E7081C3F4B291C98473B2428E0B1
S3151000CD90101C3D4B2A1C9847182422E0101C3B4BB4
S3151000CDA02A1C984720241CE0101C394B2A1C984733
S3151000CDB0332416E0101C374B2A1C9847302410E0F9
S3151000CDC0101C354B2A1C984734240AE0101C334B90
S3151000CDD02A1C9847352404E0101C314B2A1C98470E
S3151000CDE03224019B1C7000249CE5D0249AE5BB2AB2
S3151000CDF000D09EE6F5E7002C00D093E599E6201CBE
S3151000CE0005B0F0BD49E9001055EB001079EB0010A4
S3151000CE10A1DB0010E1E300105DE4001059DE001004
S3151000CE20F5DE0010CDDF001015E20010B5E200109F
S3151000CE306DE3001095E30010ABE3001075E40010ED
S3151000CE40A3E40010B9E40010E3E4001011E30010AD
S3151000CE503BE3001039D6001065D60010B1ED001076
S3151000CE60EDED001035EE001079EE0010ADEE00106D
S3151000CE7071ED001079EF001001EF001091D5001040
S3151000CE80FDD50010C1D5001089EF0010C9EF0010B4
S3151000CE9015F100101FF1001025F100102BF10010F4
S3151000CEA037F10010F7B50E4900240B680F1C1E1C35
S3151000CEB00C4A15680192002B0ED09A881968824286
S3151000CEC007D1002C01D0216000E00E1C1D601D1C36
S3151000CED0231C1C1C0B1CEEE7019B3E601D60F7BD5E
S3151000CEE0283101102C310110F7B5124A0090136841
S3151000CEF011481F1C0021844604680192002B14D08F
S3151000CF00D888009A1D68060A96420BD1FD2606405F
S3151000CF100C2E07D1002901D00D6000E02F1C1C60DB
S3151000CF201C1C0B1C191C2B1CE8E7019B1F6063467D
S3151000CF301C60F7BD283101102C31011030B5CF23FC
S3151000CF40002810D04A1E1F2A0DD8084A131CAA33CF
S3151000CF50198000231C1CC55CAC3401331555DCB29A
S3151000CF608C42F7D30023181C30BDC046763F011003
S3151000CF7010B5041CCF20002C06D0044BCE38211C33
S3151000CF809847034B1B79237010BDC0467DE60010F1
S3151000CF90763F0110F0B5067989B0CF25032E38D823
S3151000CFA0037811350F2B34D88023878C113D9B00C5
S3151000CFB09F422ED8C57F837FAD015B011D43C37E83
S3151000CFC01D43437F1B011D43037F9B001D43124BD3
S3151000CFD0EDB21E710379023B012B01D802230371B6
S3151000CFE0041C231C0B336188079323790078009364
S3151000CFF00195258C621D0295658C079B03950497F8
S3151000D000064DA8472671051C211C03482622044BF1
S3151000D0109847281C09B0F0BD763F011075E5001041
S3151000D0205F020110F0B587B003AF4D49041C0B2207
S3151000D0304C4B381C984705224B4B1A8000234B4A01
S3151000D04013604B4A13704B4A13704B4B98474B4B1C
S3151000D05098474B4B98474B4B9847002C09D0206864
S3151000D060002806D06168002901D1E22675E0464BFA
S3151000D0709847464B98470128F7D84548454B984757
S3151000D0800028F2D1444B9847444B98476B460122EF
S3151000D090DC1C201C01A95242414B9847002802D1A2
S3151000D0A02378392BF2D13F4B9847061E55D1031CD6
S3151000D0B001213D4A49429A1812335181902BF7D1DA
S3151000D0C03A4C813B23703A4B3A4A638000232371D2
S3151000D0D00133581E19010143023311700132212BFD
S3151000D0E0F7D1E033FF33A384231C002573331D705F
S3151000D0F0231C72331D70231C76331D70231CCC33F6
S3151000D1001D80221CA023D0325B001380221CCE323D
S3151000D1101380231CD2331D80FA22231C5200D433D1
S3151000D1201A80231CD6331D70201C234BE5762577D9
S3151000D1306577A577E577258465849847231C0722AC
S3151000D14074331A70231C0432AA331A802B1C7A5D8E
S3151000D150AC330135E2540B2DF8D1301C07B0F0BDBD
S3151000D160A02D01105F020110E43E0110D031011014
S3151000D17038310110B92E0110D9EF001071D30010FB
S3151000D18015D400102DD6001049D40010F9B4001093
S3151000D190EDD80010F9B6001085D90010BDC70010E3
S3151000D1A07DC8001005E50010E63E0110763F01101F
S3151000D1B0983A0000813F011095CF001038B5451CF4
S3151000D1C0031CCF20002D18D01A78032A15D8012A4F
S3151000D1D002D15A78002A10D01C1C291C0622074B93
S3151000D1E007489847237807480371074B98472378D1
S3151000D1F0002B02D1281C054B984738BD5F02011041
S3151000D2007B3F0110763F011095CF001001DA001018
S3151000D21010B5054B9847041E03D1D120034B0001CE
S3151000D2209847201C10BDC0465DE70010A5CE001023
S3151000D230F0B591B00D932D4B0A900B910C92169C54
S3151000D24098474B2507284DD86388294A063B9BB239
S3151000D2508435934246D82388063B9BB2934241D8E5
S3151000D260E388244A0A3B9BB293423BD8F423A28814
S3151000D270FF339A4236D80EAF1F4B0120391C984700
S3151000D2801E4E051C33793B7000282AD11C4B98473B
S3151000D29075363378011C013B012B01D902233370FB
S3151000D2A0164B1A1C753210785A880C9B1230009344
S3151000D2B00D9BC0B201932388029363880393A388BE
S3151000D2C00493E388059323890693638904AC079333
S3151000D2D00B9B08930A9B099329231B19094CA047FA
S3151000D2E000E0E225281C11B0F0BDC04679DB001025
S3151000D2F07A0C0000760C00007DE60010763F0110D7
S3151000D30031E90010D1E9001038B5041C044B081C93
S3151000D310211C9847051C034B201C9847281C38BD18
S3151000D32015DE0010E9CE001010B5014CA04710BD57
S3151000D330C5E2001010B5CF2300280AD0002908D066
S3151000D340002A06D00C78022C03D1034B01319847E2
S3151000D3500023181C10BDC046EDEA0010831EDBB278
S3151000D36003200E2B01D8014AD05C7047AB2D01105B
S3151000D3700022014B1A8070473031011037B5CF2487
S3151000D38000290AD08A4208D30024131C01900A1CD3
S3151000D39000940220211C024DA847201C3EBDC04609
S3151000D3A0E1EC001070B5051C00240C4B19680C4BF1
S3151000D3B01E688C4210DC0C206318DA0FD318021C7E
S3151000D3C05B105A43B0180288AA4201D2591EF0E7E0
S3151000D3D0AA4202D95C1CECE7002070BD4431011052
S3151000D3E03C31011037B5094B051C081C0C1C98471D
S3151000D3F0002809D08268002A06D08388291C00924A
S3151000D400201C0022024CA0473EBDC046A5D30010EA
S3151000D410E9EB00100023064A1370064A1360064A09
S3151000D4201360064A1360064A1360064A1360704773
S3151000D43038310110483101104431011034310110D6
S3151000D440403101103C3101100A4B0B4A18604B0851
S3151000D45013600A4AC3181360094A4118136003235C
S3151000D460002203319943074B04391960064B1A60A1
S3151000D4707047C0464C31011048310110343101104B
S3151000D480403101103C3101104431011070B50B4B85
S3151000D490061C0C1C151C9847002808D0806800280C
S3151000D4A005D0211C2A1C064B9847002004E0301C8E
S3151000D4B0291C221C034B984770BDC046A5D30010EB
S3151000D4C05F020110EDEF001070B50C4B061C0C1C22
S3151000D4D0151C984700280BD08368002B08D083882A
S3151000D4E02B8082888168064B201C9847002004E018
S3151000D4F0301C291C221C034B984770BDA5D3001065
