:020000041000EA
:1080000080B582B000AF144B7B60144B3B607A6844
:108010003B689A420CD007E03B681A1D3A607A68C8
:10802000111D796012681A603A680D4B9A42F3D3B9
:108030000C4B3B6004E03B681A1D3A6000221A605A
:108040003A68094B9A42F6D3084B9847084B984731
:10805000C046BD4602B080BD44B8011044B801100E
:10806000F8B80110F8B80110D8D601109D8D011094
:10807000D9C0001010B5064C2378002B07D1054B52
:10808000002B02D0044800E000BF0123237010BD84
:10809000F8B801100000000044B80110084B10B5FA
:1080A000002B03D00749084800E000BF07480368D9
:1080B000002B00D110BD064B002BFBD09847F9E7F1
:1080C00000000000FCB8011044B8011044B80110D1
:1080D0000000000090B585B000AF0400080011005A
:1080E0003B60FB1D221C1A70BB1D021C1A707B1DFD
:1080F0000A1C1A700C23FB1800221A80FB1D1B7827
:108100009AB2304B1A807B1D1B780133DBB29AB2D6
:108110002C4B5A802B4B5B68BA1D12781A700F23B8
:10812000FB1800221A7014E0264B5A680F23FB1824
:108130001B780133D3180F22BA18127839688A18BD
:1081400012781A700F23FB181A780F23FB180132CC
:108150001A700F23FA187B1D12781B789A42E3D30A
:10816000194B00221A70174A184B11001800184BAF
:1081700098471AE00C23FB181B889BB201339AB274
:108180000C23FB181A800C23FB181B889BB2114A86
:1081900093420AD9104B1800104B9847104B180007
:1081A000104B984701235B4208E0074B1B78DBB27A
:1081B00001225340DBB2002BDCD100231800BD4666
:1081C00005B090BD18C20110AAC00110BCC20110B8
:1081D00059DC0010E7030000E49F011095900110A6
:1081E000E89F0110758F011090B585B000AF0400B5
:1081F000080011003B60FB1D221C1A70BB1D021CF5
:108200001A707B1D0A1C1A700C23FB1800221A809E
:10821000FB1D1B789AB2504B1A80FB1D1B789AB23B
:108220004E4B1A804C4B01225A807B1D1B789AB210
:108230004A4B5A80484B5B68BA1D12781A70484BFB
:1082400000221A70444A474B11001800464B9847C9
:108250001AE00C23FB181B889BB201339AB20C2343
:10826000FB181A800C23FB181B889BB23F4A9342D1
:108270000AD93F4B18003F4B98473F4B18003F4BE4
:10828000984701235B4263E0354B1B78DBB2012248
:108290005340DBB2002BDCD1394B00221A702F4A3D
:1082A000304B11001800374B984728E00C23FB187F
:1082B0001B889BB201339AB20C23FB181A800C2343
:1082C000FB181B889BB21A002F4B110018002B4B78
:1082D00098470C23FB181B889BB2244A93420ED963
:1082E000234B1800234B9847234B1800234B9847E8
:1082F0001C4B1800254B984701235B4228E0204B7C
:108300001B78DBB201225340DBB2002BCED10F230E
:10831000FB1800221A7013E00F23FB181B783A6831
:10832000D2180E4B59680F23FB181B78CB181B78FB
:1083300013700F23FB181A780F23FB1801321A70E1
:108340000F23FA187B1D12781B789A42E4D300237E
:108350001800BD4605B090BD18C20110E8C101105B
:10836000AAC00110BCC2011091DC0010E70300009C
:10837000E49F01109590011004A00110758F011069
:1083800066C10110B9DB001020A00110C5D9001092
:1083900080B582B000AF7860034B98470023180087
:1083A000BD4602B080BDC046C5AE001090B585B0D8
:1083B00000AF0200FB1D1A702F4B24229B5C002B88
:1083C00022D0FB1D1B78002B04D00F23FB180222A8
:1083D0001A7003E00F23FB1800221A70264B5B680B
:1083E0001878254B1B68597C0F23FB180122234C5E
:1083F000A047031E02D001235B4239E00F23FB1884
:108400001A781D4B5A7432E01B4B9B7A002B02D119
:1084100001235B422CE0FB1D1B78002B05D0164B83
:108420005B7C002B01D0002322E0FB1D1B78002B7E
:1084300004D00F23FB1801221A7003E00F23FB184E
:1084400000221A700C4B5B6818780B4B1B68597C28
:108450000F23FB180122094CA047031E02D0012361
:108460005B4205E00F23FB181A78034B5A74002374
:108470001800BD4605B090BD44B80110D58000106D
:1084800090B585B000AF78600823FB1880221A7081
:108490005E4B5B6818785D4B1B68597D0823FB18A1
:1084A00001225B4CA047031E02D001235B42A9E0DE
:1084B0006420584B98470823FB1800221A70534B2E
:1084C0005B681878514B1B68597D0823FB18012203
:1084D0004F4CA047031E02D001235B4292E04B4B5E
:1084E0000022DA740823FB1848221A70474B5B6895
:1084F0001878464B1B68197A0823FB180122444C54
:10850000A047031E02D001235B427BE03F4BFF22CA
:108510009A723E4BFF221A723C4BFF225A723B4B1F
:10852000FF22DA72394B01225242DA81374BFF22A5
:108530001A74364BFF229A74344B012252421A8528
:10854000324B01221A73314B2222002199542F4BB6
:108550002322002199542D4B00225A752B4B0022C7
:108560001A752D4B0C22002118002C4B9847274BD5
:10857000242200219954254B252200219954234B74
:108580000022DA840020264B9847FA20254B984792
:10859000031E02D001235B4234E00420224B9847A3
:1085A000031E02D001235B422CE02A201F4B984778
:1085B000031E02D001235B4224E032201C4B98476B
:1085C000031E02D001235B421CE00020194B984798
:1085D000031E02D001235B4214E07B68002B03D012
:1085E0007B681800144B9847144B98470A20144B8B
:1085F0009847031E02D001235B4203E00020114B89
:10860000984700231800BD4605B090BD44B801103E
:10861000D5800010B9C400105AB801102D8E011079
:10862000059500104D8A0010858B00103D8C0010C0
:10863000398D0010F58E00109183001059970010AD
:10864000518E0010B58F001090B585B000AF0200BC
:10865000BB1D1A80BB1D1B88282B02D901235B423E
:10866000AEE0BB1D1B88002B1FD10020564B984746
:108670000C23FB1800221A700C23FB1807225A70D7
:10868000524B5B681878514B1B68597D0C23FB18C3
:1086900002224F4CA047031E02D001235B428FE011
:1086A0004A4B00221A7500238AE00120464B984766
:1086B000BB1D1B88012B04D10C23FB1802221A704E
:1086C0004DE0BB1D1B88022B04D10C23FB18032299
:1086D0001A7044E0BB1D1B88052B04D80C23FB1823
:1086E00004221A703BE0BB1D1B880A2B04D80C2304
:1086F000FB1805221A7032E0BB1D1B88142B04D80E
:108700000C23FB1806221A7029E0BB1D1B88282B9E
:1087100004D80C23FB1807221A7020E0BB1D1B880D
:10872000502B04D80C23FB1808221A7017E0BB1D2D
:108730001B88A02B04D80C23FB1809221A700EE00A
:10874000BB1D1A88A0235B009A4204D80C23FB1897
:108750000A221A7003E00C23FB180B221A701B4B21
:108760005B681878194B1B68597A0C23FB18012297
:10877000174CA047031E02D001235B4220E00C23CC
:10878000FB1820221A70114B5B6818780F4B1B687E
:10879000597D0C23FB1801220D4CA047031E02D06B
:1087A00001235B420CE0094B08229A72074B00221E
:1087B0001A73064B01221A750020064B98470023B6
:1087C0001800BD4605B090BD2995001044B80110B1
:1087D000D5800010F58E001090B583B000AF7F4BB0
:1087E0009B7A002B02D101235B42F3E0FB1D0022A8
:1087F0001A707A4B5B681878784B1B68597CFB1DA4
:108800000122774CA047031E02D001235B42E1E026
:10881000724B5B681878714B1B685979FB1D0122FC
:108820006F4CA047031E02D001235B42D2E06B4B8A
:108830005B681878694B1B681979FB1D0122684C2D
:10884000A047031E02D001235B42C3E0634B2422F6
:108850009B5C002B5FD0FB1D0C221A705F4B5B688A
:1088600018785E4B1B681979FB1D01225C4CA047F0
:10887000031E02D001235B42ACE03220594B9847E3
:10888000FB1DC0221A70554B9B7A1A00012313401E
:1088900006D0FB1D1B7820221343DAB2FB1D1A7091
:1088A0004E4B5B6818784D4B1B681979FB1D0122F4
:1088B0004B4CA047031E02D001235B428AE0474B8A
:1088C0005B7C002B03D0FB1D02221A7002E0FB1D13
:1088D00000221A70414B5B681878404B1B68597C2A
:1088E000FB1D01223E4CA047031E02D001235B4228
:1088F00070E0FB1D00221A70384B5B681878374B0C
:108900001B685979FB1D0122354CA047031E60D01E
:1089100001235B425EE0FB1D04221A702F4B5B6853
:1089200018782E4B1B681979FB1D01222C4CA0478F
:10893000031E02D001235B424CE0284B9B7C002BA2
:1089400005D1264B9B7A1A000123134003D1FB1D4E
:1089500040221A7002E0FB1D60221A701F4B5B68F8
:1089600018781E4B1B681979FB1D01221C4CA0476F
:10897000031E02D001235B422CE03220194B9847A2
:10898000164B5B7C002B03D0FB1D01221A7002E00A
:10899000FB1D00221A70114B5B6818780F4B1B6887
:1089A000597CFB1D01220E4CA047031E02D001235F
:1089B0005B420FE0094B5B681878084B1B685979DC
:1089C000094B0122064CA047031E02D001235B4243
:1089D00000E000231800BD4603B090BD44B801106C
:1089E000D5800010B9C4001054B8011080B582B011
:1089F00000AF7860144B1B7A012B0CD002DC002BEB
:108A000005D017E0022B0BD0032B0ED012E07B68B1
:108A1000FA221A8012E07B68FA2252001A800DE0D6
:108A20007B68FA2292001A8008E07B68FA22D20062
:108A30001A8003E07B6800221A80C04600231800D9
:108A4000BD4602B080BDC04644B8011090B585B0A7
:108A500000AF0200BB1D1A802D4B9B7A002B02D168
:108A600001235B424FE0BB1D1B88FA225200934258
:108A700014D0FA225200934202DCFA2B09D01CE0F7
:108A8000FA22920093420ED0FA22D20093420FD0E3
:108A900013E00F23FB1800221A7011E00F23FB18BC
:108AA00008221A700CE00F23FB1810221A7007E03E
:108AB0000F23FB1818221A7002E001235B4222E008
:108AC000134B1A7A0F23FB181B78DB08DBB29A4290
:108AD00001D1002317E00E4B5B6818780C4B1B6824
:108AE00099790F23FB1801220A4CA047031E02D0DC
:108AF00001235B4207E00F23FB181B78DB08DAB287
:108B0000034B1A7200231800BD4605B090BDC04645
:108B100044B80110D580001080B582B000AF7860F5
:108B2000174B5B7A012B0CD002DC002B05D014E034
:108B3000022B0AD0032B0CD00FE07B6802221A70A4
:108B40000EE07B6804221A700AE07B6808221A7023
:108B500006E07B6810221A7002E001235B420AE003
:108B6000074BDB7C002B05D07B681B78DB18DAB267
:108B70007B681A7000231800BD4602B080BDC04655
:108B800044B8011090B585B000AF0200FB1D1A700B
:108B9000284B9B7A002B02D101235B4246E0FB1D50
:108BA0001B78042B0DD002DC022B05D018E0082B1B
:108BB0000CD0102B0FD013E00F23FB1800221A70DB
:108BC00011E00F23FB1808221A700CE00F23FB188A
:108BD00010221A7007E00F23FB1818221A7002E007
:108BE00001235B4222E0134B5A7A0F23FB181B78B8
:108BF000DB08DBB29A4201D1002317E00D4B5B6822
:108C000018780C4B1B68D9790F23FB1801220A4CEA
:108C1000A047031E02D001235B4207E00F23FB188D
:108C20001B78DB08DAB2034B5A7200231800BD46EA
:108C300005B090BD44B80110D580001090B585B046
:108C400000AF0200BB1D1A802D4B9B7A002B02D176
:108C500001235B424FE0BB1D1B88BB2B04D90F23B4
:108C6000FB1801221A7027E0BB1D1B88612B04D959
:108C70000F23FB1802221A701EE0BB1D1B88292B34
:108C800004D90F23FB1803221A7015E0BB1D1B88A3
:108C9000132B04D90F23FB1804221A700CE0BB1D00
:108CA0001B88092B04D90F23FB1805221A7003E037
:108CB0000F23FB1806221A70114BDA7A0F23FB18C8
:108CC0001B789A4201D1002315E00D4B5B681878A0
:108CD0000B4B1B6899780F23FB180122094CA04706
:108CE000031E02D001235B4205E00F23FB181A7814
:108CF000034BDA7200231800BD4605B090BDC04694
:108D000044B80110D580001080B582B000AF786003
:108D1000084B24229B5C002B02D001235B4204E021
:108D2000044BDA897B681A8000231800BD4602B024
:108D300080BDC04644B8011090B585B000AF0200B8
:108D4000BB1D1A803C4B9B7A002B02D101235B4256
:108D50006EE0394B24229B5C002B02D001235B4246
:108D600066E0354B1B7D002B11D0BB1D1B88002BF3
:108D70000AD0BB1D1B88282B06D8BB1D1B881800DA
:108D80002E4B9847002353E000202C4B9847BB1DE7
:108D90001B88032B03D8BB1D04221A8009E0BB1DCE
:108DA0001A88FA239B009A4203D9BB1DFA2292002B
:108DB0001A80BB1D1A88224B1100FA229000984796
:108DC0000300DBB2013BDAB20F23FB181A701A4B17
:108DD0005B681878184B1B6859780F23FB18012221
:108DE000184CA047031E02D001235B4220E00F2352
:108DF000FB181B785A1C124B1100FA22900098475E
:108E000003009AB20C4BDA810B4B1B8D1A1C93B2E8
:108E1000642B01D964231A1C93B218000A4B98479B
:108E2000054BDB895B089BB21800084B9847002371
:108E30001800BD4605B090BD44B801104986001029
:108E4000B9710110D5800010518E00103D8C0010BA
:108E500090B585B000AF0200BB1D1A80BB1D1B88FA
:108E6000002B09D01F4BDB89BA1D12889A4203D808
:108E7000BB1D1B88642B02D901235B422EE0194BDA
:108E8000DA89BB1D1988184B1000984703009BB264
:108E9000DBB2013BDAB20F23FB181A70114B5B688F
:108EA0001878104B1B682422995C0F23FB180122B1
:108EB0000E4CA047031E02D001235B420EE0094B7B
:108EC000DB8918000F23FB181B785A1C084B110074
:108ED000984703009AB2034B1A8500231800BD4639
:108EE00005B090BD44B80110A5700110D5800010E8
:108EF000B971011080B584B000AF0200FB1D1A707B
:108F00000023FB60FB1DFA1D127801218A431A70B1
:108F1000254B24229B5C002B01D000233FE0224BF9
:108F20009B7A002B02D101235B4238E00B23FB1814
:108F30001D4A127C1A701C4B9B7AFA1D1278134042
:108F4000DAB2194B1A74184B1B7CFA1D12789A422C
:108F500003D001235B42FB6001E00023FB60FB1DAB
:108F60001B78002B03D1104B1B7D002B03D001205D
:108F70000E4B984702E000200C4B9847FB1D1B78D6
:108F8000002B0BD00A4B9847031E07D0064B0B2231
:108F9000BA1812781A7401235B4200E0FB681800CB
:108FA000BD4604B080BDC04644B80110AD8300107A
:108FB000D987001090B585B000AF0200FB1D1A7074
:108FC000FB1D1B787022134004D00F23FB180122D5
:108FD0001A700CE0FB1D1B78002B04D00F23FB182C
:108FE00000221A7003E00F23FB1840221A70774BFF
:108FF0005B681878754B1B68597D0F23FB1801229D
:10900000734CA047031E05D0704B00229A720123B7
:109010005B42D6E00F23FB181B7840229343DAB261
:109020006A4B1A730F23FB1800221A70FB1D1B7862
:109030004022134008D10F23FB181B78042213434E
:10904000DAB20F23FB181A70FB1D1B782022134085
:1090500008D10F23FB181B7802221343DAB20F2327
:10906000FB181A70FB1D1B781022134008D10F2328
:10907000FB181B7801221343DAB20F23FB181A7076
:10908000FB1D1B780822134008D10F23FB181B7807
:1090900038221343DAB20F23FB181A704B4B5B686C
:1090A00018784A4B1B68997D0F23FB180122484C06
:1090B000A047031E05D0454B00229A7201235B4254
:1090C0007FE0FB1D1B78002B06D0FB1D1B78082BB7
:1090D00002D000203F4B98473C4B5B6818783B4BD5
:1090E0001B6819790E23FB1801223B4CA047031E75
:1090F00002D001235B4264E0FB1D1B780122134078
:109100000DD00F23FB1811221A700E23FB181B78A9
:1091100020221343DAB20E23FB181A700CE00F233F
:10912000FB1810221A700E23FB181B782022934381
:10913000DAB20E23FB181A70244B24229B5C002BFE
:109140000AD00E23FB181B78802252421343DAB256
:109150000E23FB181A7008E00E23FB181B787F22E1
:109160001340DAB20E23FB181A70184B5B6818789C
:10917000164B1B682622995C0F23FB180122144C06
:10918000A047031E02D001235B421AE00F4B5B682D
:1091900018780E4B1B6819790E23FB1801220C4C12
:1091A000A047031E02D001235B420AE0074BFA1DD1
:1091B00012789A72054B00221A753220074B984795
:1091C00000231800BD4605B090BDC04644B801104C
:1091D000D580001029950010E9810010B9C4001055
:1091E00090B587B000AFB9607A600E23FB18021CFF
:1091F0001A80484B24229B5C002B06D1464B18005A
:10920000464B984701235B427FE0424B9B7A002B01
:1092100006D1434B1800414B984701235B4274E051
:109220003C4B5B6818783B4B1B68197B1423FB187D
:1092300002223C4CA047031E02D001235B4264E0A3
:109240001423FB181B781B021AB21423FB185B783B
:109250001BB213431AB21623FB181A801623FA18EE
:109260000E23FB1812881B889A4205D27B680022C5
:109270001A7001235B4248E0264B5B685B885B0801
:109280009BB21622BA1812889A421BD9214B5B68EE
:109290001878204B1B68D97C1423FB180122214C21
:1092A000A047031E02D001235B422EE01423FB18CB
:1092B0001B781A001023134004D01B4B984702233D
:1092C0005B4222E0134B5B681878124B1B68597B9A
:1092D0000E23FB181B88DAB2BB68124CA047031E92
:1092E00002D001235B4210E01623FA180E23FB186C
:1092F000128819880D4B1000984703009BB2DBB20F
:10930000013BDAB27B681A7000231800BD4607B033
:1093100090BDC04644B8011038A00110758F0110EF
:1093200044A00110E9810010D9870010A570011038
:1093300090B585B000AF0200FB1D1A706D4B9B7C91
:10934000FA1D12789A4201D10023CEE0FB1D1B7852
:10935000002B5DD0674B5B681878664B1B681979EA
:109360000F23FB180122644CA047031E02D00123E7
:109370005B42BAE00F23FB181B7820229343DAB23A
:109380000F23FB181A705B4B5B681878594B1B68EE
:1093900019790F23FB180122584CA047031E02D055
:1093A00001235B42A1E00320554B98470F23FB1894
:1093B00002221A704F4B22229B5C002B09D00F23F4
:1093C000FB181B78802252421343DAB20F23FB189A
:1093D0001A70484B23229B5C002B08D00F23FB18EC
:1093E0001B7830221343DAB20F23FB181A70414B5B
:1093F0005B6818783F4B1B68D97D0F23FB1801224F
:109400003E4CA047031E00D16AE001235B426CE0A2
:10941000384B5B681878374B1B6819790F23FB189A
:109420000122354CA047031E02D001235B425CE0C1
:10943000304B9B7A1A000123134009D00F23FB18ED
:109440001B7820221343DAB20F23FB181A7008E0AE
:109450000F23FB181B7820229343DAB20F23FB184B
:109460001A70244B5B681878224B1B6819790F23FC
:10947000FB180122214CA047031E02D001235B42AE
:1094800033E003201E4B98471A4B22229B5C002B93
:1094900004D00F23FB1880221A7003E00F23FB185F
:1094A00000221A70134B23229B5C002B08D00F2341
:1094B000FB181B7830221343DAB20F23FB181A7003
:1094C0000C4B5B6818780B4B1B68D97D0F23FB187E
:1094D00001220A4CA047031E02D001235B4204E094
:1094E000044BFA1D12789A7400231800BD4605B08B
:1094F00090BDC04644B80110E9810010D58000102D
:10950000B9C4001080B582B000AF0200FB1D1A7014
:10951000044BFA1D222112785A5400231800BD462C
:1095200002B080BD44B8011090B585B000AF020014
:10953000FB1D1A70254B23229B5CFA1D12789A4260
:1095400001D100233EE0FB1D1B78002B04D00F232C
:10955000FB1830221A7003E00F23FB1800221A7048
:109560001A4B9B7C002B08D00F23FB181B78022280
:109570001343DAB20F23FB181A70144B22229B5CA0
:10958000002B09D00F23FB181B7880225242134373
:10959000DAB20F23FB181A700C4B5B6818780B4B70
:1095A0001B68D97D0F23FB180122094CA047031E1D
:1095B00002D001235B4205E0044BFA1D23211278FF
:1095C0005A5400231800BD4605B090BD44B80110A0
:1095D000D580001090B585B000AF3A60BB1D021C6D
:1095E0001A803B1D0A1C1A803B68002B02D1012304
:1095F0005B4245E0244B9B7A002B02D101235B4266
:109600003EE0BB1D1B881B0A9BB2DAB20C23FB1881
:109610001A70BB1D1B88DAB20C23FB185A700C237E
:10962000FB185B781A003B1D1B88D218164B5B6831
:109630005B899A4202DD01235B4221E0124B5B68A9
:109640001878114B1B68D97E0C23FB1802220F4C93
:10965000A047031E02D001235B4211E00A4B5B6866
:109660001878094B1B68197E3B1D1B88DAB23B68D2
:10967000064CA047031E02D001235B4200E00023FA
:109680001800BD4605B090BD44B80110D58000104B
:1096900090B585B000AF0200FB1D1A70284B242244
:1096A0009B5CFA1D12789A4201D1002344E0FB1D15
:1096B0001B78002B28D0224B25229B5C002B01D14C
:1096C000002339E000201F4B984700201E4B98478D
:1096D0001B4BDB8C18001D4B98470F23FB180022F7
:1096E0001A70174B5B6818780F23FB18012223218F
:1096F000174CA047124B2422012199540120114BF1
:109700009847144B984716E000200E4B98470C4B97
:109710001A7C0F23FB181A70094B5B6818780F230B
:10972000FB18012223210A4CA047054B24220021CB
:109730009954084B984700231800BD4605B090BDCA
:1097400044B80110AD83001031930010398D001022
:10975000D5800010D987001090B585B000AF0120EA
:10976000A94B98470F23FB180C221A7018E03A1DDA
:109770000F23FB181878130001220021A34CA047E7
:109780000300BB60BB68002B03D13B1D1B78482B3B
:109790000CD00F23FB181A780F23FB1801321A7014
:1097A0000F23FB181B780F2BE1D900E0C0460F23D5
:1097B000FB181B780F2B0AD9954B1800954B98472F
:1097C000954B1800934B984701235B4217E1934B4D
:1097D0000F22BA182A2112785A543B1D10221A70EF
:1097E0008E4B2A22985C3B1D01220A218C4CA047FB
:1097F000031E02D001235B4201E10120894B9847FF
:109800003B1D1F221A70854B2A22985C3B1D0122AA
:109810000A21834CA047031E02D001235B42EEE0E5
:109820000120804B98477D4B2A22985C3B1D0322E8
:109830001021764CA047031E02D001235B42DEE0DC
:109840003B1D1B789BB280339BB21AB2734B9A8537
:109850003B1D5B789BB280339BB21AB26F4BDA85AB
:109860003B1D9B789BB280339BB21AB26B4B1A861E
:109870003B1D10221A70694B2A22985C3B1D012265
:109880000A21674CA047031E02D001235B42B6E0C9
:109890000120644B984700205B4B98473B1D4022BA
:1098A0001A705E4B5B6818785C4B1B68997E3B1D99
:1098B00001225B4CA047031E02D001235B429EE0C5
:1098C000564B2A229B5C802252421343DAB23B1D44
:1098D0001A70524B5B681878504B1B68997F3B1D80
:1098E00001224F4CA047031E02D001235B4286E0B9
:1098F0003B1D02221A70494B5B681878474B1B6866
:10990000D97F3B1D0122464CA047031E02D00123F4
:109910005B4274E03B1D88221A70404B5B681878EC
:109920003E4B1B682022995C3B1D01223C4CA0470A
:10993000031E02D001235B4261E0384B2A229A5C6D
:109940003B1D1A70354B5B681878344B1B6821221D
:10995000995C3B1D0122324CA047031E02D001231B
:109960005B424CE03B1D0A221A702C4B5B68187856
:109970002A4B1B682222995C3B1D0122284CA047E0
:10998000031E02D001235B4239E03B1D81221A7085
:10999000224B5B681878214B1B682322995C3B1D86
:1099A00001221F4CA047031E02D001235B4226E088
:1099B0003B1D11221A70194B5B681878174B1B68F6
:1099C0002622995C3B1D0122154CA047031E02D0A4
:1099D00001235B4213E03B1D03221A700F4B5B68AF
:1099E00018780E4B1B682722995C3B1D01220C4CFA
:1099F000A047031E02D001235B4200E000231800B1
:109A0000BD4605B090BDC04631930010E9810010FD
:109A1000E49F01109590011070A4011044B801104A
:109A2000D5800010B9C4001090B587B000AF020017
:109A3000FB1D1A703B1D0A1C1A80FB1D1B78072298
:109A4000134005D03B1D1A88C823DB009A4202D977
:109A500001235B4212E13B1D1A888A4B1000984794
:109A6000021C894B8949101C9847031C3B610B233E
:109A7000FB181800864B98470B23FB181B78042B08
:109A800024D002DC022B05D074E0082B3AD0102B36
:109A900054D06FE07F4B8D21C90538699847031C6E
:109AA0001A1C1623FC187C4B101C984703002380BB
:109AB000784B7A4938699847031C1A1C1423FC1800
:109AC000754B101C98470300238056E0714B8C2186
:109AD000C90538699847031C1A1C1623FC186E4BDD
:109AE000101C9847030023806A4B6D4938699847DA
:109AF000031C1A1C1423FC18674B101C9847030006
:109B000023803AE0634B8B21C90538699847031CD1
:109B10001A1C1623FC18604B101C98470300238066
:109B20005C4B604938699847031C1A1C1423FC18C5
:109B3000594B101C9847030023801EE0554B8A2187
:109B4000C90538699847031C1A1C1623FC18524B88
:109B5000101C9847030023804E4B5349386998479F
:109B6000031C1A1C1423FC184B4B101C98470300B1
:109B7000238002E001235B4280E01623FB181B8850
:109B80001B0A9BB2DAB20C23FB181A701623FB18BF
:109B90001B88DAB20C23FB185A701423FB181B889D
:109BA0001B0A9BB2DAB20C23FB189A701423FB1821
:109BB0001B88DAB20C23FB18DA70FB1D1B7801221C
:109BC00013401AD00C23FA18EA235B000221180074
:109BD000364B9847031E02D001235B424EE00C2314
:109BE000FB180233922250001A0002212F4B984793
:109BF000031E02D001235B4240E0FB1D1B780222C2
:109C000013401AD00C23FA18EC235B000221180031
:109C1000264B9847031E02D001235B422EE00C2303
:109C2000FB180233942250001A0002211F4B984760
:109C3000031E02D001235B4220E0FB1D1B7804229F
:109C400013401AD00C23FA18EE235B0002211800EF
:109C5000164B9847031E02D001235B420EE00C23F3
:109C6000FB180233962250001A0002210F4B98472E
:109C7000031E02D001235B4200E000231800BD4612
:109C800007B090BD517E011045750110000048439A
:109C9000198B0010D9780110D974011000004046CA
:109CA0000000C045000040450000C044D5950010AC
:109CB00080B584B000AF0200FB1D1A700F23FB18A3
:109CC00000221A70FB1D1B780122134008D00F23BD
:109CD000FB181B7830221343DAB20F23FB181A70DB
:109CE000FB1D1B780222134008D00F23FB181B78A2
:109CF0000C221343DAB20F23FB181A70FB1D1B78DA
:109D00000422134008D00F23FB181B7803221343AF
:109D1000DAB20F23FB181A700F23FA18A4235B0082
:109D200001211800034B984703001800BD4604B0FA
:109D300080BDC046D595001080B584B000AF02004C
:109D4000FB1D1A70FB1D1B78002B03D1FB1D01228C
:109D50001A7006E0FB1D1B78042B02D9FB1D0422A0
:109D60001A70FB1D1B78013BDAB20F23FB181A7027
:109D70000F23FA185023FF3301211800034B984793
:109D800003001800BD4604B080BDC046D595001044
:109D900090B585B000AF0200BB1D1A800E23FC18E1
:109DA000BB1D1A88114B0521100098470300238022
:109DB0000E23FB181B881B0A9BB2DAB20C23FB187C
:109DC0001A700E23FB181B88DAB20C23FB185A708A
:109DD0000C23FA18EF235B0002211800044B98476C
:109DE00003001800BD4605B090BDC046A570011027
:109DF000D595001090B585B000AF0200BB1D1A804C
:109E00000E23FC18BB1D1A88114B05211000984722
:109E1000030023800E23FB181B881B0A9BB2DAB2B7
:109E20000C23FB181A700E23FB181B88DAB20C23C4
:109E3000FB185A700C23FA18ED235B00022118005E
:109E4000044B984703001800BD4605B090BDC046BE
:109E5000A5700110D595001080B584B000AF786072
:109E60000A00BB1C1A807868164BFA2291009847AA
:109E700003001A00BB1C1B885343FB60FB681B16C6
:109E8000DAB20823FB181A70FB681B14DAB2082335
:109E9000FB185A70FB681B12DAB20823FB189A7081
:109EA000FB68DAB20823FB18DA700823FA18AE232D
:109EB0005B0004211800044B984703001800BD46BE
:109EC00004B080BDB9710110D595001090B585B072
:109ED00000AF0200BB1D1A80BC1DBB1D1A88104BB1
:109EE00005211000984703002380BB1D1B881B0A17
:109EF0009BB2DAB20C23FB181A70BB1D1B88DAB2B6
:109F00000C23FB185A700C23FA18AD235B000221B6
:109F10001800044B984703001800BD4605B090BDDB
:109F2000A5700110D595001090B585B000AF020066
:109F3000BB1D1A80BC1DBB1D1A88104B05211000CB
:109F4000984703002380BB1D1B881B0A9BB2DAB213
:109F50000C23FB181A70BB1D1B88DAB20C23FB18EC
:109F60005A700C23FA18AC235B0002211800044B32
:109F7000984703001800BD4605B090BDA5700110BC
:109F8000D595001080B586B000AF0200BB1D1A80C9
:109F90000C23FB1802221A700C23FB18CA225A70D9
:109FA0000C23FB18E3229A700C23FB180922DA70A9
:109FB0000C23FB181A0004216820A84B98470C2397
:109FC000FB18A3221A70BB1D1B88402213400CD023
:109FD0000C23FB18C0225A700C23FB18C8229A705D
:109FE0000C23FB18C222DA700BE00C23FB18A3220F
:109FF0005A700C23FB18A3229A700C23FB18A3227F
:10A00000DA70BB1D1A88C0235B0013400CD00C23F0
:10A01000FB18C4221A710C23FB18CC225A710C2392
:10A02000FB18C6229A710BE00C23FB18A3221A71AD
:10A030000C23FB18A3225A710C23FB18A3229A713C
:10A040000C23FB18A322DA710C23FB18A3221A722B
:10A050000C23FB18A3225A720C23FB1880481A0009
:10A060000A217E4B9847BB1D1B880322134004D056
:10A070000C23FB1820221A7003E00C23FB18D822B3
:10A080001A700C23FB1877481A000121734B98476C
:10A09000BB1D1B882022134003D00120724B984720
:10A0A00002E00020704B9847BB1D1A88C0235B005C
:10A0B00013402DD0BB1D1A8880235B00134010D0A5
:10A0C0000C23FB18B2221A700C23FB188B225A7037
:10A0D0000C23FB18B6229A700C23FB189B22DA7013
:10A0E0000FE00C23FB18B0221A700C23FB188022FF
:10A0F0005A700C23FB18B4229A700C23FB18902280
:10A10000DA700C23FB1859481A000421534B984766
:10A11000BB1D1B880122134029D00C23FB18F822F9
:10A120001A700C23FA188B231B01012118004B4BCA
:10A130009847FA2107204E4B984707204D4B9847E8
:10A1400001204D4B984764204C4B9847FA235B0005
:10A1500018004B4B98474B4BC82118004A4B984767
:10A1600028204A4B98470A20494B98470BE00C237C
:10A17000FB18D8221A700C23FA188B231B0101211B
:10A180001800364B9847BB1D1B880222134004D091
:10A190000C23FB18D9221A7003E00C23FB18D822D9
:10A1A0001A700C23FB183B481A0001212B4B9847CF
:10A1B000BB1D1B880422134003D00120364B984757
:10A1C00002E00020344B9847BB1D1B88102213402F
:10A1D00003D00120314B984702E000202F4B9847D5
:10A1E000BB1D1B88082213439AB22D4B5A812D4B5D
:10A1F00098472B4B00229A73BB1D1B8840221340AB
:10A2000005D0274B9B7B0633DAB2254B9A73BB1DD7
:10A210001A88C0235B00134005D0214B9B7B06337B
:10A22000DAB21F4B9A73BB1D1B881422134005D052
:10A230001B4B9B7B1033DAB2194B9A73BB1D1B88E7
:10A240000322134005D0164B9B7B0433DAB2144B28
:10A250009A7300231800BD4606B080BDD595001046
:10A26000A70A0000B60A0000A9A20010A20A000076
:10A27000299A0010B19C0010399D0010919D00108A
:10A28000F59D001009E3CA02599E0010CD9E0010F2
:10A29000299F00103D07000021A3001091A300108A
:10A2A00014B90110D987001080B588B000AF020042
:10A2B000FB1D1A70FB1D1B78002B12D01423FA18FB
:10A2C000134B1000190009231A00124B984714234E
:10A2D000FA189723DB00092118000F4B9847030059
:10A2E00011E00823FA180D4B1000190009231A0079
:10A2F000084B98470823FA189723DB000921180018
:10A30000054B984703001800BD4608B080BDC04605
:10A310000CA501101B8E0110D595001018A5011079
:10A3200080B584B000AF0200FB1D1A70FB1D1B78C6
:10A33000002B10D00C23FB18C0221A700C23FB1822
:10A34000C2225A700C23FB18C4229A700C23FB18EB
:10A35000C622DA7006E00C23FB1804228B211800B9
:10A36000074B98470C23FB1806481A000421064B9C
:10A370009847064B984703001800BD4604B080BDBF
:10A380002D8E0110980A0000D5950010D987001075
:10A3900080B584B000AF0200FB1D1A70FB1D1B7856
:10A3A000002B10D00C23FB1820221A700C23FB1852
:10A3B00028225A700C23FB1830229A700C23FB18A9
:10A3C0003822DA7006E00C23FB180422A3211800BF
:10A3D000074B98470C23FB1806481A000421064B2C
:10A3E0009847064B984703001800BD4604B080BD4F
:10A3F0002D8E01109E0A0000D5950010D9870010FF
:10A4000080B584B000AF78607B6803331A780F237F
:10A41000FB183F218A431A707B6803331A780E2396
:10A42000FB183F210A401A707B6801331B781A0021
:10A43000012313401ED00D23FB180E22BA181278E8
:10A44000D2081A700E23FB181B7807221340DAB2C9
:10A450000C23FB1801321A70134B1B68002B09D018
:10A46000114B1B680C22BA1811780D22BA181278F9
:10A47000100098477B6801331B781A0008231340AB
:10A480000CD0094B5B68002B08D0074B5B680F2290
:10A49000BA1812789209D2B2100098470023180017
:10A4A000BD4604B080BDC04614B9011080B594B05B
:10A4B00000AFF860B9607A603B604F23FB18002260
:10A4C0001A70BB6D00221A80C64B9B7B9BB2FA6D43
:10A4D000242179181800C44B98470300BB64BB6C57
:10A4E000002B09D0C14B1800C14B9847C14B180035
:10A4F000C14B9847BB6C70E1BA4B5B891A001423BF
:10A50000134000D1AEE02423FB181B781A06242345
:10A51000FB185B781B041A432423FB189B781B024F
:10A5200013432422BA18D2781A437B681A607B68D6
:10A5300004332422BA18127911062422BA18527947
:10A54000120411432422BA18927912020A432421D8
:10A550007918C9790A431A607B6808332422BA182B
:10A56000127A11062422BA18527A120411432422B4
:10A57000BA18927A12020A4324217918C97A0A4336
:10A580001A607B680C332422BA18127B110624222D
:10A59000BA18527B120411432422BA18927B120279
:10A5A0000A4324217918C97B0A431A604F23FB18F8
:10A5B0004F22BA18127810321A707B681B681A146E
:10A5C0001423FB181A607B6804331B681A141423C5
:10A5D000FB185A607B6808331B681A141423FB1895
:10A5E0009A607B680C331B681A141423FB18DA601A
:10A5F0001423FB181A681423FB181B685A431423EE
:10A60000FB1859681423FB185B684B43D2181423BA
:10A61000FB1899681423FB189B684B43D21814232A
:10A62000FB18D9681423FB18DB684B43D3187B64F1
:10A630007B6C724A934204DD7A6C88235B059A42F4
:10A6400007DD6F4B9847BB6D00221A8001235B42E8
:10A65000C3E0BB6D00229B5E8022520013431AB2FE
:10A66000BB6D1A805F4B5B891A00402313404ED0AC
:10A670004F23FB181B782422BA18D35C1B021AB292
:10A680004F23FB181B78013324217918CB5C1BB2B4
:10A6900013431AB2BB681A80BB6802334F22BA1840
:10A6A00012780232242179188A5C120211B24F22E8
:10A6B000BA181278033224203818825C12B20A4386
:10A6C00012B21A80BB6804334F22BA1812780432CF
:10A6D000242179188A5C120211B24F22BA1812781A
:10A6E000053224203818825C12B20A4312B21A8052
:10A6F0004F23FB184F22BA18127806321A70BB6D1E
:10A7000000229B5E082213431AB2BB6D1A80354BA0
:10A710005B891A00C0235B0013404ED04F23FB1807
:10A720001B782422BA18D35C1B021AB24F23FB18E1
:10A730001B78013324217918CB5C1BB213431AB266
:10A74000FB681A80FB6802334F22BA181278023273
:10A75000242179188A5C120211B24F22BA18127899
:10A76000033224203818825C12B20A4312B21A80D3
:10A77000FB6804334F22BA18127804322421791866
:10A780008A5C120211B24F22BA18127805322420C4
:10A790003818825C12B20A4312B21A804F23FB1897
:10A7A0004F22BA18127806321A70BB6D00229B5ED7
:10A7B000702213431AB2BB6D1A800A4B5B891A00D0
:10A7C0000323134008D04F23FB181B782422BA1808
:10A7D000D31818000B4B984700231800BD4614B03F
:10A7E00080BDC04614B90110E19100103CA50110D4
:10A7F0009590011040A50110758F0110FFFFFF0E0D
:10A80000D987001001A40010B0B586B004AFFB1DBD
:10A81000E2221A70FC1D1B4B984703002370FB1D9E
:10A820001B78002B0AD0184B1800184B9847184B70
:10A830001800184B9847FB1D1B781EE0FC1D0023D9
:10A8400002931E230193C823DB0000930023002200
:10A8500001210020104DA84703002370FB1D1B7829
:10A86000002B09D1084B1800084B98470B4B1800D8
:10A87000084B9847002300E0E2231800BD4602B0D1
:10A88000B0BDC046E127011074A5011095900110DC
:10A8900078A50110758F0110AD480110B0A5011009
:10A8A00080B582B000AF3B1D1800114B98473B1D8F
:10A8B00000221A703B1D02225A703B1D0122DA70E1
:10A8C0003B1D19001F200B4B98473B1D1800084BE0
:10A8D00098473B1D00221A703B1D00225A703B1DF9
:10A8E00019001720034B9847C046BD4602B080BDF3
:10A8F00081CA0010A9CA001080B500AF084B02221F
:10A9000019001720074B98471720074B9847074B0C
:10A91000022219001F20034B9847C046BD4680BD48
:10A920006DA90010EDD00010D5D3001031A9001092
:10A93000B0B500AF094B1B78002B0BD01F20084B84
:10A940009847084B01221A700023002202211F2081
:10A95000054CA047C046BD46B0BDC04678B9011001
:10A960009DD40010A8C00110AD330110B0B500AFE8
:10A97000094B1B78002B0BD01720084B9847084B2E
:10A9800002221A700023002202211720054CA04742
:10A99000C046BD46B0BDC04678B901109DD4001078
:10A9A000A8C00110AD33011090B583B000AF144BB7
:10A9B0001B78FF2B04D0124B1B780133DAB200E076
:10A9C00000220F4B1A700F4B9B8AFC1D0C49012271
:10A9D00018000D4B984703002370FB1D1B78002BBC
:10A9E0000AD10A4B1A88074B9B8AFC1D19001000DC
:10A9F000074B984703002370C046BD4603B090BD87
:10AA0000BCC00110C4C001106D51011064C101101F
:10AA10000D53011080B500AF2B4B98472B4B984737
:10AA2000031E03D02A4B00221A7002E0284B012299
:10AA30001A70274B1B78002B17D0264B1B78002B46
:10AA400013D0254B06221A70244B1800244B98472C
:10AA5000244B98470200214B9A1A234BDA60224B71
:10AA6000DB685A09204BDA6027E0194B1B78002B72
:10AA700011D0184B1B7801225340DBB2002B0AD0B7
:10AA8000154B03221A70194B1800154B98470120DB
:10AA9000174B984711E00E4B1B7801225340DBB255
:10AAA000002B07D00B4B1B78002B03D00A4B022244
:10AAB0001A7002E0084B00221A7017200D4B9847BD
:10AAC000C046BD4680BDC04615AF0010C5B50010DC
:10AAD000C0C1011094C10110C3C001100000504654
:10AAE00021BE00103DC50010ACC00110CC0C000010
:10AAF0005DBE0010D5D3001080B582B000AF786085
:10AB000039607B6800225A827B6802221A707B6857
:10AB100000225A707B6800229A707B685722DA7094
:10AB20007B681C221A717B6800225A717B680022A4
:10AB30009A717B68BE22DA717B685A221A727B682E
:10AB400000225A727B6800229A727B683022DA7285
:10AB50007B6850221A737B6800225A737B6800223C
:10AB60009A737B68BB22DA737B68BB221A747B689A
:10AB700012221A857B683A68DA627B6801221A869B
:10AB80007B6801225A867B683422112199547B68A4
:10AB900000229A637B6800229A877B680022DA870A
:10ABA0007B684422002199547B68452200219954F6
:10ABB0007B684622002199547B68482200219952E3
:10ABC0007B684A22002199527B684C2200219952CD
:10ABD0007B6800221A64C046BD4602B080BDC046F4
:10ABE00090B585B002AF786078687B681233190041
:10ABF0007B68143301220192009300230022034C4E
:10AC0000A04703001800BD4603B090BD39510110A4
:10AC100080B582B000AF7860C0467B6828229B5C1C
:10AC2000DB07DB0FDBB2002BF7D1C046BD4602B01D
:10AC300080BDC04680B582B000AF78607B681800E8
:10AC4000044B98477B6801221A75C046BD4602B086
:10AC500080BDC04611AC001080B582B000AF7860F6
:10AC60000A00FB1C1A707B685B7CDBB25AB2FB1CCF
:10AC70001B78012199400B005BB213435BB2DAB23F
:10AC80007B685A74C046BD4602B080BD80B586B0B0
:10AC900000AF2F4B18002F4B98472F4B18002F4B0E
:10ACA000984710202E4B984703001A002D4B5A60EE
:10ACB00010202B4B984703001A002B4B5A60172388
:10ACC000FB1800221A7016E0264B5A681723FB184F
:10ACD0001B78D31800221A70234B5A681723FB18CD
:10ACE0001B78D31800221A701723FB181A78172321
:10ACF000FB1801321A701723FB181B780F2BE3D9AE
:10AD00003B001800194B98473B0003221A703B0088
:10AD100008225A803B0008225A603B000922DA6070
:10AD20003B0002229A603B0002221A61C0463A00B0
:10AD30000F49104B1800104B9847031EF7D10D4BCD
:10AD40001B6818000D4B9847C046BD4606B080BD35
:10AD5000E4A5011095900110E8A50110758F011070
:10AD6000E98D011018C20110E8C1011025D80010AA
:10AD700000300040BCC20110B5D8001035AC001046
:10AD800080B500AF024B01221A70C046BD4680BD9F
:10AD9000AAC0011080B500AF024B01221A70C04654
:10ADA000BD4680BD66C1011080B500AF134B1800D1
:10ADB000134B9847134B1800134B9847134B002223
:10ADC0001A70134B00221A701249134B00221800FC
:10ADD000124B98471249104B012218000F4B98470D
:10ADE0000D4B002118000F4B98470B4B0121180009
:10ADF0000C4B9847C046BD4680BDC046E4A5011037
:10AE0000959001101CA60110758F0110AAC00110A9
:10AE100066C1011081AD0010BCC20110F9DA00104A
:10AE200095AD001059AC001080B582B000AF7860CD
:10AE3000C0467B6828229B5CDB07DB0FDBB2002B64
:10AE4000F7D1C046BD4602B080BDC04680B582B0D5
:10AE500000AF78607B681800044B98477B6800223D
:10AE60001A75C046BD4602B080BDC04629AE00106E
:10AE700080B582B000AF3B1D1800104B98473B1DBA
:10AE800000221A703B1D02225A703B1D0122DA700B
:10AE90003B1D19001D200A4B98473B1D1800074B0E
:10AEA00098473B1D01221A703B1D19000520044BD9
:10AEB0009847C046BD4602B080BDC04681CA00105A
:10AEC000A9CA001080B500AF044B022219001D2052
:10AED000034B9847C046BD4680BDC046E5AE001056
:10AEE000EDD00010B0B500AF1D20074B9847074BC1
:10AEF00003221A700023002202211D20044CA047C7
:10AF0000C046BD46B0BDC0469DD40010A8C00110CB
:10AF1000AD33011080B500AF104B00225A70104BBA
:10AF20009847031E12D10D4B01221A700D4B984702
:10AF3000031E0FD0094B01225A700B4B18000B4B0C
:10AF400098470B4B18000B4B984703E00A4B18002F
:10AF50000A4B9847C046BD4680BDC04694C101100B
:10AF600081AF0010CDAF001068A6011095900110C0
:10AF70006CA60110758F0110BCC201104DAE0010FF
:10AF800080B582B000AF0B4B18000B4B98470B4BB2
:10AF900018000B4B98473B000A4A1A603B001D22E1
:10AFA0005A603B001800084B984703001800BD4644
:10AFB00002B080BD68A601109590011094A6011002
:10AFC000758F0110E5AE00108184001080B582B04D
:10AFD00000AF7820274B9847031E02D001235B4225
:10AFE00043E07820244B9847031E02D001235B42A4
:10AFF0003BE00420214B9847031E02D001235B4213
:10B0000033E0BB1D18001E4B9847031E02D00123DE
:10B010005B422AE03B1D18001A4B9847031E02D0E2
:10B0200001235B4221E0FB1C1800174B9847031ECD
:10B0300002D001235B4218E0144BC0229A83134BC9
:10B040009B8B1800124B9847031E0AD0114B180017
:10B05000114B9847114B1800114B984701235B4245
:10B0600003E01D200F4B984700231800BD4602B097
:10B0700080BDC046B58F0010F58E0010398D0010D0
:10B08000098D0010ED890010198B001024B90110F2
:10B09000859F001068A6011095900110C0A60110B0
:10B0A000758F0110D5D3001090B591B002AF784BD9
:10B0B0002422012199543C003A1D2423F9182C2301
:10B0C000F8182123FB1801932223FB180093230077
:10B0D000704CA04703007B637B6B002B31D06E4B21
:10B0E00018006E4B98477A6B6D4B110018006D4B32
:10B0F00098477B6B01330AD16B4B01225A70664B28
:10B100001800664B9847694B1800664B98477B6B55
:10B11000023300D0B4E0664BC0229A83644B9B8B11
:10B120001800644B9847031E02D001235B42ABE03A
:10B130000120614B9847031E00D1A1E001235B422F
:10B14000A2E02423FB1800229B5EDAB25B4B1A704C
:10B150002423FB1800229B5E1B121BB2DAB2574B52
:10B160005A702423FB1802229B5EDAB2534B9A706A
:10B170002423FB1802229B5E1B121BB2DAB24F4B38
:10B18000DA702423FB1804229B5EDAB24B4B1A714F
:10B190002423FB1804229B5E1B121BB2DAB2474B1E
:10B1A0005A712C23FB1800229B5EDAB2434B9A7132
:10B1B0002C23FB1800229B5E1B121BB2DAB23F4B02
:10B1C000DA712C23FB1802229B5EDAB23B4B1A7217
:10B1D0002C23FB1802229B5E1B121BB2DAB2374BE8
:10B1E0005A722C23FB1804229B5EDAB2334B9A72FC
:10B1F0002C23FB1804229B5E1B121BB2DAB22F4BCE
:10B20000DA722F4B9B8A3322BC182C490C2218006F
:10B210002C4B9847030023703323FB181B78002B1B
:10B220000CD01D4B18001D4B98473323FB181A7880
:10B23000254B110018001B4B984721E0234B1A881F
:10B240001F4B9B8A33217C1819001000204B984714
:10B25000030023703323FB181B78002B08D00E4B00
:10B2600018000E4B98471B4B18000E4B984707E0F1
:10B27000094B1800094B9847174B1800094B984782
:10B280001D20164B984700231800BD460FB090BDF7
:10B2900044B80110ADA4001068A6011095900110EB
:10B2A000F8A60110758F011094C101100CA70110B0
:10B2B00024B90110859F001091960010B0C20110B2
:10B2C00014C101106D51011034A7011064C10110A7
:10B2D0000D5301107CA70110B0A70110D5D30010A9
:10B2E00080B582B000AF786039607B6800225A82F6
:10B2F0007B6802221A707B6800225A707B680022E9
:10B300009A707B685722DA707B681C221A717B68FE
:10B3100000225A717B6800229A717B68BE22DA7122
:10B320007B685A221A727B6800225A727B6800225C
:10B330009A727B683022DA727B6850221A737B68BB
:10B3400000225A737B6800229A737B681122DA7399
:10B350007B6811221A747B6812221A857B683A680E
:10B36000DA627B680C221A867B680C225A867B681C
:10B370003422112199547B6800229A637B68002251
:10B380009A877B680022DA877B68442200219954DF
:10B390007B684522002199547B68462200219954FC
:10B3A0007B684822002199527B684A2200219952E9
:10B3B0007B684C22002199527B6800221A64C046A7
:10B3C000BD4602B080BDC04690B585B002AF786082
:10B3D00078687B68123319007B681433012201926C
:10B3E000009300230022034CA04703001800BD4631
:10B3F00003B090BD3951011090B583B002AF0A4B34
:10B40000242201219954094B1E221A70084C074A24
:10B4100008490948012300932300084CA047C0466F
:10B42000BD4601B090BDC046C0C10110B0C1011001
:10B43000A0C10110FCC1011020C2011015BD0010F7
:10B4400090B583B002AF594BA2221A70574B00221D
:10B450005A70564B00229A70554C544A55495648DA
:10B46000032300932300554CA047514B5B781B02EC
:10B470001AB24F4B9B781BB213431BB29AB2504B7C
:10B480009A804A4BA4221A70494C484A49494A4872
:10B49000032300932300494CA047454B5B781B02D4
:10B4A0001AB2434B9B781BB213431BB29AB2444B64
:10B4B000DA803E4BA6221A703D4C3C4A3D493E483C
:10B4C0000323009323003D4CA047394B5B781B02BC
:10B4D0001AB2374B9B781BB213431BB29AB2384B4C
:10B4E0001A81324BA8221A70314C304A3149324805
:10B4F000032300932300314CA0472D4B5B781B02A4
:10B500001AB22B4B9B781BB213431BB29AB22C4B33
:10B510005A81264BAA221A70254C244A25492648CE
:10B52000032300932300254CA047214B5B781B028B
:10B530001AB21F4B9B781BB213431BB29AB2204B1B
:10B540009A811A4BAC221A70194C184A19491A4898
:10B55000032300932300194CA047154B5B781B0273
:10B560001AB2134B9B781BB213431BB29AB2144B03
:10B57000DA810E4BAE221A700D4C0C4A0D490E4862
:10B580000323009323000D4CA047094B5B781B025B
:10B590001AB2074B9B781BB213431BB29AB2084BEB
:10B5A0001A8200231800BD4601B090BDB0C1011041
:10B5B000A0C10110FCC1011020C2011015BD001076
:10B5C000C0C1011080B500AF064B00221A70064BB7
:10B5D00098470320054B9847054B984703001800F0
:10B5E000BD4680BDC0C10110F9B30010B9C4001040
:10B5F00041B4001080B500AF064B9847031E06D13A
:10B60000054B24229B5C002B01D0044B9847C0467D
:10B61000BD4680BD21B60010C0C1011025B7001085
:10B6200090B583B002AF394B24229B5C012253407A
:10B63000DBB2002B33D0364B00221A70344B002281
:10B640005A70334B00229A70314B0022DA70314C21
:10B650002F4A31493148042300932300304CA0473E
:10B660002C4B5B781A042B4B9B781B021343294A03
:10B67000D27813431A00254B9A61254B42221A7047
:10B68000244C234A24492548012300932300244CB9
:10B69000A0471E4B242201219954002332E01C4B69
:10B6A00000221A701A4B00225A70194B00229A700D
:10B6B000174B0022DA70174C154A17491748042314
:10B6C00000932300164CA047124B5B781A04114BD1
:10B6D0009B781B0213430F4AD27813431A000B4B7B
:10B6E0005A610B4B52221A700A4C094A0A490B48FC
:10B6F0000123009323000A4CA047044B242200217D
:10B70000995400231800BD4601B090BDC0C101107E
:10B71000B0C10110A0C10110FCC1011020C2011074
:10B7200015BD0010B0B5A2B000AFC54B9B891C0081
:10B7300000231D00230E2A021A432102C14B196067
:10B740005A60BF4B9A69BF4B5C681B68D31A1A00DA
:10B75000BD4B1A60BA4BDB893B6400237B64BA4B58
:10B760001B68BB63DB17FB63B84CBA6BFB6B386CB5
:10B77000796CA04703000C0019002200B14B19603E
:10B780005A60B04B5C681B686202D90DB967B96F2B
:10B790001143B967E315FB67AD4BB96FFA6F1960D9
:10B7A0005A60AB4B5C681B68FA22D2009446634433
:10B7B0001A00A34B1A62A24BDB883B6300237B6316
:10B7C000396B7A6B0B001B0C100000047867786FE4
:10B7D000184378670B001B043B679A4B396F7A6FED
:10B7E00019605A60964B5B89BB620023FB62964BE3
:10B7F0001B683B62DB177B62944C3A6A7B6AB86ACF
:10B80000F96AA04703000C0019002200904B196050
:10B810005A608F4B5C681B686206D909B966B96EBD
:10B820001143B966E311FB668A4BB96EFA6E196073
:10B830005A60844B19685A68864B5C681B685B18B1
:10B840005441854A136054607D4B9B88BB61002343
:10B85000FB61B969FA690B005B0C1000C0037866E4
:10B86000786E184378660B00DB033B66754B396EC8
:10B870007A6E19605A60724B1B893B6100237B61B1
:10B88000714B1B68BB60DB17FB60704CBA68FB68D0
:10B8900038697969A04703000C006D4A1360546051
:10B8A0006B4B5C681B682206190AB965B96D1143B8
:10B8B000B9652312FB65674BB96DFA6D19605A6063
:10B8C000604B19685A68634B5C681B685B1854418D
:10B8D000624A136054605A4B5B693B6000237B6093
:10B8E0005E4B5C681B68594D1A0023003868796804
:10B8F000A84703000C00E202590D3965396D114368
:10B90000396563157B654F4B396D7A6D19605A60E7
:10B910004C4B19685A68504B5C681B68C91AA241A5
:10B920000B0014004A4A13605460494B5C681B6862
:10B930006204D90BB964B96C1143B964E313FB64B5
:10B94000BA6C3F4BDA61464B1800464B98473C4B6C
:10B95000196A3B4BDA69444B1800444B9847384B03
:10B960001B6ADAB2424B1A70354B1B6A1B12DAB2F1
:10B970003F4B5A70324B1B6A1B14DAB23C4B9A7025
:10B980002F4B1B6A1B16DAB2394BDA702C4BDB6972
:10B99000DAB2374B1A712A4BDB691B12DAB2344B1D
:10B9A0005A71274BDB691B14DAB2314B9A71244B65
:10B9B000DB691B16DAB22E4BDA712E4B9B8A87227B
:10B9C000BC182B49082218002B4B98470300237002
:10B9D0008723FB181B78002B0CD0214B1800214B20
:10B9E00098478723FB181A78244B110018001F4B27
:10B9F000984721E0224B1A881E4B9B8A87217C188E
:10BA0000190010001F4B9847030023708723FB1871
:10BA10001B78002B08D0124B1800124B98471A4B7A
:10BA20001800124B984707E00D4B18000D4B984734
:10BA3000164B18000D4B9847C046BD4622B0B0BD0E
:10BA4000C0C1011048B9011050B901108174011032
:10BA500058B9011060B9011068B9011070B901102E
:10BA6000E0A7011095900110E4A70110758F011057
:10BA70004CC2011054C201106D5101102CA80110CC
:10BA800064C101100D5301107CA80110B8A8011069
:10BA900080B582B000AF786039607B6800225A823E
:10BAA0007B6802221A707B6800225A707B68002231
:10BAB0009A707B685722DA707B681C221A717B6847
:10BAC00000225A717B6800229A717B68BE22DA716B
:10BAD0007B685A221A727B6800225A727B680022A5
:10BAE0009A727B683022DA727B6850221A737B6804
:10BAF00000225A737B6800229A737B68EE22DA7305
:10BB00007B68EE221A747B6812221A857B683A6879
:10BB1000DA627B6808221A867B6808225A867B686C
:10BB20003422112199547B6800229A637B68002299
:10BB30009A877B680022DA877B6844220021995427
:10BB40007B684522002199547B6846220021995444
:10BB50007B684822002199527B684A220021995231
:10BB60007B684C22002199527B6800221A64C046EF
:10BB7000BD4602B080BDC04690B585B002AF7860CA
:10BB800078687B68123319007B68143301220192B4
:10BB9000009300230022034CA04703001800BD4679
:10BBA00003B090BD3951011080B58CB000AF294B66
:10BBB0001800294B9847294B1800294B98473B1DE3
:10BBC0001800284B98473B1D10221A703A1D264B2F
:10BBD00011001800254B98470823FB181800244B28
:10BBE00098470823FB1868221A710823FB180022C3
:10BBF0009A700823FB1811229A600823FB1804226C
:10BC00009A610823FB181322DA600823FB18042228
:10BC1000DA610823FB18012252421A610823FB183B
:10BC2000012252421A620823FB1812225A61082389
:10BC3000FB1804225A620823FA180E490E4B18000A
:10BC40000E4B98470C4B18000D4B9847C046BD460D
:10BC50000CB080BDF0A8011095900110F4A801105F
:10BC6000758F011081E00010FCC1011005E100108A
:10BC7000A5E000100070004020C20110C5E10010D6
:10BC8000C1E3001080B582B000AF7860034B0122A1
:10BC90001A70C046BD4602B080BDC046BDC001108E
:10BCA00080B500AF114B1800114B9847114B18008D
:10BCB000114B9847114B00221A701149114B022267
:10BCC0001800114B98470E49104B022218000E4BDA
:10BCD00098470C4B022118000D4B98470B4B022143
:10BCE00018000B4B9847C046BD4680BDF0A8011018
:10BCF000959001103CA90110758F0110BDC0011075
:10BD000085BC001020C20110CDEC001068C10110EC
:10BD100011ED001090B587B000AFF860B9607A609F
:10BD20003B60B968FB68012218001A4B98471A4B10
:10BD300000221A702823FB181B883A687968F86873
:10BD4000164CA047C046144B1B78DBB2012253406F
:10BD5000DBB2002BF7D1104B00221A701623FB1810
:10BD600000221A8006E01623FB181A881623FB18F7
:10BD700001321A801623FB181B88FE2BF3D9B968F1
:10BD8000FB6800221800034B984700231800BD46AB
:10BD900007B090BD75E40010BDC00110D1ED0010DA
:10BDA00080B582B000AF0200FB1D1A70064BFA1D71
:10BDB000127811001F220A40012191400A001A60E6
:10BDC000C046BD4602B080BD00E100E080B582B053
:10BDD00000AF0200FB1D1A70074AFB1D1B781900FB
:10BDE0001F230B40012199400B0019008023D150E3
:10BDF000C046BD4602B080BD00E100E0B0B500AF76
:10BE0000054B04221A700023002203214220034C18
:10BE1000A047C046BD46B0BDA8C00110AD3301105B
:10BE200080B584B000AF78600823FB181800094B78
:10BE300098470823FB1800225A700823FB187A68D9
:10BE40005A600823FB181800034B9847C046BD46AC
:10BE500004B080BD19C50010C1C5001080B582B006
:10BE600000AF0200FB1D1A70FB1D1B78002B07D0D2
:10BE7000084B1800084B98471B20084B984704E0D4
:10BE8000074B98471B20074B9847C046BD4602B05A
:10BE900080BDC046FDBD00106DC50010A1BD0010E5
:10BEA00089C50010CDBD001080B588B000AF3B1D26
:10BEB00018000B4B98473B1D0A4A9A603B1D094AE4
:10BEC0005A613B1D1800084B98470020074B9847C4
:10BED0000120064B9847C046BD4608B080BDC0460D
:10BEE000C1C60010906500006DC80010CDC70010DD
:10BEF00080B582B000AF78600B4B18000B4B9847B1
:10BF00000B4B18000B4B9847074B1800074B9847F3
:10BF1000094B1800074B9847084B98470023180017
:10BF2000BD4602B080BDC0467CA9011095900110AD
:10BF300080A90110758F0110B0A90110ED3A011010
:10BF400080B584B000AF78600A4B18000A4B984760
:10BF50000A4B18000A4B98477B68FB60FB681A89FC
:10BF6000084B1A80084B01221A7000231800BD46A6
:10BF700004B080BD7CA9011095900110C4A90110E6
:10BF8000758F011064C1011078B9011080B582B0BD
:10BF900000AF78600D4B00221A700D4B18000D4B4E
:10BFA00098470D4B18000D4B98470D4B1B78072BEE
:10BFB00004D89A000B4BD3181B689F46C0460A4B07
:10BFC000984700231800BD4602B080BD78B9011023
:10BFD0007CA9011095900110F0A90110758F011036
:10BFE000C3C00110C4AB011009A8001080B582B015
:10BFF00000AF7860084B1800084B9847084B1800B2
:10C00000084B9847084B1800064B98470023180028
:10C01000BD4602B080BDC0467CA9011095900110BC
:10C0200024AA0110758F011050AA011080B584B0A8
:10C0300000AF78607B68FB60FB68DB78002B09D180
:10C04000074B1800074B9847074B1800074B9847BA
:10C05000002300E0E2231800BD4604B080BDC046C6
:10C060007CA901109590011064AA0110758F011030
:10C0700080B582B000AF786000231800BD4602B0E2
:10C0800080BDC04680B500AF024B01225A70C04649
:10C09000BD4680BDA8C0011080B500AF084B9847D1
:10C0A000084B9847084B9847084B1B78012B03D146
:10C0B000074B9847074B9847C046BD4680BDC046D2
:10C0C000B12E0110992B0110A9BE00107CB80110EF
:10C0D000A9BB00108DAC001090B583B000AF954B9C
:10C0E00000221A70944B00221A70934B00225A704F
:10C0F000924B00221A70914B00225A70904B984735
:10C10000904B9847904B9847904B9847904B18000E
:10C11000904B9847904B1800904B98470020904BBD
:10C120009847904B9847904B9847904B9847904B27
:10C130009847904B1B78012B09D18F4B98478F4B19
:10C1400098478F4B98478F4B98478F4B98478F4B0B
:10C1500018008F4B98478F4B00221A708D4A8E4BD8
:10C16000110018008D4B9847BC1D8B4B18008C4B51
:10C170009847030023707F4B1B78012B29D1FB1DAF
:10C1800000221A7009E0FB1D1B78864A0021D15459
:10C19000FB1D1A78FB1D01321A70FB1D1B780B2B3F
:10C1A000F1D9814B00211800804B9847BC1D7E4B74
:10C1B00018007F4B9847030023707E4B0021180026
:10C1C0007D4B9847BC1D7B4B18007C4B9847030068
:10C1D00023707B4B1A00002100207A4B98477A4B42
:10C1E0001A0002210020774B9847784B1800784BB3
:10C1F0009847784B984701235B421800764B984745
:10C200004D4B5B78DBB2002BF5D04F4B98474A4B38
:10C210001B78DBB2062B00D984E09A006F4BD31851
:10C220001B689F464A4B18004A4B98476C4B1800B6
:10C230004A4B98476B4B984775E0454B1800454B68
:10C240009847694B1800454B9847684B98476AE0F8
:10C250003A4B1B78002B01D0654B9847374B5B78E6
:10C26000DBB2002B01D0634B9847634B9847020029
:10C27000624B9A1A624B9A60614B9A68604BDB681A
:10C28000D31A5B093B60324B1800324B98473A682F
:10C290005C4B11001800314B98473B685A4A934257
:10C2A00016D95A4B1B78002B12D0594B18002B4B28
:10C2B0009847534B9A68524BDA6001210520554B41
:10C2C0009847554B984700210520524B98472AE044
:10C2D000524B1800214B984725E01D4B18001D4B71
:10C2E00098474F4B18001D4B984701210520494B9B
:10C2F0009847494B984700210520464B984712E044
:10C30000134B1800134B9847464B1800134B984794
:10C3100009E00F4B18000F4B9847434B18000F4B89
:10C32000984700E0C046044B04221A70024B0022DA
:10C330005A7060E7F8C10110A8C0011094C1011043
:10C3400015300110E9D60010553A0110992B011053
:10C350007CA9011095900110ACAA0110758F0110F5
:10C36000FD070110A9BE001061C40010A1A80010B3
:10C37000F9A800107CB8011071AE0010A9BB001024
:10C38000A1BC00108DAC0010A9AD001099C0001028
:10C390004D3B011067C10110C4C00110F9AA001083
:10C3A000E1AB0010A4C2011014C10110E1B20010F1
:10C3B000C9B3001054C2011091BA001079BB00102B
:10C3C000E4AB0110C50B011030AC011085C00010AA
:10C3D000692A011009A80010A507011058AC011026
:10C3E000D0AA0110A9A90010ECAA011015AA0010EA
:10C3F000A9B0001015AF00103DC500100000504658
:10C40000ACC0011008AB0110E7030000C0C101106F
:10C4100028AB011015CD0010F5B5001040AB011090
:10C420004CAB01107CAB0110A0AB011080B582B009
:10C4300000AF78607B68002B0CD0084B7A685A609C
:10C44000064B00229A60C046044B1A6880235B02A8
:10C450001340F9D0C046BD4602B080BD10E000E0F8
:10C4600080B500AF0F4B984702000F4B1A600E4B80
:10C4700018680E4BFA229100984703001A000A4BE5
:10C480001A60094B1868094BFA229100984703007B
:10C490001A00074B1A60074B05221A60C046BD46BA
:10C4A00080BDC046D5EE001080B80110A570011007
:10C4B00084B8011010E000E080B582B000AF786071
:10C4C00004E0074B1B681800064B98477B685A1E10
:10C4D0007A60002BF5D1C046BD4602B080BDC04693
:10C4E00080B801102DC4001080B584B000AF786012
:10C4F0000023FB600023FB6003E0C046FB680133C0
:10C50000FB607B6864225A43FB689A42F5D8C046B8
:10C51000BD4604B080BDC04680B582B000AF786033
:10C520007B6801221A707B6801225A707B68FA22AC
:10C53000D2015A60C046BD4602B080BD80B500AF92
:10C54000024BDB681800BD4680BDC04600D00040ED
:10C5500080B500AF044B044A126810210A431A60E8
:10C56000C046BD4680BDC04600D0004080B582B008
:10C5700000AF7860034B7A681A60C046BD4602B0CF
:10C5800080BDC0467CB9011080B500AF024B0022CF
:10C590001A60C046BD4680BD7CB9011080B500AFB1
:10C5A000054B9847054B1B68002B02D0034B1B68BB
:10C5B0009847C046BD4680BD51C500107CB90110EA
:10C5C00080B584B000AF78600023FB60364B00225A
:10C5D0001A737B681B78022B08D1334A324B1B7BC2
:10C5E000DBB203210B43DBB213730BE07B681B78D8
:10C5F000012B07D12C4A2C4B1B7BDBB201210B43B7
:10C60000DBB21373294B1B68FB6018E0274B002239
:10C610001A600320264B984702E0244B1B68FB60FE
:10C620007B685B78002B02D180239B0001E0802394
:10C63000DB01FA681340F0D11C4B1B68FB60FB6800
:10C640005B005B08E2D17B685B78002B07D1174A5F
:10C650007B685B685360154B01221A6006E0134A41
:10C660007B685B685360114B02221A607B685B78C1
:10C67000012B0CD1C0460D4B1A68E023DB011A4098
:10C68000E023DB019A42F6D1084B00221A60094BE5
:10C6900000221A60084B19002B20084B9847C0460F
:10C6A000BD4604B080BDC04600E0004000D0004060
:10C6B000E9C400107CB901109DC500109DFB00105D
:10C6C00080B582B000AF78607B6801221A707B6809
:10C6D00001221A737B6802225A707B6802225A7305
:10C6E0007B6801229A707B6801229A737B68002222
:10C6F000DA707B680022DA737B6801221A717B682A
:10C7000001221A747B6800229A607B6800225A61B9
:10C710007B6800221A76C046BD4602B080BDC04686
:10C7200080B582B000AF0200FB1D1A70FB1D1B78A4
:10C73000002B03D1054B1B7DDBB203E0034A3423FE
:10C74000D35CDBB21800BD4602B080BD00100040D3
:10C7500080B582B000AF0200FB1D1A70FB1D1B7874
:10C76000002B03D1054B01221A7303E0034A2C234B
:10C770000121D154C046BD4602B080BD001000402A
:10C7800080B582B000AF0200FB1D1A70FB1D1B7844
:10C79000002B09D10C490C4B1B7ADBB28022524290
:10C7A0001343DBB20B720AE00749074A2823D35C24
:10C7B000DBB2802252421343DAB22823CA54C04665
:10C7C000BD4602B080BDC0460010004080B582B0BA
:10C7D00000AF0200FB1D1A70FB1D1B78002B08D157
:10C7E0000B4A0B4B1B7ADBB27F210B40DBB213727F
:10C7F00009E0074A06492823CB5CDBB27F210B40C6
:10C80000D9B22823D154C046BD4602B080BDC0462F
:10C810000010004080B500AF0020104B9847031E69
:10C8200009D000200E4B98470E4B1B68002B02D0FE
:10C830000C4B1B6898470120084B9847031E09D0F2
:10C840000120074B9847084B1B68002B02D0064B72
:10C850001B689847C046BD4680BDC04621C7001032
:10C8600051C7001080B9011084B9011080B584B09F
:10C8700000AF78600F23FB1800221A7004206D4B64
:10C8800098477B681B78002B03D17B681B7B002BB0
:10C8900014D0694B684AD26820210A43DA60664A9C
:10C8A0007B681B7E191C03230B40D9B293690320BC
:10C8B00001400901302083430B4393617B681B785F
:10C8C000002B54D07B685B78002B04D10F23FB181E
:10C8D00001221A7010E07B685B78012B04D10F23D2
:10C8E000FB1800221A7007E07B685B78022B03D1EB
:10C8F0000F23FB1840221A707B689B78DB18DBB291
:10C9000002221340DAB27B68DB789B00DBB20C2199
:10C910000B40DBB21343D9B20F23FB180F22BA1816
:10C9200012780A431A707B681B79002B07D00F23FB
:10C93000FB180F22BA18127820210A431A703F4AB6
:10C940007B689B6813603D4A0F23FB181B781372AA
:10C95000394A3949C4235B00CB5CDBB201210B436C
:10C96000D9B2C4235B00D1540020354B98477B6873
:10C970001B7B002B55D07B685B7B002B04D10F23E6
:10C98000FB1801221A7010E07B685B7B012B04D13D
:10C990000F23FB1800221A7007E07B685B7B022BD9
:10C9A00003D10F23FB1840221A707B689B7BDB1896
:10C9B000DBB202221340DAB27B68DB7B9B00DBB286
:10C9C0000C210B40DBB21343D9B20F23FB180F220B
:10C9D000BA1812780A431A707B681B7C002B07D0A8
:10C9E0000F23FB180F22BA18127820210A431A705D
:10C9F000124A7B685B69136210490F23FB182822D7
:10CA00001B788B540C4A0C49C4235B00CB5CDBB213
:10CA100002210B43D9B2C4235B00D1540120084B3F
:10CA20009847084B19001E20074B9847C046BD4643
:10CA300004B080BDFDF5001000B0004000100040C3
:10CA400081C7001015C800109DFB001080B582B092
:10CA500000AF0200FB1D1A70084AFB1D1B7819006D
:10CA60001F230B40012199400B001900C0235B00DC
:10CA7000D150C046BD4602B080BDC04600E100E0D6
:10CA800080B582B000AF78607B6800221A707B6846
:10CA900001225A707B6800229A707B680022DA704B
:10CAA000C046BD4602B080BD80B584B000AF020074
:10CAB0003960FB1D1A700F23FB1800221A70FB1D32
:10CAC0001B78002B07D0FB1D1B78012B03D0FB1D0F
:10CAD0001B780E2B04D10F23FB1817221A7008E1C4
:10CAE000FB1D1B78072B0ED8854B854A526CF91D10
:10CAF0000978072001408900072088400100C943C8
:10CB00000A405A6424E0FB1D1B780F2B0ED87C4B87
:10CB10007B4A926CF91D09780720014089000720A3
:10CB200088400100C9430A409A6411E0FB1D1B784C
:10CB3000172B0DD8724B724AD26CF91D0978072059
:10CB400001408900072088400100C9430A40DA6497
:10CB5000FB1D1B781F2B07D0FB1D1B781E2B03D042
:10CB6000FB1D1B781D2B45D13B685B78012B13D136
:10CB70006449644B1B7DDBB25BB2FA1D12781F2047
:10CB8000821A01209040020052B2D24352B21340A6
:10CB90005BB2DBB20B7510E05A495A4B1B7DDBB21E
:10CBA0005AB2FB1D1B781F20C31A012098400300B6
:10CBB0005BB213435BB2DBB20B753B68DB78002BD7
:10CBC00000D196E04F494F4B1B889BB21AB2FB1D18
:10CBD0001B781F20C31A9B000120984003001BB242
:10CBE00013431BB29BB20B80474A137802210B43BD
:10CBF00013707EE03B681B78002B51D1FB1D1B7826
:10CC00000F2B08D8414AFB1D1B78012199400B00CE
:10CC10009BB2938209E03E4AFB1D1B780F210B401B
:10CC2000012199400B009BB293823B685B78012BFA
:10CC30000ED0022B18D0002B2CD1314B304A126D64
:10CC4000F91D09780120884001000A431A6550E067
:10CC50002B4B2B4A126DF91D0978012088400100E9
:10CC6000C9430A401A6544E0254B254A526DF91D17
:10CC700009780120884001000A435A65204B204A68
:10CC8000126DF91D0978012088400100C9430A404E
:10CC90001A652EE00F23FB1817221A70C04628E0F1
:10CCA0003B681B78012B24D1FB1D1B780F2B0FD861
:10CCB0001649164B1B8A9BB21AB2FB1D1B7801202A
:10CCC000984003001BB213431BB29BB20B8210E0CF
:10CCD0000F490F4B1B8A9BB21AB2FB1D1B780F200A
:10CCE00003400120984003001BB213431BB29BB2C8
:10CCF0000B820F23FB181B781800BD4604B080BDC3
:10CD000000B0004000F0004000E0004000000140A2
:10CD10000010014080B582B000AF0200FB1D1A7008
:10CD2000BB1D0A1C1A70FB1D1B780F2B25D8BB1DC1
:10CD30001B78002B0FD02749264B9B889BB21AB239
:10CD4000FB1D1B780120984003001BB213431BB24C
:10CD50009BB28B803AE01F491E4B9B889BB21BB253
:10CD6000FA1D127801209040020012B2D24312B292
:10CD700013401BB29BB28B8028E0BB1D1B78002B9D
:10CD800011D01549144B9B889BB21AB2FB1D1B781E
:10CD90000F2003400120984003001BB213431BB235
:10CDA0009BB28B8012E00C490B4B9B889BB21BB251
:10CDB000FA1D12780F20024001209040020012B2AA
:10CDC000D24312B213401BB29BB28B80C046BD4609
:10CDD00002B080BD000001400010014090B585B058
:10CDE00000AF0200FB1D1A703B1D0A1C1A803B1D80
:10CDF0001B881B0A9AB20F23FB181A703B1D3A1DA1
:10CE00001288FF210A401A80FB1D1B78072B75D85A
:10CE1000B54BB54A526CF91D0978072001408900CD
:10CE2000072088400100C9430A405A64AE4BAE4A0D
:10CE3000526C391D0888F91D0978072421408900A2
:10CE4000884001000A435A643B1D1B88012B00D017
:10CE500045E1FB1D1B78032B25D8A349A24AD0230B
:10CE60005B00D358FA1D127803200240D2003F2005
:10CE700090400200D2431A40D0235B00CA509A4827
:10CE8000994AD0235B00D3580F22BA181178FA1DA3
:10CE9000127803242240D20091400A001A43D02382
:10CEA0005B00C2501BE1FB1D1B78072B00D916E16C
:10CEB0008D498D4AD2235B00D358FA1D1278032086
:10CEC0000240D2003F2090400200D2431A40D223B9
:10CED0005B00CA508448844AD2235B00D3580F2297
:10CEE000BA181178FA1D127803242240D20091401A
:10CEF0000A001A43D2235B00C250F0E0FB1D1B78EE
:10CF00000F2B75D8784B784A926CF91D0978072059
:10CF100001408900072088400100C9430A409A6403
:10CF2000714B714A926C391D0888F91D09780724E4
:10CF300021408900884001000A439A643B1D1B88F8
:10CF4000012B00D0CBE0FB1D1B780B2B25D86649AD
:10CF5000654AD4235B00D358FA1D1278032002409F
:10CF6000D2003F2090400200D2431A40D4235B00FD
:10CF7000CA505D485C4AD4235B00D3580F22BA18CC
:10CF80001178FA1D127803242240D20091400A0041
:10CF90001A43D4235B00C250A1E0FB1D1B780F2B6A
:10CFA00000D99CE05049504AD6235B00D358FA1D63
:10CFB000127803200240D2003F2090400200D2436A
:10CFC0001A40D6235B00CA504748474AD6235B0025
:10CFD000D3580F22BA181178FA1D12780324224070
:10CFE000D20091400A001A43D6235B00C25076E07B
:10CFF000FB1D1B78172B72D83B4B3B4AD26CF91D9B
:10D000000978072001408900072088400100C943B2
:10D010000A40DA64344B344AD26C391D0888F91D51
:10D020000978072421408900884001000A43DA6416
:10D030003B1D1B88012B52D1FB1D1B78132B25D8C0
:10D040002949294AD8235B00D358FA1D12780320B6
:10D050000240D2003F2090400200D2431A40D82321
:10D060005B00CA502048204AD8235B00D3580F22C7
:10D07000BA181178FA1D127803242240D200914088
:10D080000A001A43D8235B00C25028E0FB1D1B781E
:10D09000172B24D81449144ADA235B00D358FA1DFD
:10D0A000127803200240D2003F2090400200D24379
:10D0B0001A40DA235B00CA500B480B4ADA235B00A4
:10D0C000D3580F22BA181178FA1D1278032422407F
:10D0D000D20091400A001A43DA235B00C250C046D6
:10D0E000BD4605B090BDC04600B0004090B585B0CB
:10D0F00000AF39601100FB1D021C1A70BB1D0A1C19
:10D100001A700F23FB1800221A70FB1D1B780F2BBF
:10D1100004D80F23FB1800221A7003E00F23FB181A
:10D1200001221A70BB1D1B78042B00D911E19A0053
:10D13000A64BD3181B689F460F23FB181A78A449E7
:10D140001300DB009B18DB0059580F23FB181A78DB
:10D150009F481300DB009B18DB001B589B8D9BB284
:10D160001AB2FB1D1B780F200340012098400300DA
:10D170001BB213431BB29BB28B850F23FB181A788B
:10D1800093491300DB009B18DB0059580F23FB1851
:10D190001A788F481300DB009B18DB001B589B8E0E
:10D1A0009BB21AB2FB1D1B780F2003400120984050
:10D1B00003001BB213431BB29BB28B86C9E00F2343
:10D1C000FB181A7882491300DB009B18DB005958C2
:10D1D0000F23FB181A787E481300DB009B18DB0036
:10D1E0001B589B8D9BB21AB2FB1D1B780F2003406E
:10D1F0000120984003001BB213431BB29BB28B85E6
:10D200000F23FB181A7872491300DB009B18DB0010
:10D2100059580F23FB181A786D481300DB009B1830
:10D22000DB001B581B8E9BB21AB2FB1D1B780F2014
:10D2300003400120984003001BB213431BB29BB272
:10D240000B8686E00F23FB181A7861491300DB0078
:10D250009B18DB0059580F23FB181A785C48130001
:10D26000DB009B18DB001B581B8D9BB21AB2FB1D09
:10D270001B780F2003400120984003001BB213438A
:10D280001BB29BB20B850F23FB181A785049130071
:10D29000DB009B18DB0059580F23FB181A784C4809
:10D2A0001300DB009B18DB001B581B8E9BB21AB2CD
:10D2B000FB1D1B780F2003400120984003001BB288
:10D2C00013431BB29BB20B8643E00F23FB181A7863
:10D2D0003F491300DB009B18DB0059580F23FB1854
:10D2E0001A783B481300DB009B18DB001B581B8D92
:10D2F0009BB21AB2FB1D1B780F20034001209840FF
:10D3000003001BB213431BB29BB20B850F23FB1808
:10D310001A782F491300DB009B18DB0059580F23A4
:10D32000FB181A782A481300DB009B18DB001B58F7
:10D330009B8E9BB21AB2FB1D1B780F20034001206D
:10D34000984003001BB213431BB29BB28B8600E0D4
:10D35000C0460F23FB181A78FB1D1B780F210B40CA
:10D3600018001B491300DB009B185B001B189B0077
:10D37000CB1804333A681A600F23FB181A780F236E
:10D38000FB181978124844240B00DB005B18DB0003
:10D39000C3181B191B8819B2FB1D1B780F200340F3
:10D3A0000120984003001BB20B431BB29CB20849FA
:10D3B00044201300DB009B18DB00CB181B18221C39
:10D3C0001A80C046BD4605B090BDC04674AC011081
:10D3D000ECC2011090B585B000AF0200FB1D1A70C1
:10D3E0000F23FB1800221A70FB1D1B780F2B04D88B
:10D3F0000F23FB1800221A7003E00F23FB180122F1
:10D400001A700F23FB181A780F23FB18197822487B
:10D4100046240B00DB005B18DB00C3181B191B88BC
:10D4200019B2FB1D1B780F20034001209840030018
:10D430001BB20B431BB29CB2174946201300DB0002
:10D440009B18DB00CB181B18221C1A800F23FB181B
:10D450001A7811491300DB009B18DB0059580F2381
:10D46000FB181A780C481300DB009B18DB001B58D4
:10D470001B8C9BB21AB2FB1D1B780F2003400120AE
:10D48000984003001BB213431BB29BB20B84C046EF
:10D49000BD4605B090BDC046ECC2011090B585B048
:10D4A00000AF0200FB1D1A700F23FB1800221A7038
:10D4B000FB1D1B780F2B04D80F23FB1800221A70BA
:10D4C00003E00F23FB1801221A700F23FB181A78B0
:10D4D0000F23FB181978234846240B00DB005B1848
:10D4E000DB00C3181B191B881BB2F91D09780F201C
:10D4F000014001208840010009B2C94309B20B4034
:10D500001BB29CB2174946201300DB009B18DB00BE
:10D51000CB181B18221C1A800F23FB181A781149EC
:10D520001300DB009B18DB0059580F23FB181A78F7
:10D530000C481300DB009B18DB001B589B8C9BB234
:10D540001AB2FB1D1B780F200340012098400300F6
:10D550001BB213431BB29BB28B84C046BD4605B0C1
:10D5600090BDC046ECC2011080B582B000AF2A4B1E
:10D570001B681B8F9BB23B60FB1D00221A703DE0B5
:10D58000FB1D1B7801229A4013001A003B681340D0
:10D590002FD0214B1A68204B1B681B8F9BB219B2EE
:10D5A000FB1D1B780120984003001BB20B431BB2EC
:10D5B0009BB21387184B46229B5A1A00FB1D1B78FF
:10D5C0001A411300012213401DD0134B44229B5AD1
:10D5D0001A00FB1D1B781A4113000122134012D0C0
:10D5E000FB1D1B780C4A9B00D31804331B6898471B
:10D5F00009E0FB1D1A78FB1D01321A70FB1D1B7818
:10D600000F2BBDD900E0C0461720044B9847C046F9
:10D61000BD4602B080BDC046ECC201104DCA00102C
:10D6200080B582B000AF2D4B9B6C1B8F9BB23B60D3
:10D63000FB1D00221A7046E03A68E0231B021340EB
:10D6400002D0274B1B689847FB1D1B7801229A408C
:10D6500013001A003B68134030D0204B9A6C1F4BCC
:10D660009B6C1B8F9BB219B2FB1D1B78012098404D
:10D6700003001BB20B431BB29BB21387174B8E22C6
:10D680009B5A1A00FB1D1B781A41130001221340FC
:10D6900014D0124B8C229B5A1A00FB1D1B781A4186
:10D6A00013000122134009D0FB1D1B780B4A1233D3
:10D6B0009B00D31804331B68984708E0FB1D1A78B9
:10D6C000FB1D01321A70FB1D1B780F2BB4D91820DB
:10D6D000044B9847C046BD4602B080BDECC2011065
:10D6E00088B801104DCA001080B582B000AFFB1D94
:10D6F00000221A7038E0BB1D00221A7013E0FB1DD7
:10D700001A78BB1D187824491300DB009B185B00B6
:10D710001B189B00CB18043300221A60BB1D1A781B
:10D72000BB1D01321A70BB1D1B780F2BE7D9FB1DE7
:10D730001A78194946201300DB009B18DB00CB1830
:10D740001B1800221A80FB1D1A781349442013006D
:10D75000DB009B18DB00CB181B1800221A80FB1D76
:10D760001A78FB1D01321A70FB1D1B78012BC2D9E0
:10D77000094B0A4A1A60084B094A9A64094B190076
:10D780002720094B9847094B19002820064B98473A
:10D79000C046BD4602B080BDECC201100000014091
:10D7A0000010014069D500109DFB001021D600102B
:10D7B00080B582B000AF0200FB1D1A70064BFA1D47
:10D7C000127811001F220A40012191400A001A60BC
:10D7D000C046BD4602B080BD00E100E080B582B029
:10D7E00000AF7860C0467B6828229B5CDB07DB0FBC
:10D7F000DBB2002BF7D1C046BD4602B080BDC046AB
:10D8000080B582B000AF78607B681800044B984701
:10D810007B6800221A75C046BD4602B080BDC04676
:10D82000DDD7001080B582B000AF78607B6803223E
:10D830001A707B6810225A807B6808225A607B68C5
:10D840000922DA607B6802229A607B6802221A61F0
:10D85000C046BD4602B080BD80B584B000AF7860E0
:10D8600039607B681B68FB603B685B68DAB23B68C9
:10D870009B689BB2190010000D4B98473B68DB6812
:10D88000DAB23B681B699BB219001000084B98473D
:10D890003B681A78FB681A743B685A88FB681A83DD
:10D8A000FB6801221A77C046BD4604B080BDC04661
:10D8B000DDCD001080B584B000AFF860B9607A604B
:10D8C000FB68BA681A60FB68002B02D07B68002BEB
:10D8D00001D117235FE0FB681B681800304B9847A5
:10D8E000FB681B682F4A934203D103202E4B9847B5
:10D8F0000AE0FB681B682D4A934203D119202A4B8A
:10D90000984701E0172346E0FB6800221A74FB6881
:10D9100000225A74FB6800225A82FB6800229A8215
:10D92000FB6800225A77FB6800229A61204BFA6854
:10D930001A60FB681B681B4A934210D11D4B1900EB
:10D9400018201D4B98471B4B190019201A4B98475C
:10D9500008201A4B98470920184B984714E0FB6899
:10D960001B68124A93420FD1124B19001A20124B16
:10D970009847104B19001B200F4B98470A200F4B5C
:10D9800098470B200D4B98477A68FB6811001800E8
:10D990000B4B984700231800BD4604B080BDC0461D
:10D9A00001D8001000300040FDF5001000340040A8
:10D9B0007CC30110C9DC00109DFB0010B1D7001022
:10D9C00059D8001080B584B000AF78607B681B68C0
:10D9D000FB60FB681800054B9847FB68202200217C
:10D9E0009954C046BD4604B080BDC046DDD7001086
:10D9F00080B582B000AF0200FB1D1A70084AFB1D03
:10DA00001B7819001F230B40012199400B001900BE
:10DA1000C0235B00D150C046BD4602B080BDC046A9
:10DA200000E100E080B582B000AF7860C0467B685E
:10DA300028229B5CDB07DB0FDBB2002BF7D1C04653
:10DA4000BD4602B080BDC04680B584B000AF7860EE
:10DA50007B681B68FB607B685B8A99B27B689B8AEA
:10DA60009AB20A23FB188A1A1A807B689B8A9BB297
:10DA7000013B9AB27B689A827B689A690A23FB18F9
:10DA80001B88D318FA681279D2B21A70C046BD4604
:10DA900004B080BD80B584B000AF78607B681B683F
:10DAA000FB607B685B8A9AB27B689B8A9BB2D31AC5
:10DAB0009AB20A23FB181A807B689B8A9BB2013BAF
:10DAC0009AB27B689A827B689B690A22BA1812888C
:10DAD00092B29B181B78DBB29AB2FB681A807B6803
