:020000041000EA
:108000000D480E4970B5884202D000230C4C03E0A5
:108010000C4B0D4A002106E0CA18A242F8D2C558FE
:1080200004331560F8E7934201D202C3FBE7074B24
:108030009847074B984770BDF4F50010F4F5001011
:1080400060F6001060F60010C4110110B1E70010D6
:1080500095AA001010B5064C2378002B07D1054BCC
:10806000002B02D0044800E000BF0123237010BDA4
:1080700060F6001000000000F4F50010084B10B589
:10808000002B03D00749084800E000BF07480368F9
:10809000002B00D110BD064B002BFBD09847F9E711
:1080A0000000000064F60010F4F50010F4F5001074
:1080B00000000000074B002805D1002901D11A60FB
:1080C00006E09A6104E0002901D11A6200E09A6397
:1080D0007047C0460010004080235B42002805D155
:1080E00005490A7A1343DBB20B7204E003490A78AC
:1080F0001343DBB20B7070470010004028100040A3
:108100007F23002804D1054A117A0B40137203E043
:10811000034A11780B4013707047C04600100040AE
:1081200028100040024B002800D0024B1960704715
:108130007CF6001080F6001070B500230126134C69
:108140002168088F80B232009A400125104213D076
:10815000088F024392B20A8722000832D28F1A4156
:108160002A420CD0A21DD28F1A412A4207D09B006E
:10817000E3185B68984702E00133102BE3D18021BC
:10818000C023034A09045B00D15070BDB0FD00104C
:1081900000E100E0F7B500240127184DAB6C1E8FFD
:1081A000B6B2730B5B030193019B002B01D0144B00
:1081B00098473B00A3401E4216D0AA6C118F0B4378
:1081C0009BB213872B008E331B8823413B420BD07D
:1081D0002B008C331B8823413B4205D01234A40072
:1081E0002D196B68984702E00134102CDCD18021F6
:1081F000C023044A49045B00D150F7BDB0FD001014
:1082000051BC010000E100E0002301220370427034
:108210008370C37070470000030030B51720012B36
:1082200000D894E00E2B00D191E0072B07D89D00D9
:108230001038A840464C626C8243626416E00F2BF3
:1082400009D807221C001440A400A240404DA86C8D
:108250009043A8640AE0172B08D807221C0014409A
:10826000A400A2403A4DE86C9043E8641A001D3A1D
:10827000022A24D84C78374A1F20012C05D1157DBD
:10828000C01A84402800A04306E00125C01A85409A
:108290002800147D2043C0B21075C97800293FD052
:1082A0001F20C01A01238000834011880B43022144
:1082B0009BB21380284A13780B43137030E00A787E
:1082C000002A2FD101320F2B03D89A40234892B2B3
:1082D00004E00F2018408240214892B28282487800
:1082E000012817D000280DD002282FD10121994054
:1082F000174A0B00506D010019435165116D9943E8
:1083000011650DE0012199400B00114C226D1343C2
:1083100023651CE00E4998400A6D130083430B65EA
:10832000002014E0012AFBD10F2B06D89A400B48FD
:10833000018A0A4392B20282F2E70F2003409A4078
:10834000074C218A0A4392B22282E9E7172030BD06
:1083500000B0004000F0004000E00040000001409C
:108360000010014010B50F280BD801220E4C82409E
:10837000A388002903D01A4392B2A28012E093434B
:108380000FE00F23094C0340A288002905D00121EA
:1083900099400B0013439BB203E0012199408A43AB
:1083A0001300A38010BDC046000001400010014032
:1083B0000B0A70B5C9B2072821D807258600B54039
:1083C000304A546CAC430D00B5405464546C2C439B
:1083D0005464012955D103280CD83F25C00085409D
:1083E0008340A031FF315458AC4354505458234378
:1083F000535046E0D22464001559032132E00F287F
:1084000016D8072504002C40A400A5401D4A966CF0
:10841000AE4396640E00A6403400956C2C439464E1
:1084200001292ED10231D4240B2819D9D6241CE0DD
:10843000172826D8072504002C40A400A540114A7F
:10844000D66CAE43D6640E00A6403400D56C2C43E7
:10845000D464012915D10231DA24132805D8D8248F
:10846000640015590840884003E06400084015592D
:10847000C0003F21814083408D43155111590B436A
:10848000135170BD00B00040F0B50F248442A441E8
:1084900005006442032A44D8100048232A4A634353
:1084A00005F022F9020F1C2ED058868D0F2028408F
:1084B00007000120B84000B20643D758B6B2BE85C7
:1084C0002AE0D058868D0F20284007000120B840B0
:1084D00000B20643D758B6B2BE850BE0D058068D21
:1084E0000F20284007000120B84000B20643D758AB
:1084F000B6B23E85D258138E184380B2108610E073
:10850000D058068D0F20284007000120B84000B247
:108510000643D758B6B23E85D258938E184380B2E0
:1085200090860F231D4003336343074A5B199B006A
:10853000D318596048235C43473BAB4014190634B9
:10854000E28F1343E387F0BDB0FD00100F2301213C
:1085500083429241034099400BB2482152424A4320
:1085600010B5064CA1180831C88F1843C887115997
:108570000A8C13439BB20B8410BDC046B0FD0010A3
:10858000002110B50C0013480A1804315460002370
:1085900002004029F8D101001C000831CB87811D61
:1085A000CB87D01804330021C464402BF9D11300C9
:1085B0008E33198013008C331980074B074C1360DE
:1085C000074B084993642720A04707492820A04764
:1085D00010BDC046B0FD001000000140E18B00104E
:1085E00000100140398100109581001001280DD044
:1085F000002806D0022829D10C20154A936983430C
:1086000015E00C20124A9369034310E00820104B38
:108610009A6902439A619A690438824380209A6178
:108620000C4A00035368034353600B4A01E0936113
:108630000A4A0B4B1A600322054B986990439861D4
:1086400098690A4002439A61002000E017207047B1
:1086500000B0004000F0004080841E0080BA8C0111
:1086600040FE0010014B18687047C04640FE0010E5
:1086700000B51723352800D9EAE0764B05F034F829
:108680001B1E2126292C2F33373B3F43474B4F538B
:10869000575B5F63676B6F73777B7F8386898C8F94
:1086A0009295989B9FA3A7ABAFB3B7BBBFC3C7CBF4
:1086B000CFD3D7DDE0E3DA68022104E0DA680421F1
:1086C00001E00821DA680A43DA60C0E0DA681021C4
:1086D000F9E7DA682021F6E7DA688021F3E78021FC
:1086E000DA684900EFE78021DA680901EBE78021C9
:1086F000DA684901E7E78021DA688901E3E7802148
:10870000DA68C901DFE78021DA680902DBE7802146
:10871000DA684902D7E78021DA688902D3E7802145
:10872000DA68C902CFE78021DA680903CBE7802144
:10873000DA684903C7E78021DA688903C3E7802143
:10874000DA68C903BFE78021DA680904BBE7802142
:10875000DA684904B7E78021DA688904B3E7802141
:10876000DA68C904AFE78021DA680905ABE7802140
:10877000DA684905A7E78021DA688905A3E780213F
:10878000DA68C9059FE71A69012153E01A690221D5
:1087900050E01A6904214DE01A6908214AE01A697B
:1087A000102147E01A69202144E01A69402141E084
:1087B0001A6980213EE080211A6949003AE080214F
:1087C0001A69890036E080211A69C90032E08021E7
:1087D0001A6909012EE080211A6949012AE08021E5
:1087E0001A69890126E080211A69C90122E08021E5
:1087F0001A6909021EE080211A6949021AE08021E3
:108800001A69890216E080211A69C90212E08021E2
:108810001A6909030EE080211A6949030AE08021E0
:108820001A69890306E080211A69C90302E08021E0
:108830001A6909040A431A6109E01A7D012104E05A
:108840001A7D022101E004211A7D0A431A750023D2
:10885000180000BD00B0004000B5432800D98CE1ED
:1088600004F04CFF480055005D00650040017700B2
:108870008000AD00B600890092009B00A400BF00FC
:108880008B018B018B018B018B018B018B018B0188
:10889000FE00070110014401D1008B018B018B0107
:1088A0008B018B018B01190122012B0135018B01F9
:1088B0006D0176018B018B015001540158015C015F
:1088C0008B018B018B018B018B018B018B018B0148
:1088D00044004C00590061006E00C800DA00E3005B
:1088E000EC00F5004C01600164018201A44B022000
:1088F000596806E0A24B0420596802E00820A04B0A
:108900005968814359605A6802435A602AE19C4B76
:1089100010205968F5E79A4B20205968F1E7984BE9
:1089200040205968EDE7964B80205968E9E7944B61
:10893000944A59680A4080215A605A684900C4E044
:108940008F4B914A59680A4080215A605A688900C1
:10895000BBE08B4B8D4A59680A4080215A605A68A7
:10896000C900B2E0864B8A4A59680A4080215A60A1
:108970005A680901A9E0824B864A59680A40802159
:108980005A605A684901A0E07D4B834A59680A4001
:1089900080215A605A68890197E0794B7F4A59686B
:1089A0000A4080215A605A68C9018EE0744B7C4AA3
:1089B00059680A4080215A605A68090285E0704B64
:1089C000784A59680A4080215A605A6849027CE016
:1089D0006B4B754A59680A4080215A605A6889026F
:1089E00073E0674B714A59680A4080215A605A689F
:1089F000C9026AE0624B6E4A59680A4080215A6097
:108A00005A68090361E05E4B6A4A59680A4080214E
:108A10005A605A68490358E0594B674A59680A40F6
:108A200080215A605A6889034FE0554B634A596860
:108A30000A4080215A605A68C90346E0504B604A98
:108A400059680A4080215A605A6809043DE04C4B3D
:108A50005C4A59680A4080215A605A68490434E0E7
:108A6000474B594A59680A4080215A605A6889041C
:108A70002BE0434B554A59680A4080215A605A6896
:108A8000C90422E03E4B524A59680A4080215A608C
:108A90005A68090519E03A4B4E4A59680A40802144
:108AA0005A605A68490510E0354B4B4A59680A40EC
:108AB00080215A605A68890507E0314B474A596856
:108AC0000A4080215A605A68C9050A431DE780217F
:108AD0002B4A090653685B005B08536053680B43DD
:108AE00053603FE0264B0120198902E00220244B0D
:108AF0001989814319811A89024332E0204B0420ED
:108B00001989F6E71E4B08201989F2E71C4B102043
:108B10001989EEE71A4B20201989EAE7184B402003
:108B20001989E6E7164B80201989E2E7144B154AAC
:108B300019890A4080211A811A89490010E0104BD6
:108B4000114A19890A4080211A811A89890007E08F
:108B50000B4B0E4A19890A4080211A811A89C900D3
:108B60000A431A81002009E0054B094A19890A4085
:108B700080211A811A890901F2E7172000BDC04639
:108B800000B00040FFFEFFFFFFFDFFFFFFFBFFFF08
:108B9000FFF7FFFFFFEFFFFFFFDFFFFFFFBFFFFF5D
:108BA000FF7FFFFFFFFFFEFFFFFFFDFFFFFFFBFF5C
:108BB000FFFFF7FFFFFFEFFFFFFFDFFFFFFFBFFF3D
:108BC000FFFF7FFFFFFFFFFEFFFFFFFDFFFFFFFB3C
:108BD000FFFFFFF7FFFFFFEFFFFFFFDFFFFFFFBF1D
:108BE0008023DB04C01880000160704770B5214B02
:108BF0001C6823681D7DEDB26A0614D51E21E21C97
:108C0000D1771A7E23318A431A76A31CDA7F082390
:108C10001A4206D0621CD27F1A4202D02000236979
:108C2000984723681B7C0122154221D02368616983
:108C30001B7CDBB20B7063699B186361A38B013BE8
:108C40009BB2A383A38B9BB2002B11D1A11CC87F25
:108C5000042108420CD0A018C07F084208D0E11CB3
:108C6000CB77216820000B7E93430B76E36898470F
:108C700070BDC04644FE0010012270B5204B5C68F8
:108C800020680579EDB2154215D0A36919789B18B3
:108C9000C9B2A3610170E38B013B9BB2E383E38B19
:108CA000002B08D121680B7A93430B7210212268A4
:108CB000137A0B43137210210D4212D0A31CDA7FDA
:108CC00001231A420DD0E218D27F1A4209D00022A5
:108CD000E31CDA7722682000137A8B4313726368EF
:108CE0009847AB060BD5A31CDA7F02231A4206D0A5
:108CF000621CD27F1A4202D0A3682000984770BD40
:108D000044FE001070B5214B5C6823681D7DEDB2F8
:108D10006A0614D51E21E21CD1771A7E23318A43BC
:108D20001A76A31CDA7F08231A4206D0621CD27F6F
:108D30001A4202D020002369984723681B7C012235
:108D4000154221D0236861691B7CDBB20B7063691B
:108D50009B186361A38B013B9BB2A383A38B9BB244
:108D6000002B11D1A11CC87F042108420CD0A018EF
:108D7000C07F084208D0E11CCB77216820000B7E21
:108D800093430B76E368984770BDC04644FE0010DD
:108D9000012270B5204B1C6820680579EDB21542A0
:108DA00015D0A36919789B18C9B2A3610170E38B30
:108DB000013B9BB2E383E38B002B08D121680B7A44
:108DC00093430B7210212268137A0B431372102104
:108DD0000D4212D0A31CDA7F01231A420DD0E218F3
:108DE000D27F1A4209D00022E31CDA7722682000E1
:108DF000137A8B43137263689847AB060BD5A31C99
:108E0000DA7F02231A4206D0621CD27F1A4202D0B5
:108E1000A3682000984770BD44FE0010E1230322A0
:108E20005B0203600023C2600132037143718371EE
:108E3000C371026102330132836042618361C361A5
:108E40000362436270470000F8B5484B0400150008
:108E50000160994215D1464E0920B0470A20B0471B
:108E6000444E0920B0470A20B047434B43491020E5
:108E7000434E1C60B04743491120B047424B01228A
:108E800017E0424B994217D1394E0B20B0470C20C6
:108E9000B047384E0B20B0470C20B047364B3C490A
:108EA0001220374E5C60B0473A491320B047042285
:108EB000354B1A6092181A60EA790423002A00D10F
:108EC000023B2E00013BDBB203339B000836EF1858
:108ED000318A01CE304BC0B29847B742F8D1012158
:108EE00023681A7D0A4001D01A7CFAE70133DA7749
:108EF000EB7929795A1E9341A8795A016B79013887
:108F00000B43134303280BD804F0EEFB02040608BE
:108F1000022204E0062202E00A2200E00E221343AD
:108F200022680132D3771D4B2D68984729001C4BCE
:108F30000600984782B21000002368432D09301ABA
:108F40000133A84202D9DBB2401BF9E700202168B7
:108F50001B0728310870D2005B0F134322689BB2B5
:108F600093842368187623681872F8BD0040004087
:108F7000598800107186001044FE0010ED8B00101F
:108F8000E18B0010918D001000E100E000500040E6
:108F9000058D0010798C0010B183001065860010DB
:108FA00011D700100122036818791042FCD000206C
:108FB0001970704701220368187D1042FCD01B7C99
:108FC00000200B70704730B504001720002A0CD029
:108FD000E51CEB7FD8B2052807D00523A283012228
:108FE00000206161EB7723681A7630BD9300C318C7
:108FF0005960012393400130C27F1343C377704708
:1090000000228B00C3185A6001328A400130C37FAE
:109010009343C377704701238B4010B5821CD47FE4
:109020002343D377012904D102681F31137A0B43FC
:10903000137210BD01228A4010B5841CE37F934354
:10904000E377012904D102681F31137A8B4313722D
:1090500010BD000070B50E001400150000280ED1E0
:10906000611B7118002D06DD064B013D1868064B8B
:109070001B689847F4E7E043C017204001E0012057
:10908000404270BD54FE00104CFE0010013870B517
:109090000E0002280DD80C008D18A01BAC420AD07F
:1090A000054B21781868054B01341B689847002848
:1090B000F3DA0120404270BD54FE001050FE001053
:1090C000054B02001968002901D10449196018688C
:1090D00082181A607047C04684F60010C819011043
:1090E00001204042704780239B0100204B60704765
:1090F00001207047002070472923594310B50B4CBD
:109100004118013107222000094B98472000094BE4
:109110009847041E07D10122074B14201A70074BF1
:109120001B68984700E0E224200010BD6EFE00108E
:109130001BE80010199900108CF6001090F6001032
:10914000014B18607047C04690F60010014B186044
:109150007047C04688F600100078002800D0E22052
:109160007047C078002800D0E22070470222F0B596
:10917000944601240025DC27144B154E1A00563A5C
:109180001188028891421CD11A78052A01D0082A38
:1091900001D11C7015E0072A12D8210091400A0065
:1091A000394203D161460A420BD109E009491D70D9
:1091B0000A78002A05D00A78013AD2B20A7000E093
:1091C0001D707C33B342D9D10020F0BDEEFE0010FB
:1091D0005A010110FC00011000207047002310B557
:1091E000174A01881400563C24888C4202D1147816
:1091F000062C06D00133DBB27C32052BF2D10022E3
:1092000000E00122817800290ED1002A14D07C22AE
:1092100053430C4A0824D3181A005E321470C278E3
:109220001A7582781A7608E07C225343054AD318CF
:10923000072219765E331A70E221080010BDC0467D
:10924000EEFE001090FE0010012210B578231100F0
:10925000024C0088A047002010BDC046B9B70010DE
:10926000F0B589B005AC00900021524B09222000D6
:109270009847009B00251B884F4901937C239C46FF
:109280006046684342181689019F0B00BE420AD10E
:1092900016005E363778022F05D104373770127DFD
:1092A000D60704D413E00135052DE9D115E0009E61
:1092B000F678002E0BD0009B09181A3118883F4B06
:1092C0009847002801D1002071E0E2206FE07C2265
:1092D00055435D195E357A3A2A7000217C25009A43
:1092E0001088CAB201922A004A439A181689864207
:1092F00006D15E321678022E02D10321117003E0EE
:1093000001310529EDD101910421009A0198D2780B
:109310002170A270012278314143595C62700229A8
:1093200000D10232A271E2711022019962712271A0
:109330006C3251435A18127E0291402A2AD10D00F4
:109340000A000F26603568325D199B1803931C4F85
:10935000B84730402870B847039B3040A8740135A7
:10936000AB42F4D10025164EB0470F22029B124F9C
:109370005B19683310400135F854082DF3D1B0471C
:109380007C23019A5343FF183B007033188010234D
:109390007A373B707C22019B21005A43064B603296
:1093A000D218009B074C18880023A04789E709B012
:1093B000F0BDC0462DE8001090FE001011BD001059
:1093C00015E9001025BB0010F0B500227C2489B0FF
:1093D000029038490088230053435B181E89D5B298
:1093E000864206D15E331E78022E02D103221A7005
:1093F00003E00132052AEED115000022032105AB5E
:109400001A729A705A70DA707C326A43294819705D
:10941000825C022A02D19971D97102E001229A710B
:10942000DA7110225A711A717C236B430193019AED
:10943000204B9B181B7E402B2BD114001D4B6034FE
:109440001C1913000F261B4A6833D31803931A4FB5
:10945000B84730402070B847039B3040A0740134B7
:109460009C42F4D10024144EB0470F22019B114FAF
:109470001B19683310400134F854082CF3D1B0475D
:109480007C236B43FF183B007033188010237A371E
:109490003B707C2255432A00064B60329A18029B8F
:1094A00005A91888054C0023A047002800D0E22019
:1094B00009B0F0BD90FE001015E9001025BB0010AA
:1094C000F7B50023060001887C201D4CDAB201921A
:1094D00002005A43171900923A898A420DD13A0084
:1094E0005E321578012D08D9062313703B007033C6
:1094F0001A8873889A420ED104E00133052BE5D116
:10950000019308E0009B301DE118723108220D4BD9
:109510009847051E0AD07C23019A05215343084A27
:10952000D3181889084B9847E22008E0009B397D42
:1095300060331B1930880122044CA0472800FEBD6F
:1095400090FE0010FDE7001099B7001089BD0010D3
:1095500070B50B4C01002378132B0DD829222578E8
:10956000084B5543E818084B984723782378002088
:109570000133DBB2237002E0044B9847E22070BD58
:109580007CFB0010640101101BE80010A1B6001064
:10959000F8B500240500254B40881A00563A128879
:1095A000824202D11A78032A06D00134E4B27C3315
:1095B000052CF2D1002300E001232E79002E24D1C6
:1095C000002B01D1E2262EE07C204443184F2A785C
:1095D0003B191A752A7929001A76052238195E3343
:1095E0001A7022310B32134B363098472900381944
:1095F000323117220F4B3C19463098472000A91DE5
:109600001C220C4B1A3098470DE07C235C43084B1E
:109610001C195E342378012B04D91321064B98477B
:109620000028CFD100263000F8BDC046EEFE001065
:1096300090FE00101BE8001099B70010F0B507006D
:1096400087B004AE194D0622194903AC3000A84773
:10965000042239002000A847E37801931D1E0BD097
:10966000802362885B009A4214D117E00300303BEC
:10967000092B01D870550135062DF1D01E200D4B58
:109680009847C0B20028F1D1388813210A4B984777
:10969000E22009E00020019B834205D1A1783888AF
:1096A0003200064B9847002007B0F0BD1BE80010C1
:1096B000B8F30010A19F001099B7001055BC00101E
:1096C0000020704700207047C078002800D0E220BA
:1096D0007047000010B5CF23002804D0002902D025
:1096E000024B98470300180010BDC0463DB3001060
:1096F00030B50500101E27D00020062924D8134BB2
:109700005C5C134B8900CB5885420CD1A4001C191A
:109710009C4218D019000433181F00680028F7D1A4
:109720000A60013010E0012D0ED1A4001C19A342E3
:1097300009D019000433181F00688242F7D10023B2
:1097400001200B6000E0002030BDC04650F4001046
:1097500058F40010F0B5002491B04E4B4E4D0190DE
:10976000072221004D481C60A847122221004C48C6
:10977000A8474C4A21004C48A847CD224B4B9200A9
:1097800021004B481C70A84783224A4B92002100BD
:1097900049481C70A847494E0C2221003000A847B8
:1097A00002954025464B474F1C605C609C60DC6026
:1097B0001C61454B1C605C609C60DC601C61434B21
:1097C0001C605C609C60DC601C61414B1C60414B18
:1097D0001C60414B1C605C609C60DC601C613F4B0A
:1097E0001C60314B03933800029B5E387C220021C1
:1097F00098473B00463B3C701D70394B7C37BB4261
:10980000F1D10022374B30001A70264B7360039B56
:109810003360354B9847051E00D0FEE7334C344A81
:109820000100A047334A02212800A047324B0921FA
:109830003248984732490722063104A8314E06AC17
:10984000B047029B2622290020009847019B002B4D
:1098500004D12D4B04A8984704AB01930F23237028
:109860002A4B0722019907A86380B0470023E376BB
:1098700023776377A377E3772384638480239B0034
:10988000A3842000224B98470198224B984711B09F
:10989000F0BDC04678FB00102DE800107DFB0010E5
:1098A0003C010110E204000098F600107CFB00105F
:1098B000640101105C0101109804011050010110B5
:1098C00014010110EEFE0010280101107CFE0010B2
:1098D0006001011078FE001000010110A4060110C3
:1098E0005A010110FC00011025B40010F19600107F
:1098F00004F40010D0F30010D5960010F8F3001017
:10990000B8F300101BE8001071B30010983A000083
:1099100095B30010BDB5001010B5010086B004006D
:1099200007220C4B0C489847082203AB1A800232DE
:109930005A80063A9A8000221A815A81FA22D2006D
:10994000DA800093602301211A002000034CA04715
:1099500006B010BD1BE800107DFB0010C1B6001062
:109960001FB50022054B60211A700123019202935A
:1099700000920800024CA04704B010BD7CFB001010
:1099800011B600100300F0B589B000900291039267
:109990000833DE7F002E01D1E22056E0002306AD21
:1099A0002B701F00029B01330193009BDA19117A7F
:1099B000527A06AB19705A703A0000990A328A1826
:1099C0005A605A7803998A420DD02B780133FB18DC
:1099D000DFB22B780133DBB22B702B78F61AF6B29C
:1099E000002EE2D1D8E71C78013CE4B2002CECD088
:1099F00001235B420593029B1B78002B0AD1079839
:109A0000134B0222019998470590079B023C0233B1
:109A1000079316E0012B08D107980D4B04220199FA
:109A200098470590079B043309E0022B0AD1079859
:109A3000074B1022019998470590079B1033079315
:109A4000043CE4B205980028D0D109B0F0BDC0466E
:109A5000FDE70010002210B51100034B98470028C5
:109A600000D0E22010BDC046D1BC0010F0B5847A11
:109A700097B00500002C01D0002492E001001222D2
:109A8000494E4A48B047072229004948494B984760
:109A90000196002820D02B78022B1DD150222100C6
:109AA00002A8454B9847454A21001300103189B25E
:109AB0001E78601C02AF3E5584B201338C42F7D150
:109AC0007C32502CF0D102AA290005203C4B98474B
:109AD000041E66D0E22464E03A4B1A78042A4BD87C
:109AE00000277C237B43384A29009B1800930722D8
:109AF0001800304B9847FEB2334A002801D1009F2E
:109B000017E00137052FECD100237C210F005F43C4
:109B100038005E30105CDEB200280ED1D719019BF0
:109B20001222290038009847264A13780133DBB205
:109B3000137002235E373B7003E00133052BE5D140
:109B40001E001B4F290038001A4B072298477C2320
:109B50000100734338001C4F002904D10522FB1873
:109B60009A740F0003E00A22FB1801279A74072257
:109B70000021114B984706E000271B782889132104
:109B8000124B98473E007C235E430F4B9E19B37CDB
:109B90000A2B00D070E7002F00D16DE728890C4B0D
:109BA0009847200017B0F0BD1BE800103C010110E1
:109BB0007DFB0010FDE700102DE80010D6FE001020
:109BC000C5B70010FC00011090FE001099B70010FE
:109BD000559A0010F7B50478002C11D1431C284F7A
:109BE00001937C25654329004631C919102201984B
:109BF000244BE6B29847002833D00134052CF0D12D
:109C000000237C211E4A0C005C4320005E30105C67
:109C1000DEB2002812D114191B4B12221B4920005E
:109C200098471B4A13780133DBB2137023000222DA
:109C30005E331A700A23013AA37404E00133052B42
:109C4000E1D100221E007C235E430D4B9E19B37CA4
:109C50000A2B13D1002A11D00C4B18890D4B9847B1
:109C60000CE07819030002225E331A700A231032C6
:109C700083740649044B98470122E4E70020FEBDA7
:109C800090FE0010FDE700101BE800103C010110E1
:109C9000FC000110559A001070B500227C240A4D7A
:109CA000230053435B191E005E363678012E06D919
:109CB0001E89864203D19B7C00200B7003E0013299
:109CC000052AEDD1E22070BD90FE001037B56B463D
:109CD0000024DD1DDC712900054B9847A04204D10A
:109CE0002C78053C60424441E4B220003EBDC046B1
:109CF000999C001070B50D002C2808D8272843D255
:109D00001C2830D813281DD28400002615E03728DF
:109D100005D836283CD22D38C0B22F4B4CE03A281B
:109D200054D046D33B2844D055E01B59002B01D0DA
:109D3000280098470436142E4DD0284B9B59002BF1
:109D4000F3D1F7E700261338C4B2A400244B9B5983
:109D5000002B04D01B59002B01D028009847043653
:109D6000142EF3D137E000261D38C4B2A4001D4BD9
:109D70009B59002B04D01B59002B01D02800984779
:109D80000436142EF3D126E02738C0B2164B13E068
:109D900000263638C4B2A400144B9B59002B04D0C3
:109DA0001B59002B01D0280098470436142EF3D1FC
:109DB00011E038380E4BC0B21B68002B0BD080006E
:109DC000C358002B07D02800984704E0094B1B68B4
:109DD000002B00D0984770BD78FE001014010110D0
:109DE000280101107CFE001060010110000101102B
:109DF000A406011078FB001070B5074D074E020055
:109E000029003000064B9847041E03D13078290002
:109E1000044B9847200070BD980401105C010110AC
:109E20007DAC0010F59C001037B501AC05000A4B65
:109E30002000984700232100237063701720074BF0
:109E40009847074B9847290002221720054B98474F
:109E50001720054B984737BD098200101982001062
:109E600081850010898400104D8500100122014B6E
:109E70001A70704784FB001070B504000D002900B3
:109E80002000024B98470028F9D170BDB58F001013
:109E900070B504000D0029002000024B98470028EF
:109EA000F9D170BDA58F0010002170B50800164BC8
:109EB0009847164C164B20009847E1235B0223601D
:109EC00003220223E260A360A361E3612362636271
:109ED0000132104B104822610132186062610F4B51
:109EE0000F4A10491A60104A104B1A602200104B9A
:109EF0009847104D104C2B6800219868A0472B689C
:109F000000215868A04770BDED850010CC060110F7
:109F10001D8E001054FE0010A806011050FE001007
:109F2000919E001000400040799E00104CFE0010F1
:109F3000498E00105CF600108DE90010F7B50D4C4D
:109F40000190A047A0470C4CA0470C4D0C4A0D4B6C
:109F5000A8470600FA20019B800058430F00A04745
:109F600002000B0030003900A847074B9847074B09
:109F70001860F7BD658600106DE4001065D800100C
:109F8000C7AEFE19EFD8093F29D8001088FB001092
:109F9000024B1A68501E18607047C04688FB0010BC
:109FA00070B50024154E164B34709847154D02229B
:109FB0002C70154C15492000154B984702212000A4
:109FC000144B9847012229002000134B98473378FF
:109FD000002B0CD0114B1B68002B0DD1200002214F
:109FE0000F4B9847022120000E4B984704E00E4B80
:109FF00098470028EBD1EDE7287870BD84FB00106E
:10A000003D9F00108CFB0010A80601106D9E0010F3
:10A01000ED8F001017900010C78F001088FB001004
:10A020000190001035900010919F001010B502486B
:10A03000024B984710BDC04674F4001001E90010AF
:10A0400010B50100074C0020A04707490120A04798
:10A05000064C0020A0470120A0478022044BD201DB
:10A060001A6010BD258100102DA000100181001084
:10A0700000E100E010B5002800D101300021054BBF
:10A08000434308001A00044B98470020034B9847AD
:10A0900010BDC04680BA8C01B5800010D980001078
:10A0A00010B50020014B984710BDC046018100103B
:10A0B000024B1A68186002607047C04694FB00109B
:10A0C00030B50C4C2368002B12D01D6899602560B8
:10A0D00000240949DA800A681C609880A24201D1F4
:10A0E0000B6005E01168002901D00A00FAE713604F
:10A0F00030BDC04694FB001090FB001010B500244A
:10A10000054B1C60054B1C600548064B00190C34C0
:10A110009847782CF8D110BD94FB001090FB0010EC
:10A1200098FB0010B1A0001010B5064B064A196844
:10A1300011605A68054B1A60054B1B68002B00D054
:10A14000984710BDF40601100CB0004010B000405C
:10A15000C809011010B5114B1C68114B1B689847BA
:10A16000E30714D40F4B02201B6898470E4B1B6863
:10A1700098470E4B03201B6898470028F9D10C4BD9
:10A1800002301B68984701220A4B1A6004E00A4B10
:10A190000A4A1B681068984710BDC046ECB10040E1
:10A1A0003CFC001034FC00104CFC001020FC0010A3
:10A1B00028FC001020B000401CFC00102CFC0010FB
:10A1C00070B50F4C0F4B200032220021984701251B
:10A1D00020000023022401265A008354821851785B
:10A1E0009B192943A1435170192BF4D14378B343F0
:10A1F0004370C378B343C370437FB343437770BDA9
:10A200000C0701102DE80010064A074B11680B409F
:10A210001360064A064913600868064B03400B604A
:10A22000536070470CB00040D30FFEFFF4060110DE
:10A2300010B00040C0E7FFFFF8B5424B1A78002A83
:10A2400003D01878C0B2012879D03F4B984700243A
:10A250003E4B984780223E4B12041C603D4B3E4DC6
:10A26000DA6780225204DA673C4B3D4A2B603D4B53
:10A270003D4913603D4A3E4E11603E4A2820116818
:10A280003D4A3E4F11603E4A11683E4A11603E4AC7
:10A290003E4911603E4A3F4911603F4A3F493260A2
:10A2A0003F4A11603F4A40491160404A40491160AD
:10A2B000404A414911604149414A1160414A42497D
:10A2C0001160984741492B68282098472B684049DE
:10A2D000272098473F4B21001A683F4B3F481A60A0
:10A2E0003F4B404A1A60404B404A1A60404B414A3B
:10A2F0001A60414B414A1A60414B424A1A60424B34
:10A30000424A1A60424B434A1A60A022424B9200D2
:10A3100098478022414B92001A80414B98478023F6
:10A320001B043B6080235B043B603E4B3E4A1C6049
:10A33000336820001A600122024B1A7000E0187086
:10A34000F8BDC04624FC0010C1A1001009A20010F5
:10A3500048FC001004E100E0C0090110D70700002C
:10A3600000070110BD07000051BC0100C409011025
:10A37000D0090110BC00041018FC001000E100E03E
:10A38000B800041014FC0010FC0601109FB9010075
:10A3900004070110DBB901003C000410C01F0410C9
:10A3A00008070110CC090110C41F041034FC001070
:10A3B000E9CB010028FC00108FCD0100A3CE0100E5
:10A3C0004CFC001020FC0010CFCB010009A80010AD
:10A3D000B1A70010E40004103CFC00103E0701107F
:10A3E00050FC0010E99F01001CFC0010DDDB0100A7
:10A3F00030FC00105BDC01002CFC0010EC050410AC
:10A4000038FC0010E3D5010054FC0010200C0410AF
:10A4100010FC0010099F01002DE80010D409011064
:10A42000FDA00010C809011029A10010044B1A78E2
:10A430000523012A02D1034B18600023180070473E
:10A4400024FC001048FC001070B50D4B04001B6884
:10A45000002B02D04088984760800A4DA2882D6862
:10A46000E38861882088A847E2880500064E002A14
:10A4700003D02100054B083198472800B04770BD34
:10A4800018FC001050FC001055A100101BE8001033
:10A49000F8B51D0016000F4B0F4A04000F001B6893
:10A4A00010689847A0200D4B3A02224305211C68F2
:10A4B000C0002B00A047041E0AD0002D05D0002E9E
:10A4C00003D02A003100064B98472000054B9847DF
:10A4D000F8BDC0461CFC00102CFC001050FC001005
:10A4E0001BE8001055A100100023F0B5441E89B0F0
:10A4F0000293E31C1BD80D2200216C4B04A8984743
:10A50000192304AA1370163B53709370023313710E
:10A510009371230A14725372230C240ED4720124F3
:10A5200093720D211000624B14739847029400241B
:10A530000194604D604B614A29001B681068984780
:10A54000011E00D07BE0CD232C689B00A5889D4296
:10A5500038D023890393029B6789002B10D00D22EA
:10A56000524B04A89847192304AA1370163B537042
:10A5700093700233137193710D2110004C4B984767
:10A58000A023DB009D421DD1A0224D4D92002B88BF
:10A59000DB19934202DD80239B002B802100494B75
:10A5A0002E883A00F6180C31474B300098473A0095
:10A5B000464B3100039898472B880024FF182F80C2
:10A5C000022335E0424D2C68002C32D0CD21394E8B
:10A5D0008900326893888B4206D1029B0124002BAC
:10A5E00027D00024D02323E0364C3A4F23701B0A97
:10A5F0006370394B3C6010891B6898473368207141
:10A60000000A6071DB883868438036687389C380CC
:10A61000083038607289002A03D031002A4B0C318F
:10A62000984771892B68200008319847002403233C
:10A630000193204A294B10681B68984701E00723C3
:10A640000193002C00D074E7029B002B2BD01B4BF6
:10A650001E68002E01D1236AFFDE3700204B14371D
:10A660001B683800356A9847002D18D0CD212B681B
:10A6700089009A88AB688A420ED1184A002C05D00E
:10A68000A360280013689847A568EDE733622800A7
:10A6900013689847356AE7E72C001D00E4E7114B83
:10A6A00038001B689847019809B0F0BD2DE80010EC
:10A6B00049A4001044FC001038FC001054FC0010A9
:10A6C000D40901103E0701101BE80010C1A00010C2
:10A6D00048FC001040FC001014FC001010FC00109E
:10A6E00030FC00101CFC0010802010B5114B000243
:10A6F0001C68114B1B689847E30714D40F4B0220CA
:10A700001B6898470E4B1B6898470E4B03201B682D
:10A7100098470028F9D10C4B02301B68984701225A
:10A720000A4B1A6004E00A4B0A4A1B6810689847F3
:10A73000082010BDECB10040FC06011034FC0010F4
:10A740004CFC001020FC001028FC001020B0004041
:10A750001CFC00102CFC0010124A1349138F108DA2
:10A760009BB2084380B21085DB05DB0D0BD0DBB25A
:10A77000584203400020012B03D001305B08C0B2D7
:10A78000F9E7834001E0138F0B439BB21387138FCC
:10A79000DB05DB0DE8D18021044A81334900FF331A
:10A7A000D1507047001001400080FFFF00E100E041
:10A7B000124A1349138F108D9BB2084380B2108543
:10A7C000DB05DB0D0BD0DBB2584203400020012B30
:10A7D00003D001305B08C0B2F9E7834001E0138F7A
:10A7E0000B439BB21387138FDB05DB0DE8D1802170
:10A7F000044A8133FF33D1507047C0460000014006
:10A800000080FFFF00E100E010B50B4C238F5B0BD5
:10A810000FD00A4B1B689847238F228F5B0B5B037B
:10A82000134323878021C023054A49005B00D15090
:10A8300001E0044B984710BD00100140C40901100D
:10A8400000E100E059A700100322024B00201A701B
:10A850007047C046D6090110002070470622014B00
:10A860001A707047D609011070B5054D054C28784F
:10A870000121A04728780021A047002070BDC046D4
:10A88000F4F500106583001070B5054D054C28786F
:10A890000121A04728780021A047002070BDC046B4
:10A8A000F4F500106583001010B5064B0400008914
:10A8B0009847E223002803D00222034B1A70A37AA0
:10A8C000180010BDCD9C001059FC0010F0B50025FB
:10A8D000484B95B01C78484B0FAEE4B21D70142263
:10A8E00029003000454B9847AC427DD029002922F1
:10A8F0004348CBB2A34209D217004F43C75D012F93
:10A9000002D86F1C7355FDB20131F2E70024A54255
:10A910005AD018220AAB9A70153A5A703949063241
:10A92000394E07A81C70B0470822384905A8B0471F
:10A9300001940094E3B202930FABE05C29235843E7
:10A940000200010000262E4B27310832D218CB1806
:10A95000039301213300002908D01778BC4607AFC4
:10A96000FF5CBC4512D1072B0DD809E0002E0DD09D
:10A970001778BC4605AFFF5CBC4507D1062B0AD84B
:10A980000133DBB202E0002101260B00039F0132FC
:10A99000BA42E0D103E0029B019301230093184BDC
:10A9A0000322C0180AA91A4B9847002807D1124A57
:10A9B0001378591C11706946164A097AD15401342A
:10A9C000E3B29D42B6D801E001950095124B98473D
:10A9D000009B002B06D0019A0FAB995C08480F4BE7
:10A9E000984705E0002D02D002220D4B1A70E2209C
:10A9F00015B0F0BD7CFB001094F600102DE800109F
:10AA000064010110D4F400101BE80010DEF4001003
:10AA100085990010D7090110A1B60010F990001017
:10AA2000D60901100522054B10B51A70002302212A
:10AA30001A001720024CA04710BDC046D6090110CD
:10AA400091A400100020704700207047002070473C
:10AA500000207047002070470020704710B5054A5D
:10AA6000054B0121984703005A1E9341E2205B42A7
:10AA7000184010BDFFFF00000DB8001010B5034BCB
:10AA8000408898470322024B1A7010BD5DAA00103F
:10AA900059FC0010F7B500240126224B01AD1C70B3
:10AAA000214B9847214B9847214B98472148224BEF
:10AAB00098472800214B9847214F2900214B38788F
:10AAC0002E709847204B38781978204BC9B2984798
:10AAD0001F48204B9847204B2000984721001F4DCE
:10AAE0001F4A2000A84731001E4A2000A84702251F
:10AAF0001D4EB0471D481E4B98471E481E4B984799
:10AB0000084C01201D4B4042984720780338042808
:10AB1000F7D802F0E9FD040403040400B0472570EF
:10AB2000EFE7C046D609011039A20010E9A60010CF
:10AB3000A99E001025AA0010299E0010098200106D
:10AB4000F4F500101982001058FC00106583001005
:10AB50005DA8001041A0001055970010F19600105C
:10AB600088F40010E8F400106199001075A000103E
:10AB700041910010A1A000104D910010F99D00100E
:10AB800070B50C4D2C68002C13D02668E2602E6046
:10AB90000025094A238113682560A080E180AB422B
:10ABA00001D1146005E01A68002A01D0131CFAE7ED
:10ABB0001C6070BD00FD0010FCFC0010084B002262
:10ABC000191C10B51868074B9C18D0501032201C67
:10ABD000A02AF8D1002290330B60034B1A6010BDFD
:10ABE00000FD00105CFC0010FCFC001038B51B4C94
:10ABF000031C2588081C211C9D4207D1A58885427D
:10AC000004D101235B422380A26009E04C889C426E
:10AC10000AD18C88844207D101235B424B808A6031
:10AC20000F4B9847012017E00E498B420ED00E497A
:10AC30008B4207D00D4900208B420DD1101C0C4BCC
:10AC40009847EFE7111C0B4B002202E0111C002279
:10AC5000094B98474342584138BDC046EC090110A2
:10AC600095BE0010130E0000150E0000010E00002E
:10AC700005C20010C5C300109DC400100023F0B52C
:10AC800085B002920370029B0190013B0D1C03935F
:10AC9000033302D80298AD4B9847039BAC4F002476
:10ACA000033312D83B68002B12D1D02C00D19CE288
:10ACB0000298A84B9847041E022CF3D125E0029875
:10ACC000A44B9847041E022C1FD03B68002BF6D0E3
:10ACD000D02C00D189E2E31E5A1E934138685B42B2
:10ACE0001C40002800D186E20368C1683B609A4F8F
:10ACF000C2883E68838806603860002C12D197486D
:10AD0000834208D0964883421DD13A230024019AF9
:10AD1000251C137006E09A4200D068E23823019A9D
:10AD200013702960019B1B783B2B03D0039B0333DB
:10AD300003D964E2002CB0D0F8E7D02C00D15EE259
:10AD4000884B98475BE2BB2A23D1BB2B21D1AC8037
:10AD50008B784A781B02CF78087913434A79824965
:10AD6000AF702B808B4206D8804A93420BD2804A28
:10AD7000934208D009E07F498B4206D11302034376
:10AD8000AB80372302E0362300E00023019A1370E2
:10AD9000C8E77948834200D14CE164D877488342C0
:10ADA00000D1CDE12FD87648834200D1D6E113D827
:10ADB0007448834200D19FE104D83824A34200D1D3
:10ADC0000FE2B6E07048834200D19BE1FE30FF30D5
:10ADD000834200D1C8E1ACE06C48834200D1A3E1DA
:10ADE00008D86B48834200D192E16A48834200D17F
:10ADF00094E19EE06848834200D19BE1674883422A
:10AE000000D1C5E195E06648834200D1BAE112D88D
:10AE10006448834200D1C1E104D86348834200D131
:10AE200092E186E06148834200D1A1E1604883421B
:10AE300000D1A3E17DE05F4A934200D17FE008D8D2
:10AE4000083A934277D05C4A3924934200D1C8E152
:10AE50006FE0D1221201934200D1DFE0574A9342C2
:10AE600000D1E1E065E05648834200D118E12ED8D8
:10AE70005448834200D13BE112D85348834200D169
:10AE8000EEE004D80338834200D1D9E051E04F48C6
:10AE9000834200D1D8E04E48834200D1FBE048E035
:10AEA0004C48834200D1E1E008D84B48834200D1AE
:10AEB0001AE14A48834200D1DDE03AE04848834243
:10AEC00000D1DCE04748834200D1DEE031E0464873
:10AED000834200D1F6E016D84448834200D1F7E01F
:10AEE00008D84348834200D1E0E04248834200D181
:10AEF000B0E01EE0404A934200D1DDE03F4A934279
:10AF000000D1EBE015E03E48834200D158E108D87B
:10AF10003C48834200D147E13B48834200D149E1AC
:10AF200007E03A48834200D150E13948834200D1DA
:10AF300052E1002455E1081C364B291C7DE0081C19
:10AF4000354B291C984704244BE1C046CDBE001068
:10AF5000FCFC0010E9A4001000FD0010FFFF000041
:10AF6000FEFF0000CFBE00101E2000001D200000CC
:10AF7000030C00001F2000001C0D00000C0C000042
:10AF8000020C0000020A0000030A0000060C000088
:10AF9000040C0000050C0000070C0000090C000068
:10AFA000170C0000120C00000D0C0000130C000028
:10AFB000150C0000080D0000010D0000150D00002B
:10AFC0001B0E00000F0E0000030E0000060E000016
:10AFD0000A0E0000150E0000110E0000130E0000F6
:10AFE000170E0000190E0000270E0000210E0000B1
:10AFF0001C0E00001D0E0000220E0000250E000099
:10B00000051B0000011B0000031B0000061B0000C5
:10B01000081B0000F9CC0010DDCC0010081C794B97
:10B02000291C98470124DCE0081C774B291C984711
:10B030000F24D6E0081C291C744B9847041CD0E050
:10B04000101C734B2A1C14E0101C724B2A1C9847CE
:10B050001124C6E0101C704B2A1C98471224C0E033
:10B06000081C6E4B291C98470624BAE0101C2A1CA9
:10B070006B4B9847E2E7101C6A4B2A1CF9E7101C3F
:10B08000694B2A1C98470D24ABE0101C674B2A1C07
:10B0900098470E24A5E0101C654B2A1C984775E0C4
:10B0A000101C644B2A1C98470B249AE0101C624B1E
:10B0B0002A1C9847102494E0081C604B291C9847D0
:10B0C00028248EE0081C5E4B291C9847292488E020
:10B0D000081C5C4B291C9847272482E0081C5A4B0B
:10B0E000291C98472A247CE0101C584B2A1CC0E7D6
:10B0F000101C574B2A1CBCE7081C564B291C9847B0
:10B100002B246EE0081C544B291C98472C2468E023
:10B11000101C524B2A1C9847132462E0101C504B01
:10B120002A1C984714245CE0101C4E4B2A1C98479C
:10B13000152456E0101C4C4B2A1C9847162450E04E
:10B14000101C4A4B2A1C94E7101C484B2A1C984799
:10B15000A988041C464B2888984742E0101C454BA0
:10B160002A1C984723243CE0101C434B2A1C80E7F0
:10B17000120A081C2A80291C404B5EE7101C404B19
:10B180002A1C76E7081C3F4B291C98473B2428E0E3
:10B19000101C3D4B2A1C9847182422E0101C3B4BE6
:10B1A0002A1C984720241CE0101C394B2A1C984765
:10B1B000332416E0101C374B2A1C9847302410E02B
:10B1C000101C354B2A1C984734240AE0101C334BC2
:10B1D0002A1C9847352404E0101C314B2A1C984740
:10B1E0003224019B1C7000249CE5D0249AE5BB2AE4
:10B1F00000D09EE6F5E7002C00D093E599E6201CF0
:10B2000005B0F0BDF1CE0010FDD0001021D100102E
:10B2100071C00010F1C800106DC9001029C30010E2
:10B22000C5C300109DC4001025C70010C5C700107D
:10B230007DC80010A5C80010BBC8001085C900104B
:10B24000B3C90010C9C90010F3C9001021C800100B
:10B250004BC80010C9BA0010F5BA001059D300103D
:10B2600095D30010DDD3001021D4001055D4001068
:10B2700019D3001021D50010A9D4001021BA001054
:10B280008DBA001051BA001031D5001071D50010E0
:10B29000BDD60010C7D60010CDD60010D3D60010F2
:10B2A000DFD60010F7B50E4900240B680F1C1E1CDA
:10B2B0000C4A15680192002B0ED09A8819688242B8
:10B2C00007D1002C01D0216000E00E1C1D601D1C68
:10B2D000231C1C1C0B1CEEE7019B3E601D60F7BD90
:10B2E000FCFC001000FD0010F7B5124A0090136836
:10B2F00011481F1C0021844604680192002B14D0C1
:10B30000D888009A1D68060A96420BD1FD26064091
:10B310000C2E07D1002901D00D6000E02F1C1C600D
:10B320001C1C0B1C191C2B1CE8E7019B1F606346AF
:10B330001C60F7BDFCFC001000FD001030B5CF23F1
:10B34000002810D04A1E1F2A0DD8084A131CAA3301
:10B35000198000231C1CC55CAC3401331555DCB2CC
:10B360008C42F7D30023181C30BDC0468A0A011056
:10B3700010B5041CCF20002C06D0044BCE38211C65
:10B380009847034B1B79237010BDC0468DCB00102E
:10B390008A0A0110F0B5067989B0CF25032E38D876
:10B3A000037811350F2B34D88023878C113D9B00F7
:10B3B0009F422ED8C57F837FAD015B011D43C37EB5
:10B3C0001D43437F1B011D43037F9B001D43124B05
:10B3D000EDB21E710379023B012B01D802230371E8
:10B3E000041C231C0B336188079323790078009396
:10B3F0000195258C621D0295658C079B039504972A
:10B40000064DA8472671051C211C03482622044B23
:10B410009847281C09B0F0BD8A0A011085CA00109F
:10B420001BE80010F0B587B003AF4D49041C0B2298
:10B430004C4B381C984705224B4B1A8000234B4A33
:10B4400013604B4A13704B4A13704B4B98474B4B4E
:10B4500098474B4B98474B4B9847002C09D0206896
:10B46000002806D06168002901D1E22675E0464B2C
:10B470009847464B98470128F7D84548454B984789
:10B480000028F2D1444B9847444B98476B46012221
:10B49000DC1C201C01A95242414B9847002802D1D4
:10B4A0002378392BF2D13F4B9847061E55D1031C08
:10B4B00001213D4A49429A1812335181902BF7D10C
:10B4C0003A4C813B23703A4B3A4A63800023237104
:10B4D0000133581E19010143023311700132212B2F
:10B4E000F7D1E033FF33A384231C002573331D7091
:10B4F000231C72331D70231C76331D70231CCC3328
:10B500001D80221CA023D0325B001380221CCE326F
:10B510001380231CD2331D80FA22231C5200D43303
:10B520001A80231CD6331D70201C234BE57625770B
:10B530006577A577E577258465849847231C0722DE
:10B5400074331A70231C0432AA331A802B1C7A5DC0
:10B55000AC330135E2540B2DF8D1301C07B0F0BDEF
:10B5600010F500101BE80010F8090110A4FD0010F0
:10B570000CFD0010F5F5001081D5001001B8001089
:10B58000A5B80010BDBA0010D9B8001039A200103B
:10B59000BDBD00102DA4001055BE0010BDAB0010A5
:10B5A0007DAC001015CA0010FA0901108A0A0110BA
:10B5B000983A0000950A011095B3001038B5451C63
:10B5C000031CCF20002D18D01A78032A15D8012A81
:10B5D00002D15A78002A10D01C1C291C0622074BC5
:10B5E00007489847237807480371074B9847237803
:10B5F000002B02D1281C054B984738BD1BE80010D2
:10B600008F0A01108A0A011095B30010D1BE0010F4
:10B61000F0B58DB0061C12A8077813A80078079023
:10B6200014A800780890CF20022F2ED8B1422CD831
:10B63000012B2AD80C1F164DA4B2AC4225D8341FBA
:10B64000A4B2AC4221D8079C002C01D0022F1CD1FF
:10B650001C1C104B0D1C099298470F4B011C5A885B
:10B66000079B604260410393089B02970493642305
:10B67000099F04AC5F434B3BBFB211301B190096CE
:10B6800001950597054CA04700200DB0F0BDC046C0
:10B69000FC3F000041CE00108A0A011059CE001074
:10B6A00010B5054B9847041E03D1D120034B000170
:10B6B0009847201C10BDC0466DCC0010A5B20010EC
:10B6C000F0B591B00D932D4B0A900B910C92169CF6
:10B6D00098474B2507284DD86388294A063B9BB2DB
:10B6E0008435934246D82388063B9BB2934241D887
:10B6F000E388244A0A3B9BB293423BD8F423A288B6
:10B70000FF339A4236D80EAF1F4B0120391C9847A1
:10B710001E4E051C33793B7000282AD11C4B9847DC
:10B7200075363378011C013B012B01D9022333709C
:10B73000164B1A1C753210785A880C9B12300093E5
:10B740000D9BC0B201932388029363880393A3885F
:10B750000493E388059323890693638904AC0793D4
:10B760000B9B08930A9B099329231B19094CA0479B
:10B7700000E0E225281C11B0F0BDC04649C0001011
:10B780007A0C0000760C00008DCB00108A0A0110A4
:10B7900041CE001079CF001038B5041C044B081CB2
:10B7A000211C9847051C034B201C9847281C38BDBA
:10B7B000E5C20010E9B2001010B5014CA04710BD61
:10B7C000D5C7001010B5CF2300280AD0002908D013
:10B7D000002A06D00C78022C03D1034B0131984784
:10B7E0000023181C10BDC04695D00010831EDBB28C
:10B7F00003200E2B01D8014AD05C70471BF50010C6
:10B800000022014B1A80704704FD001037B5CF2489
:10B8100000290AD08A4208D30024131C01900A1C74
:10B8200000940220211C024DA847201C3EBDC046AA
:10B8300089D2001070B5051C00240C4B19680C4B04
:10B840001E688C4210DC0C206318DA0FD318021C1F
:10B850005B105A43B0180288AA4201D2591EF0E781
:10B86000AA4202D95C1CECE7002070BD18FD001054
:10B8700010FD001037B5094B051C081C0C1C98471F
:10B88000002809D08268002A06D08388291C0092EB
:10B89000201C0022024CA0473EBDC04635B8001017
:10B8A00091D100100023064A1370064A1360064A1D
:10B8B0001360064A1360064A1360064A1360704715
:10B8C0000CFD00101CFD001018FD001008FD0010FC
:10B8D00014FD001010FD00100A4B0B4A18604B08B5
:10B8E00013600A4AC3181360094A411813600323FE
:10B8F000002203319943074B04391960064B1A6043
:10B900007047C04620FD00101CFD001008FD00100F
:10B9100014FD001010FD001018FD001070B50B4B49
:10B92000061C0C1C151C9847002808D080680028AD
:10B9300005D0211C2A1C064B9847002004E0301C2F
:10B94000291C221C034B984770BDC04635B8001017
:10B950001BE8001095D5001070B50C4B061C0C1C94
:10B96000151C984700280BD08368002B08D08388CB
:10B970002B8082888168064B201C9847002004E0B9
:10B98000301C291C221C034B984770BD35B8001091
:10B990001BE8001021D60010F0B585B0041C019101
:10B9A000002928D14388271C0093181C164B984760
:10B9B0000837002809D08068002806D0A388E288CC
:10B9C000C018391C114B984715E002AB9E1D00238F
:10B9D0000F4D33802968321C0E4B009898472B6816
:10B9E000A088E2881818391C084B9847608832886C
:10B9F0002968094B984760882188019A074B984726
:10BA0000002005B0F0BDC04635B800101BE800109E
:10BA1000F8F5001059B900101DB90010FDD1001043
:10BA200038B50C1C074B98476588074B281C98476E
:10BA300083782620DB0704D42088291C034B9847F1
:10BA40003B2038BD41D1001035B8001075B800104A
:10BA500038B50D1C0A4B141C98472D88094B281C1F
:10BA60009847220A031C084C91B2002803D0828810
:10BA70000023281C01E0281C0122A0473B2038BDE0
:10BA800085D1001035B8001041D2001010B5141C3B
:10BA9000074B9847074B60889847022381782220FC
:10BAA000194003D1201C044B98471F2010BDC046ED
:10BAB0004DD1001035B8001099B900100A22014B81
:10BAC0001A707047F5F5001010B502780A70837887
:10BAD00044781B0223434B800379C0781B02034345
:10BAE0008B80002A03D1024A13780133137010BDF2
:10BAF000F5F5001008B5031C4278007812020243E5
:10BB00000A80DA789878120202434A805A791879C2
:10BB1000120202438A80881D991D014B984708BD77
:10BB20001BE80010F0B50C1C1F218BB0079302AB73
:10BB3000C9180F230B70404B051C161C9847071C97
:10BB40000120072F75D8002C13D112235F433B4BE4
:10BB5000FB5C834201D0CF206BE0049500940194FC
:10BB600002940394201C211C221C231C344DA84742
:10BB70005EE02279062AEED96379102BEBD89A423F
:10BB8000E9D8237A042BE6D8A379072BE3D8E37905
:10BB9000072BE0D8A378002B06D0002EDBD0294855
:10BBA000311C1C22284B9847079B002B05D02748A7
:10BBB000191C9A301022244B98476378A2789B0076
:10BBC0001343122257431D4ADBB2BA5C002A16D136
:10BBD000A079420702D5079A002ABCD0C20701D536
:10BBE000002EB8D066792178E27800960190E0794D
:10BBF0000290207A164C0390281CA04718E0012AD6
:10BC0000A9D1E079420702D5079A002AA3D0C2073A
:10BC100001D5002E9FD066792178E2780096A6792A
:10BC200002900196207A04950390054C0120A047CC
:10BC300000200BB0F0BDC0460DC00010FA09011085
:10BC40007DC50010080B01101BE800108A0A0110C6
:10BC50005DC30010F0B585B0051C0C1C161C00213E
:10BC600068461022184B98470121002E01D1311C43
:10BC70006E46002C16D10127231C701D013E027850
:10BC80000138303A7A439B180A225743B042F6D122
:10BC90006A46684613701A0A42701A0C1B0E8270AC
:10BCA000C37009E0CF20012C0CD100236846F25C60
:10BCB000C2540133102BF9D104206A462B1C034CCB
:10BCC000A047002005B0F0BD2DE80010F9C5001018
:10BCD00070B50C4B0E1C0021051C141C9847012349
:10BCE00007280DD811335843074BC25CE023012AC3
:10BCF00006D1B1000C43054BE1B2281C9847002344
:10BD0000181C70BD0DC00010FA09011049C60010C2
:10BD1000F7B5CF2300292BD0052A29D801273D1CB0
:10BD200033249540254223D08C7E073C092C1FD814
:10BD3000104B0C1C0021151C061C98473B1C0728A7
:10BD400016D8122358430C4BC75CE023002F0FD1A9
:10BD5000211C1C22094B0A489847231CA17E228AD9
:10BD6000123300910195211C301C064CA0473B1C4E
:10BD7000181CFEBD0DC00010FA0901101BE80010D0
:10BD8000080B011089C6001073B5CF24002B11D009
:10BD9000002A0AD005290DD8012533268D403542C9
:10BDA00008D09D7E073D092D04D89C7E0094024C4E
:10BDB000A0470024201C76BD45C70010F7B5C588F4
:10BDC00007888688002D0CD1194B381C311C2A1C81
:10BDD0009847031E2AD1381C311C1A1C154CA04749
:10BDE00024E09622144C920023885B19934201DDD3
:10BDF00000232380011C114A238808319B180193DA
:10BE0000181C2A1C0E4B9847381C311C019A084BF1
:10BE1000984700280AD1094B2288311CD218381CB7
:10BE20002B1C044EB0472388ED182580F7BDC04673
:10BE3000EDAB001081AB0010640B0110680F011016
:10BE40001BE8001008B5024B9847002008BDC0460B
:10BE500049A40010802210B50021084C9200084827
:10BE6000A0479622002192000648A0470022064BD8
:10BE70001A80064A064B1A6010BDC0462DE8001015
:10BE8000680D0110680F0110640B0110680B0110A0
:10BE9000F8F500100122014B1A60704724FD0010D4
:10BEA00010B5041C074B1A68012A03D0064B00206A
:10BEB0009847F7E71968012902D100221A6000E0CB
:10BEC000227010BD24FD0010E9A4001070477047D7
:10BED000F7B56B46DE1D002333700F23134C032789
:10BEE00023700023E370124B011C1A881B882271F7
:10BEF0001B0A062263710F480F4B6770A7709847A3
:10BF00000E4D0F4B0E212B800623A3710023201C06
:10BF1000E3710C4BAF809847301C0B4B984733783C
:10BF2000E220002B01D1AB681878FEBD680D01102E
:10BF3000F8090110700D01101BE80010EC09011048
:10BF40002903000045BE0010A1BE001038B50B2328
:10BF5000274C2370033363702933A370254BE170A2
:10BF60001A881B8822711B0A637100232072637276
:10BF700001282BD098421BD002282FD11E4B122112
:10BF80001A1CCE321288A272120AE2721A1CD03225
:10BF900012882273120A62731A1CD2321288D433A6
:10BFA000A273120AE2731B8823741B0A637416E0DF
:10BFB000114B1249AA331D8811482B0AA572E3724E
:10BFC0002A1C104B0C359847A9B208E00A4B0C21EB
:10BFD000CC331B88A3721B0AE37200E00A210B1CFE
:10BFE000083BA3711B12E371201C074B984738BD17
:10BFF000680D0110F80901108A0A0110360B0110B2
:10C00000740D01101BE8001045BE00100C4B70B5FC
:10C01000041C08209C4211D0002312225A43094DCF
:10C02000D8B256197689A64204D1002906D0535DAC
:10C030000B7003E00133082BEFD1181C70BDC04614
:10C04000FFFF0000FA090110002312225A4306499B
:10C05000D8B252185189054A914203D00133082BB6
:10C06000F3D1181C7047C046FA090110FFFF000009
:10C07000F7B50B78051C581E4E780F285AD8141C9B
:10C0800001F032FB0A4458584444584B2D122508FD
:10C090005858393E3B204EE03B20002E4BD02D0A15
:10C0A00015809670353846E06B46DF1D01232D0A5A
:10C0B0003B70281C391C204B9847072803D83B7835
:10C0C0003B20002B37D065802671092033E03B20D0
:10C0D000002E30D02D0A158096702D382BE03B2095
:10C0E000002E28D000232D0A158096709380D380CF
:10C0F000138134381FE03B20002E1CD0167203E061
:10C100003B20002E17D01671123814E03B20002E71
:10C1100011D09370D6702A380DE03B20002E0AD043
:10C120002D0A16705580101D00210522034B9847DB
:10C13000122000E00020FEBD0DC000102DE8001010
:10C14000F0B585B01D1C0AAB1B78019202930BABB6
:10C150001B78071C03930CAB1A8802230E1C234C7C
:10C16000391C23700C336370A370214BE2701A8862
:10C170001B8822711B0A1F4F10221F486371B8478A
:10C18000330A267663760199330C1022360E1B484B
:10C19000A376E676B847231C2C331D70231C2A0A8D
:10C1A0002D331A70231C2A0C2E331A70231C2D0ECB
:10C1B0002F336A461D70231C127A30331A70231CE9
:10C1C000002531336A461D70231C127B32331A70EE
:10C1D000231C33331D702C23201CA3713421084BE6
:10C1E000E5719847281C05B0F0BDC046680D0110E8
:10C1F000F80901101BE80010700D0110840D0110EA
:10C2000045BE0010F0B545780378304C2D021D4333
:10C21000A585C37882788BB01B021A436B460592C2
:10C220009B8A2021E385437902791B021A436B46DE
:10C2300006921B8B061C2386C37982791B021A4344
:10C240006B4607926A469B8B52186386437A011CA1
:10C250000893231C1278773378341A700A31062237
:10C260001B4B201C9847337C09931A4B98471A4E56
:10C27000071E072F1BD812234343F0184581694638
:10C280002425491909780622F15420216B465B18B0
:10C290001B78211C43706B469B8A023043816B469E
:10C2A0001B8B83816B469B8BC381094B9847122163
:10C2B00000234F4300930193F6197189074A0291B5
:10C2C000101C191C064CA0470BB0F0BD8A0A0110C7
:10C2D0001BE8001049C00010FA0901108EFD001083
:10C2E00041C10010042210B50C4B00241A700A3210
:10C2F0005A709A700A4AD970118812881971120AF4
:10C300005A7101221A72921858729A71DC71181CB3
:10C310000A21044B9847201C10BDC046680D01102F
:10C32000F809011045BE0010021C08B543780078DA
:10C330001B021843088093788B700021054B9847A7
:10C34000072806D812235843034B181801235B42D1
:10C35000438108BD0DC00010FA090110F7B5009324
:10C360001223041C08A8077809A806780AA80578EB
:10C370000BA800780190104803700E23C4700F4C76
:10C38000437083702388248803716B461B78240ACA
:10C39000C3726B461B794471C373082383710023F6
:10C3A0000A244172C3711021054B077346738573CC
:10C3B000047282729847F7BD680D0110F8090110E8
:10C3C00045BE0010F8B50E78031CB01E05285DD8D8
:10C3D000151C0C1C01F088F90D035A2F4047092049
:10C3E000002A54D01B0A53808B78294813710021EE
:10C3F0001CE00920002A4AD0254C1B0A53808B7868
:10C400000027101C211C1370224E17712E31172289
:10C410003230B047281C211C10221E312230B04778
:10C42000A11CA81D1C22B047201C391C46221A4BF7
:10C43000984709202BE0164D0231281C1022154E7A
:10C440002E30B047281C211C3F3012310622B04745
:10C45000237E3E352B7019E00D48023110220D4B22
:10C460001E30984712E00A4D02311022094EA81CD6
:10C47000B047281C211CE37CA27C1B021343143010
:10C48000143108226B82B047237F2B770020F8BD40
:10C4900048FD00101BE800102DE8001070B50C7866
:10C4A000031C4978072C5CD8201C01F01DF9045AA4
:10C4B0005A5A0B5A1F1F0A20002A53D01B0A1380F6
:10C4C00091704FE0002A0BD01B0A1380002902D183
:10C4D0000123937004E000239370022902D1D370EA
:10C4E0000C203FE00129FBD1D170F9E714221E484E
:10C4F0001B0AC3701D4B0270063A427082701A8884
:10C500001B881B4E1B0A4371012302710472437284
:10C51000051C311C0A30072C16D17E311022154C17
:10C52000A047331C311C281C8E331B889031AB76FE
:10C5300008221B0A1C30EB76A047311C98310A7880
:10C540006B1DDA77252104E09A311022094B9847B8
:10C550001A210B1C0024083BAB71281C064BEC7104
:10C560009847002070BDC046680D0110F809011001
:10C570008A0A01101BE8001045BE0010F0B585B016
:10C58000071C0AA806780BA805780CA800781424C4
:10C5900002900DA80078019303900EA800888446AD
:10C5A00012480470063C447084706446C470104C99
:10C5B00047722388248803716B461B79240A03730E
:10C5C0006B461B7A4471C3736B461B7B0124037457
:10C5D00009238371002304728172C27246738573CA
:10C5E000C3711121034B984705B0F0BD680D0110D0
:10C5F000F809011045BE001038B514250D4CE37044
:10C600000D4B2570063D6570A5701D881B88207236
:10C610001B0A63716172094B111C094810222571B4
:10C6200098471223A3710023201CE3711A21054BA4
:10C63000984738BD680D0110F80901101BE800107B
:10C64000720D011045BE00101A2208B50B4B1A706E
:10C650000C3A5A709A700A4AD87010881288187169
:10C66000120A5A710C221A720A3A9A7100225972ED
:10C67000DA71181C0A21034B984708BD680D011098
:10C68000F809011045BE0010F0B5002589B00693E9
:10C690000EAB1B78171C07930FAB1B78194A061CAF
:10C6A000059100930290291C2B1C0195101C164C1F
:10C6B000A0471623154C05992370083B6370A3709F
:10C6C000134BE6701A881B8822711B0A63710B23B7
:10C6D000104E1022104823726572B0473B0A06992B
:10C6E00008220E48E376A776B0476A46127F631D9C
:10C6F000DA771D23201CA3712521094BE57198478A
:10C7000009B0F0BD28FD001041C10010680D0110F6
:10C71000F80901101BE80010720D0110840D0110C2
:10C7200045BE001008B5000A10804B7808781B023F
:10C7300003435380101D02310822014B984708BD66
:10C740001BE80010F0B5002587B004930CAB1B78F4
:10C75000171C154A061C059300910290291C2B1CDE
:10C760000195101C114CA0471823114C04992370FB
:10C770000A3B6370A3700F4B0F481A881B88227105
:10C780001B0A637110220D4BE670277298476B46A7
:10C790001B7D201C637612231A21A371084BE571BF
:10C7A000984707B0F0BDC04638FD001041C10010E9
:10C7B000680D0110F8090110710D01101BE800103F
:10C7C00045BE00100B78000AD370002310809370D0
:10C7D0007047000038B51024051C0E480470023C58
:10C7E000447084700C4CC57025882488C3721B0A61
:10C7F000240A037305234471002401724272837179
:10C80000120A0D21054B05718272C4719847201CD4
:10C8100038BDC046680D0110F809011045BE001072
:10C820000023000A108093704B7808781B020343A2
:10C830009380CB7888781B020343D3804B790979A6
:10C840001B020B43072013817047000A10804B78AE
:10C8500008781B0203435380CB7888781B0203437C
:10C8600093804B7908791B020343D380CB79897974
:10C870001B020B43082013817047000008B50B1CF6
:10C88000010A118018789070002804D1034BAA3354
:10C890001B88002B01D0024B984708BD8A0A011063
:10C8A0004DBF0010000A108009780123081C890878
:10C8B00018400B40D07013717047000A10804B78FD
:10C8C00018028B781B04034308780343C8780006DA
:10C8D000034353604B7918028B791B040343087997
:10C8E000C979034309060B43002093607047000099
:10C8F00010B5000A1080087890708B784C781B0275
:10C9000023439380012827D0002817D002282AD15A
:10C910000B79C8781B02034313818B7948791B027A
:10C920000343D3800B7AC8791B02034393818B7A2C
:10C93000497A1B020B435381062313E0141C201C6D
:10C940000A79CB7812021A43E280074B083005318E
:10C9500098470223A37006E00B79C9781B020B43AA
:10C96000D3800523937010BD1BE8001008B5002389
:10C97000000A13705080024B101D0522984708BD15
:10C980001BE80010437802781B0213430B80C37826
:10C9900082781B0213434B80437902791B021343B5
:10C9A0008B80C37982791B021343CB8000230B72E7
:10C9B0007047437802781B0213430B80C378827858
:10C9C0001B0213434B807047437802781B021343CA
:10C9D0000B80C37882781B0213434B804379027922
:10C9E0001B0213438B80C37982791B021343CB80D4
:10C9F0007047437802781B0213430B80C378827818
:10CA00001B0213434B80437902791B0213438B8033
:10CA10007047000073B56B46154916480C880988A5
:10CA2000DD1D090A002302224171D0260121047173
:10CA3000114C2B700270C3700B3201728171C37183
:10CA400008310E4B360142708270A28026809847D2
:10CA5000281C0B4B98472B78E220002B06D1A368AB
:10CA6000E2201A785B78012A00D1181C76BDC046F6
:10CA7000F8090110680D0110EC09011045BE001005
:10CA8000A1BE0010F0B589B003930EAB1B78374CF4
:10CA900004930FAB1B780D27059310AB1B88A17275
:10CAA000009311AB1B88090A019312AB1B886072BB
:10CAB000029306ABDE1D0023337004232370002392
:10CAC000E3702B4BE1721D881B88111C1B0A6371DC
:10CAD000032325710622274D274823726770A7700C
:10CAE000A847039910222548A8476A46127CE31CF0
:10CAF000DA776A46127D231DDA776A461278631D5B
:10CB0000DA77009BA21D1B0AD3776A461279E31DD0
:10CB1000DA77221C019B08321B0AD3776A46231C52
:10CB2000127A28331A70221C029B29321B0A1370B6
:10CB3000D023134D1B012B802223A37100232A2114
:10CB4000E371201C0F4BAF809847301C0E4B984769
:10CB50003378E220002B06D1AB68E2201A785B78AC
:10CB6000032A00D1181C09B0F0BDC046680D0110A1
:10CB7000F80901101BE80010740D01107A0D011066
:10CB8000EC09011045BE0010A1BE001084466346AA
:10CB9000F0B585B00091CF20012B54D8002952D098
:10CBA00000222A4902AB0C8809889F1D9A71284BE4
:10CBB000090A0D250626597161461E705D709D702B
:10CBC000DA701C7101293ED1D021224C090161800B
:10CBD0002149DA71218061461E729971181C092160
:10CBE0001E4BA5809847381C1D4B98473B78E22088
:10CBF0000193002B27D121881A4AA768013B914253
:10CC000001D023801AE06380009B391C581C321C21
:10CC1000154B9847BB79009A1370D0231B012380D2
:10CC200002ABA580DD1D6B461B79281C2B700C4BBD
:10CC300098472B78D020002B05D1A7683B787878CF
:10CC4000062B00D0E22005B0F0BDC046F809011067
:10CC5000680D0110EC090110080D000045BE001020
:10CC6000A1BE0010FFFF00001BE8001037B51649F9
:10CC700016480C8809886B46090A41710221032273
:10CC80000172D021DD1D00230471114C02700901D5
:10CC90000A322B7042708270C3702180A280C371EF
:10CCA0000C3A09210B4B82719847281C0A4B984774
:10CCB0002878002801D0E22004E0A3685B78442BA8
:10CCC00000D0181C3EBDC046F8090110680D0110C7
:10CCD000EC09011045BE0010A1BE001038B5051CBE
:10CCE0000C1C481C0622291C024B9847AB790020DB
:10CCF000237038BD1BE80010F7B5037845780C3B6E
:10CD0000181E0B2800D98DE00C1C00F0EDFC521908
:10CD100019198B060659598B8B0D0023452D00D010
:10CD20002B1C237002207EE03B20002D00D17AE0F6
:10CD30000D70481C102200213B4B98470F2072E0D9
:10CD4000002D34D1394B9847431EDBB2281C062BEB
:10CD500069D86B46364ED91DB08D364B9847122395
:10CD60005843354909180B1C4A89083322814F78EA
:10CD7000A57227708A89601CA281DB880231E38159
:10CD8000CB89062223822D4B9847002F0AD0A37906
:10CD90003F22191C01359143C02903D05B06DB0FEC
:10CDA0000235ED1A01235B422570B38538E00D7022
:10CDB00004E00023452D00D02B1C2370032032E01B
:10CDC0001B4E0021B08D1B4B9847072818D8012314
:10CDD0005B42B38513335843174909180B1C4A8922
:10CDE000083322814A78A57222708A89601CA28148
:10CDF000DB880231E381CB89062223820F4B9847DF
:10CE00000022237893420AD0A3793F32191C914320
:10CE10003E3AC02903D05B06DB0F0232D21A2270E1
:10CE2000052000E00020FEBD2DE8001049C00010E4
:10CE30008A0A01100DC00010FA0901101BE8001049
:10CE4000044B01201B79022B03D0033B584258416D
:10CE5000400070478A0A0110F0B585B00AAB1E8801
:10CE60000BAB1D880CAB1B781E4F01930DAB1B78D1
:10CE7000009102930EAB1B78398803930FAB1C888B
:10CE8000194B0F221971694609781A70597269464F
:10CE90000979023A197469465A709A7000223F88DB
:10CEA000097A1E739D733F0A360A2D0ADA709A7248
:10CEB000DA725F7118725E73DD7359746946097BAB
:10CEC0009C759974A521240A197559759539DA74D8
:10CED000DC759971DA71181C0831044B984705B05C
:10CEE000F0BDC046F8090110680D011045BE0010E4
:10CEF000F7B54378051C01936B460C1C1B7906782B
:10CF000006224B70881C1B4FA91CB847201C291CEB
:10CF10002A7A0830C27709312835B8472B785AB2B7
:10CF2000002A01DA0133DBB2221C283213700022FE
:10CF3000019B93420AD0E3793F32191C91433E3A58
:10CF4000C02903D05B06DB0F0232D21A6270042EB6
:10CF50000FD8301C00F0C8FB030507090B000023A5
:10CF600006E0012304E0022302E0032300E005239E
:10CF70002370F7BD1BE80010F0B589B00FAA128826
:10CF80000791944610AA128808A9029211AA128841
:10CF90003B4E039212AA12883A4C049213AA1288AA
:10CFA0000EAB059214AA12881B88069215AA178840
:10CFB00019225218D27F31880192112221716946BB
:10CFC0002270043A6270A27000223688097F360A05
:10CFD000179D6671E27020726172A272E272237311
:10CFE0001B0A63736346A37363461B0AE3736B46B2
:10CFF0001B7A07262374029BA7761B0A63746B4671
:10D000001B7BA374039B1B0AE3746B461B7C237579
:10D01000049B1B0A63756B461B7DA375059B1B0A4E
:10D02000E3756B461B7E2376069B1B0A63763B0AE1
:10D03000E3766B461B79144F2377019B5E43AE1951
:10D04000B5420FD0691C381C0622104B98470022AD
:10D0500002212B780735013BDBB299425241BA716C
:10D060000737EDE70721019B201C59431D310B1C9D
:10D07000083BA3711B12E371054B984709B0F0BD43
:10D08000F8090110680D0110850D01101BE8001052
:10D0900045BE0010F8B51423124C171C2370073B33
:10D0A0006370A3700023E3700F4B051C1A881B8864
:10D0B0000E4E1B0A637117232D0122716072062226
:10D0C0000B482372B047391C2A1C0A48B047291C58
:10D0D00010310B1C083BA3711B12E371201C064B83
:10D0E0009847F8BD680D0110F80901101BE8001001
:10D0F000720D0110780D011045BE001070B5041CB2
:10D10000081C0D1C054E211C06221130B047681C5E
:10D11000A11D1022B04700232B7070BD1BE800102A
:10D1200010B543780279447900781B0203431B2B26
:10D1300004D100230B70230213434B803B2010BD0E
:10D14000437802781B0213434B80704708B5131CC9
:10D15000000A10804A780878120202435A80CA787E
:10D160008878120202439A804A79087912020243AF
:10D17000DA800833181C0631014B984708BDC046B9
:10D180001BE80010437802781B0213430B807047A2
:10D1900038B514251C1C144BD97014491D70083D5A
:10D1A0005D709D700D8809881872090A5971000A0E
:10D1B000210A1D7158729C72D9721A731D1C002CA1
:10D1C00007D00499221C0A480A4B0D349847A1B293
:10D1D00001E00E215C730B1C083BAB711B12EB7161
:10D1E000281C054B984738BD680D0110F80901103F
:10D1F000750D01101BE8001045BE00100D4B10B559
:10D200009A72032216249A710022D9700A491C705E
:10D210000A3C5C709C700C8809881872090A000A24
:10D220001C7159715872DA71181C0B21034B984705
:10D2300010BDC046680D0110F809011045BE001070
:10D2400038B50E4C182523730523A3710023E17014
:10D250000B4925700C3D6570A5700D8809882072FA
:10D26000090A000A61716072A272E371120A201C3D
:10D270000D21044B2571E272984738BD680D0110ED
:10D28000F809011045BE0010F8B5032606AC0D1CC8
:10D2900002CC27881A4C267009366670A670194E83
:10D2A000E770378836882771360A66712072002940
:10D2B00002D10220607200E06572134E2273308842
:10D2C000120A070AA072A37301301B0AE7723080AA
:10D2D0006273E373002903D121746174123105E094
:10D2E0000A482A1C0A4B9847291C10310B1C083B82
:10D2F000A3711B12E371201C064B9847F8BDC04672
:10D30000680D0110F80901109EFD0010780D011044
:10D310001BE8001045BE00100E2208B50B4B1A701A
:10D32000023A5A709A700A4AD87010881288197294
:10D33000120A5A7102229A710022090A187159724E
:10D34000DA71181C0A21034B984708BD680D0110BB
:10D35000F809011045BE001070B5151C000A1080B8
:10D360004B780A781B0213436B80CB788A781B02B8
:10D370001343AB800E79054B301C0C1C9847321CB4
:10D38000A871611DE81D024B984770BDEDB70010F4
:10D390001BE8001070B5151C000A10804B780A7845
:10D3A0001B0213436B80CB788A781B021343AB803C
:10D3B0004B790A791B021343EB808E79054B301CA5
:10D3C0000C1C98472872281C321CE11D024B0930A6
:10D3D000984770BDEDB700101BE8001070B5151C24
:10D3E000000A10804B780A781B0213436B80CB78BD
:10D3F0008A781B021343AB800B790C1CAB714E79FE
:10D40000054B301C9847E871281C321CA11D034BAA
:10D410000830984770BDC046EDB700101BE80010FB
:10D4200070B5151C000A10804B780A781B02134354
:10D430006B808E78054B301C0C1C9847321C287171
:10D44000E11C681D024B984770BDC046EDB7001047
:10D450001BE8001010B50C78131C122C0ED1000A1A
:10D4600010808A789A7048790C790002204398805D
:10D470000631981D0B4B98471B2210E00022132CFD
:10D480000DD1000A18808A789A700879CC78000249
:10D49000204398800631981D024B98471C22101C8F
:10D4A00010BDC0461BE8001000B5000A10800878C7
:10D4B00090704B780138D37013282CD800F014F9F1
:10D4C0000C0A0A0A0A0A0A2121211F111111112B23
:10D4D0002B13192917201FE02420002B1CD11730F3
:10D4E0001AE0252018E00D4A1D201368013B136047
:10D4F00012E00A4A1E201368013B13600CE0192059
:10D500000AE03B20002B07D08221890053542338A6
:10D5100002E0212000E0002000BDC046A4FD001074
:10D52000000A10804B7809781B020B435380704728
:10D53000000A08B51080131C822200209200985423
:10D540004A780878120202435A80CA788878120210
:10D550000243DA804A790879120202439A8008333A
:10D56000181C0631014B984708BDC0461BE8001047
:10D57000000A10804B7809781B020B4353807047D8
:10D580000023024A1380024A138070479EFD001058
:10D59000A0FD0010F7B56B46DE1D00230D1C0C210D
:10D5A0000B27174C3370E370164B217019881B88BA
:10D5B00020721B0A6371000A2B0A21716072111C10
:10D5C000A5722A1CE3720C350F4B10486770A770C8
:10D5D0009847A9B20E4B0F4D201C2B800B1C083B0B
:10D5E000A3711B12E3710C4BAF809847301C0B4B9F
:10D5F00098473378E220002B01D1AB689878FEBDC4
:10D60000680D0110F80901101BE80010740D0110DD
:10D610000D0B0000EC09011045BE0010A1BE00106A
:10D62000F0B585B001920A22041C1D4802ABDE1D34
:10D63000027000230B221B4D0F1C29882D880171BD
:10D640002D0A4571250A45721749184D33704270ED
:10D650008270C3702980AA80C371093A0A21144BD1
:10D66000827104729847301C124B98473378E2203D
:10D67000002B12D1A96801984D780B78CA782D0239
:10D680001D438B7812021A433A800E790A4B0531FA
:10D690009847E220AC4200D1301C05B0F0BDC04636
:10D6A000680D0110F80901100B0B0000EC090110C6
:10D6B00045BE0010A1BE00101BE800100B781370CF
:10D6C0004B78537070470B78137070470B7813705A
:10D6D0007047CB7889781B020B43138070470B7817
:10D6E00013704B785370704702B471464908490073
:10D6F000095C49008E4402BC7047C04603B47146C1
:10D70000490840004900095A49008E4403BC70474B
:10D71000002243088B4274D303098B425FD3030A70
:10D720008B4244D3030B8B4228D3030C8B420DD383
:10D73000FF22090212BA030C8B4202D31212090211
:10D7400065D0030B8B4219D300E0090AC30B8B424F
:10D7500001D3CB03C01A5241830B8B4201D38B03FD
:10D76000C01A5241430B8B4201D34B03C01A5241A2
:10D77000030B8B4201D30B03C01A5241C30A8B42E5
:10D7800001D3CB02C01A5241830A8B4201D38B02D0
:10D79000C01A5241430A8B4201D34B02C01A524174
:10D7A000030A8B4201D30B02C01A5241CDD2C309E6
:10D7B0008B4201D3CB01C01A524183098B4201D362
:10D7C0008B01C01A524143098B4201D34B01C01A4D
:10D7D000524103098B4201D30B01C01A5241C308C5
:10D7E0008B4201D3CB00C01A524183088B4201D334
:10D7F0008B00C01A524143088B4201D34B00C01A20
:10D800005241411A00D20146524110467047FFE78B
:10D8100001B5002000F006F802BDC0460029F7D08F
:10D8200076E770477047C04670B500220C4B040085
:10D830000D0000F087FE002804D12000290000F030
:10D84000DFFD70BD064B00222000290000F084FAA5
:10D8500000F0D6FD80231B069C466044F1E7C046DD
:10D860000000E041F0B55F4656464D464446F0B4F0
:10D870000D0399464E002B0B87B007009246804659
:10D880009B46760DCC0F002E69D06D4B9E4235D055
:10D890005B468022DD001204430F13432B439B465B
:10D8A000C3009846674B00279C46002366440193BB
:10D8B0004A4615035000D20F53462D0B400D91469A
:10D8C00000D176E05E4A90426CD080225B0F120459
:10D8D00013435C4AED0094461D4353460022DB008F
:10D8E000604449463618701C6140029017430F2F60
:10D8F00000D9AFE05448BF00C759BF465B461F433D
:10D9000000D088E000239B46984602330827019305
:10D91000CEE74946022A6AD0032A00D109E2012A49
:10D9200000D0BBE111400022002300259046CCB27C
:10D9300000212D030A0D12052D0B1543434A1B052B
:10D9400015401D436D00E4076D082543404629003E
:10D9500007B03CBC90469946A246AB46F0BD034397
:10D9600052D05B46002B00D18AE1584600F0F4FD0E
:10D9700003000B3B1C2B00DD7BE11D22D31A3A0078
:10D9800001005D46DA4008398D4013008F402B437B
:10D990009B46B8462E4B00279C46002360444642D7
:10D9A000019385E752462A432CD100250023022209
:10D9B00097E752462A4321D0002D00D154E1280098
:10D9C00000F0CAFD03000B3B1C2B00DD46E11D21CE
:10D9D000CB1A51460200D9405346083A954093402D
:10D9E0000D431B4A944660444042002279E70124DB
:10D9F00000220C40124B0025904699E70025002399
:10DA000001226EE703226CE700239B469846013310
:10DA1000042701934CE703230C27019348E70023D5
:10DA20008025984600242D03054B81E75D4643463B
:10DA3000019A6FE75D4643462100019A6AE7C046B6
:10DA4000FF07000001FCFFFF2CF50010FFFF0F8017
:10DA5000F30300004246120C91461A0C94464246CB
:10DA600017044A461B041B0C5A43604690464A461C
:10DA700042431000039262461C003F0C7A437C43F1
:10DA800042440192220C9246019A5244904506D992
:10DA90008246802040028046C24450460390100CCB
:10DAA000049048462404240C1204121905922A0CEE
:10DAB0002D042D0C68432C00824648467C4350437D
:10DAC0008146200C8046574357444744BA4503D902
:10DAD000802040028046C144380C3F04B846484488
